{
  "contractName": "RetraitCol",
  "abi": [
    {
      "inputs": [
        {
          "internalType": "uint256",
          "name": "",
          "type": "uint256"
        }
      ],
      "name": "operationTankR",
      "outputs": [
        {
          "internalType": "uint256",
          "name": "idOpTank",
          "type": "uint256"
        },
        {
          "internalType": "int256",
          "name": "qteInsereTank",
          "type": "int256"
        },
        {
          "internalType": "string",
          "name": "date",
          "type": "string"
        },
        {
          "components": [
            {
              "internalType": "uint256",
              "name": "idOperation",
              "type": "uint256"
            },
            {
              "internalType": "uint256",
              "name": "poidsLait",
              "type": "uint256"
            },
            {
              "internalType": "string",
              "name": "dateOperation",
              "type": "string"
            },
            {
              "internalType": "string",
              "name": "typeOp",
              "type": "string"
            },
            {
              "internalType": "uint256",
              "name": "code",
              "type": "uint256"
            },
            {
              "internalType": "uint256[]",
              "name": "codeRemplissage",
              "type": "uint256[]"
            },
            {
              "components": [
                {
                  "internalType": "uint256",
                  "name": "idChef",
                  "type": "uint256"
                },
                {
                  "internalType": "string",
                  "name": "nom",
                  "type": "string"
                },
                {
                  "internalType": "string",
                  "name": "prenom",
                  "type": "string"
                },
                {
                  "internalType": "string",
                  "name": "email",
                  "type": "string"
                },
                {
                  "internalType": "string",
                  "name": "adress",
                  "type": "string"
                },
                {
                  "internalType": "uint256",
                  "name": "tel",
                  "type": "uint256"
                },
                {
                  "internalType": "uint256",
                  "name": "cin",
                  "type": "uint256"
                },
                {
                  "internalType": "string",
                  "name": "username",
                  "type": "string"
                },
                {
                  "internalType": "string",
                  "name": "password",
                  "type": "string"
                }
              ],
              "internalType": "struct Remplissage.Chef",
              "name": "chef",
              "type": "tuple"
            },
            {
              "components": [
                {
                  "internalType": "uint256",
                  "name": "idUsine",
                  "type": "uint256"
                },
                {
                  "internalType": "string",
                  "name": "nomUsine",
                  "type": "string"
                },
                {
                  "internalType": "string",
                  "name": "adresse",
                  "type": "string"
                }
              ],
              "internalType": "struct Remplissage.Usine",
              "name": "usine",
              "type": "tuple"
            }
          ],
          "internalType": "struct Remplissage.Operation01",
          "name": "operation",
          "type": "tuple"
        },
        {
          "components": [
            {
              "internalType": "uint256",
              "name": "idTank",
              "type": "uint256"
            },
            {
              "internalType": "string",
              "name": "matricule",
              "type": "string"
            },
            {
              "internalType": "uint256",
              "name": "poidVide",
              "type": "uint256"
            },
            {
              "internalType": "uint256",
              "name": "poidActuel",
              "type": "uint256"
            },
            {
              "internalType": "string",
              "name": "etat",
              "type": "string"
            },
            {
              "internalType": "uint256[]",
              "name": "codeTank",
              "type": "uint256[]"
            }
          ],
          "internalType": "struct Remplissage.Tank",
          "name": "tank",
          "type": "tuple"
        }
      ],
      "stateMutability": "view",
      "type": "function",
      "constant": true
    },
    {
      "inputs": [
        {
          "internalType": "uint256",
          "name": "",
          "type": "uint256"
        }
      ],
      "name": "operationagrs",
      "outputs": [
        {
          "internalType": "uint256",
          "name": "idOperation",
          "type": "uint256"
        },
        {
          "internalType": "uint256",
          "name": "poidsLait",
          "type": "uint256"
        },
        {
          "internalType": "string",
          "name": "dateOperation",
          "type": "string"
        },
        {
          "internalType": "string",
          "name": "typeOp",
          "type": "string"
        },
        {
          "internalType": "uint256",
          "name": "code",
          "type": "uint256"
        },
        {
          "components": [
            {
              "internalType": "uint256",
              "name": "idCollecteur",
              "type": "uint256"
            },
            {
              "internalType": "string",
              "name": "nomCollecteur",
              "type": "string"
            },
            {
              "internalType": "string",
              "name": "adresse",
              "type": "string"
            },
            {
              "internalType": "uint256",
              "name": "tel",
              "type": "uint256"
            }
          ],
          "internalType": "struct Remplissage.Collecteur",
          "name": "collecteur",
          "type": "tuple"
        },
        {
          "components": [
            {
              "internalType": "uint256",
              "name": "idAgriculteur",
              "type": "uint256"
            },
            {
              "internalType": "string",
              "name": "nom",
              "type": "string"
            },
            {
              "internalType": "string",
              "name": "prenom",
              "type": "string"
            },
            {
              "internalType": "string",
              "name": "username",
              "type": "string"
            },
            {
              "internalType": "string",
              "name": "password",
              "type": "string"
            }
          ],
          "internalType": "struct Remplissage.Agriculteur",
          "name": "agriculteur",
          "type": "tuple"
        }
      ],
      "stateMutability": "view",
      "type": "function",
      "constant": true
    },
    {
      "inputs": [
        {
          "components": [
            {
              "internalType": "uint256",
              "name": "idOpTank",
              "type": "uint256"
            },
            {
              "internalType": "int256",
              "name": "qteInsereTank",
              "type": "int256"
            },
            {
              "internalType": "string",
              "name": "date",
              "type": "string"
            },
            {
              "components": [
                {
                  "internalType": "uint256",
                  "name": "idOperation",
                  "type": "uint256"
                },
                {
                  "internalType": "uint256",
                  "name": "poidsLait",
                  "type": "uint256"
                },
                {
                  "internalType": "string",
                  "name": "dateOperation",
                  "type": "string"
                },
                {
                  "internalType": "string",
                  "name": "typeOp",
                  "type": "string"
                },
                {
                  "internalType": "uint256",
                  "name": "code",
                  "type": "uint256"
                },
                {
                  "internalType": "uint256[]",
                  "name": "codeRemplissage",
                  "type": "uint256[]"
                },
                {
                  "components": [
                    {
                      "internalType": "uint256",
                      "name": "idChef",
                      "type": "uint256"
                    },
                    {
                      "internalType": "string",
                      "name": "nom",
                      "type": "string"
                    },
                    {
                      "internalType": "string",
                      "name": "prenom",
                      "type": "string"
                    },
                    {
                      "internalType": "string",
                      "name": "email",
                      "type": "string"
                    },
                    {
                      "internalType": "string",
                      "name": "adress",
                      "type": "string"
                    },
                    {
                      "internalType": "uint256",
                      "name": "tel",
                      "type": "uint256"
                    },
                    {
                      "internalType": "uint256",
                      "name": "cin",
                      "type": "uint256"
                    },
                    {
                      "internalType": "string",
                      "name": "username",
                      "type": "string"
                    },
                    {
                      "internalType": "string",
                      "name": "password",
                      "type": "string"
                    }
                  ],
                  "internalType": "struct Remplissage.Chef",
                  "name": "chef",
                  "type": "tuple"
                },
                {
                  "components": [
                    {
                      "internalType": "uint256",
                      "name": "idUsine",
                      "type": "uint256"
                    },
                    {
                      "internalType": "string",
                      "name": "nomUsine",
                      "type": "string"
                    },
                    {
                      "internalType": "string",
                      "name": "adresse",
                      "type": "string"
                    }
                  ],
                  "internalType": "struct Remplissage.Usine",
                  "name": "usine",
                  "type": "tuple"
                }
              ],
              "internalType": "struct Remplissage.Operation01",
              "name": "operation",
              "type": "tuple"
            },
            {
              "components": [
                {
                  "internalType": "uint256",
                  "name": "idTank",
                  "type": "uint256"
                },
                {
                  "internalType": "string",
                  "name": "matricule",
                  "type": "string"
                },
                {
                  "internalType": "uint256",
                  "name": "poidVide",
                  "type": "uint256"
                },
                {
                  "internalType": "uint256",
                  "name": "poidActuel",
                  "type": "uint256"
                },
                {
                  "internalType": "string",
                  "name": "etat",
                  "type": "string"
                },
                {
                  "internalType": "uint256[]",
                  "name": "codeTank",
                  "type": "uint256[]"
                }
              ],
              "internalType": "struct Remplissage.Tank",
              "name": "tank",
              "type": "tuple"
            }
          ],
          "internalType": "struct Remplissage.OperationTank0[]",
          "name": "operationTank",
          "type": "tuple[]"
        },
        {
          "internalType": "uint256",
          "name": "count",
          "type": "uint256"
        }
      ],
      "name": "RetraitOperationTank",
      "outputs": [
        {
          "components": [
            {
              "internalType": "uint256",
              "name": "idOpTank",
              "type": "uint256"
            },
            {
              "internalType": "int256",
              "name": "qteInsereTank",
              "type": "int256"
            },
            {
              "internalType": "string",
              "name": "date",
              "type": "string"
            },
            {
              "components": [
                {
                  "internalType": "uint256",
                  "name": "idOperation",
                  "type": "uint256"
                },
                {
                  "internalType": "uint256",
                  "name": "poidsLait",
                  "type": "uint256"
                },
                {
                  "internalType": "string",
                  "name": "dateOperation",
                  "type": "string"
                },
                {
                  "internalType": "string",
                  "name": "typeOp",
                  "type": "string"
                },
                {
                  "internalType": "uint256",
                  "name": "code",
                  "type": "uint256"
                },
                {
                  "internalType": "uint256[]",
                  "name": "codeRemplissage",
                  "type": "uint256[]"
                },
                {
                  "components": [
                    {
                      "internalType": "uint256",
                      "name": "idChef",
                      "type": "uint256"
                    },
                    {
                      "internalType": "string",
                      "name": "nom",
                      "type": "string"
                    },
                    {
                      "internalType": "string",
                      "name": "prenom",
                      "type": "string"
                    },
                    {
                      "internalType": "string",
                      "name": "email",
                      "type": "string"
                    },
                    {
                      "internalType": "string",
                      "name": "adress",
                      "type": "string"
                    },
                    {
                      "internalType": "uint256",
                      "name": "tel",
                      "type": "uint256"
                    },
                    {
                      "internalType": "uint256",
                      "name": "cin",
                      "type": "uint256"
                    },
                    {
                      "internalType": "string",
                      "name": "username",
                      "type": "string"
                    },
                    {
                      "internalType": "string",
                      "name": "password",
                      "type": "string"
                    }
                  ],
                  "internalType": "struct Remplissage.Chef",
                  "name": "chef",
                  "type": "tuple"
                },
                {
                  "components": [
                    {
                      "internalType": "uint256",
                      "name": "idUsine",
                      "type": "uint256"
                    },
                    {
                      "internalType": "string",
                      "name": "nomUsine",
                      "type": "string"
                    },
                    {
                      "internalType": "string",
                      "name": "adresse",
                      "type": "string"
                    }
                  ],
                  "internalType": "struct Remplissage.Usine",
                  "name": "usine",
                  "type": "tuple"
                }
              ],
              "internalType": "struct Remplissage.Operation01",
              "name": "operation",
              "type": "tuple"
            },
            {
              "components": [
                {
                  "internalType": "uint256",
                  "name": "idTank",
                  "type": "uint256"
                },
                {
                  "internalType": "string",
                  "name": "matricule",
                  "type": "string"
                },
                {
                  "internalType": "uint256",
                  "name": "poidVide",
                  "type": "uint256"
                },
                {
                  "internalType": "uint256",
                  "name": "poidActuel",
                  "type": "uint256"
                },
                {
                  "internalType": "string",
                  "name": "etat",
                  "type": "string"
                },
                {
                  "internalType": "uint256[]",
                  "name": "codeTank",
                  "type": "uint256[]"
                }
              ],
              "internalType": "struct Remplissage.Tank",
              "name": "tank",
              "type": "tuple"
            }
          ],
          "internalType": "struct Remplissage.OperationTank0[]",
          "name": "tt0",
          "type": "tuple[]"
        }
      ],
      "stateMutability": "nonpayable",
      "type": "function"
    },
    {
      "inputs": [],
      "name": "getOperationTanks",
      "outputs": [
        {
          "components": [
            {
              "internalType": "uint256",
              "name": "idOpTank",
              "type": "uint256"
            },
            {
              "internalType": "int256",
              "name": "qteInsereTank",
              "type": "int256"
            },
            {
              "internalType": "string",
              "name": "date",
              "type": "string"
            },
            {
              "components": [
                {
                  "internalType": "uint256",
                  "name": "idOperation",
                  "type": "uint256"
                },
                {
                  "internalType": "uint256",
                  "name": "poidsLait",
                  "type": "uint256"
                },
                {
                  "internalType": "string",
                  "name": "dateOperation",
                  "type": "string"
                },
                {
                  "internalType": "string",
                  "name": "typeOp",
                  "type": "string"
                },
                {
                  "internalType": "uint256",
                  "name": "code",
                  "type": "uint256"
                },
                {
                  "internalType": "uint256[]",
                  "name": "codeRemplissage",
                  "type": "uint256[]"
                },
                {
                  "components": [
                    {
                      "internalType": "uint256",
                      "name": "idChef",
                      "type": "uint256"
                    },
                    {
                      "internalType": "string",
                      "name": "nom",
                      "type": "string"
                    },
                    {
                      "internalType": "string",
                      "name": "prenom",
                      "type": "string"
                    },
                    {
                      "internalType": "string",
                      "name": "email",
                      "type": "string"
                    },
                    {
                      "internalType": "string",
                      "name": "adress",
                      "type": "string"
                    },
                    {
                      "internalType": "uint256",
                      "name": "tel",
                      "type": "uint256"
                    },
                    {
                      "internalType": "uint256",
                      "name": "cin",
                      "type": "uint256"
                    },
                    {
                      "internalType": "string",
                      "name": "username",
                      "type": "string"
                    },
                    {
                      "internalType": "string",
                      "name": "password",
                      "type": "string"
                    }
                  ],
                  "internalType": "struct Remplissage.Chef",
                  "name": "chef",
                  "type": "tuple"
                },
                {
                  "components": [
                    {
                      "internalType": "uint256",
                      "name": "idUsine",
                      "type": "uint256"
                    },
                    {
                      "internalType": "string",
                      "name": "nomUsine",
                      "type": "string"
                    },
                    {
                      "internalType": "string",
                      "name": "adresse",
                      "type": "string"
                    }
                  ],
                  "internalType": "struct Remplissage.Usine",
                  "name": "usine",
                  "type": "tuple"
                }
              ],
              "internalType": "struct Remplissage.Operation01",
              "name": "operation",
              "type": "tuple"
            },
            {
              "components": [
                {
                  "internalType": "uint256",
                  "name": "idTank",
                  "type": "uint256"
                },
                {
                  "internalType": "string",
                  "name": "matricule",
                  "type": "string"
                },
                {
                  "internalType": "uint256",
                  "name": "poidVide",
                  "type": "uint256"
                },
                {
                  "internalType": "uint256",
                  "name": "poidActuel",
                  "type": "uint256"
                },
                {
                  "internalType": "string",
                  "name": "etat",
                  "type": "string"
                },
                {
                  "internalType": "uint256[]",
                  "name": "codeTank",
                  "type": "uint256[]"
                }
              ],
              "internalType": "struct Remplissage.Tank",
              "name": "tank",
              "type": "tuple"
            }
          ],
          "internalType": "struct Remplissage.OperationTank0[]",
          "name": "result",
          "type": "tuple[]"
        }
      ],
      "stateMutability": "view",
      "type": "function",
      "constant": true
    },
    {
      "inputs": [
        {
          "internalType": "uint256",
          "name": "code",
          "type": "uint256"
        },
        {
          "components": [
            {
              "internalType": "uint256",
              "name": "idOperation",
              "type": "uint256"
            },
            {
              "internalType": "uint256",
              "name": "poidsLait",
              "type": "uint256"
            },
            {
              "internalType": "string",
              "name": "dateOperation",
              "type": "string"
            },
            {
              "internalType": "string",
              "name": "typeOp",
              "type": "string"
            },
            {
              "internalType": "uint256",
              "name": "code",
              "type": "uint256"
            },
            {
              "components": [
                {
                  "internalType": "uint256",
                  "name": "idCollecteur",
                  "type": "uint256"
                },
                {
                  "internalType": "string",
                  "name": "nomCollecteur",
                  "type": "string"
                },
                {
                  "internalType": "string",
                  "name": "adresse",
                  "type": "string"
                },
                {
                  "internalType": "uint256",
                  "name": "tel",
                  "type": "uint256"
                }
              ],
              "internalType": "struct Remplissage.Collecteur",
              "name": "collecteur",
              "type": "tuple"
            },
            {
              "components": [
                {
                  "internalType": "uint256",
                  "name": "idAgriculteur",
                  "type": "uint256"
                },
                {
                  "internalType": "string",
                  "name": "nom",
                  "type": "string"
                },
                {
                  "internalType": "string",
                  "name": "prenom",
                  "type": "string"
                },
                {
                  "internalType": "string",
                  "name": "username",
                  "type": "string"
                },
                {
                  "internalType": "string",
                  "name": "password",
                  "type": "string"
                }
              ],
              "internalType": "struct Remplissage.Agriculteur",
              "name": "agriculteur",
              "type": "tuple"
            }
          ],
          "internalType": "struct Remplissage.Operation[]",
          "name": "operation2",
          "type": "tuple[]"
        }
      ],
      "name": "getOperationbycode",
      "outputs": [
        {
          "components": [
            {
              "internalType": "uint256",
              "name": "idOperation",
              "type": "uint256"
            },
            {
              "internalType": "uint256",
              "name": "poidsLait",
              "type": "uint256"
            },
            {
              "internalType": "string",
              "name": "dateOperation",
              "type": "string"
            },
            {
              "internalType": "string",
              "name": "typeOp",
              "type": "string"
            },
            {
              "internalType": "uint256",
              "name": "code",
              "type": "uint256"
            },
            {
              "components": [
                {
                  "internalType": "uint256",
                  "name": "idCollecteur",
                  "type": "uint256"
                },
                {
                  "internalType": "string",
                  "name": "nomCollecteur",
                  "type": "string"
                },
                {
                  "internalType": "string",
                  "name": "adresse",
                  "type": "string"
                },
                {
                  "internalType": "uint256",
                  "name": "tel",
                  "type": "uint256"
                }
              ],
              "internalType": "struct Remplissage.Collecteur",
              "name": "collecteur",
              "type": "tuple"
            },
            {
              "components": [
                {
                  "internalType": "uint256",
                  "name": "idAgriculteur",
                  "type": "uint256"
                },
                {
                  "internalType": "string",
                  "name": "nom",
                  "type": "string"
                },
                {
                  "internalType": "string",
                  "name": "prenom",
                  "type": "string"
                },
                {
                  "internalType": "string",
                  "name": "username",
                  "type": "string"
                },
                {
                  "internalType": "string",
                  "name": "password",
                  "type": "string"
                }
              ],
              "internalType": "struct Remplissage.Agriculteur",
              "name": "agriculteur",
              "type": "tuple"
            }
          ],
          "internalType": "struct Remplissage.Operation[]",
          "name": "operationtwo",
          "type": "tuple[]"
        }
      ],
      "stateMutability": "nonpayable",
      "type": "function"
    },
    {
      "inputs": [
        {
          "internalType": "uint256",
          "name": "code",
          "type": "uint256"
        }
      ],
      "name": "getOperationFromAgrsbycode",
      "outputs": [
        {
          "components": [
            {
              "internalType": "uint256",
              "name": "idOpTank",
              "type": "uint256"
            },
            {
              "internalType": "int256",
              "name": "qteInsereTank",
              "type": "int256"
            },
            {
              "internalType": "string",
              "name": "date",
              "type": "string"
            },
            {
              "components": [
                {
                  "internalType": "uint256",
                  "name": "idOperation",
                  "type": "uint256"
                },
                {
                  "internalType": "uint256",
                  "name": "poidsLait",
                  "type": "uint256"
                },
                {
                  "internalType": "string",
                  "name": "dateOperation",
                  "type": "string"
                },
                {
                  "internalType": "string",
                  "name": "typeOp",
                  "type": "string"
                },
                {
                  "internalType": "uint256",
                  "name": "code",
                  "type": "uint256"
                },
                {
                  "internalType": "uint256[]",
                  "name": "codeRemplissage",
                  "type": "uint256[]"
                },
                {
                  "components": [
                    {
                      "internalType": "uint256",
                      "name": "idChef",
                      "type": "uint256"
                    },
                    {
                      "internalType": "string",
                      "name": "nom",
                      "type": "string"
                    },
                    {
                      "internalType": "string",
                      "name": "prenom",
                      "type": "string"
                    },
                    {
                      "internalType": "string",
                      "name": "email",
                      "type": "string"
                    },
                    {
                      "internalType": "string",
                      "name": "adress",
                      "type": "string"
                    },
                    {
                      "internalType": "uint256",
                      "name": "tel",
                      "type": "uint256"
                    },
                    {
                      "internalType": "uint256",
                      "name": "cin",
                      "type": "uint256"
                    },
                    {
                      "internalType": "string",
                      "name": "username",
                      "type": "string"
                    },
                    {
                      "internalType": "string",
                      "name": "password",
                      "type": "string"
                    }
                  ],
                  "internalType": "struct Remplissage.Chef",
                  "name": "chef",
                  "type": "tuple"
                },
                {
                  "components": [
                    {
                      "internalType": "uint256",
                      "name": "idUsine",
                      "type": "uint256"
                    },
                    {
                      "internalType": "string",
                      "name": "nomUsine",
                      "type": "string"
                    },
                    {
                      "internalType": "string",
                      "name": "adresse",
                      "type": "string"
                    }
                  ],
                  "internalType": "struct Remplissage.Usine",
                  "name": "usine",
                  "type": "tuple"
                }
              ],
              "internalType": "struct Remplissage.Operation01",
              "name": "operation",
              "type": "tuple"
            },
            {
              "components": [
                {
                  "internalType": "uint256",
                  "name": "idTank",
                  "type": "uint256"
                },
                {
                  "internalType": "string",
                  "name": "matricule",
                  "type": "string"
                },
                {
                  "internalType": "uint256",
                  "name": "poidVide",
                  "type": "uint256"
                },
                {
                  "internalType": "uint256",
                  "name": "poidActuel",
                  "type": "uint256"
                },
                {
                  "internalType": "string",
                  "name": "etat",
                  "type": "string"
                },
                {
                  "internalType": "uint256[]",
                  "name": "codeTank",
                  "type": "uint256[]"
                }
              ],
              "internalType": "struct Remplissage.Tank",
              "name": "tank",
              "type": "tuple"
            }
          ],
          "internalType": "struct Remplissage.OperationTank0",
          "name": "operation",
          "type": "tuple"
        }
      ],
      "stateMutability": "view",
      "type": "function",
      "constant": true
    }
  ],
  "bytecode": "0x608060405234801561001057600080fd5b50615338806100206000396000f3fe608060405234801561001057600080fd5b50600436106100625760003560e01c806316638829146100675780638724a43014610097578063a96fe5f0146100cd578063c9c28e0f14610101578063da6616f91461011f578063e30443171461014f575b600080fd5b610081600480360381019061007c91906138a5565b61017f565b60405161008e9190613d68565b60405180910390f35b6100b160048036038101906100ac91906138a5565b610afa565b6040516100c49796959493929190613ed8565b60405180910390f35b6100e760048036038101906100e291906138a5565b610ffa565b6040516100f89594939291906140d5565b60405180910390f35b6101096118f2565b6040516101169190614283565b60405180910390f35b6101396004803603810190610134919061479a565b612235565b6040516101469190614a5e565b60405180910390f35b6101696004803603810190610164919061519e565b612a37565b6040516101769190614283565b60405180910390f35b61018761363c565b60005b600180549050811015610af35782600182815481106101ac576101ab6151fa565b5b90600052602060002090601b0201600301600401541415610ae057600181815481106101db576101da6151fa565b5b90600052602060002090601b02016040518060a0016040529081600082015481526020016001820154815260200160028201805461021890615258565b80601f016020809104026020016040519081016040528092919081815260200182805461024490615258565b80156102915780601f1061026657610100808354040283529160200191610291565b820191906000526020600020905b81548152906001019060200180831161027457829003601f168201915b50505050508152602001600382016040518061010001604052908160008201548152602001600182015481526020016002820180546102cf90615258565b80601f01602080910402602001604051908101604052809291908181526020018280546102fb90615258565b80156103485780601f1061031d57610100808354040283529160200191610348565b820191906000526020600020905b81548152906001019060200180831161032b57829003601f168201915b5050505050815260200160038201805461036190615258565b80601f016020809104026020016040519081016040528092919081815260200182805461038d90615258565b80156103da5780601f106103af576101008083540402835291602001916103da565b820191906000526020600020905b8154815290600101906020018083116103bd57829003601f168201915b50505050508152602001600482015481526020016005820180548060200260200160405190810160405280929190818152602001828054801561043c57602002820191906000526020600020905b815481526020019060010190808311610428575b5050505050815260200160068201604051806101200160405290816000820154815260200160018201805461047090615258565b80601f016020809104026020016040519081016040528092919081815260200182805461049c90615258565b80156104e95780601f106104be576101008083540402835291602001916104e9565b820191906000526020600020905b8154815290600101906020018083116104cc57829003601f168201915b5050505050815260200160028201805461050290615258565b80601f016020809104026020016040519081016040528092919081815260200182805461052e90615258565b801561057b5780601f106105505761010080835404028352916020019161057b565b820191906000526020600020905b81548152906001019060200180831161055e57829003601f168201915b5050505050815260200160038201805461059490615258565b80601f01602080910402602001604051908101604052809291908181526020018280546105c090615258565b801561060d5780601f106105e25761010080835404028352916020019161060d565b820191906000526020600020905b8154815290600101906020018083116105f057829003601f168201915b5050505050815260200160048201805461062690615258565b80601f016020809104026020016040519081016040528092919081815260200182805461065290615258565b801561069f5780601f106106745761010080835404028352916020019161069f565b820191906000526020600020905b81548152906001019060200180831161068257829003601f168201915b5050505050815260200160058201548152602001600682015481526020016007820180546106cc90615258565b80601f01602080910402602001604051908101604052809291908181526020018280546106f890615258565b80156107455780601f1061071a57610100808354040283529160200191610745565b820191906000526020600020905b81548152906001019060200180831161072857829003601f168201915b5050505050815260200160088201805461075e90615258565b80601f016020809104026020016040519081016040528092919081815260200182805461078a90615258565b80156107d75780601f106107ac576101008083540402835291602001916107d7565b820191906000526020600020905b8154815290600101906020018083116107ba57829003601f168201915b5050505050815250508152602001600f82016040518060600160405290816000820154815260200160018201805461080e90615258565b80601f016020809104026020016040519081016040528092919081815260200182805461083a90615258565b80156108875780601f1061085c57610100808354040283529160200191610887565b820191906000526020600020905b81548152906001019060200180831161086a57829003601f168201915b505050505081526020016002820180546108a090615258565b80601f01602080910402602001604051908101604052809291908181526020018280546108cc90615258565b80156109195780601f106108ee57610100808354040283529160200191610919565b820191906000526020600020905b8154815290600101906020018083116108fc57829003601f168201915b505050505081525050815250508152602001601582016040518060c00160405290816000820154815260200160018201805461095490615258565b80601f016020809104026020016040519081016040528092919081815260200182805461098090615258565b80156109cd5780601f106109a2576101008083540402835291602001916109cd565b820191906000526020600020905b8154815290600101906020018083116109b057829003601f168201915b5050505050815260200160028201548152602001600382015481526020016004820180546109fa90615258565b80601f0160208091040260200160405190810160405280929190818152602001828054610a2690615258565b8015610a735780601f10610a4857610100808354040283529160200191610a73565b820191906000526020600020905b815481529060010190602001808311610a5657829003601f168201915b5050505050815260200160058201805480602002602001604051908101604052809291908181526020018280548015610acb57602002820191906000526020600020905b815481526020019060010190808311610ab7575b50505050508152505081525050915050610af5565b8080610aeb906152b9565b91505061018a565b505b919050565b60008181548110610b0a57600080fd5b90600052602060002090600e0201600091509050806000015490806001015490806002018054610b3990615258565b80601f0160208091040260200160405190810160405280929190818152602001828054610b6590615258565b8015610bb25780601f10610b8757610100808354040283529160200191610bb2565b820191906000526020600020905b815481529060010190602001808311610b9557829003601f168201915b505050505090806003018054610bc790615258565b80601f0160208091040260200160405190810160405280929190818152602001828054610bf390615258565b8015610c405780601f10610c1557610100808354040283529160200191610c40565b820191906000526020600020905b815481529060010190602001808311610c2357829003601f168201915b5050505050908060040154908060050160405180608001604052908160008201548152602001600182018054610c7590615258565b80601f0160208091040260200160405190810160405280929190818152602001828054610ca190615258565b8015610cee5780601f10610cc357610100808354040283529160200191610cee565b820191906000526020600020905b815481529060010190602001808311610cd157829003601f168201915b50505050508152602001600282018054610d0790615258565b80601f0160208091040260200160405190810160405280929190818152602001828054610d3390615258565b8015610d805780601f10610d5557610100808354040283529160200191610d80565b820191906000526020600020905b815481529060010190602001808311610d6357829003601f168201915b5050505050815260200160038201548152505090806009016040518060a001604052908160008201548152602001600182018054610dbd90615258565b80601f0160208091040260200160405190810160405280929190818152602001828054610de990615258565b8015610e365780601f10610e0b57610100808354040283529160200191610e36565b820191906000526020600020905b815481529060010190602001808311610e1957829003601f168201915b50505050508152602001600282018054610e4f90615258565b80601f0160208091040260200160405190810160405280929190818152602001828054610e7b90615258565b8015610ec85780601f10610e9d57610100808354040283529160200191610ec8565b820191906000526020600020905b815481529060010190602001808311610eab57829003601f168201915b50505050508152602001600382018054610ee190615258565b80601f0160208091040260200160405190810160405280929190818152602001828054610f0d90615258565b8015610f5a5780601f10610f2f57610100808354040283529160200191610f5a565b820191906000526020600020905b815481529060010190602001808311610f3d57829003601f168201915b50505050508152602001600482018054610f7390615258565b80601f0160208091040260200160405190810160405280929190818152602001828054610f9f90615258565b8015610fec5780601f10610fc157610100808354040283529160200191610fec565b820191906000526020600020905b815481529060010190602001808311610fcf57829003601f168201915b505050505081525050905087565b6001818154811061100a57600080fd5b90600052602060002090601b020160009150905080600001549080600101549080600201805461103990615258565b80601f016020809104026020016040519081016040528092919081815260200182805461106590615258565b80156110b25780601f10611087576101008083540402835291602001916110b2565b820191906000526020600020905b81548152906001019060200180831161109557829003601f168201915b505050505090806003016040518061010001604052908160008201548152602001600182015481526020016002820180546110ec90615258565b80601f016020809104026020016040519081016040528092919081815260200182805461111890615258565b80156111655780601f1061113a57610100808354040283529160200191611165565b820191906000526020600020905b81548152906001019060200180831161114857829003601f168201915b5050505050815260200160038201805461117e90615258565b80601f01602080910402602001604051908101604052809291908181526020018280546111aa90615258565b80156111f75780601f106111cc576101008083540402835291602001916111f7565b820191906000526020600020905b8154815290600101906020018083116111da57829003601f168201915b50505050508152602001600482015481526020016005820180548060200260200160405190810160405280929190818152602001828054801561125957602002820191906000526020600020905b815481526020019060010190808311611245575b5050505050815260200160068201604051806101200160405290816000820154815260200160018201805461128d90615258565b80601f01602080910402602001604051908101604052809291908181526020018280546112b990615258565b80156113065780601f106112db57610100808354040283529160200191611306565b820191906000526020600020905b8154815290600101906020018083116112e957829003601f168201915b5050505050815260200160028201805461131f90615258565b80601f016020809104026020016040519081016040528092919081815260200182805461134b90615258565b80156113985780601f1061136d57610100808354040283529160200191611398565b820191906000526020600020905b81548152906001019060200180831161137b57829003601f168201915b505050505081526020016003820180546113b190615258565b80601f01602080910402602001604051908101604052809291908181526020018280546113dd90615258565b801561142a5780601f106113ff5761010080835404028352916020019161142a565b820191906000526020600020905b81548152906001019060200180831161140d57829003601f168201915b5050505050815260200160048201805461144390615258565b80601f016020809104026020016040519081016040528092919081815260200182805461146f90615258565b80156114bc5780601f10611491576101008083540402835291602001916114bc565b820191906000526020600020905b81548152906001019060200180831161149f57829003601f168201915b5050505050815260200160058201548152602001600682015481526020016007820180546114e990615258565b80601f016020809104026020016040519081016040528092919081815260200182805461151590615258565b80156115625780601f1061153757610100808354040283529160200191611562565b820191906000526020600020905b81548152906001019060200180831161154557829003601f168201915b5050505050815260200160088201805461157b90615258565b80601f01602080910402602001604051908101604052809291908181526020018280546115a790615258565b80156115f45780601f106115c9576101008083540402835291602001916115f4565b820191906000526020600020905b8154815290600101906020018083116115d757829003601f168201915b5050505050815250508152602001600f82016040518060600160405290816000820154815260200160018201805461162b90615258565b80601f016020809104026020016040519081016040528092919081815260200182805461165790615258565b80156116a45780601f10611679576101008083540402835291602001916116a4565b820191906000526020600020905b81548152906001019060200180831161168757829003601f168201915b505050505081526020016002820180546116bd90615258565b80601f01602080910402602001604051908101604052809291908181526020018280546116e990615258565b80156117365780601f1061170b57610100808354040283529160200191611736565b820191906000526020600020905b81548152906001019060200180831161171957829003601f168201915b5050505050815250508152505090806015016040518060c00160405290816000820154815260200160018201805461176d90615258565b80601f016020809104026020016040519081016040528092919081815260200182805461179990615258565b80156117e65780601f106117bb576101008083540402835291602001916117e6565b820191906000526020600020905b8154815290600101906020018083116117c957829003601f168201915b50505050508152602001600282015481526020016003820154815260200160048201805461181390615258565b80601f016020809104026020016040519081016040528092919081815260200182805461183f90615258565b801561188c5780601f106118615761010080835404028352916020019161188c565b820191906000526020600020905b81548152906001019060200180831161186f57829003601f168201915b50505050508152602001600582018054806020026020016040519081016040528092919081815260200182805480156118e457602002820191906000526020600020905b8154815260200190600101908083116118d0575b505050505081525050905085565b60606001805480602002602001604051908101604052809291908181526020016000905b8282101561222c57838290600052602060002090601b02016040518060a0016040529081600082015481526020016001820154815260200160028201805461195d90615258565b80601f016020809104026020016040519081016040528092919081815260200182805461198990615258565b80156119d65780601f106119ab576101008083540402835291602001916119d6565b820191906000526020600020905b8154815290600101906020018083116119b957829003601f168201915b5050505050815260200160038201604051806101000160405290816000820154815260200160018201548152602001600282018054611a1490615258565b80601f0160208091040260200160405190810160405280929190818152602001828054611a4090615258565b8015611a8d5780601f10611a6257610100808354040283529160200191611a8d565b820191906000526020600020905b815481529060010190602001808311611a7057829003601f168201915b50505050508152602001600382018054611aa690615258565b80601f0160208091040260200160405190810160405280929190818152602001828054611ad290615258565b8015611b1f5780601f10611af457610100808354040283529160200191611b1f565b820191906000526020600020905b815481529060010190602001808311611b0257829003601f168201915b505050505081526020016004820154815260200160058201805480602002602001604051908101604052809291908181526020018280548015611b8157602002820191906000526020600020905b815481526020019060010190808311611b6d575b50505050508152602001600682016040518061012001604052908160008201548152602001600182018054611bb590615258565b80601f0160208091040260200160405190810160405280929190818152602001828054611be190615258565b8015611c2e5780601f10611c0357610100808354040283529160200191611c2e565b820191906000526020600020905b815481529060010190602001808311611c1157829003601f168201915b50505050508152602001600282018054611c4790615258565b80601f0160208091040260200160405190810160405280929190818152602001828054611c7390615258565b8015611cc05780601f10611c9557610100808354040283529160200191611cc0565b820191906000526020600020905b815481529060010190602001808311611ca357829003601f168201915b50505050508152602001600382018054611cd990615258565b80601f0160208091040260200160405190810160405280929190818152602001828054611d0590615258565b8015611d525780601f10611d2757610100808354040283529160200191611d52565b820191906000526020600020905b815481529060010190602001808311611d3557829003601f168201915b50505050508152602001600482018054611d6b90615258565b80601f0160208091040260200160405190810160405280929190818152602001828054611d9790615258565b8015611de45780601f10611db957610100808354040283529160200191611de4565b820191906000526020600020905b815481529060010190602001808311611dc757829003601f168201915b505050505081526020016005820154815260200160068201548152602001600782018054611e1190615258565b80601f0160208091040260200160405190810160405280929190818152602001828054611e3d90615258565b8015611e8a5780601f10611e5f57610100808354040283529160200191611e8a565b820191906000526020600020905b815481529060010190602001808311611e6d57829003601f168201915b50505050508152602001600882018054611ea390615258565b80601f0160208091040260200160405190810160405280929190818152602001828054611ecf90615258565b8015611f1c5780601f10611ef157610100808354040283529160200191611f1c565b820191906000526020600020905b815481529060010190602001808311611eff57829003601f168201915b5050505050815250508152602001600f820160405180606001604052908160008201548152602001600182018054611f5390615258565b80601f0160208091040260200160405190810160405280929190818152602001828054611f7f90615258565b8015611fcc5780601f10611fa157610100808354040283529160200191611fcc565b820191906000526020600020905b815481529060010190602001808311611faf57829003601f168201915b50505050508152602001600282018054611fe590615258565b80601f016020809104026020016040519081016040528092919081815260200182805461201190615258565b801561205e5780601f106120335761010080835404028352916020019161205e565b820191906000526020600020905b81548152906001019060200180831161204157829003601f168201915b505050505081525050815250508152602001601582016040518060c00160405290816000820154815260200160018201805461209990615258565b80601f01602080910402602001604051908101604052809291908181526020018280546120c590615258565b80156121125780601f106120e757610100808354040283529160200191612112565b820191906000526020600020905b8154815290600101906020018083116120f557829003601f168201915b50505050508152602001600282015481526020016003820154815260200160048201805461213f90615258565b80601f016020809104026020016040519081016040528092919081815260200182805461216b90615258565b80156121b85780601f1061218d576101008083540402835291602001916121b8565b820191906000526020600020905b81548152906001019060200180831161219b57829003601f168201915b505050505081526020016005820180548060200260200160405190810160405280929190818152602001828054801561221057602002820191906000526020600020905b8154815260200190600101908083116121fc575b5050505050815250508152505081526020019060010190611916565b50505050905090565b606060005b6001805490508110156124e257836001828154811061225c5761225b6151fa565b5b90600052602060002090601b02016003016004015414156124cf5760005b6001828154811061228e5761228d6151fa565b5b90600052602060002090601b0201601501600501805490508110156124cd5760005b84518110156124b957600183815481106122cd576122cc6151fa565b5b90600052602060002090601b020160150160050182815481106122f3576122f26151fa565b5b9060005260206000200154858281518110612311576123106151fa565b5b60200260200101516080015114156124a6576000858281518110612338576123376151fa565b5b602002602001015190806001815401808255809150506001900390600052602060002090600e020160009091909190915060008201518160000155602082015181600101556040820151816002019080519060200190612399929190613677565b5060608201518160030190805190602001906123b6929190613677565b506080820151816004015560a0820151816005016000820151816000015560208201518160010190805190602001906123f0929190613677565b50604082015181600201908051906020019061240d929190613677565b5060608201518160030155505060c082015181600901600082015181600001556020820151816001019080519060200190612449929190613677565b506040820151816002019080519060200190612466929190613677565b506060820151816003019080519060200190612483929190613677565b5060808201518160040190805190602001906124a0929190613677565b50505050505b80806124b1906152b9565b9150506122b0565b5080806124c5906152b9565b91505061227a565b505b80806124da906152b9565b91505061223a565b506000805480602002602001604051908101604052809291908181526020016000905b82821015612a2b57838290600052602060002090600e02016040518060e0016040529081600082015481526020016001820154815260200160028201805461254c90615258565b80601f016020809104026020016040519081016040528092919081815260200182805461257890615258565b80156125c55780601f1061259a576101008083540402835291602001916125c5565b820191906000526020600020905b8154815290600101906020018083116125a857829003601f168201915b505050505081526020016003820180546125de90615258565b80601f016020809104026020016040519081016040528092919081815260200182805461260a90615258565b80156126575780601f1061262c57610100808354040283529160200191612657565b820191906000526020600020905b81548152906001019060200180831161263a57829003601f168201915b5050505050815260200160048201548152602001600582016040518060800160405290816000820154815260200160018201805461269490615258565b80601f01602080910402602001604051908101604052809291908181526020018280546126c090615258565b801561270d5780601f106126e25761010080835404028352916020019161270d565b820191906000526020600020905b8154815290600101906020018083116126f057829003601f168201915b5050505050815260200160028201805461272690615258565b80601f016020809104026020016040519081016040528092919081815260200182805461275290615258565b801561279f5780601f106127745761010080835404028352916020019161279f565b820191906000526020600020905b81548152906001019060200180831161278257829003601f168201915b505050505081526020016003820154815250508152602001600982016040518060a0016040529081600082015481526020016001820180546127e090615258565b80601f016020809104026020016040519081016040528092919081815260200182805461280c90615258565b80156128595780601f1061282e57610100808354040283529160200191612859565b820191906000526020600020905b81548152906001019060200180831161283c57829003601f168201915b5050505050815260200160028201805461287290615258565b80601f016020809104026020016040519081016040528092919081815260200182805461289e90615258565b80156128eb5780601f106128c0576101008083540402835291602001916128eb565b820191906000526020600020905b8154815290600101906020018083116128ce57829003601f168201915b5050505050815260200160038201805461290490615258565b80601f016020809104026020016040519081016040528092919081815260200182805461293090615258565b801561297d5780601f106129525761010080835404028352916020019161297d565b820191906000526020600020905b81548152906001019060200180831161296057829003601f168201915b5050505050815260200160048201805461299690615258565b80601f01602080910402602001604051908101604052809291908181526020018280546129c290615258565b8015612a0f5780601f106129e457610100808354040283529160200191612a0f565b820191906000526020600020905b8154815290600101906020018083116129f257829003601f168201915b5050505050815250508152505081526020019060010190612505565b50505050905092915050565b606060005b82811015612cf7576001848281518110612a5957612a586151fa565b5b602002602001015190806001815401808255809150506001900390600052602060002090601b020160009091909190915060008201518160000155602082015181600101556040820151816002019080519060200190612aba929190613677565b5060608201518160030160008201518160000155602082015181600101556040820151816002019080519060200190612af4929190613677565b506060820151816003019080519060200190612b11929190613677565b506080820151816004015560a0820151816005019080519060200190612b389291906136fd565b5060c082015181600601600082015181600001556020820151816001019080519060200190612b68929190613677565b506040820151816002019080519060200190612b85929190613677565b506060820151816003019080519060200190612ba2929190613677565b506080820151816004019080519060200190612bbf929190613677565b5060a0820151816005015560c0820151816006015560e0820151816007019080519060200190612bf0929190613677565b50610100820151816008019080519060200190612c0e929190613677565b50505060e082015181600f01600082015181600001556020820151816001019080519060200190612c40929190613677565b506040820151816002019080519060200190612c5d929190613677565b5050505050608082015181601501600082015181600001556020820151816001019080519060200190612c91929190613677565b5060408201518160020155606082015181600301556080820151816004019080519060200190612cc2929190613677565b5060a0820151816005019080519060200190612cdf9291906136fd565b50505050508080612cef906152b9565b915050612a3c565b506001805480602002602001604051908101604052809291908181526020016000905b8282101561363057838290600052602060002090601b02016040518060a00160405290816000820154815260200160018201548152602001600282018054612d6190615258565b80601f0160208091040260200160405190810160405280929190818152602001828054612d8d90615258565b8015612dda5780601f10612daf57610100808354040283529160200191612dda565b820191906000526020600020905b815481529060010190602001808311612dbd57829003601f168201915b5050505050815260200160038201604051806101000160405290816000820154815260200160018201548152602001600282018054612e1890615258565b80601f0160208091040260200160405190810160405280929190818152602001828054612e4490615258565b8015612e915780601f10612e6657610100808354040283529160200191612e91565b820191906000526020600020905b815481529060010190602001808311612e7457829003601f168201915b50505050508152602001600382018054612eaa90615258565b80601f0160208091040260200160405190810160405280929190818152602001828054612ed690615258565b8015612f235780601f10612ef857610100808354040283529160200191612f23565b820191906000526020600020905b815481529060010190602001808311612f0657829003601f168201915b505050505081526020016004820154815260200160058201805480602002602001604051908101604052809291908181526020018280548015612f8557602002820191906000526020600020905b815481526020019060010190808311612f71575b50505050508152602001600682016040518061012001604052908160008201548152602001600182018054612fb990615258565b80601f0160208091040260200160405190810160405280929190818152602001828054612fe590615258565b80156130325780601f1061300757610100808354040283529160200191613032565b820191906000526020600020905b81548152906001019060200180831161301557829003601f168201915b5050505050815260200160028201805461304b90615258565b80601f016020809104026020016040519081016040528092919081815260200182805461307790615258565b80156130c45780601f10613099576101008083540402835291602001916130c4565b820191906000526020600020905b8154815290600101906020018083116130a757829003601f168201915b505050505081526020016003820180546130dd90615258565b80601f016020809104026020016040519081016040528092919081815260200182805461310990615258565b80156131565780601f1061312b57610100808354040283529160200191613156565b820191906000526020600020905b81548152906001019060200180831161313957829003601f168201915b5050505050815260200160048201805461316f90615258565b80601f016020809104026020016040519081016040528092919081815260200182805461319b90615258565b80156131e85780601f106131bd576101008083540402835291602001916131e8565b820191906000526020600020905b8154815290600101906020018083116131cb57829003601f168201915b50505050508152602001600582015481526020016006820154815260200160078201805461321590615258565b80601f016020809104026020016040519081016040528092919081815260200182805461324190615258565b801561328e5780601f106132635761010080835404028352916020019161328e565b820191906000526020600020905b81548152906001019060200180831161327157829003601f168201915b505050505081526020016008820180546132a790615258565b80601f01602080910402602001604051908101604052809291908181526020018280546132d390615258565b80156133205780601f106132f557610100808354040283529160200191613320565b820191906000526020600020905b81548152906001019060200180831161330357829003601f168201915b5050505050815250508152602001600f82016040518060600160405290816000820154815260200160018201805461335790615258565b80601f016020809104026020016040519081016040528092919081815260200182805461338390615258565b80156133d05780601f106133a5576101008083540402835291602001916133d0565b820191906000526020600020905b8154815290600101906020018083116133b357829003601f168201915b505050505081526020016002820180546133e990615258565b80601f016020809104026020016040519081016040528092919081815260200182805461341590615258565b80156134625780601f1061343757610100808354040283529160200191613462565b820191906000526020600020905b81548152906001019060200180831161344557829003601f168201915b505050505081525050815250508152602001601582016040518060c00160405290816000820154815260200160018201805461349d90615258565b80601f01602080910402602001604051908101604052809291908181526020018280546134c990615258565b80156135165780601f106134eb57610100808354040283529160200191613516565b820191906000526020600020905b8154815290600101906020018083116134f957829003601f168201915b50505050508152602001600282015481526020016003820154815260200160048201805461354390615258565b80601f016020809104026020016040519081016040528092919081815260200182805461356f90615258565b80156135bc5780601f10613591576101008083540402835291602001916135bc565b820191906000526020600020905b81548152906001019060200180831161359f57829003601f168201915b505050505081526020016005820180548060200260200160405190810160405280929190818152602001828054801561361457602002820191906000526020600020905b815481526020019060010190808311613600575b5050505050815250508152505081526020019060010190612d1a565b50505050905092915050565b6040518060a0016040528060008152602001600081526020016060815260200161366461374a565b815260200161367161379b565b81525090565b82805461368390615258565b90600052602060002090601f0160209004810192826136a557600085556136ec565b82601f106136be57805160ff19168380011785556136ec565b828001600101855582156136ec579182015b828111156136eb5782518255916020019190600101906136d0565b5b5090506136f991906137d1565b5090565b828054828255906000526020600020908101928215613739579160200282015b8281111561373857825182559160200191906001019061371d565b5b50905061374691906137d1565b5090565b6040518061010001604052806000815260200160008152602001606081526020016060815260200160008152602001606081526020016137886137ee565b815260200161379561383a565b81525090565b6040518060c001604052806000815260200160608152602001600081526020016000815260200160608152602001606081525090565b5b808211156137ea5760008160009055506001016137d2565b5090565b6040518061012001604052806000815260200160608152602001606081526020016060815260200160608152602001600081526020016000815260200160608152602001606081525090565b60405180606001604052806000815260200160608152602001606081525090565b6000604051905090565b600080fd5b600080fd5b6000819050919050565b6138828161386f565b811461388d57600080fd5b50565b60008135905061389f81613879565b92915050565b6000602082840312156138bb576138ba613865565b5b60006138c984828501613890565b91505092915050565b6138db8161386f565b82525050565b6000819050919050565b6138f4816138e1565b82525050565b600081519050919050565b600082825260208201905092915050565b60005b83811015613934578082015181840152602081019050613919565b83811115613943576000848401525b50505050565b6000601f19601f8301169050919050565b6000613965826138fa565b61396f8185613905565b935061397f818560208601613916565b61398881613949565b840191505092915050565b600081519050919050565b600082825260208201905092915050565b6000819050602082019050919050565b60006139cb83836138d2565b60208301905092915050565b6000602082019050919050565b60006139ef82613993565b6139f9818561399e565b9350613a04836139af565b8060005b83811015613a35578151613a1c88826139bf565b9750613a27836139d7565b925050600181019050613a08565b5085935050505092915050565b600061012083016000830151613a5b60008601826138d2565b5060208301518482036020860152613a73828261395a565b91505060408301518482036040860152613a8d828261395a565b91505060608301518482036060860152613aa7828261395a565b91505060808301518482036080860152613ac1828261395a565b91505060a0830151613ad660a08601826138d2565b5060c0830151613ae960c08601826138d2565b5060e083015184820360e0860152613b01828261395a565b915050610100830151848203610100860152613b1d828261395a565b9150508091505092915050565b6000606083016000830151613b4260008601826138d2565b5060208301518482036020860152613b5a828261395a565b91505060408301518482036040860152613b74828261395a565b9150508091505092915050565b600061010083016000830151613b9a60008601826138d2565b506020830151613bad60208601826138d2565b5060408301518482036040860152613bc5828261395a565b91505060608301518482036060860152613bdf828261395a565b9150506080830151613bf460808601826138d2565b5060a083015184820360a0860152613c0c82826139e4565b91505060c083015184820360c0860152613c268282613a42565b91505060e083015184820360e0860152613c408282613b2a565b9150508091505092915050565b600060c083016000830151613c6560008601826138d2565b5060208301518482036020860152613c7d828261395a565b9150506040830151613c9260408601826138d2565b506060830151613ca560608601826138d2565b5060808301518482036080860152613cbd828261395a565b91505060a083015184820360a0860152613cd782826139e4565b9150508091505092915050565b600060a083016000830151613cfc60008601826138d2565b506020830151613d0f60208601826138eb565b5060408301518482036040860152613d27828261395a565b91505060608301518482036060860152613d418282613b81565b91505060808301518482036080860152613d5b8282613c4d565b9150508091505092915050565b60006020820190508181036000830152613d828184613ce4565b905092915050565b613d938161386f565b82525050565b600082825260208201905092915050565b6000613db5826138fa565b613dbf8185613d99565b9350613dcf818560208601613916565b613dd881613949565b840191505092915050565b6000608083016000830151613dfb60008601826138d2565b5060208301518482036020860152613e13828261395a565b91505060408301518482036040860152613e2d828261395a565b9150506060830151613e4260608601826138d2565b508091505092915050565b600060a083016000830151613e6560008601826138d2565b5060208301518482036020860152613e7d828261395a565b91505060408301518482036040860152613e97828261395a565b91505060608301518482036060860152613eb1828261395a565b91505060808301518482036080860152613ecb828261395a565b9150508091505092915050565b600060e082019050613eed600083018a613d8a565b613efa6020830189613d8a565b8181036040830152613f0c8188613daa565b90508181036060830152613f208187613daa565b9050613f2f6080830186613d8a565b81810360a0830152613f418185613de3565b905081810360c0830152613f558184613e4d565b905098975050505050505050565b613f6c816138e1565b82525050565b600061010083016000830151613f8b60008601826138d2565b506020830151613f9e60208601826138d2565b5060408301518482036040860152613fb6828261395a565b91505060608301518482036060860152613fd0828261395a565b9150506080830151613fe560808601826138d2565b5060a083015184820360a0860152613ffd82826139e4565b91505060c083015184820360c08601526140178282613a42565b91505060e083015184820360e08601526140318282613b2a565b9150508091505092915050565b600060c08301600083015161405660008601826138d2565b506020830151848203602086015261406e828261395a565b915050604083015161408360408601826138d2565b50606083015161409660608601826138d2565b50608083015184820360808601526140ae828261395a565b91505060a083015184820360a08601526140c882826139e4565b9150508091505092915050565b600060a0820190506140ea6000830188613d8a565b6140f76020830187613f63565b81810360408301526141098186613daa565b9050818103606083015261411d8185613f72565b90508181036080830152614131818461403e565b90509695505050505050565b600081519050919050565b600082825260208201905092915050565b6000819050602082019050919050565b600060a08301600083015161418160008601826138d2565b50602083015161419460208601826138eb565b50604083015184820360408601526141ac828261395a565b915050606083015184820360608601526141c68282613b81565b915050608083015184820360808601526141e08282613c4d565b9150508091505092915050565b60006141f98383614169565b905092915050565b6000602082019050919050565b60006142198261413d565b6142238185614148565b93508360208202850161423585614159565b8060005b85811015614271578484038952815161425285826141ed565b945061425d83614201565b925060208a01995050600181019050614239565b50829750879550505050505092915050565b6000602082019050818103600083015261429d818461420e565b905092915050565b600080fd5b7f4e487b7100000000000000000000000000000000000000000000000000000000600052604160045260246000fd5b6142e282613949565b810181811067ffffffffffffffff82111715614301576143006142aa565b5b80604052505050565b600061431461385b565b905061432082826142d9565b919050565b600067ffffffffffffffff8211156143405761433f6142aa565b5b602082029050602081019050919050565b600080fd5b600080fd5b600080fd5b600080fd5b600067ffffffffffffffff8211156143805761437f6142aa565b5b61438982613949565b9050602081019050919050565b82818337600083830152505050565b60006143b86143b384614365565b61430a565b9050828152602081018484840111156143d4576143d3614360565b5b6143df848285614396565b509392505050565b600082601f8301126143fc576143fb6142a5565b5b813561440c8482602086016143a5565b91505092915050565b60006080828403121561442b5761442a614356565b5b614435608061430a565b9050600061444584828501613890565b600083015250602082013567ffffffffffffffff8111156144695761446861435b565b5b614475848285016143e7565b602083015250604082013567ffffffffffffffff8111156144995761449861435b565b5b6144a5848285016143e7565b60408301525060606144b984828501613890565b60608301525092915050565b600060a082840312156144db576144da614356565b5b6144e560a061430a565b905060006144f584828501613890565b600083015250602082013567ffffffffffffffff8111156145195761451861435b565b5b614525848285016143e7565b602083015250604082013567ffffffffffffffff8111156145495761454861435b565b5b614555848285016143e7565b604083015250606082013567ffffffffffffffff8111156145795761457861435b565b5b614585848285016143e7565b606083015250608082013567ffffffffffffffff8111156145a9576145a861435b565b5b6145b5848285016143e7565b60808301525092915050565b600060e082840312156145d7576145d6614356565b5b6145e160e061430a565b905060006145f184828501613890565b600083015250602061460584828501613890565b602083015250604082013567ffffffffffffffff8111156146295761462861435b565b5b614635848285016143e7565b604083015250606082013567ffffffffffffffff8111156146595761465861435b565b5b614665848285016143e7565b606083015250608061467984828501613890565b60808301525060a082013567ffffffffffffffff81111561469d5761469c61435b565b5b6146a984828501614415565b60a08301525060c082013567ffffffffffffffff8111156146cd576146cc61435b565b5b6146d9848285016144c5565b60c08301525092915050565b60006146f86146f384614325565b61430a565b9050808382526020820190506020840283018581111561471b5761471a614351565b5b835b8181101561476257803567ffffffffffffffff8111156147405761473f6142a5565b5b80860161474d89826145c1565b8552602085019450505060208101905061471d565b5050509392505050565b600082601f830112614781576147806142a5565b5b81356147918482602086016146e5565b91505092915050565b600080604083850312156147b1576147b0613865565b5b60006147bf85828601613890565b925050602083013567ffffffffffffffff8111156147e0576147df61386a565b5b6147ec8582860161476c565b9150509250929050565b600081519050919050565b600082825260208201905092915050565b6000819050602082019050919050565b600060808301600083015161483a60008601826138d2565b5060208301518482036020860152614852828261395a565b9150506040830151848203604086015261486c828261395a565b915050606083015161488160608601826138d2565b508091505092915050565b600060a0830160008301516148a460008601826138d2565b50602083015184820360208601526148bc828261395a565b915050604083015184820360408601526148d6828261395a565b915050606083015184820360608601526148f0828261395a565b9150506080830151848203608086015261490a828261395a565b9150508091505092915050565b600060e08301600083015161492f60008601826138d2565b50602083015161494260208601826138d2565b506040830151848203604086015261495a828261395a565b91505060608301518482036060860152614974828261395a565b915050608083015161498960808601826138d2565b5060a083015184820360a08601526149a18282614822565b91505060c083015184820360c08601526149bb828261488c565b9150508091505092915050565b60006149d48383614917565b905092915050565b6000602082019050919050565b60006149f4826147f6565b6149fe8185614801565b935083602082028501614a1085614812565b8060005b85811015614a4c5784840389528151614a2d85826149c8565b9450614a38836149dc565b925060208a01995050600181019050614a14565b50829750879550505050505092915050565b60006020820190508181036000830152614a7881846149e9565b905092915050565b600067ffffffffffffffff821115614a9b57614a9a6142aa565b5b602082029050602081019050919050565b614ab5816138e1565b8114614ac057600080fd5b50565b600081359050614ad281614aac565b92915050565b600067ffffffffffffffff821115614af357614af26142aa565b5b602082029050602081019050919050565b6000614b17614b1284614ad8565b61430a565b90508083825260208201905060208402830185811115614b3a57614b39614351565b5b835b81811015614b635780614b4f8882613890565b845260208401935050602081019050614b3c565b5050509392505050565b600082601f830112614b8257614b816142a5565b5b8135614b92848260208601614b04565b91505092915050565b60006101208284031215614bb257614bb1614356565b5b614bbd61012061430a565b90506000614bcd84828501613890565b600083015250602082013567ffffffffffffffff811115614bf157614bf061435b565b5b614bfd848285016143e7565b602083015250604082013567ffffffffffffffff811115614c2157614c2061435b565b5b614c2d848285016143e7565b604083015250606082013567ffffffffffffffff811115614c5157614c5061435b565b5b614c5d848285016143e7565b606083015250608082013567ffffffffffffffff811115614c8157614c8061435b565b5b614c8d848285016143e7565b60808301525060a0614ca184828501613890565b60a08301525060c0614cb584828501613890565b60c08301525060e082013567ffffffffffffffff811115614cd957614cd861435b565b5b614ce5848285016143e7565b60e08301525061010082013567ffffffffffffffff811115614d0a57614d0961435b565b5b614d16848285016143e7565b6101008301525092915050565b600060608284031215614d3957614d38614356565b5b614d43606061430a565b90506000614d5384828501613890565b600083015250602082013567ffffffffffffffff811115614d7757614d7661435b565b5b614d83848285016143e7565b602083015250604082013567ffffffffffffffff811115614da757614da661435b565b5b614db3848285016143e7565b60408301525092915050565b60006101008284031215614dd657614dd5614356565b5b614de161010061430a565b90506000614df184828501613890565b6000830152506020614e0584828501613890565b602083015250604082013567ffffffffffffffff811115614e2957614e2861435b565b5b614e35848285016143e7565b604083015250606082013567ffffffffffffffff811115614e5957614e5861435b565b5b614e65848285016143e7565b6060830152506080614e7984828501613890565b60808301525060a082013567ffffffffffffffff811115614e9d57614e9c61435b565b5b614ea984828501614b6d565b60a08301525060c082013567ffffffffffffffff811115614ecd57614ecc61435b565b5b614ed984828501614b9b565b60c08301525060e082013567ffffffffffffffff811115614efd57614efc61435b565b5b614f0984828501614d23565b60e08301525092915050565b600060c08284031215614f2b57614f2a614356565b5b614f3560c061430a565b90506000614f4584828501613890565b600083015250602082013567ffffffffffffffff811115614f6957614f6861435b565b5b614f75848285016143e7565b6020830152506040614f8984828501613890565b6040830152506060614f9d84828501613890565b606083015250608082013567ffffffffffffffff811115614fc157614fc061435b565b5b614fcd848285016143e7565b60808301525060a082013567ffffffffffffffff811115614ff157614ff061435b565b5b614ffd84828501614b6d565b60a08301525092915050565b600060a0828403121561501f5761501e614356565b5b61502960a061430a565b9050600061503984828501613890565b600083015250602061504d84828501614ac3565b602083015250604082013567ffffffffffffffff8111156150715761507061435b565b5b61507d848285016143e7565b604083015250606082013567ffffffffffffffff8111156150a1576150a061435b565b5b6150ad84828501614dbf565b606083015250608082013567ffffffffffffffff8111156150d1576150d061435b565b5b6150dd84828501614f15565b60808301525092915050565b60006150fc6150f784614a80565b61430a565b9050808382526020820190506020840283018581111561511f5761511e614351565b5b835b8181101561516657803567ffffffffffffffff811115615144576151436142a5565b5b8086016151518982615009565b85526020850194505050602081019050615121565b5050509392505050565b600082601f830112615185576151846142a5565b5b81356151958482602086016150e9565b91505092915050565b600080604083850312156151b5576151b4613865565b5b600083013567ffffffffffffffff8111156151d3576151d261386a565b5b6151df85828601615170565b92505060206151f085828601613890565b9150509250929050565b7f4e487b7100000000000000000000000000000000000000000000000000000000600052603260045260246000fd5b7f4e487b7100000000000000000000000000000000000000000000000000000000600052602260045260246000fd5b6000600282049050600182168061527057607f821691505b6020821081141561528457615283615229565b5b50919050565b7f4e487b7100000000000000000000000000000000000000000000000000000000600052601160045260246000fd5b60006152c48261386f565b91507fffffffffffffffffffffffffffffffffffffffffffffffffffffffffffffffff8214156152f7576152f661528a565b5b60018201905091905056fea2646970667358221220463c98d9bf8dcc819ccdebed6d8de6bf59b03dd646f90e7a5bb7c575a76a517864736f6c634300080b0033",
  "immutableReferences": {},
  "source": "// SPDX-License-Identifier: MIT\r\npragma solidity >=0.4.22 <0.9.0;\r\nimport \"./Remplissage.sol\";\r\n\r\ncontract RetraitCol is Remplissage {\r\n    //*********************************************************************************/\r\n    //second app\r\n    //******************************************************************************/\r\n    Operation[] public operationagrs;\r\n    OperationTank0[] public operationTankR;\r\n\r\n    function RetraitOperationTank(\r\n        OperationTank0[] memory operationTank,\r\n        uint256 count\r\n    ) public returns (OperationTank0[] memory tt0) {\r\n        for (uint256 i = 0; i < count; i++) {\r\n            operationTankR.push(operationTank[i]);\r\n        }\r\n        return (operationTankR);\r\n    }\r\n\r\n    //get all operations\r\n\r\n    function getOperationTanks()\r\n        public\r\n        view\r\n        returns (OperationTank0[] memory result)\r\n    {\r\n        return operationTankR;\r\n    }\r\n\r\n    function getOperationbycode(uint256 code, Operation[] memory operation2)\r\n        public\r\n        returns (Operation[] memory operationtwo)\r\n    {\r\n        for (uint256 i = 0; i < operationTankR.length; i++) {\r\n            if (operationTankR[i].operation.code == code) {\r\n                for (uint256 j = 0;j < operationTankR[i].tank.codeTank.length;j++)\r\n                   {\r\n                    for (uint256 f = 0; f < operation2.length; f++) {\r\n                        if (\r\n                            operation2[f].code ==\r\n                            operationTankR[i].tank.codeTank[j]\r\n                        ) {\r\n                            operationagrs.push(operation2[f]);\r\n                        }\r\n                    }\r\n                }\r\n            }\r\n        }\r\n        return operationagrs;\r\n    }\r\n\r\n    function getOperationFromAgrsbycode(uint256 code)\r\n        public\r\n        view\r\n        returns (OperationTank0 memory operation)\r\n    {\r\n        for (uint256 i = 0; i < operationTankR.length; i++) {\r\n            if (operationTankR[i].operation.code == code) {\r\n                return operationTankR[i];\r\n            }\r\n        }\r\n    }\r\n}\r\n",
  "sourcePath": "C:\\Users\\ASUS\\Desktop\\pfe\\PFE_Project2022-Collecteur-\\PFE-FrontEnd\\contracts\\RetraitCol.sol",
  "compiler": {
    "name": "solc",
    "version": "0.8.11+commit.d7f03943.Emscripten.clang"
  },
  "schemaVersion": "3.4.5",
  "updatedAt": "2022-05-03T11:08:39.637Z",
  "networkType": "ethereum",
  "devdoc": {
    "kind": "dev",
    "methods": {},
    "version": 1
  },
  "userdoc": {
    "kind": "user",
    "methods": {},
    "version": 1
  }
}