{
  "contractName": "Transformation",
  "abi": [
    {
      "inputs": [
        {
          "internalType": "uint256",
          "name": "",
          "type": "uint256"
        }
      ],
      "name": "operationTankR",
      "outputs": [
        {
          "internalType": "uint256",
          "name": "idOperation",
          "type": "uint256"
        },
        {
          "internalType": "uint256",
          "name": "poidsLait",
          "type": "uint256"
        },
        {
          "internalType": "string",
          "name": "dateOperation",
          "type": "string"
        },
        {
          "internalType": "string",
          "name": "typeOp",
          "type": "string"
        },
        {
          "internalType": "uint256",
          "name": "code",
          "type": "uint256"
        },
        {
          "internalType": "uint256",
          "name": "qtePrise",
          "type": "uint256"
        },
        {
          "components": [
            {
              "internalType": "uint256",
              "name": "idTank",
              "type": "uint256"
            },
            {
              "internalType": "string",
              "name": "matricule",
              "type": "string"
            },
            {
              "internalType": "uint256",
              "name": "poidVide",
              "type": "uint256"
            },
            {
              "internalType": "uint256",
              "name": "poidActuel",
              "type": "uint256"
            },
            {
              "internalType": "string",
              "name": "etat",
              "type": "string"
            },
            {
              "internalType": "uint256[]",
              "name": "codeTank",
              "type": "uint256[]"
            }
          ],
          "internalType": "struct Remplissage.Tank",
          "name": "tank",
          "type": "tuple"
        },
        {
          "components": [
            {
              "internalType": "uint256",
              "name": "idProduit",
              "type": "uint256"
            },
            {
              "internalType": "string",
              "name": "intitule",
              "type": "string"
            },
            {
              "internalType": "string",
              "name": "libelle",
              "type": "string"
            },
            {
              "internalType": "uint256",
              "name": "qte",
              "type": "uint256"
            }
          ],
          "internalType": "struct Remplissage.Produit",
          "name": "produit",
          "type": "tuple"
        }
      ],
      "stateMutability": "view",
      "type": "function",
      "constant": true
    },
    {
      "inputs": [
        {
          "components": [
            {
              "internalType": "uint256",
              "name": "idOperation",
              "type": "uint256"
            },
            {
              "internalType": "uint256",
              "name": "poidsLait",
              "type": "uint256"
            },
            {
              "internalType": "string",
              "name": "dateOperation",
              "type": "string"
            },
            {
              "internalType": "string",
              "name": "typeOp",
              "type": "string"
            },
            {
              "internalType": "uint256",
              "name": "code",
              "type": "uint256"
            },
            {
              "internalType": "uint256",
              "name": "qtePrise",
              "type": "uint256"
            },
            {
              "components": [
                {
                  "internalType": "uint256",
                  "name": "idTank",
                  "type": "uint256"
                },
                {
                  "internalType": "string",
                  "name": "matricule",
                  "type": "string"
                },
                {
                  "internalType": "uint256",
                  "name": "poidVide",
                  "type": "uint256"
                },
                {
                  "internalType": "uint256",
                  "name": "poidActuel",
                  "type": "uint256"
                },
                {
                  "internalType": "string",
                  "name": "etat",
                  "type": "string"
                },
                {
                  "internalType": "uint256[]",
                  "name": "codeTank",
                  "type": "uint256[]"
                }
              ],
              "internalType": "struct Remplissage.Tank",
              "name": "tank",
              "type": "tuple"
            },
            {
              "components": [
                {
                  "internalType": "uint256",
                  "name": "idProduit",
                  "type": "uint256"
                },
                {
                  "internalType": "string",
                  "name": "intitule",
                  "type": "string"
                },
                {
                  "internalType": "string",
                  "name": "libelle",
                  "type": "string"
                },
                {
                  "internalType": "uint256",
                  "name": "qte",
                  "type": "uint256"
                }
              ],
              "internalType": "struct Remplissage.Produit",
              "name": "produit",
              "type": "tuple"
            }
          ],
          "internalType": "struct Remplissage.Operation04",
          "name": "operationTank",
          "type": "tuple"
        }
      ],
      "name": "RetraitOperationTank",
      "outputs": [
        {
          "components": [
            {
              "internalType": "uint256",
              "name": "idOperation",
              "type": "uint256"
            },
            {
              "internalType": "uint256",
              "name": "poidsLait",
              "type": "uint256"
            },
            {
              "internalType": "string",
              "name": "dateOperation",
              "type": "string"
            },
            {
              "internalType": "string",
              "name": "typeOp",
              "type": "string"
            },
            {
              "internalType": "uint256",
              "name": "code",
              "type": "uint256"
            },
            {
              "internalType": "uint256",
              "name": "qtePrise",
              "type": "uint256"
            },
            {
              "components": [
                {
                  "internalType": "uint256",
                  "name": "idTank",
                  "type": "uint256"
                },
                {
                  "internalType": "string",
                  "name": "matricule",
                  "type": "string"
                },
                {
                  "internalType": "uint256",
                  "name": "poidVide",
                  "type": "uint256"
                },
                {
                  "internalType": "uint256",
                  "name": "poidActuel",
                  "type": "uint256"
                },
                {
                  "internalType": "string",
                  "name": "etat",
                  "type": "string"
                },
                {
                  "internalType": "uint256[]",
                  "name": "codeTank",
                  "type": "uint256[]"
                }
              ],
              "internalType": "struct Remplissage.Tank",
              "name": "tank",
              "type": "tuple"
            },
            {
              "components": [
                {
                  "internalType": "uint256",
                  "name": "idProduit",
                  "type": "uint256"
                },
                {
                  "internalType": "string",
                  "name": "intitule",
                  "type": "string"
                },
                {
                  "internalType": "string",
                  "name": "libelle",
                  "type": "string"
                },
                {
                  "internalType": "uint256",
                  "name": "qte",
                  "type": "uint256"
                }
              ],
              "internalType": "struct Remplissage.Produit",
              "name": "produit",
              "type": "tuple"
            }
          ],
          "internalType": "struct Remplissage.Operation04[]",
          "name": "tt0",
          "type": "tuple[]"
        }
      ],
      "stateMutability": "nonpayable",
      "type": "function"
    },
    {
      "inputs": [],
      "name": "getOperationTanks",
      "outputs": [
        {
          "components": [
            {
              "internalType": "uint256",
              "name": "idOperation",
              "type": "uint256"
            },
            {
              "internalType": "uint256",
              "name": "poidsLait",
              "type": "uint256"
            },
            {
              "internalType": "string",
              "name": "dateOperation",
              "type": "string"
            },
            {
              "internalType": "string",
              "name": "typeOp",
              "type": "string"
            },
            {
              "internalType": "uint256",
              "name": "code",
              "type": "uint256"
            },
            {
              "internalType": "uint256",
              "name": "qtePrise",
              "type": "uint256"
            },
            {
              "components": [
                {
                  "internalType": "uint256",
                  "name": "idTank",
                  "type": "uint256"
                },
                {
                  "internalType": "string",
                  "name": "matricule",
                  "type": "string"
                },
                {
                  "internalType": "uint256",
                  "name": "poidVide",
                  "type": "uint256"
                },
                {
                  "internalType": "uint256",
                  "name": "poidActuel",
                  "type": "uint256"
                },
                {
                  "internalType": "string",
                  "name": "etat",
                  "type": "string"
                },
                {
                  "internalType": "uint256[]",
                  "name": "codeTank",
                  "type": "uint256[]"
                }
              ],
              "internalType": "struct Remplissage.Tank",
              "name": "tank",
              "type": "tuple"
            },
            {
              "components": [
                {
                  "internalType": "uint256",
                  "name": "idProduit",
                  "type": "uint256"
                },
                {
                  "internalType": "string",
                  "name": "intitule",
                  "type": "string"
                },
                {
                  "internalType": "string",
                  "name": "libelle",
                  "type": "string"
                },
                {
                  "internalType": "uint256",
                  "name": "qte",
                  "type": "uint256"
                }
              ],
              "internalType": "struct Remplissage.Produit",
              "name": "produit",
              "type": "tuple"
            }
          ],
          "internalType": "struct Remplissage.Operation04[]",
          "name": "result",
          "type": "tuple[]"
        }
      ],
      "stateMutability": "view",
      "type": "function",
      "constant": true
    },
    {
      "inputs": [
        {
          "internalType": "uint256",
          "name": "code",
          "type": "uint256"
        }
      ],
      "name": "getOperationusinebycode",
      "outputs": [
        {
          "components": [
            {
              "internalType": "uint256",
              "name": "idOperation",
              "type": "uint256"
            },
            {
              "internalType": "uint256",
              "name": "poidsLait",
              "type": "uint256"
            },
            {
              "internalType": "string",
              "name": "dateOperation",
              "type": "string"
            },
            {
              "internalType": "string",
              "name": "typeOp",
              "type": "string"
            },
            {
              "internalType": "uint256",
              "name": "code",
              "type": "uint256"
            },
            {
              "internalType": "uint256",
              "name": "qtePrise",
              "type": "uint256"
            },
            {
              "components": [
                {
                  "internalType": "uint256",
                  "name": "idTank",
                  "type": "uint256"
                },
                {
                  "internalType": "string",
                  "name": "matricule",
                  "type": "string"
                },
                {
                  "internalType": "uint256",
                  "name": "poidVide",
                  "type": "uint256"
                },
                {
                  "internalType": "uint256",
                  "name": "poidActuel",
                  "type": "uint256"
                },
                {
                  "internalType": "string",
                  "name": "etat",
                  "type": "string"
                },
                {
                  "internalType": "uint256[]",
                  "name": "codeTank",
                  "type": "uint256[]"
                }
              ],
              "internalType": "struct Remplissage.Tank",
              "name": "tank",
              "type": "tuple"
            },
            {
              "components": [
                {
                  "internalType": "uint256",
                  "name": "idProduit",
                  "type": "uint256"
                },
                {
                  "internalType": "string",
                  "name": "intitule",
                  "type": "string"
                },
                {
                  "internalType": "string",
                  "name": "libelle",
                  "type": "string"
                },
                {
                  "internalType": "uint256",
                  "name": "qte",
                  "type": "uint256"
                }
              ],
              "internalType": "struct Remplissage.Produit",
              "name": "produit",
              "type": "tuple"
            }
          ],
          "internalType": "struct Remplissage.Operation04",
          "name": "operation",
          "type": "tuple"
        }
      ],
      "stateMutability": "view",
      "type": "function",
      "constant": true
    }
  ],
  "bytecode": "0x608060405234801561001057600080fd5b50612444806100206000396000f3fe608060405234801561001057600080fd5b506004361061004c5760003560e01c806315608173146100515780631e61a9c214610081578063a96fe5f0146100b1578063c9c28e0f146100e8575b600080fd5b61006b600480360381019061006691906116cf565b610106565b6040516100789190611a19565b60405180910390f35b61009b60048036038101906100969190611f20565b6105e1565b6040516100a891906120f0565b60405180910390f35b6100cb60048036038101906100c691906116cf565b610bf2565b6040516100df98979695949392919061226c565b60405180910390f35b6100f0611040565b6040516100fd91906120f0565b60405180910390f35b61010e6114e6565b60005b6000805490508110156105da57826000828154811061013357610132612306565b5b90600052602060002090601002016004015414156105c7576000818154811061015f5761015e612306565b5b906000526020600020906010020160405180610100016040529081600082015481526020016001820154815260200160028201805461019d90612364565b80601f01602080910402602001604051908101604052809291908181526020018280546101c990612364565b80156102165780601f106101eb57610100808354040283529160200191610216565b820191906000526020600020905b8154815290600101906020018083116101f957829003601f168201915b5050505050815260200160038201805461022f90612364565b80601f016020809104026020016040519081016040528092919081815260200182805461025b90612364565b80156102a85780601f1061027d576101008083540402835291602001916102a8565b820191906000526020600020905b81548152906001019060200180831161028b57829003601f168201915b505050505081526020016004820154815260200160058201548152602001600682016040518060c0016040529081600082015481526020016001820180546102ef90612364565b80601f016020809104026020016040519081016040528092919081815260200182805461031b90612364565b80156103685780601f1061033d57610100808354040283529160200191610368565b820191906000526020600020905b81548152906001019060200180831161034b57829003601f168201915b50505050508152602001600282015481526020016003820154815260200160048201805461039590612364565b80601f01602080910402602001604051908101604052809291908181526020018280546103c190612364565b801561040e5780601f106103e35761010080835404028352916020019161040e565b820191906000526020600020905b8154815290600101906020018083116103f157829003601f168201915b505050505081526020016005820180548060200260200160405190810160405280929190818152602001828054801561046657602002820191906000526020600020905b815481526020019060010190808311610452575b5050505050815250508152602001600c82016040518060800160405290816000820154815260200160018201805461049d90612364565b80601f01602080910402602001604051908101604052809291908181526020018280546104c990612364565b80156105165780601f106104eb57610100808354040283529160200191610516565b820191906000526020600020905b8154815290600101906020018083116104f957829003601f168201915b5050505050815260200160028201805461052f90612364565b80601f016020809104026020016040519081016040528092919081815260200182805461055b90612364565b80156105a85780601f1061057d576101008083540402835291602001916105a8565b820191906000526020600020905b81548152906001019060200180831161058b57829003601f168201915b50505050508152602001600382015481525050815250509150506105dc565b80806105d2906123c5565b915050610111565b505b919050565b606060008290806001815401808255809150506001900390600052602060002090601002016000909190919091506000820151816000015560208201518160010155604082015181600201908051906020019061063f929190611537565b50606082015181600301908051906020019061065c929190611537565b506080820151816004015560a0820151816005015560c0820151816006016000820151816000015560208201518160010190805190602001906106a0929190611537565b50604082015181600201556060820151816003015560808201518160040190805190602001906106d1929190611537565b5060a08201518160050190805190602001906106ee9291906115bd565b50505060e082015181600c01600082015181600001556020820151816001019080519060200190610720929190611537565b50604082015181600201908051906020019061073d929190611537565b5060608201518160030155505050506000805480602002602001604051908101604052809291908181526020016000905b82821015610be757838290600052602060002090601002016040518061010001604052908160008201548152602001600182015481526020016002820180546107b690612364565b80601f01602080910402602001604051908101604052809291908181526020018280546107e290612364565b801561082f5780601f106108045761010080835404028352916020019161082f565b820191906000526020600020905b81548152906001019060200180831161081257829003601f168201915b5050505050815260200160038201805461084890612364565b80601f016020809104026020016040519081016040528092919081815260200182805461087490612364565b80156108c15780601f10610896576101008083540402835291602001916108c1565b820191906000526020600020905b8154815290600101906020018083116108a457829003601f168201915b505050505081526020016004820154815260200160058201548152602001600682016040518060c00160405290816000820154815260200160018201805461090890612364565b80601f016020809104026020016040519081016040528092919081815260200182805461093490612364565b80156109815780601f1061095657610100808354040283529160200191610981565b820191906000526020600020905b81548152906001019060200180831161096457829003601f168201915b5050505050815260200160028201548152602001600382015481526020016004820180546109ae90612364565b80601f01602080910402602001604051908101604052809291908181526020018280546109da90612364565b8015610a275780601f106109fc57610100808354040283529160200191610a27565b820191906000526020600020905b815481529060010190602001808311610a0a57829003601f168201915b5050505050815260200160058201805480602002602001604051908101604052809291908181526020018280548015610a7f57602002820191906000526020600020905b815481526020019060010190808311610a6b575b5050505050815250508152602001600c820160405180608001604052908160008201548152602001600182018054610ab690612364565b80601f0160208091040260200160405190810160405280929190818152602001828054610ae290612364565b8015610b2f5780601f10610b0457610100808354040283529160200191610b2f565b820191906000526020600020905b815481529060010190602001808311610b1257829003601f168201915b50505050508152602001600282018054610b4890612364565b80601f0160208091040260200160405190810160405280929190818152602001828054610b7490612364565b8015610bc15780601f10610b9657610100808354040283529160200191610bc1565b820191906000526020600020905b815481529060010190602001808311610ba457829003601f168201915b50505050508152602001600382015481525050815250508152602001906001019061076e565b505050509050919050565b60008181548110610c0257600080fd5b9060005260206000209060100201600091509050806000015490806001015490806002018054610c3190612364565b80601f0160208091040260200160405190810160405280929190818152602001828054610c5d90612364565b8015610caa5780601f10610c7f57610100808354040283529160200191610caa565b820191906000526020600020905b815481529060010190602001808311610c8d57829003601f168201915b505050505090806003018054610cbf90612364565b80601f0160208091040260200160405190810160405280929190818152602001828054610ceb90612364565b8015610d385780601f10610d0d57610100808354040283529160200191610d38565b820191906000526020600020905b815481529060010190602001808311610d1b57829003601f168201915b505050505090806004015490806005015490806006016040518060c001604052908160008201548152602001600182018054610d7390612364565b80601f0160208091040260200160405190810160405280929190818152602001828054610d9f90612364565b8015610dec5780601f10610dc157610100808354040283529160200191610dec565b820191906000526020600020905b815481529060010190602001808311610dcf57829003601f168201915b505050505081526020016002820154815260200160038201548152602001600482018054610e1990612364565b80601f0160208091040260200160405190810160405280929190818152602001828054610e4590612364565b8015610e925780601f10610e6757610100808354040283529160200191610e92565b820191906000526020600020905b815481529060010190602001808311610e7557829003601f168201915b5050505050815260200160058201805480602002602001604051908101604052809291908181526020018280548015610eea57602002820191906000526020600020905b815481526020019060010190808311610ed6575b5050505050815250509080600c0160405180608001604052908160008201548152602001600182018054610f1d90612364565b80601f0160208091040260200160405190810160405280929190818152602001828054610f4990612364565b8015610f965780601f10610f6b57610100808354040283529160200191610f96565b820191906000526020600020905b815481529060010190602001808311610f7957829003601f168201915b50505050508152602001600282018054610faf90612364565b80601f0160208091040260200160405190810160405280929190818152602001828054610fdb90612364565b80156110285780601f10610ffd57610100808354040283529160200191611028565b820191906000526020600020905b81548152906001019060200180831161100b57829003601f168201915b50505050508152602001600382015481525050905088565b60606000805480602002602001604051908101604052809291908181526020016000905b828210156114dd57838290600052602060002090601002016040518061010001604052908160008201548152602001600182015481526020016002820180546110ac90612364565b80601f01602080910402602001604051908101604052809291908181526020018280546110d890612364565b80156111255780601f106110fa57610100808354040283529160200191611125565b820191906000526020600020905b81548152906001019060200180831161110857829003601f168201915b5050505050815260200160038201805461113e90612364565b80601f016020809104026020016040519081016040528092919081815260200182805461116a90612364565b80156111b75780601f1061118c576101008083540402835291602001916111b7565b820191906000526020600020905b81548152906001019060200180831161119a57829003601f168201915b505050505081526020016004820154815260200160058201548152602001600682016040518060c0016040529081600082015481526020016001820180546111fe90612364565b80601f016020809104026020016040519081016040528092919081815260200182805461122a90612364565b80156112775780601f1061124c57610100808354040283529160200191611277565b820191906000526020600020905b81548152906001019060200180831161125a57829003601f168201915b5050505050815260200160028201548152602001600382015481526020016004820180546112a490612364565b80601f01602080910402602001604051908101604052809291908181526020018280546112d090612364565b801561131d5780601f106112f25761010080835404028352916020019161131d565b820191906000526020600020905b81548152906001019060200180831161130057829003601f168201915b505050505081526020016005820180548060200260200160405190810160405280929190818152602001828054801561137557602002820191906000526020600020905b815481526020019060010190808311611361575b5050505050815250508152602001600c8201604051806080016040529081600082015481526020016001820180546113ac90612364565b80601f01602080910402602001604051908101604052809291908181526020018280546113d890612364565b80156114255780601f106113fa57610100808354040283529160200191611425565b820191906000526020600020905b81548152906001019060200180831161140857829003601f168201915b5050505050815260200160028201805461143e90612364565b80601f016020809104026020016040519081016040528092919081815260200182805461146a90612364565b80156114b75780601f1061148c576101008083540402835291602001916114b7565b820191906000526020600020905b81548152906001019060200180831161149a57829003601f168201915b505050505081526020016003820154815250508152505081526020019060010190611064565b50505050905090565b60405180610100016040528060008152602001600081526020016060815260200160608152602001600081526020016000815260200161152461160a565b8152602001611531611640565b81525090565b82805461154390612364565b90600052602060002090601f01602090048101928261156557600085556115ac565b82601f1061157e57805160ff19168380011785556115ac565b828001600101855582156115ac579182015b828111156115ab578251825591602001919060010190611590565b5b5090506115b99190611668565b5090565b8280548282559060005260206000209081019282156115f9579160200282015b828111156115f85782518255916020019190600101906115dd565b5b5090506116069190611668565b5090565b6040518060c001604052806000815260200160608152602001600081526020016000815260200160608152602001606081525090565b6040518060800160405280600081526020016060815260200160608152602001600081525090565b5b80821115611681576000816000905550600101611669565b5090565b6000604051905090565b600080fd5b600080fd5b6000819050919050565b6116ac81611699565b81146116b757600080fd5b50565b6000813590506116c9816116a3565b92915050565b6000602082840312156116e5576116e461168f565b5b60006116f3848285016116ba565b91505092915050565b61170581611699565b82525050565b600081519050919050565b600082825260208201905092915050565b60005b8381101561174557808201518184015260208101905061172a565b83811115611754576000848401525b50505050565b6000601f19601f8301169050919050565b60006117768261170b565b6117808185611716565b9350611790818560208601611727565b6117998161175a565b840191505092915050565b600081519050919050565b600082825260208201905092915050565b6000819050602082019050919050565b60006117dc83836116fc565b60208301905092915050565b6000602082019050919050565b6000611800826117a4565b61180a81856117af565b9350611815836117c0565b8060005b8381101561184657815161182d88826117d0565b9750611838836117e8565b925050600181019050611819565b5085935050505092915050565b600060c08301600083015161186b60008601826116fc565b5060208301518482036020860152611883828261176b565b915050604083015161189860408601826116fc565b5060608301516118ab60608601826116fc565b50608083015184820360808601526118c3828261176b565b91505060a083015184820360a08601526118dd82826117f5565b9150508091505092915050565b600060808301600083015161190260008601826116fc565b506020830151848203602086015261191a828261176b565b91505060408301518482036040860152611934828261176b565b915050606083015161194960608601826116fc565b508091505092915050565b60006101008301600083015161196d60008601826116fc565b50602083015161198060208601826116fc565b5060408301518482036040860152611998828261176b565b915050606083015184820360608601526119b2828261176b565b91505060808301516119c760808601826116fc565b5060a08301516119da60a08601826116fc565b5060c083015184820360c08601526119f28282611853565b91505060e083015184820360e0860152611a0c82826118ea565b9150508091505092915050565b60006020820190508181036000830152611a338184611954565b905092915050565b600080fd5b7f4e487b7100000000000000000000000000000000000000000000000000000000600052604160045260246000fd5b611a788261175a565b810181811067ffffffffffffffff82111715611a9757611a96611a40565b5b80604052505050565b6000611aaa611685565b9050611ab68282611a6f565b919050565b600080fd5b600080fd5b600080fd5b600067ffffffffffffffff821115611ae557611ae4611a40565b5b611aee8261175a565b9050602081019050919050565b82818337600083830152505050565b6000611b1d611b1884611aca565b611aa0565b905082815260208101848484011115611b3957611b38611ac5565b5b611b44848285611afb565b509392505050565b600082601f830112611b6157611b60611ac0565b5b8135611b71848260208601611b0a565b91505092915050565b600067ffffffffffffffff821115611b9557611b94611a40565b5b602082029050602081019050919050565b600080fd5b6000611bbe611bb984611b7a565b611aa0565b90508083825260208201905060208402830185811115611be157611be0611ba6565b5b835b81811015611c0a5780611bf688826116ba565b845260208401935050602081019050611be3565b5050509392505050565b600082601f830112611c2957611c28611ac0565b5b8135611c39848260208601611bab565b91505092915050565b600060c08284031215611c5857611c57611a3b565b5b611c6260c0611aa0565b90506000611c72848285016116ba565b600083015250602082013567ffffffffffffffff811115611c9657611c95611abb565b5b611ca284828501611b4c565b6020830152506040611cb6848285016116ba565b6040830152506060611cca848285016116ba565b606083015250608082013567ffffffffffffffff811115611cee57611ced611abb565b5b611cfa84828501611b4c565b60808301525060a082013567ffffffffffffffff811115611d1e57611d1d611abb565b5b611d2a84828501611c14565b60a08301525092915050565b600060808284031215611d4c57611d4b611a3b565b5b611d566080611aa0565b90506000611d66848285016116ba565b600083015250602082013567ffffffffffffffff811115611d8a57611d89611abb565b5b611d9684828501611b4c565b602083015250604082013567ffffffffffffffff811115611dba57611db9611abb565b5b611dc684828501611b4c565b6040830152506060611dda848285016116ba565b60608301525092915050565b60006101008284031215611dfd57611dfc611a3b565b5b611e08610100611aa0565b90506000611e18848285016116ba565b6000830152506020611e2c848285016116ba565b602083015250604082013567ffffffffffffffff811115611e5057611e4f611abb565b5b611e5c84828501611b4c565b604083015250606082013567ffffffffffffffff811115611e8057611e7f611abb565b5b611e8c84828501611b4c565b6060830152506080611ea0848285016116ba565b60808301525060a0611eb4848285016116ba565b60a08301525060c082013567ffffffffffffffff811115611ed857611ed7611abb565b5b611ee484828501611c42565b60c08301525060e082013567ffffffffffffffff811115611f0857611f07611abb565b5b611f1484828501611d36565b60e08301525092915050565b600060208284031215611f3657611f3561168f565b5b600082013567ffffffffffffffff811115611f5457611f53611694565b5b611f6084828501611de6565b91505092915050565b600081519050919050565b600082825260208201905092915050565b6000819050602082019050919050565b600061010083016000830151611fae60008601826116fc565b506020830151611fc160208601826116fc565b5060408301518482036040860152611fd9828261176b565b91505060608301518482036060860152611ff3828261176b565b915050608083015161200860808601826116fc565b5060a083015161201b60a08601826116fc565b5060c083015184820360c08601526120338282611853565b91505060e083015184820360e086015261204d82826118ea565b9150508091505092915050565b60006120668383611f95565b905092915050565b6000602082019050919050565b600061208682611f69565b6120908185611f74565b9350836020820285016120a285611f85565b8060005b858110156120de57848403895281516120bf858261205a565b94506120ca8361206e565b925060208a019950506001810190506120a6565b50829750879550505050505092915050565b6000602082019050818103600083015261210a818461207b565b905092915050565b61211b81611699565b82525050565b600082825260208201905092915050565b600061213d8261170b565b6121478185612121565b9350612157818560208601611727565b6121608161175a565b840191505092915050565b600060c08301600083015161218360008601826116fc565b506020830151848203602086015261219b828261176b565b91505060408301516121b060408601826116fc565b5060608301516121c360608601826116fc565b50608083015184820360808601526121db828261176b565b91505060a083015184820360a08601526121f582826117f5565b9150508091505092915050565b600060808301600083015161221a60008601826116fc565b5060208301518482036020860152612232828261176b565b9150506040830151848203604086015261224c828261176b565b915050606083015161226160608601826116fc565b508091505092915050565b600061010082019050612282600083018b612112565b61228f602083018a612112565b81810360408301526122a18189612132565b905081810360608301526122b58188612132565b90506122c46080830187612112565b6122d160a0830186612112565b81810360c08301526122e3818561216b565b905081810360e08301526122f78184612202565b90509998505050505050505050565b7f4e487b7100000000000000000000000000000000000000000000000000000000600052603260045260246000fd5b7f4e487b7100000000000000000000000000000000000000000000000000000000600052602260045260246000fd5b6000600282049050600182168061237c57607f821691505b602082108114156123905761238f612335565b5b50919050565b7f4e487b7100000000000000000000000000000000000000000000000000000000600052601160045260246000fd5b60006123d082611699565b91507fffffffffffffffffffffffffffffffffffffffffffffffffffffffffffffffff82141561240357612402612396565b5b60018201905091905056fea2646970667358221220e95a68f4824022fbe6bc035522c66674956a539c68bf2012352ba4111bef5e0c64736f6c634300080b0033",
  "immutableReferences": {},
  "source": "// SPDX-License-Identifier: MIT\r\npragma solidity >=0.4.22 <0.9.0;\r\nimport \"./Remplissage.sol\";\r\n\r\ncontract Transformation is Remplissage {\r\n    Operation04[] public operationTankR;\r\n\r\n    function RetraitOperationTank(Operation04 memory operationTank)\r\n        public\r\n        returns (Operation04[] memory tt0)\r\n    {\r\n        operationTankR.push(operationTank);\r\n\r\n        return (operationTankR);\r\n    }\r\n\r\n    //get all operations\r\n\r\n    function getOperationTanks()\r\n        public\r\n        view\r\n        returns (Operation04[] memory result)\r\n    {\r\n        return operationTankR;\r\n    }\r\n\r\n    function getOperationusinebycode(uint256 code)\r\n        public\r\n        view\r\n        returns (Operation04 memory operation)\r\n    {\r\n        for (uint256 i = 0; i < operationTankR.length; i++) {\r\n            if (operationTankR[i].code == code) {\r\n                return operationTankR[i];\r\n            }\r\n        }\r\n    }\r\n}\r\n",
  "sourcePath": "C:\\Users\\ASUS\\Desktop\\pfe\\PFE_Project2022-Collecteur-\\PFE-FrontEnd\\contracts\\Transformation.sol",
  "compiler": {
    "name": "solc",
    "version": "0.8.11+commit.d7f03943.Emscripten.clang"
  },
  "schemaVersion": "3.4.5",
  "updatedAt": "2022-05-03T11:08:44.515Z",
  "networkType": "ethereum",
  "devdoc": {
    "kind": "dev",
    "methods": {},
    "version": 1
  },
  "userdoc": {
    "kind": "user",
    "methods": {},
    "version": 1
  }
}