{
  "contractName": "RemplissageUsine",
  "abi": [
    {
      "inputs": [
        {
          "internalType": "uint256",
          "name": "",
          "type": "uint256"
        }
      ],
      "name": "operationTank2",
      "outputs": [
        {
          "internalType": "uint256",
          "name": "idOpTank",
          "type": "uint256"
        },
        {
          "internalType": "uint256",
          "name": "qteInsereTank",
          "type": "uint256"
        },
        {
          "internalType": "string",
          "name": "date",
          "type": "string"
        },
        {
          "components": [
            {
              "internalType": "uint256",
              "name": "idOperation",
              "type": "uint256"
            },
            {
              "internalType": "uint256",
              "name": "poidsLait",
              "type": "uint256"
            },
            {
              "internalType": "string",
              "name": "dateOperation",
              "type": "string"
            },
            {
              "internalType": "string",
              "name": "typeOp",
              "type": "string"
            },
            {
              "internalType": "uint256",
              "name": "code",
              "type": "uint256"
            },
            {
              "components": [
                {
                  "internalType": "uint256",
                  "name": "idCentre",
                  "type": "uint256"
                },
                {
                  "internalType": "string",
                  "name": "nomCentre",
                  "type": "string"
                },
                {
                  "internalType": "string",
                  "name": "adresse",
                  "type": "string"
                },
                {
                  "internalType": "string",
                  "name": "ville",
                  "type": "string"
                }
              ],
              "internalType": "struct Remplissage.Centre",
              "name": "centreCollecte",
              "type": "tuple"
            }
          ],
          "internalType": "struct Remplissage.Operation03",
          "name": "operation",
          "type": "tuple"
        },
        {
          "components": [
            {
              "internalType": "uint256",
              "name": "idTank",
              "type": "uint256"
            },
            {
              "internalType": "string",
              "name": "matricule",
              "type": "string"
            },
            {
              "internalType": "uint256",
              "name": "poidVide",
              "type": "uint256"
            },
            {
              "internalType": "uint256",
              "name": "poidActuel",
              "type": "uint256"
            },
            {
              "internalType": "string",
              "name": "etat",
              "type": "string"
            },
            {
              "internalType": "uint256[]",
              "name": "codeTank",
              "type": "uint256[]"
            }
          ],
          "internalType": "struct Remplissage.Tank",
          "name": "tank",
          "type": "tuple"
        }
      ],
      "stateMutability": "view",
      "type": "function",
      "constant": true
    },
    {
      "inputs": [
        {
          "components": [
            {
              "internalType": "uint256",
              "name": "idOpTank",
              "type": "uint256"
            },
            {
              "internalType": "uint256",
              "name": "qteInsereTank",
              "type": "uint256"
            },
            {
              "internalType": "string",
              "name": "date",
              "type": "string"
            },
            {
              "components": [
                {
                  "internalType": "uint256",
                  "name": "idOperation",
                  "type": "uint256"
                },
                {
                  "internalType": "uint256",
                  "name": "poidsLait",
                  "type": "uint256"
                },
                {
                  "internalType": "string",
                  "name": "dateOperation",
                  "type": "string"
                },
                {
                  "internalType": "string",
                  "name": "typeOp",
                  "type": "string"
                },
                {
                  "internalType": "uint256",
                  "name": "code",
                  "type": "uint256"
                },
                {
                  "components": [
                    {
                      "internalType": "uint256",
                      "name": "idCentre",
                      "type": "uint256"
                    },
                    {
                      "internalType": "string",
                      "name": "nomCentre",
                      "type": "string"
                    },
                    {
                      "internalType": "string",
                      "name": "adresse",
                      "type": "string"
                    },
                    {
                      "internalType": "string",
                      "name": "ville",
                      "type": "string"
                    }
                  ],
                  "internalType": "struct Remplissage.Centre",
                  "name": "centreCollecte",
                  "type": "tuple"
                }
              ],
              "internalType": "struct Remplissage.Operation03",
              "name": "operation",
              "type": "tuple"
            },
            {
              "components": [
                {
                  "internalType": "uint256",
                  "name": "idTank",
                  "type": "uint256"
                },
                {
                  "internalType": "string",
                  "name": "matricule",
                  "type": "string"
                },
                {
                  "internalType": "uint256",
                  "name": "poidVide",
                  "type": "uint256"
                },
                {
                  "internalType": "uint256",
                  "name": "poidActuel",
                  "type": "uint256"
                },
                {
                  "internalType": "string",
                  "name": "etat",
                  "type": "string"
                },
                {
                  "internalType": "uint256[]",
                  "name": "codeTank",
                  "type": "uint256[]"
                }
              ],
              "internalType": "struct Remplissage.Tank",
              "name": "tank",
              "type": "tuple"
            }
          ],
          "internalType": "struct Remplissage.OperationTank03[]",
          "name": "operationTank",
          "type": "tuple[]"
        },
        {
          "internalType": "uint256",
          "name": "count",
          "type": "uint256"
        }
      ],
      "name": "addOperationTankUsine",
      "outputs": [
        {
          "components": [
            {
              "internalType": "uint256",
              "name": "idOpTank",
              "type": "uint256"
            },
            {
              "internalType": "uint256",
              "name": "qteInsereTank",
              "type": "uint256"
            },
            {
              "internalType": "string",
              "name": "date",
              "type": "string"
            },
            {
              "components": [
                {
                  "internalType": "uint256",
                  "name": "idOperation",
                  "type": "uint256"
                },
                {
                  "internalType": "uint256",
                  "name": "poidsLait",
                  "type": "uint256"
                },
                {
                  "internalType": "string",
                  "name": "dateOperation",
                  "type": "string"
                },
                {
                  "internalType": "string",
                  "name": "typeOp",
                  "type": "string"
                },
                {
                  "internalType": "uint256",
                  "name": "code",
                  "type": "uint256"
                },
                {
                  "components": [
                    {
                      "internalType": "uint256",
                      "name": "idCentre",
                      "type": "uint256"
                    },
                    {
                      "internalType": "string",
                      "name": "nomCentre",
                      "type": "string"
                    },
                    {
                      "internalType": "string",
                      "name": "adresse",
                      "type": "string"
                    },
                    {
                      "internalType": "string",
                      "name": "ville",
                      "type": "string"
                    }
                  ],
                  "internalType": "struct Remplissage.Centre",
                  "name": "centreCollecte",
                  "type": "tuple"
                }
              ],
              "internalType": "struct Remplissage.Operation03",
              "name": "operation",
              "type": "tuple"
            },
            {
              "components": [
                {
                  "internalType": "uint256",
                  "name": "idTank",
                  "type": "uint256"
                },
                {
                  "internalType": "string",
                  "name": "matricule",
                  "type": "string"
                },
                {
                  "internalType": "uint256",
                  "name": "poidVide",
                  "type": "uint256"
                },
                {
                  "internalType": "uint256",
                  "name": "poidActuel",
                  "type": "uint256"
                },
                {
                  "internalType": "string",
                  "name": "etat",
                  "type": "string"
                },
                {
                  "internalType": "uint256[]",
                  "name": "codeTank",
                  "type": "uint256[]"
                }
              ],
              "internalType": "struct Remplissage.Tank",
              "name": "tank",
              "type": "tuple"
            }
          ],
          "internalType": "struct Remplissage.OperationTank03[]",
          "name": "tt0",
          "type": "tuple[]"
        }
      ],
      "stateMutability": "nonpayable",
      "type": "function"
    },
    {
      "inputs": [],
      "name": "getOperationTanksUsine",
      "outputs": [
        {
          "components": [
            {
              "internalType": "uint256",
              "name": "idOpTank",
              "type": "uint256"
            },
            {
              "internalType": "uint256",
              "name": "qteInsereTank",
              "type": "uint256"
            },
            {
              "internalType": "string",
              "name": "date",
              "type": "string"
            },
            {
              "components": [
                {
                  "internalType": "uint256",
                  "name": "idOperation",
                  "type": "uint256"
                },
                {
                  "internalType": "uint256",
                  "name": "poidsLait",
                  "type": "uint256"
                },
                {
                  "internalType": "string",
                  "name": "dateOperation",
                  "type": "string"
                },
                {
                  "internalType": "string",
                  "name": "typeOp",
                  "type": "string"
                },
                {
                  "internalType": "uint256",
                  "name": "code",
                  "type": "uint256"
                },
                {
                  "components": [
                    {
                      "internalType": "uint256",
                      "name": "idCentre",
                      "type": "uint256"
                    },
                    {
                      "internalType": "string",
                      "name": "nomCentre",
                      "type": "string"
                    },
                    {
                      "internalType": "string",
                      "name": "adresse",
                      "type": "string"
                    },
                    {
                      "internalType": "string",
                      "name": "ville",
                      "type": "string"
                    }
                  ],
                  "internalType": "struct Remplissage.Centre",
                  "name": "centreCollecte",
                  "type": "tuple"
                }
              ],
              "internalType": "struct Remplissage.Operation03",
              "name": "operation",
              "type": "tuple"
            },
            {
              "components": [
                {
                  "internalType": "uint256",
                  "name": "idTank",
                  "type": "uint256"
                },
                {
                  "internalType": "string",
                  "name": "matricule",
                  "type": "string"
                },
                {
                  "internalType": "uint256",
                  "name": "poidVide",
                  "type": "uint256"
                },
                {
                  "internalType": "uint256",
                  "name": "poidActuel",
                  "type": "uint256"
                },
                {
                  "internalType": "string",
                  "name": "etat",
                  "type": "string"
                },
                {
                  "internalType": "uint256[]",
                  "name": "codeTank",
                  "type": "uint256[]"
                }
              ],
              "internalType": "struct Remplissage.Tank",
              "name": "tank",
              "type": "tuple"
            }
          ],
          "internalType": "struct Remplissage.OperationTank03[]",
          "name": "result",
          "type": "tuple[]"
        }
      ],
      "stateMutability": "view",
      "type": "function",
      "constant": true
    }
  ],
  "bytecode": "0x608060405234801561001057600080fd5b506123c8806100206000396000f3fe608060405234801561001057600080fd5b50600436106100415760003560e01c80631293485f146100465780632fca552914610076578063c279123a146100aa575b600080fd5b610060600480360381019061005b9190611bc5565b6100c8565b60405161006d919061204c565b60405180910390f35b610090600480360381019061008b919061206e565b61088f565b6040516100a1959493929190612222565b60405180910390f35b6100b2610e21565b6040516100bf919061204c565b60405180910390f35b606060005b828110156102b05760008482815181106100ea576100e961228a565b5b602002602001015190806001815401808255809150506001900390600052602060002090601202016000909190919091506000820151816000015560208201518160010155604082015181600201908051906020019061014b9291906113fe565b50606082015181600301600082015181600001556020820151816001015560408201518160020190805190602001906101859291906113fe565b5060608201518160030190805190602001906101a29291906113fe565b506080820151816004015560a0820151816005016000820151816000015560208201518160010190805190602001906101dc9291906113fe565b5060408201518160020190805190602001906101f99291906113fe565b5060608201518160030190805190602001906102169291906113fe565b5050505050608082015181600c0160008201518160000155602082015181600101908051906020019061024a9291906113fe565b506040820151816002015560608201518160030155608082015181600401908051906020019061027b9291906113fe565b5060a0820151816005019080519060200190610298929190611484565b505050505080806102a8906122e8565b9150506100cd565b506000805480602002602001604051908101604052809291908181526020016000905b8282101561088357838290600052602060002090601202016040518060a0016040529081600082015481526020016001820154815260200160028201805461031a90612360565b80601f016020809104026020016040519081016040528092919081815260200182805461034690612360565b80156103935780601f1061036857610100808354040283529160200191610393565b820191906000526020600020905b81548152906001019060200180831161037657829003601f168201915b50505050508152602001600382016040518060c001604052908160008201548152602001600182015481526020016002820180546103d090612360565b80601f01602080910402602001604051908101604052809291908181526020018280546103fc90612360565b80156104495780601f1061041e57610100808354040283529160200191610449565b820191906000526020600020905b81548152906001019060200180831161042c57829003601f168201915b5050505050815260200160038201805461046290612360565b80601f016020809104026020016040519081016040528092919081815260200182805461048e90612360565b80156104db5780601f106104b0576101008083540402835291602001916104db565b820191906000526020600020905b8154815290600101906020018083116104be57829003601f168201915b5050505050815260200160048201548152602001600582016040518060800160405290816000820154815260200160018201805461051890612360565b80601f016020809104026020016040519081016040528092919081815260200182805461054490612360565b80156105915780601f1061056657610100808354040283529160200191610591565b820191906000526020600020905b81548152906001019060200180831161057457829003601f168201915b505050505081526020016002820180546105aa90612360565b80601f01602080910402602001604051908101604052809291908181526020018280546105d690612360565b80156106235780601f106105f857610100808354040283529160200191610623565b820191906000526020600020905b81548152906001019060200180831161060657829003601f168201915b5050505050815260200160038201805461063c90612360565b80601f016020809104026020016040519081016040528092919081815260200182805461066890612360565b80156106b55780601f1061068a576101008083540402835291602001916106b5565b820191906000526020600020905b81548152906001019060200180831161069857829003601f168201915b505050505081525050815250508152602001600c82016040518060c0016040529081600082015481526020016001820180546106f090612360565b80601f016020809104026020016040519081016040528092919081815260200182805461071c90612360565b80156107695780601f1061073e57610100808354040283529160200191610769565b820191906000526020600020905b81548152906001019060200180831161074c57829003601f168201915b50505050508152602001600282015481526020016003820154815260200160048201805461079690612360565b80601f01602080910402602001604051908101604052809291908181526020018280546107c290612360565b801561080f5780601f106107e45761010080835404028352916020019161080f565b820191906000526020600020905b8154815290600101906020018083116107f257829003601f168201915b505050505081526020016005820180548060200260200160405190810160405280929190818152602001828054801561086757602002820191906000526020600020905b815481526020019060010190808311610853575b50505050508152505081525050815260200190600101906102d3565b50505050905092915050565b6000818154811061089f57600080fd5b90600052602060002090601202016000915090508060000154908060010154908060020180546108ce90612360565b80601f01602080910402602001604051908101604052809291908181526020018280546108fa90612360565b80156109475780601f1061091c57610100808354040283529160200191610947565b820191906000526020600020905b81548152906001019060200180831161092a57829003601f168201915b505050505090806003016040518060c0016040529081600082015481526020016001820154815260200160028201805461098090612360565b80601f01602080910402602001604051908101604052809291908181526020018280546109ac90612360565b80156109f95780601f106109ce576101008083540402835291602001916109f9565b820191906000526020600020905b8154815290600101906020018083116109dc57829003601f168201915b50505050508152602001600382018054610a1290612360565b80601f0160208091040260200160405190810160405280929190818152602001828054610a3e90612360565b8015610a8b5780601f10610a6057610100808354040283529160200191610a8b565b820191906000526020600020905b815481529060010190602001808311610a6e57829003601f168201915b50505050508152602001600482015481526020016005820160405180608001604052908160008201548152602001600182018054610ac890612360565b80601f0160208091040260200160405190810160405280929190818152602001828054610af490612360565b8015610b415780601f10610b1657610100808354040283529160200191610b41565b820191906000526020600020905b815481529060010190602001808311610b2457829003601f168201915b50505050508152602001600282018054610b5a90612360565b80601f0160208091040260200160405190810160405280929190818152602001828054610b8690612360565b8015610bd35780601f10610ba857610100808354040283529160200191610bd3565b820191906000526020600020905b815481529060010190602001808311610bb657829003601f168201915b50505050508152602001600382018054610bec90612360565b80601f0160208091040260200160405190810160405280929190818152602001828054610c1890612360565b8015610c655780601f10610c3a57610100808354040283529160200191610c65565b820191906000526020600020905b815481529060010190602001808311610c4857829003601f168201915b505050505081525050815250509080600c016040518060c001604052908160008201548152602001600182018054610c9c90612360565b80601f0160208091040260200160405190810160405280929190818152602001828054610cc890612360565b8015610d155780601f10610cea57610100808354040283529160200191610d15565b820191906000526020600020905b815481529060010190602001808311610cf857829003601f168201915b505050505081526020016002820154815260200160038201548152602001600482018054610d4290612360565b80601f0160208091040260200160405190810160405280929190818152602001828054610d6e90612360565b8015610dbb5780601f10610d9057610100808354040283529160200191610dbb565b820191906000526020600020905b815481529060010190602001808311610d9e57829003601f168201915b5050505050815260200160058201805480602002602001604051908101604052809291908181526020018280548015610e1357602002820191906000526020600020905b815481526020019060010190808311610dff575b505050505081525050905085565b60606000805480602002602001604051908101604052809291908181526020016000905b828210156113f557838290600052602060002090601202016040518060a00160405290816000820154815260200160018201548152602001600282018054610e8c90612360565b80601f0160208091040260200160405190810160405280929190818152602001828054610eb890612360565b8015610f055780601f10610eda57610100808354040283529160200191610f05565b820191906000526020600020905b815481529060010190602001808311610ee857829003601f168201915b50505050508152602001600382016040518060c00160405290816000820154815260200160018201548152602001600282018054610f4290612360565b80601f0160208091040260200160405190810160405280929190818152602001828054610f6e90612360565b8015610fbb5780601f10610f9057610100808354040283529160200191610fbb565b820191906000526020600020905b815481529060010190602001808311610f9e57829003601f168201915b50505050508152602001600382018054610fd490612360565b80601f016020809104026020016040519081016040528092919081815260200182805461100090612360565b801561104d5780601f106110225761010080835404028352916020019161104d565b820191906000526020600020905b81548152906001019060200180831161103057829003601f168201915b5050505050815260200160048201548152602001600582016040518060800160405290816000820154815260200160018201805461108a90612360565b80601f01602080910402602001604051908101604052809291908181526020018280546110b690612360565b80156111035780601f106110d857610100808354040283529160200191611103565b820191906000526020600020905b8154815290600101906020018083116110e657829003601f168201915b5050505050815260200160028201805461111c90612360565b80601f016020809104026020016040519081016040528092919081815260200182805461114890612360565b80156111955780601f1061116a57610100808354040283529160200191611195565b820191906000526020600020905b81548152906001019060200180831161117857829003601f168201915b505050505081526020016003820180546111ae90612360565b80601f01602080910402602001604051908101604052809291908181526020018280546111da90612360565b80156112275780601f106111fc57610100808354040283529160200191611227565b820191906000526020600020905b81548152906001019060200180831161120a57829003601f168201915b505050505081525050815250508152602001600c82016040518060c00160405290816000820154815260200160018201805461126290612360565b80601f016020809104026020016040519081016040528092919081815260200182805461128e90612360565b80156112db5780601f106112b0576101008083540402835291602001916112db565b820191906000526020600020905b8154815290600101906020018083116112be57829003601f168201915b50505050508152602001600282015481526020016003820154815260200160048201805461130890612360565b80601f016020809104026020016040519081016040528092919081815260200182805461133490612360565b80156113815780601f1061135657610100808354040283529160200191611381565b820191906000526020600020905b81548152906001019060200180831161136457829003601f168201915b50505050508152602001600582018054806020026020016040519081016040528092919081815260200182805480156113d957602002820191906000526020600020905b8154815260200190600101908083116113c5575b5050505050815250508152505081526020019060010190610e45565b50505050905090565b82805461140a90612360565b90600052602060002090601f01602090048101928261142c5760008555611473565b82601f1061144557805160ff1916838001178555611473565b82800160010185558215611473579182015b82811115611472578251825591602001919060010190611457565b5b50905061148091906114d1565b5090565b8280548282559060005260206000209081019282156114c0579160200282015b828111156114bf5782518255916020019190600101906114a4565b5b5090506114cd91906114d1565b5090565b5b808211156114ea5760008160009055506001016114d2565b5090565b6000604051905090565b600080fd5b600080fd5b600080fd5b6000601f19601f8301169050919050565b7f4e487b7100000000000000000000000000000000000000000000000000000000600052604160045260246000fd5b61155082611507565b810181811067ffffffffffffffff8211171561156f5761156e611518565b5b80604052505050565b60006115826114ee565b905061158e8282611547565b919050565b600067ffffffffffffffff8211156115ae576115ad611518565b5b602082029050602081019050919050565b600080fd5b600080fd5b600080fd5b6000819050919050565b6115e1816115ce565b81146115ec57600080fd5b50565b6000813590506115fe816115d8565b92915050565b600080fd5b600067ffffffffffffffff82111561162457611623611518565b5b61162d82611507565b9050602081019050919050565b82818337600083830152505050565b600061165c61165784611609565b611578565b90508281526020810184848401111561167857611677611604565b5b61168384828561163a565b509392505050565b600082601f8301126116a05761169f611502565b5b81356116b0848260208601611649565b91505092915050565b6000608082840312156116cf576116ce6115c4565b5b6116d96080611578565b905060006116e9848285016115ef565b600083015250602082013567ffffffffffffffff81111561170d5761170c6115c9565b5b6117198482850161168b565b602083015250604082013567ffffffffffffffff81111561173d5761173c6115c9565b5b6117498482850161168b565b604083015250606082013567ffffffffffffffff81111561176d5761176c6115c9565b5b6117798482850161168b565b60608301525092915050565b600060c0828403121561179b5761179a6115c4565b5b6117a560c0611578565b905060006117b5848285016115ef565b60008301525060206117c9848285016115ef565b602083015250604082013567ffffffffffffffff8111156117ed576117ec6115c9565b5b6117f98482850161168b565b604083015250606082013567ffffffffffffffff81111561181d5761181c6115c9565b5b6118298482850161168b565b606083015250608061183d848285016115ef565b60808301525060a082013567ffffffffffffffff811115611861576118606115c9565b5b61186d848285016116b9565b60a08301525092915050565b600067ffffffffffffffff82111561189457611893611518565b5b602082029050602081019050919050565b60006118b86118b384611879565b611578565b905080838252602082019050602084028301858111156118db576118da6115bf565b5b835b8181101561190457806118f088826115ef565b8452602084019350506020810190506118dd565b5050509392505050565b600082601f83011261192357611922611502565b5b81356119338482602086016118a5565b91505092915050565b600060c08284031215611952576119516115c4565b5b61195c60c0611578565b9050600061196c848285016115ef565b600083015250602082013567ffffffffffffffff8111156119905761198f6115c9565b5b61199c8482850161168b565b60208301525060406119b0848285016115ef565b60408301525060606119c4848285016115ef565b606083015250608082013567ffffffffffffffff8111156119e8576119e76115c9565b5b6119f48482850161168b565b60808301525060a082013567ffffffffffffffff811115611a1857611a176115c9565b5b611a248482850161190e565b60a08301525092915050565b600060a08284031215611a4657611a456115c4565b5b611a5060a0611578565b90506000611a60848285016115ef565b6000830152506020611a74848285016115ef565b602083015250604082013567ffffffffffffffff811115611a9857611a976115c9565b5b611aa48482850161168b565b604083015250606082013567ffffffffffffffff811115611ac857611ac76115c9565b5b611ad484828501611785565b606083015250608082013567ffffffffffffffff811115611af857611af76115c9565b5b611b048482850161193c565b60808301525092915050565b6000611b23611b1e84611593565b611578565b90508083825260208201905060208402830185811115611b4657611b456115bf565b5b835b81811015611b8d57803567ffffffffffffffff811115611b6b57611b6a611502565b5b808601611b788982611a30565b85526020850194505050602081019050611b48565b5050509392505050565b600082601f830112611bac57611bab611502565b5b8135611bbc848260208601611b10565b91505092915050565b60008060408385031215611bdc57611bdb6114f8565b5b600083013567ffffffffffffffff811115611bfa57611bf96114fd565b5b611c0685828601611b97565b9250506020611c17858286016115ef565b9150509250929050565b600081519050919050565b600082825260208201905092915050565b6000819050602082019050919050565b611c56816115ce565b82525050565b600081519050919050565b600082825260208201905092915050565b60005b83811015611c96578082015181840152602081019050611c7b565b83811115611ca5576000848401525b50505050565b6000611cb682611c5c565b611cc08185611c67565b9350611cd0818560208601611c78565b611cd981611507565b840191505092915050565b6000608083016000830151611cfc6000860182611c4d565b5060208301518482036020860152611d148282611cab565b91505060408301518482036040860152611d2e8282611cab565b91505060608301518482036060860152611d488282611cab565b9150508091505092915050565b600060c083016000830151611d6d6000860182611c4d565b506020830151611d806020860182611c4d565b5060408301518482036040860152611d988282611cab565b91505060608301518482036060860152611db28282611cab565b9150506080830151611dc76080860182611c4d565b5060a083015184820360a0860152611ddf8282611ce4565b9150508091505092915050565b600081519050919050565b600082825260208201905092915050565b6000819050602082019050919050565b6000611e248383611c4d565b60208301905092915050565b6000602082019050919050565b6000611e4882611dec565b611e528185611df7565b9350611e5d83611e08565b8060005b83811015611e8e578151611e758882611e18565b9750611e8083611e30565b925050600181019050611e61565b5085935050505092915050565b600060c083016000830151611eb36000860182611c4d565b5060208301518482036020860152611ecb8282611cab565b9150506040830151611ee06040860182611c4d565b506060830151611ef36060860182611c4d565b5060808301518482036080860152611f0b8282611cab565b91505060a083015184820360a0860152611f258282611e3d565b9150508091505092915050565b600060a083016000830151611f4a6000860182611c4d565b506020830151611f5d6020860182611c4d565b5060408301518482036040860152611f758282611cab565b91505060608301518482036060860152611f8f8282611d55565b91505060808301518482036080860152611fa98282611e9b565b9150508091505092915050565b6000611fc28383611f32565b905092915050565b6000602082019050919050565b6000611fe282611c21565b611fec8185611c2c565b935083602082028501611ffe85611c3d565b8060005b8581101561203a578484038952815161201b8582611fb6565b945061202683611fca565b925060208a01995050600181019050612002565b50829750879550505050505092915050565b600060208201905081810360008301526120668184611fd7565b905092915050565b600060208284031215612084576120836114f8565b5b6000612092848285016115ef565b91505092915050565b6120a4816115ce565b82525050565b600082825260208201905092915050565b60006120c682611c5c565b6120d081856120aa565b93506120e0818560208601611c78565b6120e981611507565b840191505092915050565b600060c08301600083015161210c6000860182611c4d565b50602083015161211f6020860182611c4d565b50604083015184820360408601526121378282611cab565b915050606083015184820360608601526121518282611cab565b91505060808301516121666080860182611c4d565b5060a083015184820360a086015261217e8282611ce4565b9150508091505092915050565b600060c0830160008301516121a36000860182611c4d565b50602083015184820360208601526121bb8282611cab565b91505060408301516121d06040860182611c4d565b5060608301516121e36060860182611c4d565b50608083015184820360808601526121fb8282611cab565b91505060a083015184820360a08601526122158282611e3d565b9150508091505092915050565b600060a082019050612237600083018861209b565b612244602083018761209b565b818103604083015261225681866120bb565b9050818103606083015261226a81856120f4565b9050818103608083015261227e818461218b565b90509695505050505050565b7f4e487b7100000000000000000000000000000000000000000000000000000000600052603260045260246000fd5b7f4e487b7100000000000000000000000000000000000000000000000000000000600052601160045260246000fd5b60006122f3826115ce565b91507fffffffffffffffffffffffffffffffffffffffffffffffffffffffffffffffff821415612326576123256122b9565b5b600182019050919050565b7f4e487b7100000000000000000000000000000000000000000000000000000000600052602260045260246000fd5b6000600282049050600182168061237857607f821691505b6020821081141561238c5761238b612331565b5b5091905056fea2646970667358221220dfbe7b85a40837f94e48bb39a7ca22ce3d5a74a76a83ddb1340a9897cbc5080464736f6c634300080b0033",
  "immutableReferences": {},
  "source": "// SPDX-License-Identifier: MIT\r\npragma solidity >=0.4.22 <0.9.0;\r\nimport \"./Remplissage.sol\";\r\n\r\ncontract RemplissageUsine is Remplissage {\r\n    //*********************************************************************************/\r\n    //second app\r\n    //******************************************************************************/\r\n\r\n    OperationTank03[] public operationTank2;\r\n\r\n    function addOperationTankUsine(\r\n        OperationTank03[] memory operationTank,\r\n        uint256 count\r\n    ) public returns (OperationTank03[] memory tt0) {\r\n        for (uint256 i = 0; i < count; i++) {\r\n            operationTank2.push(operationTank[i]);\r\n        }\r\n        return (operationTank2);\r\n    }\r\n\r\n    //get all operations\r\n\r\n    function getOperationTanksUsine()\r\n        public\r\n        view\r\n        returns (OperationTank03[] memory result)\r\n    {\r\n        return operationTank2;\r\n    }\r\n}\r\n",
  "sourcePath": "C:\\Users\\ASUS\\Desktop\\pfe\\PFE_Project2022-Collecteur-\\PFE-FrontEnd\\contracts\\RemplissageUsine.sol",
  "compiler": {
    "name": "solc",
    "version": "0.8.11+commit.d7f03943.Emscripten.clang"
  },
  "schemaVersion": "3.4.5",
  "updatedAt": "2022-04-28T09:46:05.151Z",
  "networkType": "ethereum",
  "devdoc": {
    "kind": "dev",
    "methods": {},
    "version": 1
  },
  "userdoc": {
    "kind": "user",
    "methods": {},
    "version": 1
  }
}