{
  "contractName": "RemplissageCol",
  "abi": [
    {
      "inputs": [
        {
          "internalType": "uint256",
          "name": "",
          "type": "uint256"
        }
      ],
      "name": "operationTank2",
      "outputs": [
        {
          "internalType": "uint256",
          "name": "idOpTank",
          "type": "uint256"
        },
        {
          "internalType": "uint256",
          "name": "qteInsereTank",
          "type": "uint256"
        },
        {
          "internalType": "string",
          "name": "date",
          "type": "string"
        },
        {
          "components": [
            {
              "internalType": "uint256",
              "name": "idOperation",
              "type": "uint256"
            },
            {
              "internalType": "uint256",
              "name": "poidsLait",
              "type": "uint256"
            },
            {
              "internalType": "string",
              "name": "dateOperation",
              "type": "string"
            },
            {
              "internalType": "string",
              "name": "typeOp",
              "type": "string"
            },
            {
              "internalType": "uint256",
              "name": "code",
              "type": "uint256"
            },
            {
              "components": [
                {
                  "internalType": "uint256",
                  "name": "idAgriculteur",
                  "type": "uint256"
                },
                {
                  "internalType": "string",
                  "name": "nom",
                  "type": "string"
                },
                {
                  "internalType": "string",
                  "name": "prenom",
                  "type": "string"
                },
                {
                  "internalType": "string",
                  "name": "email",
                  "type": "string"
                },
                {
                  "internalType": "string",
                  "name": "adress",
                  "type": "string"
                },
                {
                  "internalType": "uint256",
                  "name": "tel",
                  "type": "uint256"
                }
              ],
              "internalType": "struct Remplissage.Agriculteur0",
              "name": "agriculteur",
              "type": "tuple"
            },
            {
              "components": [
                {
                  "internalType": "uint256",
                  "name": "idChef",
                  "type": "uint256"
                },
                {
                  "internalType": "string",
                  "name": "nom",
                  "type": "string"
                },
                {
                  "internalType": "string",
                  "name": "prenom",
                  "type": "string"
                },
                {
                  "internalType": "string",
                  "name": "email",
                  "type": "string"
                },
                {
                  "internalType": "string",
                  "name": "adress",
                  "type": "string"
                },
                {
                  "internalType": "uint256",
                  "name": "tel",
                  "type": "uint256"
                },
                {
                  "internalType": "uint256",
                  "name": "cin",
                  "type": "uint256"
                },
                {
                  "internalType": "string",
                  "name": "username",
                  "type": "string"
                },
                {
                  "internalType": "string",
                  "name": "password",
                  "type": "string"
                }
              ],
              "internalType": "struct Remplissage.Chef",
              "name": "chef",
              "type": "tuple"
            }
          ],
          "internalType": "struct Remplissage.Operation0",
          "name": "operation",
          "type": "tuple"
        },
        {
          "components": [
            {
              "internalType": "uint256",
              "name": "idTank",
              "type": "uint256"
            },
            {
              "internalType": "string",
              "name": "matricule",
              "type": "string"
            },
            {
              "internalType": "uint256",
              "name": "poidVide",
              "type": "uint256"
            },
            {
              "internalType": "uint256",
              "name": "poidActuel",
              "type": "uint256"
            },
            {
              "internalType": "string",
              "name": "etat",
              "type": "string"
            },
            {
              "internalType": "uint256[]",
              "name": "codeTank",
              "type": "uint256[]"
            }
          ],
          "internalType": "struct Remplissage.Tank",
          "name": "tank",
          "type": "tuple"
        }
      ],
      "stateMutability": "view",
      "type": "function",
      "constant": true
    },
    {
      "inputs": [
        {
          "components": [
            {
              "internalType": "uint256",
              "name": "idOpTank",
              "type": "uint256"
            },
            {
              "internalType": "uint256",
              "name": "qteInsereTank",
              "type": "uint256"
            },
            {
              "internalType": "string",
              "name": "date",
              "type": "string"
            },
            {
              "components": [
                {
                  "internalType": "uint256",
                  "name": "idOperation",
                  "type": "uint256"
                },
                {
                  "internalType": "uint256",
                  "name": "poidsLait",
                  "type": "uint256"
                },
                {
                  "internalType": "string",
                  "name": "dateOperation",
                  "type": "string"
                },
                {
                  "internalType": "string",
                  "name": "typeOp",
                  "type": "string"
                },
                {
                  "internalType": "uint256",
                  "name": "code",
                  "type": "uint256"
                },
                {
                  "components": [
                    {
                      "internalType": "uint256",
                      "name": "idAgriculteur",
                      "type": "uint256"
                    },
                    {
                      "internalType": "string",
                      "name": "nom",
                      "type": "string"
                    },
                    {
                      "internalType": "string",
                      "name": "prenom",
                      "type": "string"
                    },
                    {
                      "internalType": "string",
                      "name": "email",
                      "type": "string"
                    },
                    {
                      "internalType": "string",
                      "name": "adress",
                      "type": "string"
                    },
                    {
                      "internalType": "uint256",
                      "name": "tel",
                      "type": "uint256"
                    }
                  ],
                  "internalType": "struct Remplissage.Agriculteur0",
                  "name": "agriculteur",
                  "type": "tuple"
                },
                {
                  "components": [
                    {
                      "internalType": "uint256",
                      "name": "idChef",
                      "type": "uint256"
                    },
                    {
                      "internalType": "string",
                      "name": "nom",
                      "type": "string"
                    },
                    {
                      "internalType": "string",
                      "name": "prenom",
                      "type": "string"
                    },
                    {
                      "internalType": "string",
                      "name": "email",
                      "type": "string"
                    },
                    {
                      "internalType": "string",
                      "name": "adress",
                      "type": "string"
                    },
                    {
                      "internalType": "uint256",
                      "name": "tel",
                      "type": "uint256"
                    },
                    {
                      "internalType": "uint256",
                      "name": "cin",
                      "type": "uint256"
                    },
                    {
                      "internalType": "string",
                      "name": "username",
                      "type": "string"
                    },
                    {
                      "internalType": "string",
                      "name": "password",
                      "type": "string"
                    }
                  ],
                  "internalType": "struct Remplissage.Chef",
                  "name": "chef",
                  "type": "tuple"
                }
              ],
              "internalType": "struct Remplissage.Operation0",
              "name": "operation",
              "type": "tuple"
            },
            {
              "components": [
                {
                  "internalType": "uint256",
                  "name": "idTank",
                  "type": "uint256"
                },
                {
                  "internalType": "string",
                  "name": "matricule",
                  "type": "string"
                },
                {
                  "internalType": "uint256",
                  "name": "poidVide",
                  "type": "uint256"
                },
                {
                  "internalType": "uint256",
                  "name": "poidActuel",
                  "type": "uint256"
                },
                {
                  "internalType": "string",
                  "name": "etat",
                  "type": "string"
                },
                {
                  "internalType": "uint256[]",
                  "name": "codeTank",
                  "type": "uint256[]"
                }
              ],
              "internalType": "struct Remplissage.Tank",
              "name": "tank",
              "type": "tuple"
            }
          ],
          "internalType": "struct Remplissage.OperationTank[]",
          "name": "operationTank",
          "type": "tuple[]"
        },
        {
          "internalType": "uint256",
          "name": "count",
          "type": "uint256"
        }
      ],
      "name": "addOperationTank",
      "outputs": [
        {
          "components": [
            {
              "internalType": "uint256",
              "name": "idOpTank",
              "type": "uint256"
            },
            {
              "internalType": "uint256",
              "name": "qteInsereTank",
              "type": "uint256"
            },
            {
              "internalType": "string",
              "name": "date",
              "type": "string"
            },
            {
              "components": [
                {
                  "internalType": "uint256",
                  "name": "idOperation",
                  "type": "uint256"
                },
                {
                  "internalType": "uint256",
                  "name": "poidsLait",
                  "type": "uint256"
                },
                {
                  "internalType": "string",
                  "name": "dateOperation",
                  "type": "string"
                },
                {
                  "internalType": "string",
                  "name": "typeOp",
                  "type": "string"
                },
                {
                  "internalType": "uint256",
                  "name": "code",
                  "type": "uint256"
                },
                {
                  "components": [
                    {
                      "internalType": "uint256",
                      "name": "idAgriculteur",
                      "type": "uint256"
                    },
                    {
                      "internalType": "string",
                      "name": "nom",
                      "type": "string"
                    },
                    {
                      "internalType": "string",
                      "name": "prenom",
                      "type": "string"
                    },
                    {
                      "internalType": "string",
                      "name": "email",
                      "type": "string"
                    },
                    {
                      "internalType": "string",
                      "name": "adress",
                      "type": "string"
                    },
                    {
                      "internalType": "uint256",
                      "name": "tel",
                      "type": "uint256"
                    }
                  ],
                  "internalType": "struct Remplissage.Agriculteur0",
                  "name": "agriculteur",
                  "type": "tuple"
                },
                {
                  "components": [
                    {
                      "internalType": "uint256",
                      "name": "idChef",
                      "type": "uint256"
                    },
                    {
                      "internalType": "string",
                      "name": "nom",
                      "type": "string"
                    },
                    {
                      "internalType": "string",
                      "name": "prenom",
                      "type": "string"
                    },
                    {
                      "internalType": "string",
                      "name": "email",
                      "type": "string"
                    },
                    {
                      "internalType": "string",
                      "name": "adress",
                      "type": "string"
                    },
                    {
                      "internalType": "uint256",
                      "name": "tel",
                      "type": "uint256"
                    },
                    {
                      "internalType": "uint256",
                      "name": "cin",
                      "type": "uint256"
                    },
                    {
                      "internalType": "string",
                      "name": "username",
                      "type": "string"
                    },
                    {
                      "internalType": "string",
                      "name": "password",
                      "type": "string"
                    }
                  ],
                  "internalType": "struct Remplissage.Chef",
                  "name": "chef",
                  "type": "tuple"
                }
              ],
              "internalType": "struct Remplissage.Operation0",
              "name": "operation",
              "type": "tuple"
            },
            {
              "components": [
                {
                  "internalType": "uint256",
                  "name": "idTank",
                  "type": "uint256"
                },
                {
                  "internalType": "string",
                  "name": "matricule",
                  "type": "string"
                },
                {
                  "internalType": "uint256",
                  "name": "poidVide",
                  "type": "uint256"
                },
                {
                  "internalType": "uint256",
                  "name": "poidActuel",
                  "type": "uint256"
                },
                {
                  "internalType": "string",
                  "name": "etat",
                  "type": "string"
                },
                {
                  "internalType": "uint256[]",
                  "name": "codeTank",
                  "type": "uint256[]"
                }
              ],
              "internalType": "struct Remplissage.Tank",
              "name": "tank",
              "type": "tuple"
            }
          ],
          "internalType": "struct Remplissage.OperationTank[]",
          "name": "tt0",
          "type": "tuple[]"
        }
      ],
      "stateMutability": "nonpayable",
      "type": "function"
    },
    {
      "inputs": [],
      "name": "getOperationTanks",
      "outputs": [
        {
          "components": [
            {
              "internalType": "uint256",
              "name": "idOpTank",
              "type": "uint256"
            },
            {
              "internalType": "uint256",
              "name": "qteInsereTank",
              "type": "uint256"
            },
            {
              "internalType": "string",
              "name": "date",
              "type": "string"
            },
            {
              "components": [
                {
                  "internalType": "uint256",
                  "name": "idOperation",
                  "type": "uint256"
                },
                {
                  "internalType": "uint256",
                  "name": "poidsLait",
                  "type": "uint256"
                },
                {
                  "internalType": "string",
                  "name": "dateOperation",
                  "type": "string"
                },
                {
                  "internalType": "string",
                  "name": "typeOp",
                  "type": "string"
                },
                {
                  "internalType": "uint256",
                  "name": "code",
                  "type": "uint256"
                },
                {
                  "components": [
                    {
                      "internalType": "uint256",
                      "name": "idAgriculteur",
                      "type": "uint256"
                    },
                    {
                      "internalType": "string",
                      "name": "nom",
                      "type": "string"
                    },
                    {
                      "internalType": "string",
                      "name": "prenom",
                      "type": "string"
                    },
                    {
                      "internalType": "string",
                      "name": "email",
                      "type": "string"
                    },
                    {
                      "internalType": "string",
                      "name": "adress",
                      "type": "string"
                    },
                    {
                      "internalType": "uint256",
                      "name": "tel",
                      "type": "uint256"
                    }
                  ],
                  "internalType": "struct Remplissage.Agriculteur0",
                  "name": "agriculteur",
                  "type": "tuple"
                },
                {
                  "components": [
                    {
                      "internalType": "uint256",
                      "name": "idChef",
                      "type": "uint256"
                    },
                    {
                      "internalType": "string",
                      "name": "nom",
                      "type": "string"
                    },
                    {
                      "internalType": "string",
                      "name": "prenom",
                      "type": "string"
                    },
                    {
                      "internalType": "string",
                      "name": "email",
                      "type": "string"
                    },
                    {
                      "internalType": "string",
                      "name": "adress",
                      "type": "string"
                    },
                    {
                      "internalType": "uint256",
                      "name": "tel",
                      "type": "uint256"
                    },
                    {
                      "internalType": "uint256",
                      "name": "cin",
                      "type": "uint256"
                    },
                    {
                      "internalType": "string",
                      "name": "username",
                      "type": "string"
                    },
                    {
                      "internalType": "string",
                      "name": "password",
                      "type": "string"
                    }
                  ],
                  "internalType": "struct Remplissage.Chef",
                  "name": "chef",
                  "type": "tuple"
                }
              ],
              "internalType": "struct Remplissage.Operation0",
              "name": "operation",
              "type": "tuple"
            },
            {
              "components": [
                {
                  "internalType": "uint256",
                  "name": "idTank",
                  "type": "uint256"
                },
                {
                  "internalType": "string",
                  "name": "matricule",
                  "type": "string"
                },
                {
                  "internalType": "uint256",
                  "name": "poidVide",
                  "type": "uint256"
                },
                {
                  "internalType": "uint256",
                  "name": "poidActuel",
                  "type": "uint256"
                },
                {
                  "internalType": "string",
                  "name": "etat",
                  "type": "string"
                },
                {
                  "internalType": "uint256[]",
                  "name": "codeTank",
                  "type": "uint256[]"
                }
              ],
              "internalType": "struct Remplissage.Tank",
              "name": "tank",
              "type": "tuple"
            }
          ],
          "internalType": "struct Remplissage.OperationTank[]",
          "name": "result",
          "type": "tuple[]"
        }
      ],
      "stateMutability": "view",
      "type": "function",
      "constant": true
    },
    {
      "inputs": [
        {
          "internalType": "uint256",
          "name": "code",
          "type": "uint256"
        }
      ],
      "name": "getOperationbycode",
      "outputs": [
        {
          "components": [
            {
              "internalType": "uint256",
              "name": "idOpTank",
              "type": "uint256"
            },
            {
              "internalType": "uint256",
              "name": "qteInsereTank",
              "type": "uint256"
            },
            {
              "internalType": "string",
              "name": "date",
              "type": "string"
            },
            {
              "components": [
                {
                  "internalType": "uint256",
                  "name": "idOperation",
                  "type": "uint256"
                },
                {
                  "internalType": "uint256",
                  "name": "poidsLait",
                  "type": "uint256"
                },
                {
                  "internalType": "string",
                  "name": "dateOperation",
                  "type": "string"
                },
                {
                  "internalType": "string",
                  "name": "typeOp",
                  "type": "string"
                },
                {
                  "internalType": "uint256",
                  "name": "code",
                  "type": "uint256"
                },
                {
                  "components": [
                    {
                      "internalType": "uint256",
                      "name": "idAgriculteur",
                      "type": "uint256"
                    },
                    {
                      "internalType": "string",
                      "name": "nom",
                      "type": "string"
                    },
                    {
                      "internalType": "string",
                      "name": "prenom",
                      "type": "string"
                    },
                    {
                      "internalType": "string",
                      "name": "email",
                      "type": "string"
                    },
                    {
                      "internalType": "string",
                      "name": "adress",
                      "type": "string"
                    },
                    {
                      "internalType": "uint256",
                      "name": "tel",
                      "type": "uint256"
                    }
                  ],
                  "internalType": "struct Remplissage.Agriculteur0",
                  "name": "agriculteur",
                  "type": "tuple"
                },
                {
                  "components": [
                    {
                      "internalType": "uint256",
                      "name": "idChef",
                      "type": "uint256"
                    },
                    {
                      "internalType": "string",
                      "name": "nom",
                      "type": "string"
                    },
                    {
                      "internalType": "string",
                      "name": "prenom",
                      "type": "string"
                    },
                    {
                      "internalType": "string",
                      "name": "email",
                      "type": "string"
                    },
                    {
                      "internalType": "string",
                      "name": "adress",
                      "type": "string"
                    },
                    {
                      "internalType": "uint256",
                      "name": "tel",
                      "type": "uint256"
                    },
                    {
                      "internalType": "uint256",
                      "name": "cin",
                      "type": "uint256"
                    },
                    {
                      "internalType": "string",
                      "name": "username",
                      "type": "string"
                    },
                    {
                      "internalType": "string",
                      "name": "password",
                      "type": "string"
                    }
                  ],
                  "internalType": "struct Remplissage.Chef",
                  "name": "chef",
                  "type": "tuple"
                }
              ],
              "internalType": "struct Remplissage.Operation0",
              "name": "operation",
              "type": "tuple"
            },
            {
              "components": [
                {
                  "internalType": "uint256",
                  "name": "idTank",
                  "type": "uint256"
                },
                {
                  "internalType": "string",
                  "name": "matricule",
                  "type": "string"
                },
                {
                  "internalType": "uint256",
                  "name": "poidVide",
                  "type": "uint256"
                },
                {
                  "internalType": "uint256",
                  "name": "poidActuel",
                  "type": "uint256"
                },
                {
                  "internalType": "string",
                  "name": "etat",
                  "type": "string"
                },
                {
                  "internalType": "uint256[]",
                  "name": "codeTank",
                  "type": "uint256[]"
                }
              ],
              "internalType": "struct Remplissage.Tank",
              "name": "tank",
              "type": "tuple"
            }
          ],
          "internalType": "struct Remplissage.OperationTank",
          "name": "operation",
          "type": "tuple"
        }
      ],
      "stateMutability": "view",
      "type": "function",
      "constant": true
    }
  ],
  "bytecode": "0x608060405234801561001057600080fd5b506144b1806100206000396000f3fe608060405234801561001057600080fd5b506004361061004c5760003560e01c80630ea834c1146100515780632fca5529146100815780635a22f017146100b5578063c9c28e0f146100e5575b600080fd5b61006b60048036038101906100669190613236565b610103565b604051610078919061370c565b60405180910390f35b61009b60048036038101906100969190613236565b610b53565b6040516100ac9594939291906138cf565b60405180910390f35b6100cf60048036038101906100ca91906141af565b611520565b6040516100dc9190614351565b60405180910390f35b6100ed6124c9565b6040516100fa9190614351565b60405180910390f35b61010b612ee1565b60005b600080549050811015610b4c5782600082815481106101305761012f614373565b5b90600052602060002090601d0201600301600401541415610b39576000818154811061015f5761015e614373565b5b90600052602060002090601d02016040518060a0016040529081600082015481526020016001820154815260200160028201805461019c906143d1565b80601f01602080910402602001604051908101604052809291908181526020018280546101c8906143d1565b80156102155780601f106101ea57610100808354040283529160200191610215565b820191906000526020600020905b8154815290600101906020018083116101f857829003601f168201915b50505050508152602001600382016040518060e00160405290816000820154815260200160018201548152602001600282018054610252906143d1565b80601f016020809104026020016040519081016040528092919081815260200182805461027e906143d1565b80156102cb5780601f106102a0576101008083540402835291602001916102cb565b820191906000526020600020905b8154815290600101906020018083116102ae57829003601f168201915b505050505081526020016003820180546102e4906143d1565b80601f0160208091040260200160405190810160405280929190818152602001828054610310906143d1565b801561035d5780601f106103325761010080835404028352916020019161035d565b820191906000526020600020905b81548152906001019060200180831161034057829003601f168201915b5050505050815260200160048201548152602001600582016040518060c00160405290816000820154815260200160018201805461039a906143d1565b80601f01602080910402602001604051908101604052809291908181526020018280546103c6906143d1565b80156104135780601f106103e857610100808354040283529160200191610413565b820191906000526020600020905b8154815290600101906020018083116103f657829003601f168201915b5050505050815260200160028201805461042c906143d1565b80601f0160208091040260200160405190810160405280929190818152602001828054610458906143d1565b80156104a55780601f1061047a576101008083540402835291602001916104a5565b820191906000526020600020905b81548152906001019060200180831161048857829003601f168201915b505050505081526020016003820180546104be906143d1565b80601f01602080910402602001604051908101604052809291908181526020018280546104ea906143d1565b80156105375780601f1061050c57610100808354040283529160200191610537565b820191906000526020600020905b81548152906001019060200180831161051a57829003601f168201915b50505050508152602001600482018054610550906143d1565b80601f016020809104026020016040519081016040528092919081815260200182805461057c906143d1565b80156105c95780601f1061059e576101008083540402835291602001916105c9565b820191906000526020600020905b8154815290600101906020018083116105ac57829003601f168201915b505050505081526020016005820154815250508152602001600b8201604051806101200160405290816000820154815260200160018201805461060b906143d1565b80601f0160208091040260200160405190810160405280929190818152602001828054610637906143d1565b80156106845780601f1061065957610100808354040283529160200191610684565b820191906000526020600020905b81548152906001019060200180831161066757829003601f168201915b5050505050815260200160028201805461069d906143d1565b80601f01602080910402602001604051908101604052809291908181526020018280546106c9906143d1565b80156107165780601f106106eb57610100808354040283529160200191610716565b820191906000526020600020905b8154815290600101906020018083116106f957829003601f168201915b5050505050815260200160038201805461072f906143d1565b80601f016020809104026020016040519081016040528092919081815260200182805461075b906143d1565b80156107a85780601f1061077d576101008083540402835291602001916107a8565b820191906000526020600020905b81548152906001019060200180831161078b57829003601f168201915b505050505081526020016004820180546107c1906143d1565b80601f01602080910402602001604051908101604052809291908181526020018280546107ed906143d1565b801561083a5780601f1061080f5761010080835404028352916020019161083a565b820191906000526020600020905b81548152906001019060200180831161081d57829003601f168201915b505050505081526020016005820154815260200160068201548152602001600782018054610867906143d1565b80601f0160208091040260200160405190810160405280929190818152602001828054610893906143d1565b80156108e05780601f106108b5576101008083540402835291602001916108e0565b820191906000526020600020905b8154815290600101906020018083116108c357829003601f168201915b505050505081526020016008820180546108f9906143d1565b80601f0160208091040260200160405190810160405280929190818152602001828054610925906143d1565b80156109725780601f1061094757610100808354040283529160200191610972565b820191906000526020600020905b81548152906001019060200180831161095557829003601f168201915b505050505081525050815250508152602001601782016040518060c0016040529081600082015481526020016001820180546109ad906143d1565b80601f01602080910402602001604051908101604052809291908181526020018280546109d9906143d1565b8015610a265780601f106109fb57610100808354040283529160200191610a26565b820191906000526020600020905b815481529060010190602001808311610a0957829003601f168201915b505050505081526020016002820154815260200160038201548152602001600482018054610a53906143d1565b80601f0160208091040260200160405190810160405280929190818152602001828054610a7f906143d1565b8015610acc5780601f10610aa157610100808354040283529160200191610acc565b820191906000526020600020905b815481529060010190602001808311610aaf57829003601f168201915b5050505050815260200160058201805480602002602001604051908101604052809291908181526020018280548015610b2457602002820191906000526020600020905b815481526020019060010190808311610b10575b50505050508152505081525050915050610b4e565b8080610b4490614432565b91505061010e565b505b919050565b60008181548110610b6357600080fd5b90600052602060002090601d0201600091509050806000015490806001015490806002018054610b92906143d1565b80601f0160208091040260200160405190810160405280929190818152602001828054610bbe906143d1565b8015610c0b5780601f10610be057610100808354040283529160200191610c0b565b820191906000526020600020905b815481529060010190602001808311610bee57829003601f168201915b505050505090806003016040518060e00160405290816000820154815260200160018201548152602001600282018054610c44906143d1565b80601f0160208091040260200160405190810160405280929190818152602001828054610c70906143d1565b8015610cbd5780601f10610c9257610100808354040283529160200191610cbd565b820191906000526020600020905b815481529060010190602001808311610ca057829003601f168201915b50505050508152602001600382018054610cd6906143d1565b80601f0160208091040260200160405190810160405280929190818152602001828054610d02906143d1565b8015610d4f5780601f10610d2457610100808354040283529160200191610d4f565b820191906000526020600020905b815481529060010190602001808311610d3257829003601f168201915b5050505050815260200160048201548152602001600582016040518060c001604052908160008201548152602001600182018054610d8c906143d1565b80601f0160208091040260200160405190810160405280929190818152602001828054610db8906143d1565b8015610e055780601f10610dda57610100808354040283529160200191610e05565b820191906000526020600020905b815481529060010190602001808311610de857829003601f168201915b50505050508152602001600282018054610e1e906143d1565b80601f0160208091040260200160405190810160405280929190818152602001828054610e4a906143d1565b8015610e975780601f10610e6c57610100808354040283529160200191610e97565b820191906000526020600020905b815481529060010190602001808311610e7a57829003601f168201915b50505050508152602001600382018054610eb0906143d1565b80601f0160208091040260200160405190810160405280929190818152602001828054610edc906143d1565b8015610f295780601f10610efe57610100808354040283529160200191610f29565b820191906000526020600020905b815481529060010190602001808311610f0c57829003601f168201915b50505050508152602001600482018054610f42906143d1565b80601f0160208091040260200160405190810160405280929190818152602001828054610f6e906143d1565b8015610fbb5780601f10610f9057610100808354040283529160200191610fbb565b820191906000526020600020905b815481529060010190602001808311610f9e57829003601f168201915b505050505081526020016005820154815250508152602001600b82016040518061012001604052908160008201548152602001600182018054610ffd906143d1565b80601f0160208091040260200160405190810160405280929190818152602001828054611029906143d1565b80156110765780601f1061104b57610100808354040283529160200191611076565b820191906000526020600020905b81548152906001019060200180831161105957829003601f168201915b5050505050815260200160028201805461108f906143d1565b80601f01602080910402602001604051908101604052809291908181526020018280546110bb906143d1565b80156111085780601f106110dd57610100808354040283529160200191611108565b820191906000526020600020905b8154815290600101906020018083116110eb57829003601f168201915b50505050508152602001600382018054611121906143d1565b80601f016020809104026020016040519081016040528092919081815260200182805461114d906143d1565b801561119a5780601f1061116f5761010080835404028352916020019161119a565b820191906000526020600020905b81548152906001019060200180831161117d57829003601f168201915b505050505081526020016004820180546111b3906143d1565b80601f01602080910402602001604051908101604052809291908181526020018280546111df906143d1565b801561122c5780601f106112015761010080835404028352916020019161122c565b820191906000526020600020905b81548152906001019060200180831161120f57829003601f168201915b505050505081526020016005820154815260200160068201548152602001600782018054611259906143d1565b80601f0160208091040260200160405190810160405280929190818152602001828054611285906143d1565b80156112d25780601f106112a7576101008083540402835291602001916112d2565b820191906000526020600020905b8154815290600101906020018083116112b557829003601f168201915b505050505081526020016008820180546112eb906143d1565b80601f0160208091040260200160405190810160405280929190818152602001828054611317906143d1565b80156113645780601f1061133957610100808354040283529160200191611364565b820191906000526020600020905b81548152906001019060200180831161134757829003601f168201915b5050505050815250508152505090806017016040518060c00160405290816000820154815260200160018201805461139b906143d1565b80601f01602080910402602001604051908101604052809291908181526020018280546113c7906143d1565b80156114145780601f106113e957610100808354040283529160200191611414565b820191906000526020600020905b8154815290600101906020018083116113f757829003601f168201915b505050505081526020016002820154815260200160038201548152602001600482018054611441906143d1565b80601f016020809104026020016040519081016040528092919081815260200182805461146d906143d1565b80156114ba5780601f1061148f576101008083540402835291602001916114ba565b820191906000526020600020905b81548152906001019060200180831161149d57829003601f168201915b505050505081526020016005820180548060200260200160405190810160405280929190818152602001828054801561151257602002820191906000526020600020905b8154815260200190600101908083116114fe575b505050505081525050905085565b606060005b82811015611aaf578381815181106115405761153f614373565b5b602002602001015160016000820151816000015560208201518160010155604082015181600201908051906020019061157a929190612f1c565b50606082015181600301600082015181600001556020820151816001015560408201518160020190805190602001906115b4929190612f1c565b5060608201518160030190805190602001906115d1929190612f1c565b506080820151816004015560a08201518160050160008201518160000155602082015181600101908051906020019061160b929190612f1c565b506040820151816002019080519060200190611628929190612f1c565b506060820151816003019080519060200190611645929190612f1c565b506080820151816004019080519060200190611662929190612f1c565b5060a08201518160050155505060c082015181600b0160008201518160000155602082015181600101908051906020019061169e929190612f1c565b5060408201518160020190805190602001906116bb929190612f1c565b5060608201518160030190805190602001906116d8929190612f1c565b5060808201518160040190805190602001906116f5929190612f1c565b5060a0820151816005015560c0820151816006015560e0820151816007019080519060200190611726929190612f1c565b50610100820151816008019080519060200190611744929190612f1c565b5050505050608082015181601701600082015181600001556020820151816001019080519060200190611778929190612f1c565b50604082015181600201556060820151816003015560808201518160040190805190602001906117a9929190612f1c565b5060a08201518160050190805190602001906117c6929190612fa2565b5050509050506000600190806001815401808255809150506001900390600052602060002090601d020160009091909190915060008201548160000155600182015481600101556002820181600201908054611821906143d1565b61182c929190612fef565b5060038201816003016000820154816000015560018201548160010155600282018160020190805461185d906143d1565b611868929190612fef565b50600382018160030190805461187d906143d1565b611888929190612fef565b506004820154816004015560058201816005016000820154816000015560018201816001019080546118b9906143d1565b6118c4929190612fef565b5060028201816002019080546118d9906143d1565b6118e4929190612fef565b5060038201816003019080546118f9906143d1565b611904929190612fef565b506004820181600401908054611919906143d1565b611924929190612fef565b50600582015481600501555050600b820181600b01600082015481600001556001820181600101908054611957906143d1565b611962929190612fef565b506002820181600201908054611977906143d1565b611982929190612fef565b506003820181600301908054611997906143d1565b6119a2929190612fef565b5060048201816004019080546119b7906143d1565b6119c2929190612fef565b50600582015481600501556006820154816006015560078201816007019080546119eb906143d1565b6119f6929190612fef565b506008820181600801908054611a0b906143d1565b611a16929190612fef565b50505050506017820181601701600082015481600001556001820181600101908054611a41906143d1565b611a4c929190612fef565b5060028201548160020155600382015481600301556004820181600401908054611a75906143d1565b611a80929190612fef565b506005820181600501908054611a9792919061307c565b50505050508080611aa790614432565b915050611525565b506000805480602002602001604051908101604052809291908181526020016000905b828210156124bd57838290600052602060002090601d02016040518060a00160405290816000820154815260200160018201548152602001600282018054611b19906143d1565b80601f0160208091040260200160405190810160405280929190818152602001828054611b45906143d1565b8015611b925780601f10611b6757610100808354040283529160200191611b92565b820191906000526020600020905b815481529060010190602001808311611b7557829003601f168201915b50505050508152602001600382016040518060e00160405290816000820154815260200160018201548152602001600282018054611bcf906143d1565b80601f0160208091040260200160405190810160405280929190818152602001828054611bfb906143d1565b8015611c485780601f10611c1d57610100808354040283529160200191611c48565b820191906000526020600020905b815481529060010190602001808311611c2b57829003601f168201915b50505050508152602001600382018054611c61906143d1565b80601f0160208091040260200160405190810160405280929190818152602001828054611c8d906143d1565b8015611cda5780601f10611caf57610100808354040283529160200191611cda565b820191906000526020600020905b815481529060010190602001808311611cbd57829003601f168201915b5050505050815260200160048201548152602001600582016040518060c001604052908160008201548152602001600182018054611d17906143d1565b80601f0160208091040260200160405190810160405280929190818152602001828054611d43906143d1565b8015611d905780601f10611d6557610100808354040283529160200191611d90565b820191906000526020600020905b815481529060010190602001808311611d7357829003601f168201915b50505050508152602001600282018054611da9906143d1565b80601f0160208091040260200160405190810160405280929190818152602001828054611dd5906143d1565b8015611e225780601f10611df757610100808354040283529160200191611e22565b820191906000526020600020905b815481529060010190602001808311611e0557829003601f168201915b50505050508152602001600382018054611e3b906143d1565b80601f0160208091040260200160405190810160405280929190818152602001828054611e67906143d1565b8015611eb45780601f10611e8957610100808354040283529160200191611eb4565b820191906000526020600020905b815481529060010190602001808311611e9757829003601f168201915b50505050508152602001600482018054611ecd906143d1565b80601f0160208091040260200160405190810160405280929190818152602001828054611ef9906143d1565b8015611f465780601f10611f1b57610100808354040283529160200191611f46565b820191906000526020600020905b815481529060010190602001808311611f2957829003601f168201915b505050505081526020016005820154815250508152602001600b82016040518061012001604052908160008201548152602001600182018054611f88906143d1565b80601f0160208091040260200160405190810160405280929190818152602001828054611fb4906143d1565b80156120015780601f10611fd657610100808354040283529160200191612001565b820191906000526020600020905b815481529060010190602001808311611fe457829003601f168201915b5050505050815260200160028201805461201a906143d1565b80601f0160208091040260200160405190810160405280929190818152602001828054612046906143d1565b80156120935780601f1061206857610100808354040283529160200191612093565b820191906000526020600020905b81548152906001019060200180831161207657829003601f168201915b505050505081526020016003820180546120ac906143d1565b80601f01602080910402602001604051908101604052809291908181526020018280546120d8906143d1565b80156121255780601f106120fa57610100808354040283529160200191612125565b820191906000526020600020905b81548152906001019060200180831161210857829003601f168201915b5050505050815260200160048201805461213e906143d1565b80601f016020809104026020016040519081016040528092919081815260200182805461216a906143d1565b80156121b75780601f1061218c576101008083540402835291602001916121b7565b820191906000526020600020905b81548152906001019060200180831161219a57829003601f168201915b5050505050815260200160058201548152602001600682015481526020016007820180546121e4906143d1565b80601f0160208091040260200160405190810160405280929190818152602001828054612210906143d1565b801561225d5780601f106122325761010080835404028352916020019161225d565b820191906000526020600020905b81548152906001019060200180831161224057829003601f168201915b50505050508152602001600882018054612276906143d1565b80601f01602080910402602001604051908101604052809291908181526020018280546122a2906143d1565b80156122ef5780601f106122c4576101008083540402835291602001916122ef565b820191906000526020600020905b8154815290600101906020018083116122d257829003601f168201915b505050505081525050815250508152602001601782016040518060c00160405290816000820154815260200160018201805461232a906143d1565b80601f0160208091040260200160405190810160405280929190818152602001828054612356906143d1565b80156123a35780601f10612378576101008083540402835291602001916123a3565b820191906000526020600020905b81548152906001019060200180831161238657829003601f168201915b5050505050815260200160028201548152602001600382015481526020016004820180546123d0906143d1565b80601f01602080910402602001604051908101604052809291908181526020018280546123fc906143d1565b80156124495780601f1061241e57610100808354040283529160200191612449565b820191906000526020600020905b81548152906001019060200180831161242c57829003601f168201915b50505050508152602001600582018054806020026020016040519081016040528092919081815260200182805480156124a157602002820191906000526020600020905b81548152602001906001019080831161248d575b5050505050815250508152505081526020019060010190611ad2565b50505050905092915050565b60606000805480602002602001604051908101604052809291908181526020016000905b82821015612ed857838290600052602060002090601d02016040518060a00160405290816000820154815260200160018201548152602001600282018054612534906143d1565b80601f0160208091040260200160405190810160405280929190818152602001828054612560906143d1565b80156125ad5780601f10612582576101008083540402835291602001916125ad565b820191906000526020600020905b81548152906001019060200180831161259057829003601f168201915b50505050508152602001600382016040518060e001604052908160008201548152602001600182015481526020016002820180546125ea906143d1565b80601f0160208091040260200160405190810160405280929190818152602001828054612616906143d1565b80156126635780601f1061263857610100808354040283529160200191612663565b820191906000526020600020905b81548152906001019060200180831161264657829003601f168201915b5050505050815260200160038201805461267c906143d1565b80601f01602080910402602001604051908101604052809291908181526020018280546126a8906143d1565b80156126f55780601f106126ca576101008083540402835291602001916126f5565b820191906000526020600020905b8154815290600101906020018083116126d857829003601f168201915b5050505050815260200160048201548152602001600582016040518060c001604052908160008201548152602001600182018054612732906143d1565b80601f016020809104026020016040519081016040528092919081815260200182805461275e906143d1565b80156127ab5780601f10612780576101008083540402835291602001916127ab565b820191906000526020600020905b81548152906001019060200180831161278e57829003601f168201915b505050505081526020016002820180546127c4906143d1565b80601f01602080910402602001604051908101604052809291908181526020018280546127f0906143d1565b801561283d5780601f106128125761010080835404028352916020019161283d565b820191906000526020600020905b81548152906001019060200180831161282057829003601f168201915b50505050508152602001600382018054612856906143d1565b80601f0160208091040260200160405190810160405280929190818152602001828054612882906143d1565b80156128cf5780601f106128a4576101008083540402835291602001916128cf565b820191906000526020600020905b8154815290600101906020018083116128b257829003601f168201915b505050505081526020016004820180546128e8906143d1565b80601f0160208091040260200160405190810160405280929190818152602001828054612914906143d1565b80156129615780601f1061293657610100808354040283529160200191612961565b820191906000526020600020905b81548152906001019060200180831161294457829003601f168201915b505050505081526020016005820154815250508152602001600b820160405180610120016040529081600082015481526020016001820180546129a3906143d1565b80601f01602080910402602001604051908101604052809291908181526020018280546129cf906143d1565b8015612a1c5780601f106129f157610100808354040283529160200191612a1c565b820191906000526020600020905b8154815290600101906020018083116129ff57829003601f168201915b50505050508152602001600282018054612a35906143d1565b80601f0160208091040260200160405190810160405280929190818152602001828054612a61906143d1565b8015612aae5780601f10612a8357610100808354040283529160200191612aae565b820191906000526020600020905b815481529060010190602001808311612a9157829003601f168201915b50505050508152602001600382018054612ac7906143d1565b80601f0160208091040260200160405190810160405280929190818152602001828054612af3906143d1565b8015612b405780601f10612b1557610100808354040283529160200191612b40565b820191906000526020600020905b815481529060010190602001808311612b2357829003601f168201915b50505050508152602001600482018054612b59906143d1565b80601f0160208091040260200160405190810160405280929190818152602001828054612b85906143d1565b8015612bd25780601f10612ba757610100808354040283529160200191612bd2565b820191906000526020600020905b815481529060010190602001808311612bb557829003601f168201915b505050505081526020016005820154815260200160068201548152602001600782018054612bff906143d1565b80601f0160208091040260200160405190810160405280929190818152602001828054612c2b906143d1565b8015612c785780601f10612c4d57610100808354040283529160200191612c78565b820191906000526020600020905b815481529060010190602001808311612c5b57829003601f168201915b50505050508152602001600882018054612c91906143d1565b80601f0160208091040260200160405190810160405280929190818152602001828054612cbd906143d1565b8015612d0a5780601f10612cdf57610100808354040283529160200191612d0a565b820191906000526020600020905b815481529060010190602001808311612ced57829003601f168201915b505050505081525050815250508152602001601782016040518060c001604052908160008201548152602001600182018054612d45906143d1565b80601f0160208091040260200160405190810160405280929190818152602001828054612d71906143d1565b8015612dbe5780601f10612d9357610100808354040283529160200191612dbe565b820191906000526020600020905b815481529060010190602001808311612da157829003601f168201915b505050505081526020016002820154815260200160038201548152602001600482018054612deb906143d1565b80601f0160208091040260200160405190810160405280929190818152602001828054612e17906143d1565b8015612e645780601f10612e3957610100808354040283529160200191612e64565b820191906000526020600020905b815481529060010190602001808311612e4757829003601f168201915b5050505050815260200160058201805480602002602001604051908101604052809291908181526020018280548015612ebc57602002820191906000526020600020905b815481526020019060010190808311612ea8575b50505050508152505081525050815260200190600101906124ed565b50505050905090565b6040518060a00160405280600081526020016000815260200160608152602001612f096130ce565b8152602001612f16613117565b81525090565b828054612f28906143d1565b90600052602060002090601f016020900481019282612f4a5760008555612f91565b82601f10612f6357805160ff1916838001178555612f91565b82800160010185558215612f91579182015b82811115612f90578251825591602001919060010190612f75565b5b509050612f9e919061314d565b5090565b828054828255906000526020600020908101928215612fde579160200282015b82811115612fdd578251825591602001919060010190612fc2565b5b509050612feb919061314d565b5090565b828054612ffb906143d1565b90600052602060002090601f01602090048101928261301d576000855561306b565b82601f1061302e578054855561306b565b8280016001018555821561306b57600052602060002091601f016020900482015b8281111561306a57825482559160010191906001019061304f565b5b509050613078919061314d565b5090565b8280548282559060005260206000209081019282156130bd5760005260206000209182015b828111156130bc5782548255916001019190600101906130a1565b5b5090506130ca919061314d565b5090565b6040518060e00160405280600081526020016000815260200160608152602001606081526020016000815260200161310461316a565b81526020016131116131a0565b81525090565b6040518060c001604052806000815260200160608152602001600081526020016000815260200160608152602001606081525090565b5b8082111561316657600081600090555060010161314e565b5090565b6040518060c001604052806000815260200160608152602001606081526020016060815260200160608152602001600081525090565b6040518061012001604052806000815260200160608152602001606081526020016060815260200160608152602001600081526020016000815260200160608152602001606081525090565b6000604051905090565b600080fd5b600080fd5b6000819050919050565b61321381613200565b811461321e57600080fd5b50565b6000813590506132308161320a565b92915050565b60006020828403121561324c5761324b6131f6565b5b600061325a84828501613221565b91505092915050565b61326c81613200565b82525050565b600081519050919050565b600082825260208201905092915050565b60005b838110156132ac578082015181840152602081019050613291565b838111156132bb576000848401525b50505050565b6000601f19601f8301169050919050565b60006132dd82613272565b6132e7818561327d565b93506132f781856020860161328e565b613300816132c1565b840191505092915050565b600060c0830160008301516133236000860182613263565b506020830151848203602086015261333b82826132d2565b9150506040830151848203604086015261335582826132d2565b9150506060830151848203606086015261336f82826132d2565b9150506080830151848203608086015261338982826132d2565b91505060a083015161339e60a0860182613263565b508091505092915050565b6000610120830160008301516133c26000860182613263565b50602083015184820360208601526133da82826132d2565b915050604083015184820360408601526133f482826132d2565b9150506060830151848203606086015261340e82826132d2565b9150506080830151848203608086015261342882826132d2565b91505060a083015161343d60a0860182613263565b5060c083015161345060c0860182613263565b5060e083015184820360e086015261346882826132d2565b91505061010083015184820361010086015261348482826132d2565b9150508091505092915050565b600060e0830160008301516134a96000860182613263565b5060208301516134bc6020860182613263565b50604083015184820360408601526134d482826132d2565b915050606083015184820360608601526134ee82826132d2565b91505060808301516135036080860182613263565b5060a083015184820360a086015261351b828261330b565b91505060c083015184820360c086015261353582826133a9565b9150508091505092915050565b600081519050919050565b600082825260208201905092915050565b6000819050602082019050919050565b600061357a8383613263565b60208301905092915050565b6000602082019050919050565b600061359e82613542565b6135a8818561354d565b93506135b38361355e565b8060005b838110156135e45781516135cb888261356e565b97506135d683613586565b9250506001810190506135b7565b5085935050505092915050565b600060c0830160008301516136096000860182613263565b506020830151848203602086015261362182826132d2565b91505060408301516136366040860182613263565b5060608301516136496060860182613263565b506080830151848203608086015261366182826132d2565b91505060a083015184820360a086015261367b8282613593565b9150508091505092915050565b600060a0830160008301516136a06000860182613263565b5060208301516136b36020860182613263565b50604083015184820360408601526136cb82826132d2565b915050606083015184820360608601526136e58282613491565b915050608083015184820360808601526136ff82826135f1565b9150508091505092915050565b600060208201905081810360008301526137268184613688565b905092915050565b61373781613200565b82525050565b600082825260208201905092915050565b600061375982613272565b613763818561373d565b935061377381856020860161328e565b61377c816132c1565b840191505092915050565b600060e08301600083015161379f6000860182613263565b5060208301516137b26020860182613263565b50604083015184820360408601526137ca82826132d2565b915050606083015184820360608601526137e482826132d2565b91505060808301516137f96080860182613263565b5060a083015184820360a0860152613811828261330b565b91505060c083015184820360c086015261382b82826133a9565b9150508091505092915050565b600060c0830160008301516138506000860182613263565b506020830151848203602086015261386882826132d2565b915050604083015161387d6040860182613263565b5060608301516138906060860182613263565b50608083015184820360808601526138a882826132d2565b91505060a083015184820360a08601526138c28282613593565b9150508091505092915050565b600060a0820190506138e4600083018861372e565b6138f1602083018761372e565b8181036040830152613903818661374e565b905081810360608301526139178185613787565b9050818103608083015261392b8184613838565b90509695505050505050565b600080fd5b7f4e487b7100000000000000000000000000000000000000000000000000000000600052604160045260246000fd5b613974826132c1565b810181811067ffffffffffffffff821117156139935761399261393c565b5b80604052505050565b60006139a66131ec565b90506139b2828261396b565b919050565b600067ffffffffffffffff8211156139d2576139d161393c565b5b602082029050602081019050919050565b600080fd5b600080fd5b600080fd5b600080fd5b600067ffffffffffffffff821115613a1257613a1161393c565b5b613a1b826132c1565b9050602081019050919050565b82818337600083830152505050565b6000613a4a613a45846139f7565b61399c565b905082815260208101848484011115613a6657613a656139f2565b5b613a71848285613a28565b509392505050565b600082601f830112613a8e57613a8d613937565b5b8135613a9e848260208601613a37565b91505092915050565b600060c08284031215613abd57613abc6139e8565b5b613ac760c061399c565b90506000613ad784828501613221565b600083015250602082013567ffffffffffffffff811115613afb57613afa6139ed565b5b613b0784828501613a79565b602083015250604082013567ffffffffffffffff811115613b2b57613b2a6139ed565b5b613b3784828501613a79565b604083015250606082013567ffffffffffffffff811115613b5b57613b5a6139ed565b5b613b6784828501613a79565b606083015250608082013567ffffffffffffffff811115613b8b57613b8a6139ed565b5b613b9784828501613a79565b60808301525060a0613bab84828501613221565b60a08301525092915050565b60006101208284031215613bce57613bcd6139e8565b5b613bd961012061399c565b90506000613be984828501613221565b600083015250602082013567ffffffffffffffff811115613c0d57613c0c6139ed565b5b613c1984828501613a79565b602083015250604082013567ffffffffffffffff811115613c3d57613c3c6139ed565b5b613c4984828501613a79565b604083015250606082013567ffffffffffffffff811115613c6d57613c6c6139ed565b5b613c7984828501613a79565b606083015250608082013567ffffffffffffffff811115613c9d57613c9c6139ed565b5b613ca984828501613a79565b60808301525060a0613cbd84828501613221565b60a08301525060c0613cd184828501613221565b60c08301525060e082013567ffffffffffffffff811115613cf557613cf46139ed565b5b613d0184828501613a79565b60e08301525061010082013567ffffffffffffffff811115613d2657613d256139ed565b5b613d3284828501613a79565b6101008301525092915050565b600060e08284031215613d5557613d546139e8565b5b613d5f60e061399c565b90506000613d6f84828501613221565b6000830152506020613d8384828501613221565b602083015250604082013567ffffffffffffffff811115613da757613da66139ed565b5b613db384828501613a79565b604083015250606082013567ffffffffffffffff811115613dd757613dd66139ed565b5b613de384828501613a79565b6060830152506080613df784828501613221565b60808301525060a082013567ffffffffffffffff811115613e1b57613e1a6139ed565b5b613e2784828501613aa7565b60a08301525060c082013567ffffffffffffffff811115613e4b57613e4a6139ed565b5b613e5784828501613bb7565b60c08301525092915050565b600067ffffffffffffffff821115613e7e57613e7d61393c565b5b602082029050602081019050919050565b6000613ea2613e9d84613e63565b61399c565b90508083825260208201905060208402830185811115613ec557613ec46139e3565b5b835b81811015613eee5780613eda8882613221565b845260208401935050602081019050613ec7565b5050509392505050565b600082601f830112613f0d57613f0c613937565b5b8135613f1d848260208601613e8f565b91505092915050565b600060c08284031215613f3c57613f3b6139e8565b5b613f4660c061399c565b90506000613f5684828501613221565b600083015250602082013567ffffffffffffffff811115613f7a57613f796139ed565b5b613f8684828501613a79565b6020830152506040613f9a84828501613221565b6040830152506060613fae84828501613221565b606083015250608082013567ffffffffffffffff811115613fd257613fd16139ed565b5b613fde84828501613a79565b60808301525060a082013567ffffffffffffffff811115614002576140016139ed565b5b61400e84828501613ef8565b60a08301525092915050565b600060a082840312156140305761402f6139e8565b5b61403a60a061399c565b9050600061404a84828501613221565b600083015250602061405e84828501613221565b602083015250604082013567ffffffffffffffff811115614082576140816139ed565b5b61408e84828501613a79565b604083015250606082013567ffffffffffffffff8111156140b2576140b16139ed565b5b6140be84828501613d3f565b606083015250608082013567ffffffffffffffff8111156140e2576140e16139ed565b5b6140ee84828501613f26565b60808301525092915050565b600061410d614108846139b7565b61399c565b905080838252602082019050602084028301858111156141305761412f6139e3565b5b835b8181101561417757803567ffffffffffffffff81111561415557614154613937565b5b808601614162898261401a565b85526020850194505050602081019050614132565b5050509392505050565b600082601f83011261419657614195613937565b5b81356141a68482602086016140fa565b91505092915050565b600080604083850312156141c6576141c56131f6565b5b600083013567ffffffffffffffff8111156141e4576141e36131fb565b5b6141f085828601614181565b925050602061420185828601613221565b9150509250929050565b600081519050919050565b600082825260208201905092915050565b6000819050602082019050919050565b600060a08301600083015161424f6000860182613263565b5060208301516142626020860182613263565b506040830151848203604086015261427a82826132d2565b915050606083015184820360608601526142948282613491565b915050608083015184820360808601526142ae82826135f1565b9150508091505092915050565b60006142c78383614237565b905092915050565b6000602082019050919050565b60006142e78261420b565b6142f18185614216565b93508360208202850161430385614227565b8060005b8581101561433f578484038952815161432085826142bb565b945061432b836142cf565b925060208a01995050600181019050614307565b50829750879550505050505092915050565b6000602082019050818103600083015261436b81846142dc565b905092915050565b7f4e487b7100000000000000000000000000000000000000000000000000000000600052603260045260246000fd5b7f4e487b7100000000000000000000000000000000000000000000000000000000600052602260045260246000fd5b600060028204905060018216806143e957607f821691505b602082108114156143fd576143fc6143a2565b5b50919050565b7f4e487b7100000000000000000000000000000000000000000000000000000000600052601160045260246000fd5b600061443d82613200565b91507fffffffffffffffffffffffffffffffffffffffffffffffffffffffffffffffff8214156144705761446f614403565b5b60018201905091905056fea26469706673582212204dfc197ec0226dd2361ce46c22758b1917274777a42106881af8d2c9c081ce4464736f6c634300080b0033",
  "immutableReferences": {},
  "source": "// SPDX-License-Identifier: MIT\r\npragma solidity >=0.4.22 <0.9.0;\r\nimport \"./Remplissage.sol\";\r\n\r\ncontract RemplissageCol is Remplissage {\r\n    //*********************************************************************************/\r\n    //second app\r\n    //******************************************************************************/\r\n\r\n    OperationTank[] public operationTank2;\r\n    OperationTank ss;\r\n\r\n    function addOperationTank(\r\n        OperationTank[] memory operationTank,\r\n        uint256 count\r\n    ) public returns (OperationTank[] memory tt0) {\r\n        for (uint256 i = 0; i < count; i++) {\r\n            ss = operationTank[i];\r\n            operationTank2.push(ss);\r\n        }\r\n        return (operationTank2);\r\n    }\r\n\r\n    //get all operations\r\n\r\n    function getOperationTanks()\r\n        public\r\n        view\r\n        returns (OperationTank[] memory result)\r\n    {\r\n        return operationTank2;\r\n    }\r\n\r\n    function getOperationbycode(uint256 code)\r\n        public\r\n        view\r\n        returns (OperationTank memory operation)\r\n    {\r\n        for (uint256 i = 0; i < operationTank2.length; i++) {\r\n            if (operationTank2[i].operation.code == code) {\r\n                return operationTank2[i];\r\n            }\r\n        }\r\n    }\r\n}\r\n",
  "sourcePath": "C:\\Users\\ASUS\\Desktop\\pfe\\PFE_Project2022-Collecteur-\\PFE-FrontEnd\\contracts\\RemplissageCol.sol",
  "compiler": {
    "name": "solc",
    "version": "0.8.11+commit.d7f03943.Emscripten.clang"
  },
  "schemaVersion": "3.4.5",
  "updatedAt": "2022-04-28T09:46:02.312Z",
  "networkType": "ethereum",
  "devdoc": {
    "kind": "dev",
    "methods": {},
    "version": 1
  },
  "userdoc": {
    "kind": "user",
    "methods": {},
    "version": 1
  }
}