{
  "contractName": "RemplissageAgric",
  "abi": [
    {
      "inputs": [
        {
          "internalType": "uint256",
          "name": "",
          "type": "uint256"
        }
      ],
      "name": "ALLS",
      "outputs": [
        {
          "internalType": "string",
          "name": "",
          "type": "string"
        }
      ],
      "stateMutability": "view",
      "type": "function",
      "constant": true
    },
    {
      "inputs": [],
      "name": "nextID",
      "outputs": [
        {
          "internalType": "uint256",
          "name": "",
          "type": "uint256"
        }
      ],
      "stateMutability": "view",
      "type": "function",
      "constant": true
    },
    {
      "inputs": [
        {
          "internalType": "uint256",
          "name": "",
          "type": "uint256"
        }
      ],
      "name": "operations2",
      "outputs": [
        {
          "internalType": "uint256",
          "name": "idOperation",
          "type": "uint256"
        },
        {
          "internalType": "uint256",
          "name": "code",
          "type": "uint256"
        },
        {
          "internalType": "string",
          "name": "dateOperation",
          "type": "string"
        },
        {
          "internalType": "string",
          "name": "typeOp",
          "type": "string"
        },
        {
          "internalType": "uint256",
          "name": "poidsLait",
          "type": "uint256"
        },
        {
          "components": [
            {
              "internalType": "uint256",
              "name": "idAgriculteur",
              "type": "uint256"
            },
            {
              "internalType": "string",
              "name": "nom",
              "type": "string"
            },
            {
              "internalType": "string",
              "name": "prenom",
              "type": "string"
            },
            {
              "internalType": "string",
              "name": "username",
              "type": "string"
            },
            {
              "internalType": "string",
              "name": "password",
              "type": "string"
            }
          ],
          "internalType": "struct Remplissage.Agriculteur",
          "name": "agriculteur",
          "type": "tuple"
        },
        {
          "components": [
            {
              "internalType": "uint256",
              "name": "idCollecteur",
              "type": "uint256"
            },
            {
              "internalType": "string",
              "name": "nomCollecteur",
              "type": "string"
            },
            {
              "internalType": "string",
              "name": "prenomCollecteur",
              "type": "string"
            },
            {
              "internalType": "string",
              "name": "matricule",
              "type": "string"
            },
            {
              "internalType": "string",
              "name": "adresse",
              "type": "string"
            },
            {
              "internalType": "uint256",
              "name": "tel",
              "type": "uint256"
            }
          ],
          "internalType": "struct Remplissage.Collecteur",
          "name": "collecteur",
          "type": "tuple"
        }
      ],
      "stateMutability": "view",
      "type": "function",
      "constant": true
    },
    {
      "inputs": [
        {
          "components": [
            {
              "internalType": "uint256",
              "name": "idOperation",
              "type": "uint256"
            },
            {
              "internalType": "uint256",
              "name": "code",
              "type": "uint256"
            },
            {
              "internalType": "string",
              "name": "dateOperation",
              "type": "string"
            },
            {
              "internalType": "string",
              "name": "typeOp",
              "type": "string"
            },
            {
              "internalType": "uint256",
              "name": "poidsLait",
              "type": "uint256"
            },
            {
              "components": [
                {
                  "internalType": "uint256",
                  "name": "idAgriculteur",
                  "type": "uint256"
                },
                {
                  "internalType": "string",
                  "name": "nom",
                  "type": "string"
                },
                {
                  "internalType": "string",
                  "name": "prenom",
                  "type": "string"
                },
                {
                  "internalType": "string",
                  "name": "username",
                  "type": "string"
                },
                {
                  "internalType": "string",
                  "name": "password",
                  "type": "string"
                }
              ],
              "internalType": "struct Remplissage.Agriculteur",
              "name": "agriculteur",
              "type": "tuple"
            },
            {
              "components": [
                {
                  "internalType": "uint256",
                  "name": "idCollecteur",
                  "type": "uint256"
                },
                {
                  "internalType": "string",
                  "name": "nomCollecteur",
                  "type": "string"
                },
                {
                  "internalType": "string",
                  "name": "prenomCollecteur",
                  "type": "string"
                },
                {
                  "internalType": "string",
                  "name": "matricule",
                  "type": "string"
                },
                {
                  "internalType": "string",
                  "name": "adresse",
                  "type": "string"
                },
                {
                  "internalType": "uint256",
                  "name": "tel",
                  "type": "uint256"
                }
              ],
              "internalType": "struct Remplissage.Collecteur",
              "name": "collecteur",
              "type": "tuple"
            }
          ],
          "internalType": "struct Remplissage.Operation",
          "name": "op",
          "type": "tuple"
        }
      ],
      "name": "addOperation2",
      "outputs": [
        {
          "components": [
            {
              "internalType": "uint256",
              "name": "idOperation",
              "type": "uint256"
            },
            {
              "internalType": "uint256",
              "name": "code",
              "type": "uint256"
            },
            {
              "internalType": "string",
              "name": "dateOperation",
              "type": "string"
            },
            {
              "internalType": "string",
              "name": "typeOp",
              "type": "string"
            },
            {
              "internalType": "uint256",
              "name": "poidsLait",
              "type": "uint256"
            },
            {
              "components": [
                {
                  "internalType": "uint256",
                  "name": "idAgriculteur",
                  "type": "uint256"
                },
                {
                  "internalType": "string",
                  "name": "nom",
                  "type": "string"
                },
                {
                  "internalType": "string",
                  "name": "prenom",
                  "type": "string"
                },
                {
                  "internalType": "string",
                  "name": "username",
                  "type": "string"
                },
                {
                  "internalType": "string",
                  "name": "password",
                  "type": "string"
                }
              ],
              "internalType": "struct Remplissage.Agriculteur",
              "name": "agriculteur",
              "type": "tuple"
            },
            {
              "components": [
                {
                  "internalType": "uint256",
                  "name": "idCollecteur",
                  "type": "uint256"
                },
                {
                  "internalType": "string",
                  "name": "nomCollecteur",
                  "type": "string"
                },
                {
                  "internalType": "string",
                  "name": "prenomCollecteur",
                  "type": "string"
                },
                {
                  "internalType": "string",
                  "name": "matricule",
                  "type": "string"
                },
                {
                  "internalType": "string",
                  "name": "adresse",
                  "type": "string"
                },
                {
                  "internalType": "uint256",
                  "name": "tel",
                  "type": "uint256"
                }
              ],
              "internalType": "struct Remplissage.Collecteur",
              "name": "collecteur",
              "type": "tuple"
            }
          ],
          "internalType": "struct Remplissage.Operation[]",
          "name": "op0",
          "type": "tuple[]"
        }
      ],
      "stateMutability": "nonpayable",
      "type": "function"
    },
    {
      "inputs": [],
      "name": "getOperations",
      "outputs": [
        {
          "components": [
            {
              "internalType": "uint256",
              "name": "idOperation",
              "type": "uint256"
            },
            {
              "internalType": "uint256",
              "name": "code",
              "type": "uint256"
            },
            {
              "internalType": "string",
              "name": "dateOperation",
              "type": "string"
            },
            {
              "internalType": "string",
              "name": "typeOp",
              "type": "string"
            },
            {
              "internalType": "uint256",
              "name": "poidsLait",
              "type": "uint256"
            },
            {
              "components": [
                {
                  "internalType": "uint256",
                  "name": "idAgriculteur",
                  "type": "uint256"
                },
                {
                  "internalType": "string",
                  "name": "nom",
                  "type": "string"
                },
                {
                  "internalType": "string",
                  "name": "prenom",
                  "type": "string"
                },
                {
                  "internalType": "string",
                  "name": "username",
                  "type": "string"
                },
                {
                  "internalType": "string",
                  "name": "password",
                  "type": "string"
                }
              ],
              "internalType": "struct Remplissage.Agriculteur",
              "name": "agriculteur",
              "type": "tuple"
            },
            {
              "components": [
                {
                  "internalType": "uint256",
                  "name": "idCollecteur",
                  "type": "uint256"
                },
                {
                  "internalType": "string",
                  "name": "nomCollecteur",
                  "type": "string"
                },
                {
                  "internalType": "string",
                  "name": "prenomCollecteur",
                  "type": "string"
                },
                {
                  "internalType": "string",
                  "name": "matricule",
                  "type": "string"
                },
                {
                  "internalType": "string",
                  "name": "adresse",
                  "type": "string"
                },
                {
                  "internalType": "uint256",
                  "name": "tel",
                  "type": "uint256"
                }
              ],
              "internalType": "struct Remplissage.Collecteur",
              "name": "collecteur",
              "type": "tuple"
            }
          ],
          "internalType": "struct Remplissage.Operation[]",
          "name": "result",
          "type": "tuple[]"
        }
      ],
      "stateMutability": "view",
      "type": "function",
      "constant": true
    },
    {
      "inputs": [
        {
          "internalType": "uint256",
          "name": "id",
          "type": "uint256"
        }
      ],
      "name": "getOperation",
      "outputs": [
        {
          "components": [
            {
              "internalType": "uint256",
              "name": "idOperation",
              "type": "uint256"
            },
            {
              "internalType": "uint256",
              "name": "code",
              "type": "uint256"
            },
            {
              "internalType": "string",
              "name": "dateOperation",
              "type": "string"
            },
            {
              "internalType": "string",
              "name": "typeOp",
              "type": "string"
            },
            {
              "internalType": "uint256",
              "name": "poidsLait",
              "type": "uint256"
            },
            {
              "components": [
                {
                  "internalType": "uint256",
                  "name": "idAgriculteur",
                  "type": "uint256"
                },
                {
                  "internalType": "string",
                  "name": "nom",
                  "type": "string"
                },
                {
                  "internalType": "string",
                  "name": "prenom",
                  "type": "string"
                },
                {
                  "internalType": "string",
                  "name": "username",
                  "type": "string"
                },
                {
                  "internalType": "string",
                  "name": "password",
                  "type": "string"
                }
              ],
              "internalType": "struct Remplissage.Agriculteur",
              "name": "agriculteur",
              "type": "tuple"
            },
            {
              "components": [
                {
                  "internalType": "uint256",
                  "name": "idCollecteur",
                  "type": "uint256"
                },
                {
                  "internalType": "string",
                  "name": "nomCollecteur",
                  "type": "string"
                },
                {
                  "internalType": "string",
                  "name": "prenomCollecteur",
                  "type": "string"
                },
                {
                  "internalType": "string",
                  "name": "matricule",
                  "type": "string"
                },
                {
                  "internalType": "string",
                  "name": "adresse",
                  "type": "string"
                },
                {
                  "internalType": "uint256",
                  "name": "tel",
                  "type": "uint256"
                }
              ],
              "internalType": "struct Remplissage.Collecteur",
              "name": "collecteur",
              "type": "tuple"
            }
          ],
          "internalType": "struct Remplissage.Operation",
          "name": "operation",
          "type": "tuple"
        }
      ],
      "stateMutability": "view",
      "type": "function",
      "constant": true
    },
    {
      "inputs": [
        {
          "internalType": "uint256",
          "name": "code",
          "type": "uint256"
        }
      ],
      "name": "GetOperationFarmerByCode",
      "outputs": [
        {
          "components": [
            {
              "internalType": "uint256",
              "name": "idOperation",
              "type": "uint256"
            },
            {
              "internalType": "uint256",
              "name": "code",
              "type": "uint256"
            },
            {
              "internalType": "string",
              "name": "dateOperation",
              "type": "string"
            },
            {
              "internalType": "string",
              "name": "typeOp",
              "type": "string"
            },
            {
              "internalType": "uint256",
              "name": "poidsLait",
              "type": "uint256"
            },
            {
              "components": [
                {
                  "internalType": "uint256",
                  "name": "idAgriculteur",
                  "type": "uint256"
                },
                {
                  "internalType": "string",
                  "name": "nom",
                  "type": "string"
                },
                {
                  "internalType": "string",
                  "name": "prenom",
                  "type": "string"
                },
                {
                  "internalType": "string",
                  "name": "username",
                  "type": "string"
                },
                {
                  "internalType": "string",
                  "name": "password",
                  "type": "string"
                }
              ],
              "internalType": "struct Remplissage.Agriculteur",
              "name": "agriculteur",
              "type": "tuple"
            },
            {
              "components": [
                {
                  "internalType": "uint256",
                  "name": "idCollecteur",
                  "type": "uint256"
                },
                {
                  "internalType": "string",
                  "name": "nomCollecteur",
                  "type": "string"
                },
                {
                  "internalType": "string",
                  "name": "prenomCollecteur",
                  "type": "string"
                },
                {
                  "internalType": "string",
                  "name": "matricule",
                  "type": "string"
                },
                {
                  "internalType": "string",
                  "name": "adresse",
                  "type": "string"
                },
                {
                  "internalType": "uint256",
                  "name": "tel",
                  "type": "uint256"
                }
              ],
              "internalType": "struct Remplissage.Collecteur",
              "name": "collecteur",
              "type": "tuple"
            }
          ],
          "internalType": "struct Remplissage.Operation",
          "name": "operation",
          "type": "tuple"
        }
      ],
      "stateMutability": "view",
      "type": "function",
      "constant": true
    }
  ],
  "bytecode": "0x6080604052600160025534801561001557600080fd5b506132b2806100256000396000f3fe608060405234801561001057600080fd5b506004361061007d5760003560e01c8063590ddb3f1161005b578063590ddb3f14610100578063996ba7bb14610130578063dcdc029814610166578063f948e50a146101965761007d565b80631e96917d14610082578063202e3924146100a05780635383bbfd146100d0575b600080fd5b61008a6101b4565b60405161009791906125db565b60405180910390f35b6100ba60048036038101906100b59190612636565b6101ba565b6040516100c791906128e5565b60405180910390f35b6100ea60048036038101906100e59190612636565b610863565b6040516100f79190612951565b60405180910390f35b61011a60048036038101906101159190612de2565b61090f565b6040516101279190612f9e565b60405180910390f35b61014a60048036038101906101459190612636565b61112a565b60405161015d97969594939291906130e9565b60405180910390f35b610180600480360381019061017b9190612636565b61174e565b60405161018d91906128e5565b60405180910390f35b61019e611dfa565b6040516101ab9190612f9e565b60405180910390f35b60025481565b6101c2612471565b60005b60025481101561085c5782600082815481106101e4576101e3613174565b5b906000526020600020906010020160000154141561084957600081815481106102105761020f613174565b5b90600052602060002090601002016040518060e0016040529081600082015481526020016001820154815260200160028201805461024d906131d2565b80601f0160208091040260200160405190810160405280929190818152602001828054610279906131d2565b80156102c65780601f1061029b576101008083540402835291602001916102c6565b820191906000526020600020905b8154815290600101906020018083116102a957829003601f168201915b505050505081526020016003820180546102df906131d2565b80601f016020809104026020016040519081016040528092919081815260200182805461030b906131d2565b80156103585780601f1061032d57610100808354040283529160200191610358565b820191906000526020600020905b81548152906001019060200180831161033b57829003601f168201915b5050505050815260200160048201548152602001600582016040518060a001604052908160008201548152602001600182018054610395906131d2565b80601f01602080910402602001604051908101604052809291908181526020018280546103c1906131d2565b801561040e5780601f106103e35761010080835404028352916020019161040e565b820191906000526020600020905b8154815290600101906020018083116103f157829003601f168201915b50505050508152602001600282018054610427906131d2565b80601f0160208091040260200160405190810160405280929190818152602001828054610453906131d2565b80156104a05780601f10610475576101008083540402835291602001916104a0565b820191906000526020600020905b81548152906001019060200180831161048357829003601f168201915b505050505081526020016003820180546104b9906131d2565b80601f01602080910402602001604051908101604052809291908181526020018280546104e5906131d2565b80156105325780601f1061050757610100808354040283529160200191610532565b820191906000526020600020905b81548152906001019060200180831161051557829003601f168201915b5050505050815260200160048201805461054b906131d2565b80601f0160208091040260200160405190810160405280929190818152602001828054610577906131d2565b80156105c45780601f10610599576101008083540402835291602001916105c4565b820191906000526020600020905b8154815290600101906020018083116105a757829003601f168201915b5050505050815250508152602001600a82016040518060c0016040529081600082015481526020016001820180546105fb906131d2565b80601f0160208091040260200160405190810160405280929190818152602001828054610627906131d2565b80156106745780601f1061064957610100808354040283529160200191610674565b820191906000526020600020905b81548152906001019060200180831161065757829003601f168201915b5050505050815260200160028201805461068d906131d2565b80601f01602080910402602001604051908101604052809291908181526020018280546106b9906131d2565b80156107065780601f106106db57610100808354040283529160200191610706565b820191906000526020600020905b8154815290600101906020018083116106e957829003601f168201915b5050505050815260200160038201805461071f906131d2565b80601f016020809104026020016040519081016040528092919081815260200182805461074b906131d2565b80156107985780601f1061076d57610100808354040283529160200191610798565b820191906000526020600020905b81548152906001019060200180831161077b57829003601f168201915b505050505081526020016004820180546107b1906131d2565b80601f01602080910402602001604051908101604052809291908181526020018280546107dd906131d2565b801561082a5780601f106107ff5761010080835404028352916020019161082a565b820191906000526020600020905b81548152906001019060200180831161080d57829003601f168201915b505050505081526020016005820154815250508152505091505061085e565b808061085490613233565b9150506101c5565b505b919050565b6001818154811061087357600080fd5b90600052602060002001600091509050805461088e906131d2565b80601f01602080910402602001604051908101604052809291908181526020018280546108ba906131d2565b80156109075780601f106108dc57610100808354040283529160200191610907565b820191906000526020600020905b8154815290600101906020018083116108ea57829003601f168201915b505050505081565b606060008290806001815401808255809150506001900390600052602060002090601002016000909190919091506000820151816000015560208201518160010155604082015181600201908051906020019061096d9291906124ba565b50606082015181600301908051906020019061098a9291906124ba565b506080820151816004015560a0820151816005016000820151816000015560208201518160010190805190602001906109c49291906124ba565b5060408201518160020190805190602001906109e19291906124ba565b5060608201518160030190805190602001906109fe9291906124ba565b506080820151816004019080519060200190610a1b9291906124ba565b50505060c082015181600a01600082015181600001556020820151816001019080519060200190610a4d9291906124ba565b506040820151816002019080519060200190610a6a9291906124ba565b506060820151816003019080519060200190610a879291906124ba565b506080820151816004019080519060200190610aa49291906124ba565b5060a08201518160050155505050506000805480602002602001604051908101604052809291908181526020016000905b8282101561111f57838290600052602060002090601002016040518060e00160405290816000820154815260200160018201548152602001600282018054610b1c906131d2565b80601f0160208091040260200160405190810160405280929190818152602001828054610b48906131d2565b8015610b955780601f10610b6a57610100808354040283529160200191610b95565b820191906000526020600020905b815481529060010190602001808311610b7857829003601f168201915b50505050508152602001600382018054610bae906131d2565b80601f0160208091040260200160405190810160405280929190818152602001828054610bda906131d2565b8015610c275780601f10610bfc57610100808354040283529160200191610c27565b820191906000526020600020905b815481529060010190602001808311610c0a57829003601f168201915b5050505050815260200160048201548152602001600582016040518060a001604052908160008201548152602001600182018054610c64906131d2565b80601f0160208091040260200160405190810160405280929190818152602001828054610c90906131d2565b8015610cdd5780601f10610cb257610100808354040283529160200191610cdd565b820191906000526020600020905b815481529060010190602001808311610cc057829003601f168201915b50505050508152602001600282018054610cf6906131d2565b80601f0160208091040260200160405190810160405280929190818152602001828054610d22906131d2565b8015610d6f5780601f10610d4457610100808354040283529160200191610d6f565b820191906000526020600020905b815481529060010190602001808311610d5257829003601f168201915b50505050508152602001600382018054610d88906131d2565b80601f0160208091040260200160405190810160405280929190818152602001828054610db4906131d2565b8015610e015780601f10610dd657610100808354040283529160200191610e01565b820191906000526020600020905b815481529060010190602001808311610de457829003601f168201915b50505050508152602001600482018054610e1a906131d2565b80601f0160208091040260200160405190810160405280929190818152602001828054610e46906131d2565b8015610e935780601f10610e6857610100808354040283529160200191610e93565b820191906000526020600020905b815481529060010190602001808311610e7657829003601f168201915b5050505050815250508152602001600a82016040518060c001604052908160008201548152602001600182018054610eca906131d2565b80601f0160208091040260200160405190810160405280929190818152602001828054610ef6906131d2565b8015610f435780601f10610f1857610100808354040283529160200191610f43565b820191906000526020600020905b815481529060010190602001808311610f2657829003601f168201915b50505050508152602001600282018054610f5c906131d2565b80601f0160208091040260200160405190810160405280929190818152602001828054610f88906131d2565b8015610fd55780601f10610faa57610100808354040283529160200191610fd5565b820191906000526020600020905b815481529060010190602001808311610fb857829003601f168201915b50505050508152602001600382018054610fee906131d2565b80601f016020809104026020016040519081016040528092919081815260200182805461101a906131d2565b80156110675780601f1061103c57610100808354040283529160200191611067565b820191906000526020600020905b81548152906001019060200180831161104a57829003601f168201915b50505050508152602001600482018054611080906131d2565b80601f01602080910402602001604051908101604052809291908181526020018280546110ac906131d2565b80156110f95780601f106110ce576101008083540402835291602001916110f9565b820191906000526020600020905b8154815290600101906020018083116110dc57829003601f168201915b505050505081526020016005820154815250508152505081526020019060010190610ad5565b505050509050919050565b6000818154811061113a57600080fd5b9060005260206000209060100201600091509050806000015490806001015490806002018054611169906131d2565b80601f0160208091040260200160405190810160405280929190818152602001828054611195906131d2565b80156111e25780601f106111b7576101008083540402835291602001916111e2565b820191906000526020600020905b8154815290600101906020018083116111c557829003601f168201915b5050505050908060030180546111f7906131d2565b80601f0160208091040260200160405190810160405280929190818152602001828054611223906131d2565b80156112705780601f1061124557610100808354040283529160200191611270565b820191906000526020600020905b81548152906001019060200180831161125357829003601f168201915b505050505090806004015490806005016040518060a0016040529081600082015481526020016001820180546112a5906131d2565b80601f01602080910402602001604051908101604052809291908181526020018280546112d1906131d2565b801561131e5780601f106112f35761010080835404028352916020019161131e565b820191906000526020600020905b81548152906001019060200180831161130157829003601f168201915b50505050508152602001600282018054611337906131d2565b80601f0160208091040260200160405190810160405280929190818152602001828054611363906131d2565b80156113b05780601f10611385576101008083540402835291602001916113b0565b820191906000526020600020905b81548152906001019060200180831161139357829003601f168201915b505050505081526020016003820180546113c9906131d2565b80601f01602080910402602001604051908101604052809291908181526020018280546113f5906131d2565b80156114425780601f1061141757610100808354040283529160200191611442565b820191906000526020600020905b81548152906001019060200180831161142557829003601f168201915b5050505050815260200160048201805461145b906131d2565b80601f0160208091040260200160405190810160405280929190818152602001828054611487906131d2565b80156114d45780601f106114a9576101008083540402835291602001916114d4565b820191906000526020600020905b8154815290600101906020018083116114b757829003601f168201915b5050505050815250509080600a016040518060c001604052908160008201548152602001600182018054611507906131d2565b80601f0160208091040260200160405190810160405280929190818152602001828054611533906131d2565b80156115805780601f1061155557610100808354040283529160200191611580565b820191906000526020600020905b81548152906001019060200180831161156357829003601f168201915b50505050508152602001600282018054611599906131d2565b80601f01602080910402602001604051908101604052809291908181526020018280546115c5906131d2565b80156116125780601f106115e757610100808354040283529160200191611612565b820191906000526020600020905b8154815290600101906020018083116115f557829003601f168201915b5050505050815260200160038201805461162b906131d2565b80601f0160208091040260200160405190810160405280929190818152602001828054611657906131d2565b80156116a45780601f10611679576101008083540402835291602001916116a4565b820191906000526020600020905b81548152906001019060200180831161168757829003601f168201915b505050505081526020016004820180546116bd906131d2565b80601f01602080910402602001604051908101604052809291908181526020018280546116e9906131d2565b80156117365780601f1061170b57610100808354040283529160200191611736565b820191906000526020600020905b81548152906001019060200180831161171957829003601f168201915b50505050508152602001600582015481525050905087565b611756612471565b60005b600080549050811015611df357826000828154811061177b5761177a613174565b5b9060005260206000209060100201600101541415611de057600081815481106117a7576117a6613174565b5b90600052602060002090601002016040518060e001604052908160008201548152602001600182015481526020016002820180546117e4906131d2565b80601f0160208091040260200160405190810160405280929190818152602001828054611810906131d2565b801561185d5780601f106118325761010080835404028352916020019161185d565b820191906000526020600020905b81548152906001019060200180831161184057829003601f168201915b50505050508152602001600382018054611876906131d2565b80601f01602080910402602001604051908101604052809291908181526020018280546118a2906131d2565b80156118ef5780601f106118c4576101008083540402835291602001916118ef565b820191906000526020600020905b8154815290600101906020018083116118d257829003601f168201915b5050505050815260200160048201548152602001600582016040518060a00160405290816000820154815260200160018201805461192c906131d2565b80601f0160208091040260200160405190810160405280929190818152602001828054611958906131d2565b80156119a55780601f1061197a576101008083540402835291602001916119a5565b820191906000526020600020905b81548152906001019060200180831161198857829003601f168201915b505050505081526020016002820180546119be906131d2565b80601f01602080910402602001604051908101604052809291908181526020018280546119ea906131d2565b8015611a375780601f10611a0c57610100808354040283529160200191611a37565b820191906000526020600020905b815481529060010190602001808311611a1a57829003601f168201915b50505050508152602001600382018054611a50906131d2565b80601f0160208091040260200160405190810160405280929190818152602001828054611a7c906131d2565b8015611ac95780601f10611a9e57610100808354040283529160200191611ac9565b820191906000526020600020905b815481529060010190602001808311611aac57829003601f168201915b50505050508152602001600482018054611ae2906131d2565b80601f0160208091040260200160405190810160405280929190818152602001828054611b0e906131d2565b8015611b5b5780601f10611b3057610100808354040283529160200191611b5b565b820191906000526020600020905b815481529060010190602001808311611b3e57829003601f168201915b5050505050815250508152602001600a82016040518060c001604052908160008201548152602001600182018054611b92906131d2565b80601f0160208091040260200160405190810160405280929190818152602001828054611bbe906131d2565b8015611c0b5780601f10611be057610100808354040283529160200191611c0b565b820191906000526020600020905b815481529060010190602001808311611bee57829003601f168201915b50505050508152602001600282018054611c24906131d2565b80601f0160208091040260200160405190810160405280929190818152602001828054611c50906131d2565b8015611c9d5780601f10611c7257610100808354040283529160200191611c9d565b820191906000526020600020905b815481529060010190602001808311611c8057829003601f168201915b50505050508152602001600382018054611cb6906131d2565b80601f0160208091040260200160405190810160405280929190818152602001828054611ce2906131d2565b8015611d2f5780601f10611d0457610100808354040283529160200191611d2f565b820191906000526020600020905b815481529060010190602001808311611d1257829003601f168201915b50505050508152602001600482018054611d48906131d2565b80601f0160208091040260200160405190810160405280929190818152602001828054611d74906131d2565b8015611dc15780601f10611d9657610100808354040283529160200191611dc1565b820191906000526020600020905b815481529060010190602001808311611da457829003601f168201915b5050505050815260200160058201548152505081525050915050611df5565b8080611deb90613233565b915050611759565b505b919050565b60606000805480602002602001604051908101604052809291908181526020016000905b8282101561246857838290600052602060002090601002016040518060e00160405290816000820154815260200160018201548152602001600282018054611e65906131d2565b80601f0160208091040260200160405190810160405280929190818152602001828054611e91906131d2565b8015611ede5780601f10611eb357610100808354040283529160200191611ede565b820191906000526020600020905b815481529060010190602001808311611ec157829003601f168201915b50505050508152602001600382018054611ef7906131d2565b80601f0160208091040260200160405190810160405280929190818152602001828054611f23906131d2565b8015611f705780601f10611f4557610100808354040283529160200191611f70565b820191906000526020600020905b815481529060010190602001808311611f5357829003601f168201915b5050505050815260200160048201548152602001600582016040518060a001604052908160008201548152602001600182018054611fad906131d2565b80601f0160208091040260200160405190810160405280929190818152602001828054611fd9906131d2565b80156120265780601f10611ffb57610100808354040283529160200191612026565b820191906000526020600020905b81548152906001019060200180831161200957829003601f168201915b5050505050815260200160028201805461203f906131d2565b80601f016020809104026020016040519081016040528092919081815260200182805461206b906131d2565b80156120b85780601f1061208d576101008083540402835291602001916120b8565b820191906000526020600020905b81548152906001019060200180831161209b57829003601f168201915b505050505081526020016003820180546120d1906131d2565b80601f01602080910402602001604051908101604052809291908181526020018280546120fd906131d2565b801561214a5780601f1061211f5761010080835404028352916020019161214a565b820191906000526020600020905b81548152906001019060200180831161212d57829003601f168201915b50505050508152602001600482018054612163906131d2565b80601f016020809104026020016040519081016040528092919081815260200182805461218f906131d2565b80156121dc5780601f106121b1576101008083540402835291602001916121dc565b820191906000526020600020905b8154815290600101906020018083116121bf57829003601f168201915b5050505050815250508152602001600a82016040518060c001604052908160008201548152602001600182018054612213906131d2565b80601f016020809104026020016040519081016040528092919081815260200182805461223f906131d2565b801561228c5780601f106122615761010080835404028352916020019161228c565b820191906000526020600020905b81548152906001019060200180831161226f57829003601f168201915b505050505081526020016002820180546122a5906131d2565b80601f01602080910402602001604051908101604052809291908181526020018280546122d1906131d2565b801561231e5780601f106122f35761010080835404028352916020019161231e565b820191906000526020600020905b81548152906001019060200180831161230157829003601f168201915b50505050508152602001600382018054612337906131d2565b80601f0160208091040260200160405190810160405280929190818152602001828054612363906131d2565b80156123b05780601f10612385576101008083540402835291602001916123b0565b820191906000526020600020905b81548152906001019060200180831161239357829003601f168201915b505050505081526020016004820180546123c9906131d2565b80601f01602080910402602001604051908101604052809291908181526020018280546123f5906131d2565b80156124425780601f1061241757610100808354040283529160200191612442565b820191906000526020600020905b81548152906001019060200180831161242557829003601f168201915b505050505081526020016005820154815250508152505081526020019060010190611e1e565b50505050905090565b6040518060e0016040528060008152602001600081526020016060815260200160608152602001600081526020016124a7612540565b81526020016124b461256f565b81525090565b8280546124c6906131d2565b90600052602060002090601f0160209004810192826124e8576000855561252f565b82601f1061250157805160ff191683800117855561252f565b8280016001018555821561252f579182015b8281111561252e578251825591602001919060010190612513565b5b50905061253c91906125a5565b5090565b6040518060a0016040528060008152602001606081526020016060815260200160608152602001606081525090565b6040518060c001604052806000815260200160608152602001606081526020016060815260200160608152602001600081525090565b5b808211156125be5760008160009055506001016125a6565b5090565b6000819050919050565b6125d5816125c2565b82525050565b60006020820190506125f060008301846125cc565b92915050565b6000604051905090565b600080fd5b600080fd5b612613816125c2565b811461261e57600080fd5b50565b6000813590506126308161260a565b92915050565b60006020828403121561264c5761264b612600565b5b600061265a84828501612621565b91505092915050565b61266c816125c2565b82525050565b600081519050919050565b600082825260208201905092915050565b60005b838110156126ac578082015181840152602081019050612691565b838111156126bb576000848401525b50505050565b6000601f19601f8301169050919050565b60006126dd82612672565b6126e7818561267d565b93506126f781856020860161268e565b612700816126c1565b840191505092915050565b600060a0830160008301516127236000860182612663565b506020830151848203602086015261273b82826126d2565b9150506040830151848203604086015261275582826126d2565b9150506060830151848203606086015261276f82826126d2565b9150506080830151848203608086015261278982826126d2565b9150508091505092915050565b600060c0830160008301516127ae6000860182612663565b50602083015184820360208601526127c682826126d2565b915050604083015184820360408601526127e082826126d2565b915050606083015184820360608601526127fa82826126d2565b9150506080830151848203608086015261281482826126d2565b91505060a083015161282960a0860182612663565b508091505092915050565b600060e08301600083015161284c6000860182612663565b50602083015161285f6020860182612663565b506040830151848203604086015261287782826126d2565b9150506060830151848203606086015261289182826126d2565b91505060808301516128a66080860182612663565b5060a083015184820360a08601526128be828261270b565b91505060c083015184820360c08601526128d88282612796565b9150508091505092915050565b600060208201905081810360008301526128ff8184612834565b905092915050565b600082825260208201905092915050565b600061292382612672565b61292d8185612907565b935061293d81856020860161268e565b612946816126c1565b840191505092915050565b6000602082019050818103600083015261296b8184612918565b905092915050565b600080fd5b7f4e487b7100000000000000000000000000000000000000000000000000000000600052604160045260246000fd5b6129b0826126c1565b810181811067ffffffffffffffff821117156129cf576129ce612978565b5b80604052505050565b60006129e26125f6565b90506129ee82826129a7565b919050565b600080fd5b600080fd5b600080fd5b600067ffffffffffffffff821115612a1d57612a1c612978565b5b612a26826126c1565b9050602081019050919050565b82818337600083830152505050565b6000612a55612a5084612a02565b6129d8565b905082815260208101848484011115612a7157612a706129fd565b5b612a7c848285612a33565b509392505050565b600082601f830112612a9957612a986129f8565b5b8135612aa9848260208601612a42565b91505092915050565b600060a08284031215612ac857612ac7612973565b5b612ad260a06129d8565b90506000612ae284828501612621565b600083015250602082013567ffffffffffffffff811115612b0657612b056129f3565b5b612b1284828501612a84565b602083015250604082013567ffffffffffffffff811115612b3657612b356129f3565b5b612b4284828501612a84565b604083015250606082013567ffffffffffffffff811115612b6657612b656129f3565b5b612b7284828501612a84565b606083015250608082013567ffffffffffffffff811115612b9657612b956129f3565b5b612ba284828501612a84565b60808301525092915050565b600060c08284031215612bc457612bc3612973565b5b612bce60c06129d8565b90506000612bde84828501612621565b600083015250602082013567ffffffffffffffff811115612c0257612c016129f3565b5b612c0e84828501612a84565b602083015250604082013567ffffffffffffffff811115612c3257612c316129f3565b5b612c3e84828501612a84565b604083015250606082013567ffffffffffffffff811115612c6257612c616129f3565b5b612c6e84828501612a84565b606083015250608082013567ffffffffffffffff811115612c9257612c916129f3565b5b612c9e84828501612a84565b60808301525060a0612cb284828501612621565b60a08301525092915050565b600060e08284031215612cd457612cd3612973565b5b612cde60e06129d8565b90506000612cee84828501612621565b6000830152506020612d0284828501612621565b602083015250604082013567ffffffffffffffff811115612d2657612d256129f3565b5b612d3284828501612a84565b604083015250606082013567ffffffffffffffff811115612d5657612d556129f3565b5b612d6284828501612a84565b6060830152506080612d7684828501612621565b60808301525060a082013567ffffffffffffffff811115612d9a57612d996129f3565b5b612da684828501612ab2565b60a08301525060c082013567ffffffffffffffff811115612dca57612dc96129f3565b5b612dd684828501612bae565b60c08301525092915050565b600060208284031215612df857612df7612600565b5b600082013567ffffffffffffffff811115612e1657612e15612605565b5b612e2284828501612cbe565b91505092915050565b600081519050919050565b600082825260208201905092915050565b6000819050602082019050919050565b600060e083016000830151612e6f6000860182612663565b506020830151612e826020860182612663565b5060408301518482036040860152612e9a82826126d2565b91505060608301518482036060860152612eb482826126d2565b9150506080830151612ec96080860182612663565b5060a083015184820360a0860152612ee1828261270b565b91505060c083015184820360c0860152612efb8282612796565b9150508091505092915050565b6000612f148383612e57565b905092915050565b6000602082019050919050565b6000612f3482612e2b565b612f3e8185612e36565b935083602082028501612f5085612e47565b8060005b85811015612f8c5784840389528151612f6d8582612f08565b9450612f7883612f1c565b925060208a01995050600181019050612f54565b50829750879550505050505092915050565b60006020820190508181036000830152612fb88184612f29565b905092915050565b600060a083016000830151612fd86000860182612663565b5060208301518482036020860152612ff082826126d2565b9150506040830151848203604086015261300a82826126d2565b9150506060830151848203606086015261302482826126d2565b9150506080830151848203608086015261303e82826126d2565b9150508091505092915050565b600060c0830160008301516130636000860182612663565b506020830151848203602086015261307b82826126d2565b9150506040830151848203604086015261309582826126d2565b915050606083015184820360608601526130af82826126d2565b915050608083015184820360808601526130c982826126d2565b91505060a08301516130de60a0860182612663565b508091505092915050565b600060e0820190506130fe600083018a6125cc565b61310b60208301896125cc565b818103604083015261311d8188612918565b905081810360608301526131318187612918565b905061314060808301866125cc565b81810360a08301526131528185612fc0565b905081810360c0830152613166818461304b565b905098975050505050505050565b7f4e487b7100000000000000000000000000000000000000000000000000000000600052603260045260246000fd5b7f4e487b7100000000000000000000000000000000000000000000000000000000600052602260045260246000fd5b600060028204905060018216806131ea57607f821691505b602082108114156131fe576131fd6131a3565b5b50919050565b7f4e487b7100000000000000000000000000000000000000000000000000000000600052601160045260246000fd5b600061323e826125c2565b91507fffffffffffffffffffffffffffffffffffffffffffffffffffffffffffffffff82141561327157613270613204565b5b60018201905091905056fea2646970667358221220da0e206315e91f33601f201612b5fc56667b986a1992e1c29f97f2c46b5e766a64736f6c634300080b0033",
  "immutableReferences": {},
  "source": "// SPDX-License-Identifier: MIT\r\npragma solidity >=0.4.22 <0.9.0;\r\nimport \"./Remplissage.sol\";\r\n\r\ncontract RemplissageAgric is Remplissage {\r\n    Operation[] public operations2;\r\n\r\n    string[] public ALLS;\r\n    uint256 public nextID = 1;\r\n\r\n    //create 2\r\n    function addOperation2(Operation memory op)\r\n        public\r\n        returns (Operation[] memory op0   )\r\n    {\r\n        operations2.push(op);\r\n        return (operations2);\r\n    }\r\n\r\n    //get all operations\r\n\r\n    function getOperations() public view returns (Operation[] memory result) {\r\n        return operations2;\r\n    }\r\n\r\n    //get one operation\r\n\r\n    function getOperation(uint256 id)\r\n        public\r\n        view\r\n        returns (Operation memory operation)\r\n    {\r\n        for (uint256 i = 0; i < nextID; i++) {\r\n            if (operations2[i].idOperation == id) {\r\n                return operations2[i];\r\n            }\r\n        }\r\n    }\r\n\r\n    function GetOperationFarmerByCode(uint256 code)\r\n        public\r\n        view\r\n        returns (Operation memory operation)\r\n    {\r\n        for (uint256 i = 0; i < operations2.length; i++) {\r\n            if (operations2[i].code == code) {\r\n                return operations2[i];\r\n            }\r\n        }\r\n    }\r\n}\r\n",
  "sourcePath": "C:\\Users\\ASUS\\Desktop\\pfe\\PFE_Project(app4)\\PFE-FrontEnd\\contracts\\RemplissageAgric.sol",
  "compiler": {
    "name": "solc",
    "version": "0.8.11+commit.d7f03943.Emscripten.clang"
  },
  "schemaVersion": "3.4.5",
  "updatedAt": "2022-05-28T00:43:45.638Z",
  "networkType": "ethereum",
  "devdoc": {
    "kind": "dev",
    "methods": {},
    "version": 1
  },
  "userdoc": {
    "kind": "user",
    "methods": {},
    "version": 1
  }
}