{
  "contractName": "RemplissageAgric",
  "abi": [
    {
      "inputs": [
        {
          "internalType": "uint256",
          "name": "",
          "type": "uint256"
        }
      ],
      "name": "ALLS",
      "outputs": [
        {
          "internalType": "string",
          "name": "",
          "type": "string"
        }
      ],
      "stateMutability": "view",
      "type": "function",
      "constant": true
    },
    {
      "inputs": [],
      "name": "nextID",
      "outputs": [
        {
          "internalType": "uint256",
          "name": "",
          "type": "uint256"
        }
      ],
      "stateMutability": "view",
      "type": "function",
      "constant": true
    },
    {
      "inputs": [
        {
          "internalType": "uint256",
          "name": "",
          "type": "uint256"
        }
      ],
      "name": "operations2",
      "outputs": [
        {
          "internalType": "uint256",
          "name": "idOperation",
          "type": "uint256"
        },
        {
          "internalType": "uint256",
          "name": "poidsLait",
          "type": "uint256"
        },
        {
          "internalType": "string",
          "name": "dateOperation",
          "type": "string"
        },
        {
          "internalType": "string",
          "name": "typeOp",
          "type": "string"
        },
        {
          "internalType": "uint256",
          "name": "code",
          "type": "uint256"
        },
        {
          "components": [
            {
              "internalType": "uint256",
              "name": "idCollecteur",
              "type": "uint256"
            },
            {
              "internalType": "string",
              "name": "nomCollecteur",
              "type": "string"
            },
            {
              "internalType": "string",
              "name": "adresse",
              "type": "string"
            },
            {
              "internalType": "uint256",
              "name": "tel",
              "type": "uint256"
            }
          ],
          "internalType": "struct Remplissage.Collecteur",
          "name": "collecteur",
          "type": "tuple"
        },
        {
          "components": [
            {
              "internalType": "uint256",
              "name": "idAgriculteur",
              "type": "uint256"
            },
            {
              "internalType": "string",
              "name": "nom",
              "type": "string"
            },
            {
              "internalType": "string",
              "name": "prenom",
              "type": "string"
            },
            {
              "internalType": "string",
              "name": "username",
              "type": "string"
            },
            {
              "internalType": "string",
              "name": "password",
              "type": "string"
            }
          ],
          "internalType": "struct Remplissage.Agriculteur",
          "name": "agriculteur",
          "type": "tuple"
        }
      ],
      "stateMutability": "view",
      "type": "function",
      "constant": true
    },
    {
      "inputs": [
        {
          "components": [
            {
              "internalType": "uint256",
              "name": "idOperation",
              "type": "uint256"
            },
            {
              "internalType": "uint256",
              "name": "poidsLait",
              "type": "uint256"
            },
            {
              "internalType": "string",
              "name": "dateOperation",
              "type": "string"
            },
            {
              "internalType": "string",
              "name": "typeOp",
              "type": "string"
            },
            {
              "internalType": "uint256",
              "name": "code",
              "type": "uint256"
            },
            {
              "components": [
                {
                  "internalType": "uint256",
                  "name": "idCollecteur",
                  "type": "uint256"
                },
                {
                  "internalType": "string",
                  "name": "nomCollecteur",
                  "type": "string"
                },
                {
                  "internalType": "string",
                  "name": "adresse",
                  "type": "string"
                },
                {
                  "internalType": "uint256",
                  "name": "tel",
                  "type": "uint256"
                }
              ],
              "internalType": "struct Remplissage.Collecteur",
              "name": "collecteur",
              "type": "tuple"
            },
            {
              "components": [
                {
                  "internalType": "uint256",
                  "name": "idAgriculteur",
                  "type": "uint256"
                },
                {
                  "internalType": "string",
                  "name": "nom",
                  "type": "string"
                },
                {
                  "internalType": "string",
                  "name": "prenom",
                  "type": "string"
                },
                {
                  "internalType": "string",
                  "name": "username",
                  "type": "string"
                },
                {
                  "internalType": "string",
                  "name": "password",
                  "type": "string"
                }
              ],
              "internalType": "struct Remplissage.Agriculteur",
              "name": "agriculteur",
              "type": "tuple"
            }
          ],
          "internalType": "struct Remplissage.Operation",
          "name": "op",
          "type": "tuple"
        }
      ],
      "name": "addOperation2",
      "outputs": [
        {
          "components": [
            {
              "internalType": "uint256",
              "name": "idOperation",
              "type": "uint256"
            },
            {
              "internalType": "uint256",
              "name": "poidsLait",
              "type": "uint256"
            },
            {
              "internalType": "string",
              "name": "dateOperation",
              "type": "string"
            },
            {
              "internalType": "string",
              "name": "typeOp",
              "type": "string"
            },
            {
              "internalType": "uint256",
              "name": "code",
              "type": "uint256"
            },
            {
              "components": [
                {
                  "internalType": "uint256",
                  "name": "idCollecteur",
                  "type": "uint256"
                },
                {
                  "internalType": "string",
                  "name": "nomCollecteur",
                  "type": "string"
                },
                {
                  "internalType": "string",
                  "name": "adresse",
                  "type": "string"
                },
                {
                  "internalType": "uint256",
                  "name": "tel",
                  "type": "uint256"
                }
              ],
              "internalType": "struct Remplissage.Collecteur",
              "name": "collecteur",
              "type": "tuple"
            },
            {
              "components": [
                {
                  "internalType": "uint256",
                  "name": "idAgriculteur",
                  "type": "uint256"
                },
                {
                  "internalType": "string",
                  "name": "nom",
                  "type": "string"
                },
                {
                  "internalType": "string",
                  "name": "prenom",
                  "type": "string"
                },
                {
                  "internalType": "string",
                  "name": "username",
                  "type": "string"
                },
                {
                  "internalType": "string",
                  "name": "password",
                  "type": "string"
                }
              ],
              "internalType": "struct Remplissage.Agriculteur",
              "name": "agriculteur",
              "type": "tuple"
            }
          ],
          "internalType": "struct Remplissage.Operation",
          "name": "op0",
          "type": "tuple"
        }
      ],
      "stateMutability": "nonpayable",
      "type": "function"
    },
    {
      "inputs": [],
      "name": "getOperations",
      "outputs": [
        {
          "components": [
            {
              "internalType": "uint256",
              "name": "idOperation",
              "type": "uint256"
            },
            {
              "internalType": "uint256",
              "name": "poidsLait",
              "type": "uint256"
            },
            {
              "internalType": "string",
              "name": "dateOperation",
              "type": "string"
            },
            {
              "internalType": "string",
              "name": "typeOp",
              "type": "string"
            },
            {
              "internalType": "uint256",
              "name": "code",
              "type": "uint256"
            },
            {
              "components": [
                {
                  "internalType": "uint256",
                  "name": "idCollecteur",
                  "type": "uint256"
                },
                {
                  "internalType": "string",
                  "name": "nomCollecteur",
                  "type": "string"
                },
                {
                  "internalType": "string",
                  "name": "adresse",
                  "type": "string"
                },
                {
                  "internalType": "uint256",
                  "name": "tel",
                  "type": "uint256"
                }
              ],
              "internalType": "struct Remplissage.Collecteur",
              "name": "collecteur",
              "type": "tuple"
            },
            {
              "components": [
                {
                  "internalType": "uint256",
                  "name": "idAgriculteur",
                  "type": "uint256"
                },
                {
                  "internalType": "string",
                  "name": "nom",
                  "type": "string"
                },
                {
                  "internalType": "string",
                  "name": "prenom",
                  "type": "string"
                },
                {
                  "internalType": "string",
                  "name": "username",
                  "type": "string"
                },
                {
                  "internalType": "string",
                  "name": "password",
                  "type": "string"
                }
              ],
              "internalType": "struct Remplissage.Agriculteur",
              "name": "agriculteur",
              "type": "tuple"
            }
          ],
          "internalType": "struct Remplissage.Operation[]",
          "name": "result",
          "type": "tuple[]"
        }
      ],
      "stateMutability": "view",
      "type": "function",
      "constant": true
    },
    {
      "inputs": [
        {
          "internalType": "uint256",
          "name": "id",
          "type": "uint256"
        }
      ],
      "name": "getOperation",
      "outputs": [
        {
          "components": [
            {
              "internalType": "uint256",
              "name": "idOperation",
              "type": "uint256"
            },
            {
              "internalType": "uint256",
              "name": "poidsLait",
              "type": "uint256"
            },
            {
              "internalType": "string",
              "name": "dateOperation",
              "type": "string"
            },
            {
              "internalType": "string",
              "name": "typeOp",
              "type": "string"
            },
            {
              "internalType": "uint256",
              "name": "code",
              "type": "uint256"
            },
            {
              "components": [
                {
                  "internalType": "uint256",
                  "name": "idCollecteur",
                  "type": "uint256"
                },
                {
                  "internalType": "string",
                  "name": "nomCollecteur",
                  "type": "string"
                },
                {
                  "internalType": "string",
                  "name": "adresse",
                  "type": "string"
                },
                {
                  "internalType": "uint256",
                  "name": "tel",
                  "type": "uint256"
                }
              ],
              "internalType": "struct Remplissage.Collecteur",
              "name": "collecteur",
              "type": "tuple"
            },
            {
              "components": [
                {
                  "internalType": "uint256",
                  "name": "idAgriculteur",
                  "type": "uint256"
                },
                {
                  "internalType": "string",
                  "name": "nom",
                  "type": "string"
                },
                {
                  "internalType": "string",
                  "name": "prenom",
                  "type": "string"
                },
                {
                  "internalType": "string",
                  "name": "username",
                  "type": "string"
                },
                {
                  "internalType": "string",
                  "name": "password",
                  "type": "string"
                }
              ],
              "internalType": "struct Remplissage.Agriculteur",
              "name": "agriculteur",
              "type": "tuple"
            }
          ],
          "internalType": "struct Remplissage.Operation",
          "name": "operation",
          "type": "tuple"
        }
      ],
      "stateMutability": "view",
      "type": "function",
      "constant": true
    },
    {
      "inputs": [
        {
          "internalType": "uint256",
          "name": "code",
          "type": "uint256"
        },
        {
          "internalType": "uint256",
          "name": "nin",
          "type": "uint256"
        }
      ],
      "name": "getOperationbycode",
      "outputs": [
        {
          "components": [
            {
              "internalType": "uint256",
              "name": "idOperation",
              "type": "uint256"
            },
            {
              "internalType": "uint256",
              "name": "poidsLait",
              "type": "uint256"
            },
            {
              "internalType": "string",
              "name": "dateOperation",
              "type": "string"
            },
            {
              "internalType": "string",
              "name": "typeOp",
              "type": "string"
            },
            {
              "internalType": "uint256",
              "name": "code",
              "type": "uint256"
            },
            {
              "components": [
                {
                  "internalType": "uint256",
                  "name": "idCollecteur",
                  "type": "uint256"
                },
                {
                  "internalType": "string",
                  "name": "nomCollecteur",
                  "type": "string"
                },
                {
                  "internalType": "string",
                  "name": "adresse",
                  "type": "string"
                },
                {
                  "internalType": "uint256",
                  "name": "tel",
                  "type": "uint256"
                }
              ],
              "internalType": "struct Remplissage.Collecteur",
              "name": "collecteur",
              "type": "tuple"
            },
            {
              "components": [
                {
                  "internalType": "uint256",
                  "name": "idAgriculteur",
                  "type": "uint256"
                },
                {
                  "internalType": "string",
                  "name": "nom",
                  "type": "string"
                },
                {
                  "internalType": "string",
                  "name": "prenom",
                  "type": "string"
                },
                {
                  "internalType": "string",
                  "name": "username",
                  "type": "string"
                },
                {
                  "internalType": "string",
                  "name": "password",
                  "type": "string"
                }
              ],
              "internalType": "struct Remplissage.Agriculteur",
              "name": "agriculteur",
              "type": "tuple"
            }
          ],
          "internalType": "struct Remplissage.Operation",
          "name": "operation",
          "type": "tuple"
        }
      ],
      "stateMutability": "view",
      "type": "function",
      "constant": true
    }
  ],
  "bytecode": "0x6080604052600160025534801561001557600080fd5b506127cb806100256000396000f3fe608060405234801561001057600080fd5b506004361061007d5760003560e01c8063627d612e1161005b578063627d612e14610100578063996ba7bb14610130578063ad6a776f14610166578063f948e50a146101965761007d565b80631e96917d14610082578063202e3924146100a05780635383bbfd146100d0575b600080fd5b61008a6101b4565b6040516100979190611b7c565b60405180910390f35b6100ba60048036038101906100b59190611bd7565b6101ba565b6040516100c79190611e52565b60405180910390f35b6100ea60048036038101906100e59190611bd7565b61073f565b6040516100f79190611ebe565b60405180910390f35b61011a600480360381019061011591906122ef565b6107eb565b6040516101279190611e52565b60405180910390f35b61014a60048036038101906101459190611bd7565b610a49565b60405161015d979695949392919061242d565b60405180910390f35b610180600480360381019061017b91906124b8565b610f49565b60405161018d9190611e52565b60405180910390f35b61019e6114cd565b6040516101ab919061266b565b60405180910390f35b60025481565b6101c2611a20565b60005b6002548110156107385782600082815481106101e4576101e361268d565b5b90600052602060002090600e020160000154141561072557600081815481106102105761020f61268d565b5b90600052602060002090600e02016040518060e0016040529081600082015481526020016001820154815260200160028201805461024d906126eb565b80601f0160208091040260200160405190810160405280929190818152602001828054610279906126eb565b80156102c65780601f1061029b576101008083540402835291602001916102c6565b820191906000526020600020905b8154815290600101906020018083116102a957829003601f168201915b505050505081526020016003820180546102df906126eb565b80601f016020809104026020016040519081016040528092919081815260200182805461030b906126eb565b80156103585780601f1061032d57610100808354040283529160200191610358565b820191906000526020600020905b81548152906001019060200180831161033b57829003601f168201915b50505050508152602001600482015481526020016005820160405180608001604052908160008201548152602001600182018054610395906126eb565b80601f01602080910402602001604051908101604052809291908181526020018280546103c1906126eb565b801561040e5780601f106103e35761010080835404028352916020019161040e565b820191906000526020600020905b8154815290600101906020018083116103f157829003601f168201915b50505050508152602001600282018054610427906126eb565b80601f0160208091040260200160405190810160405280929190818152602001828054610453906126eb565b80156104a05780601f10610475576101008083540402835291602001916104a0565b820191906000526020600020905b81548152906001019060200180831161048357829003601f168201915b505050505081526020016003820154815250508152602001600982016040518060a0016040529081600082015481526020016001820180546104e1906126eb565b80601f016020809104026020016040519081016040528092919081815260200182805461050d906126eb565b801561055a5780601f1061052f5761010080835404028352916020019161055a565b820191906000526020600020905b81548152906001019060200180831161053d57829003601f168201915b50505050508152602001600282018054610573906126eb565b80601f016020809104026020016040519081016040528092919081815260200182805461059f906126eb565b80156105ec5780601f106105c1576101008083540402835291602001916105ec565b820191906000526020600020905b8154815290600101906020018083116105cf57829003601f168201915b50505050508152602001600382018054610605906126eb565b80601f0160208091040260200160405190810160405280929190818152602001828054610631906126eb565b801561067e5780601f106106535761010080835404028352916020019161067e565b820191906000526020600020905b81548152906001019060200180831161066157829003601f168201915b50505050508152602001600482018054610697906126eb565b80601f01602080910402602001604051908101604052809291908181526020018280546106c3906126eb565b80156107105780601f106106e557610100808354040283529160200191610710565b820191906000526020600020905b8154815290600101906020018083116106f357829003601f168201915b5050505050815250508152505091505061073a565b80806107309061274c565b9150506101c5565b505b919050565b6001818154811061074f57600080fd5b90600052602060002001600091509050805461076a906126eb565b80601f0160208091040260200160405190810160405280929190818152602001828054610796906126eb565b80156107e35780601f106107b8576101008083540402835291602001916107e3565b820191906000526020600020905b8154815290600101906020018083116107c657829003601f168201915b505050505081565b6107f3611a20565b60006040518060a001604052808460c001516000015181526020018460c001516020015181526020018460c001516040015181526020018460c001516060015181526020018460c00151608001518152509050600060405180608001604052808560a001516000015181526020018560a001516020015181526020018560a001516040015181526020018560a0015160600151815250905060006040518060e00160405280866000015181526020018660200151815260200186604001518152602001866060015181526020018660800151815260200183815260200184815250905060008190806001815401808255809150506001900390600052602060002090600e020160009091909190915060008201518160000155602082015181600101556040820151816002019080519060200190610932929190611a69565b50606082015181600301908051906020019061094f929190611a69565b506080820151816004015560a082015181600501600082015181600001556020820151816001019080519060200190610989929190611a69565b5060408201518160020190805190602001906109a6929190611a69565b5060608201518160030155505060c0820151816009016000820151816000015560208201518160010190805190602001906109e2929190611a69565b5060408201518160020190805190602001906109ff929190611a69565b506060820151816003019080519060200190610a1c929190611a69565b506080820151816004019080519060200190610a39929190611a69565b5050505050809350505050919050565b60008181548110610a5957600080fd5b90600052602060002090600e0201600091509050806000015490806001015490806002018054610a88906126eb565b80601f0160208091040260200160405190810160405280929190818152602001828054610ab4906126eb565b8015610b015780601f10610ad657610100808354040283529160200191610b01565b820191906000526020600020905b815481529060010190602001808311610ae457829003601f168201915b505050505090806003018054610b16906126eb565b80601f0160208091040260200160405190810160405280929190818152602001828054610b42906126eb565b8015610b8f5780601f10610b6457610100808354040283529160200191610b8f565b820191906000526020600020905b815481529060010190602001808311610b7257829003601f168201915b5050505050908060040154908060050160405180608001604052908160008201548152602001600182018054610bc4906126eb565b80601f0160208091040260200160405190810160405280929190818152602001828054610bf0906126eb565b8015610c3d5780601f10610c1257610100808354040283529160200191610c3d565b820191906000526020600020905b815481529060010190602001808311610c2057829003601f168201915b50505050508152602001600282018054610c56906126eb565b80601f0160208091040260200160405190810160405280929190818152602001828054610c82906126eb565b8015610ccf5780601f10610ca457610100808354040283529160200191610ccf565b820191906000526020600020905b815481529060010190602001808311610cb257829003601f168201915b5050505050815260200160038201548152505090806009016040518060a001604052908160008201548152602001600182018054610d0c906126eb565b80601f0160208091040260200160405190810160405280929190818152602001828054610d38906126eb565b8015610d855780601f10610d5a57610100808354040283529160200191610d85565b820191906000526020600020905b815481529060010190602001808311610d6857829003601f168201915b50505050508152602001600282018054610d9e906126eb565b80601f0160208091040260200160405190810160405280929190818152602001828054610dca906126eb565b8015610e175780601f10610dec57610100808354040283529160200191610e17565b820191906000526020600020905b815481529060010190602001808311610dfa57829003601f168201915b50505050508152602001600382018054610e30906126eb565b80601f0160208091040260200160405190810160405280929190818152602001828054610e5c906126eb565b8015610ea95780601f10610e7e57610100808354040283529160200191610ea9565b820191906000526020600020905b815481529060010190602001808311610e8c57829003601f168201915b50505050508152602001600482018054610ec2906126eb565b80601f0160208091040260200160405190810160405280929190818152602001828054610eee906126eb565b8015610f3b5780601f10610f1057610100808354040283529160200191610f3b565b820191906000526020600020905b815481529060010190602001808311610f1e57829003601f168201915b505050505081525050905087565b610f51611a20565b60005b828110156114c5578360008281548110610f7157610f7061268d565b5b90600052602060002090600e02016004015414156114b25760008181548110610f9d57610f9c61268d565b5b90600052602060002090600e02016040518060e00160405290816000820154815260200160018201548152602001600282018054610fda906126eb565b80601f0160208091040260200160405190810160405280929190818152602001828054611006906126eb565b80156110535780601f1061102857610100808354040283529160200191611053565b820191906000526020600020905b81548152906001019060200180831161103657829003601f168201915b5050505050815260200160038201805461106c906126eb565b80601f0160208091040260200160405190810160405280929190818152602001828054611098906126eb565b80156110e55780601f106110ba576101008083540402835291602001916110e5565b820191906000526020600020905b8154815290600101906020018083116110c857829003601f168201915b50505050508152602001600482015481526020016005820160405180608001604052908160008201548152602001600182018054611122906126eb565b80601f016020809104026020016040519081016040528092919081815260200182805461114e906126eb565b801561119b5780601f106111705761010080835404028352916020019161119b565b820191906000526020600020905b81548152906001019060200180831161117e57829003601f168201915b505050505081526020016002820180546111b4906126eb565b80601f01602080910402602001604051908101604052809291908181526020018280546111e0906126eb565b801561122d5780601f106112025761010080835404028352916020019161122d565b820191906000526020600020905b81548152906001019060200180831161121057829003601f168201915b505050505081526020016003820154815250508152602001600982016040518060a00160405290816000820154815260200160018201805461126e906126eb565b80601f016020809104026020016040519081016040528092919081815260200182805461129a906126eb565b80156112e75780601f106112bc576101008083540402835291602001916112e7565b820191906000526020600020905b8154815290600101906020018083116112ca57829003601f168201915b50505050508152602001600282018054611300906126eb565b80601f016020809104026020016040519081016040528092919081815260200182805461132c906126eb565b80156113795780601f1061134e57610100808354040283529160200191611379565b820191906000526020600020905b81548152906001019060200180831161135c57829003601f168201915b50505050508152602001600382018054611392906126eb565b80601f01602080910402602001604051908101604052809291908181526020018280546113be906126eb565b801561140b5780601f106113e05761010080835404028352916020019161140b565b820191906000526020600020905b8154815290600101906020018083116113ee57829003601f168201915b50505050508152602001600482018054611424906126eb565b80601f0160208091040260200160405190810160405280929190818152602001828054611450906126eb565b801561149d5780601f106114725761010080835404028352916020019161149d565b820191906000526020600020905b81548152906001019060200180831161148057829003601f168201915b505050505081525050815250509150506114c7565b80806114bd9061274c565b915050610f54565b505b92915050565b60606000805480602002602001604051908101604052809291908181526020016000905b82821015611a1757838290600052602060002090600e02016040518060e00160405290816000820154815260200160018201548152602001600282018054611538906126eb565b80601f0160208091040260200160405190810160405280929190818152602001828054611564906126eb565b80156115b15780601f10611586576101008083540402835291602001916115b1565b820191906000526020600020905b81548152906001019060200180831161159457829003601f168201915b505050505081526020016003820180546115ca906126eb565b80601f01602080910402602001604051908101604052809291908181526020018280546115f6906126eb565b80156116435780601f1061161857610100808354040283529160200191611643565b820191906000526020600020905b81548152906001019060200180831161162657829003601f168201915b50505050508152602001600482015481526020016005820160405180608001604052908160008201548152602001600182018054611680906126eb565b80601f01602080910402602001604051908101604052809291908181526020018280546116ac906126eb565b80156116f95780601f106116ce576101008083540402835291602001916116f9565b820191906000526020600020905b8154815290600101906020018083116116dc57829003601f168201915b50505050508152602001600282018054611712906126eb565b80601f016020809104026020016040519081016040528092919081815260200182805461173e906126eb565b801561178b5780601f106117605761010080835404028352916020019161178b565b820191906000526020600020905b81548152906001019060200180831161176e57829003601f168201915b505050505081526020016003820154815250508152602001600982016040518060a0016040529081600082015481526020016001820180546117cc906126eb565b80601f01602080910402602001604051908101604052809291908181526020018280546117f8906126eb565b80156118455780601f1061181a57610100808354040283529160200191611845565b820191906000526020600020905b81548152906001019060200180831161182857829003601f168201915b5050505050815260200160028201805461185e906126eb565b80601f016020809104026020016040519081016040528092919081815260200182805461188a906126eb565b80156118d75780601f106118ac576101008083540402835291602001916118d7565b820191906000526020600020905b8154815290600101906020018083116118ba57829003601f168201915b505050505081526020016003820180546118f0906126eb565b80601f016020809104026020016040519081016040528092919081815260200182805461191c906126eb565b80156119695780601f1061193e57610100808354040283529160200191611969565b820191906000526020600020905b81548152906001019060200180831161194c57829003601f168201915b50505050508152602001600482018054611982906126eb565b80601f01602080910402602001604051908101604052809291908181526020018280546119ae906126eb565b80156119fb5780601f106119d0576101008083540402835291602001916119fb565b820191906000526020600020905b8154815290600101906020018083116119de57829003601f168201915b50505050508152505081525050815260200190600101906114f1565b50505050905090565b6040518060e001604052806000815260200160008152602001606081526020016060815260200160008152602001611a56611aef565b8152602001611a63611b17565b81525090565b828054611a75906126eb565b90600052602060002090601f016020900481019282611a975760008555611ade565b82601f10611ab057805160ff1916838001178555611ade565b82800160010185558215611ade579182015b82811115611add578251825591602001919060010190611ac2565b5b509050611aeb9190611b46565b5090565b6040518060800160405280600081526020016060815260200160608152602001600081525090565b6040518060a0016040528060008152602001606081526020016060815260200160608152602001606081525090565b5b80821115611b5f576000816000905550600101611b47565b5090565b6000819050919050565b611b7681611b63565b82525050565b6000602082019050611b916000830184611b6d565b92915050565b6000604051905090565b600080fd5b600080fd5b611bb481611b63565b8114611bbf57600080fd5b50565b600081359050611bd181611bab565b92915050565b600060208284031215611bed57611bec611ba1565b5b6000611bfb84828501611bc2565b91505092915050565b611c0d81611b63565b82525050565b600081519050919050565b600082825260208201905092915050565b60005b83811015611c4d578082015181840152602081019050611c32565b83811115611c5c576000848401525b50505050565b6000601f19601f8301169050919050565b6000611c7e82611c13565b611c888185611c1e565b9350611c98818560208601611c2f565b611ca181611c62565b840191505092915050565b6000608083016000830151611cc46000860182611c04565b5060208301518482036020860152611cdc8282611c73565b91505060408301518482036040860152611cf68282611c73565b9150506060830151611d0b6060860182611c04565b508091505092915050565b600060a083016000830151611d2e6000860182611c04565b5060208301518482036020860152611d468282611c73565b91505060408301518482036040860152611d608282611c73565b91505060608301518482036060860152611d7a8282611c73565b91505060808301518482036080860152611d948282611c73565b9150508091505092915050565b600060e083016000830151611db96000860182611c04565b506020830151611dcc6020860182611c04565b5060408301518482036040860152611de48282611c73565b91505060608301518482036060860152611dfe8282611c73565b9150506080830151611e136080860182611c04565b5060a083015184820360a0860152611e2b8282611cac565b91505060c083015184820360c0860152611e458282611d16565b9150508091505092915050565b60006020820190508181036000830152611e6c8184611da1565b905092915050565b600082825260208201905092915050565b6000611e9082611c13565b611e9a8185611e74565b9350611eaa818560208601611c2f565b611eb381611c62565b840191505092915050565b60006020820190508181036000830152611ed88184611e85565b905092915050565b600080fd5b7f4e487b7100000000000000000000000000000000000000000000000000000000600052604160045260246000fd5b611f1d82611c62565b810181811067ffffffffffffffff82111715611f3c57611f3b611ee5565b5b80604052505050565b6000611f4f611b97565b9050611f5b8282611f14565b919050565b600080fd5b600080fd5b600080fd5b600067ffffffffffffffff821115611f8a57611f89611ee5565b5b611f9382611c62565b9050602081019050919050565b82818337600083830152505050565b6000611fc2611fbd84611f6f565b611f45565b905082815260208101848484011115611fde57611fdd611f6a565b5b611fe9848285611fa0565b509392505050565b600082601f83011261200657612005611f65565b5b8135612016848260208601611faf565b91505092915050565b60006080828403121561203557612034611ee0565b5b61203f6080611f45565b9050600061204f84828501611bc2565b600083015250602082013567ffffffffffffffff81111561207357612072611f60565b5b61207f84828501611ff1565b602083015250604082013567ffffffffffffffff8111156120a3576120a2611f60565b5b6120af84828501611ff1565b60408301525060606120c384828501611bc2565b60608301525092915050565b600060a082840312156120e5576120e4611ee0565b5b6120ef60a0611f45565b905060006120ff84828501611bc2565b600083015250602082013567ffffffffffffffff81111561212357612122611f60565b5b61212f84828501611ff1565b602083015250604082013567ffffffffffffffff81111561215357612152611f60565b5b61215f84828501611ff1565b604083015250606082013567ffffffffffffffff81111561218357612182611f60565b5b61218f84828501611ff1565b606083015250608082013567ffffffffffffffff8111156121b3576121b2611f60565b5b6121bf84828501611ff1565b60808301525092915050565b600060e082840312156121e1576121e0611ee0565b5b6121eb60e0611f45565b905060006121fb84828501611bc2565b600083015250602061220f84828501611bc2565b602083015250604082013567ffffffffffffffff81111561223357612232611f60565b5b61223f84828501611ff1565b604083015250606082013567ffffffffffffffff81111561226357612262611f60565b5b61226f84828501611ff1565b606083015250608061228384828501611bc2565b60808301525060a082013567ffffffffffffffff8111156122a7576122a6611f60565b5b6122b38482850161201f565b60a08301525060c082013567ffffffffffffffff8111156122d7576122d6611f60565b5b6122e3848285016120cf565b60c08301525092915050565b60006020828403121561230557612304611ba1565b5b600082013567ffffffffffffffff81111561232357612322611ba6565b5b61232f848285016121cb565b91505092915050565b60006080830160008301516123506000860182611c04565b50602083015184820360208601526123688282611c73565b915050604083015184820360408601526123828282611c73565b91505060608301516123976060860182611c04565b508091505092915050565b600060a0830160008301516123ba6000860182611c04565b50602083015184820360208601526123d28282611c73565b915050604083015184820360408601526123ec8282611c73565b915050606083015184820360608601526124068282611c73565b915050608083015184820360808601526124208282611c73565b9150508091505092915050565b600060e082019050612442600083018a611b6d565b61244f6020830189611b6d565b81810360408301526124618188611e85565b905081810360608301526124758187611e85565b90506124846080830186611b6d565b81810360a08301526124968185612338565b905081810360c08301526124aa81846123a2565b905098975050505050505050565b600080604083850312156124cf576124ce611ba1565b5b60006124dd85828601611bc2565b92505060206124ee85828601611bc2565b9150509250929050565b600081519050919050565b600082825260208201905092915050565b6000819050602082019050919050565b600060e08301600083015161253c6000860182611c04565b50602083015161254f6020860182611c04565b50604083015184820360408601526125678282611c73565b915050606083015184820360608601526125818282611c73565b91505060808301516125966080860182611c04565b5060a083015184820360a08601526125ae8282611cac565b91505060c083015184820360c08601526125c88282611d16565b9150508091505092915050565b60006125e18383612524565b905092915050565b6000602082019050919050565b6000612601826124f8565b61260b8185612503565b93508360208202850161261d85612514565b8060005b85811015612659578484038952815161263a85826125d5565b9450612645836125e9565b925060208a01995050600181019050612621565b50829750879550505050505092915050565b6000602082019050818103600083015261268581846125f6565b905092915050565b7f4e487b7100000000000000000000000000000000000000000000000000000000600052603260045260246000fd5b7f4e487b7100000000000000000000000000000000000000000000000000000000600052602260045260246000fd5b6000600282049050600182168061270357607f821691505b60208210811415612717576127166126bc565b5b50919050565b7f4e487b7100000000000000000000000000000000000000000000000000000000600052601160045260246000fd5b600061275782611b63565b91507fffffffffffffffffffffffffffffffffffffffffffffffffffffffffffffffff82141561278a5761278961271d565b5b60018201905091905056fea26469706673582212205a41eb43103e88ec62204da0670f4b4fd856e9de6c678f59fa8f38a809e9541a64736f6c634300080b0033",
  "immutableReferences": {},
  "source": "// SPDX-License-Identifier: MIT\r\npragma solidity >=0.4.22 <0.9.0;\r\nimport \"./Remplissage.sol\";\r\n\r\ncontract RemplissageAgric is Remplissage {\r\n    Operation[] public operations2;\r\n\r\n    string[] public ALLS;\r\n    uint256 public nextID = 1;\r\n\r\n    //create 2\r\n    function addOperation2(Operation memory op)\r\n        public\r\n        returns (Operation memory op0)\r\n    {\r\n        Agriculteur memory newAgriculteur = Agriculteur(\r\n            op.agriculteur.idAgriculteur,\r\n            op.agriculteur.nom,\r\n            op.agriculteur.prenom,\r\n            op.agriculteur.username,\r\n            op.agriculteur.password\r\n        );\r\n\r\n        Collecteur memory newCollecteur = Collecteur(\r\n            op.collecteur.idCollecteur,\r\n            op.collecteur.nomCollecteur,\r\n            op.collecteur.adresse,\r\n            op.collecteur.tel\r\n        );\r\n\r\n        Operation memory newOperation = Operation(\r\n            op.idOperation,\r\n            op.poidsLait,\r\n            op.dateOperation,\r\n            op.typeOp,\r\n            op.code,\r\n            newCollecteur,\r\n            newAgriculteur\r\n        );\r\n        operations2.push(newOperation);\r\n        return (newOperation);\r\n    }\r\n\r\n    //get all operations\r\n\r\n    function getOperations() public view returns (Operation[] memory result) {\r\n        return operations2;\r\n    }\r\n\r\n    //get one operation\r\n\r\n    function getOperation(uint256 id)\r\n        public\r\n        view\r\n        returns (Operation memory operation)\r\n    {\r\n        for (uint256 i = 0; i < nextID; i++) {\r\n            if (operations2[i].idOperation == id) {\r\n                return operations2[i];\r\n            }\r\n        }\r\n    }\r\n\r\n    function getOperationbycode(uint256 code, uint256 nin)\r\n        public\r\n        view\r\n        returns (Operation memory operation)\r\n    {\r\n        for (uint256 i = 0; i < nin; i++) {\r\n            if (operations2[i].code == code) {\r\n                return operations2[i];\r\n            }\r\n        }\r\n    }\r\n}\r\n",
  "sourcePath": "C:\\Users\\ASUS\\Desktop\\pfe\\PFE_Project2022-Collecteur-\\PFE-FrontEnd\\contracts\\RemplissageAgric.sol",
  "compiler": {
    "name": "solc",
    "version": "0.8.11+commit.d7f03943.Emscripten.clang"
  },
  "schemaVersion": "3.4.5",
  "updatedAt": "2022-04-28T09:45:59.963Z",
  "networkType": "ethereum",
  "devdoc": {
    "kind": "dev",
    "methods": {},
    "version": 1
  },
  "userdoc": {
    "kind": "user",
    "methods": {},
    "version": 1
  }
}