{
  "contractName": "RemplissageUsine",
  "abi": [
    {
      "inputs": [
        {
          "internalType": "uint256",
          "name": "",
          "type": "uint256"
        }
      ],
      "name": "operationTank2",
      "outputs": [
        {
          "internalType": "uint256",
          "name": "idOpTank",
          "type": "uint256"
        },
        {
          "internalType": "uint256",
          "name": "qteInsereTank",
          "type": "uint256"
        },
        {
          "internalType": "string",
          "name": "date",
          "type": "string"
        },
        {
          "components": [
            {
              "internalType": "uint256",
              "name": "idOperation",
              "type": "uint256"
            },
            {
              "internalType": "uint256",
              "name": "poidsLait",
              "type": "uint256"
            },
            {
              "internalType": "string",
              "name": "dateOperation",
              "type": "string"
            },
            {
              "internalType": "string",
              "name": "typeOp",
              "type": "string"
            },
            {
              "internalType": "uint256",
              "name": "code",
              "type": "uint256"
            },
            {
              "components": [
                {
                  "internalType": "uint256",
                  "name": "idCentre",
                  "type": "uint256"
                },
                {
                  "internalType": "string",
                  "name": "nomCentre",
                  "type": "string"
                },
                {
                  "internalType": "string",
                  "name": "adresse",
                  "type": "string"
                },
                {
                  "internalType": "string",
                  "name": "ville",
                  "type": "string"
                }
              ],
              "internalType": "struct Remplissage.Centre",
              "name": "centreCollecte",
              "type": "tuple"
            }
          ],
          "internalType": "struct Remplissage.Operation03",
          "name": "operation",
          "type": "tuple"
        },
        {
          "components": [
            {
              "internalType": "uint256",
              "name": "idTank",
              "type": "uint256"
            },
            {
              "internalType": "string",
              "name": "matricule",
              "type": "string"
            },
            {
              "internalType": "uint256",
              "name": "poidVide",
              "type": "uint256"
            },
            {
              "internalType": "uint256",
              "name": "poidActuel",
              "type": "uint256"
            },
            {
              "internalType": "string",
              "name": "etat",
              "type": "string"
            },
            {
              "internalType": "uint256[]",
              "name": "codeTank",
              "type": "uint256[]"
            }
          ],
          "internalType": "struct Remplissage.Tank",
          "name": "tank",
          "type": "tuple"
        }
      ],
      "stateMutability": "view",
      "type": "function",
      "constant": true
    },
    {
      "inputs": [
        {
          "components": [
            {
              "internalType": "uint256",
              "name": "idOpTank",
              "type": "uint256"
            },
            {
              "internalType": "uint256",
              "name": "qteInsereTank",
              "type": "uint256"
            },
            {
              "internalType": "string",
              "name": "date",
              "type": "string"
            },
            {
              "components": [
                {
                  "internalType": "uint256",
                  "name": "idOperation",
                  "type": "uint256"
                },
                {
                  "internalType": "uint256",
                  "name": "poidsLait",
                  "type": "uint256"
                },
                {
                  "internalType": "string",
                  "name": "dateOperation",
                  "type": "string"
                },
                {
                  "internalType": "string",
                  "name": "typeOp",
                  "type": "string"
                },
                {
                  "internalType": "uint256",
                  "name": "code",
                  "type": "uint256"
                },
                {
                  "components": [
                    {
                      "internalType": "uint256",
                      "name": "idCentre",
                      "type": "uint256"
                    },
                    {
                      "internalType": "string",
                      "name": "nomCentre",
                      "type": "string"
                    },
                    {
                      "internalType": "string",
                      "name": "adresse",
                      "type": "string"
                    },
                    {
                      "internalType": "string",
                      "name": "ville",
                      "type": "string"
                    }
                  ],
                  "internalType": "struct Remplissage.Centre",
                  "name": "centreCollecte",
                  "type": "tuple"
                }
              ],
              "internalType": "struct Remplissage.Operation03",
              "name": "operation",
              "type": "tuple"
            },
            {
              "components": [
                {
                  "internalType": "uint256",
                  "name": "idTank",
                  "type": "uint256"
                },
                {
                  "internalType": "string",
                  "name": "matricule",
                  "type": "string"
                },
                {
                  "internalType": "uint256",
                  "name": "poidVide",
                  "type": "uint256"
                },
                {
                  "internalType": "uint256",
                  "name": "poidActuel",
                  "type": "uint256"
                },
                {
                  "internalType": "string",
                  "name": "etat",
                  "type": "string"
                },
                {
                  "internalType": "uint256[]",
                  "name": "codeTank",
                  "type": "uint256[]"
                }
              ],
              "internalType": "struct Remplissage.Tank",
              "name": "tank",
              "type": "tuple"
            }
          ],
          "internalType": "struct Remplissage.OperationTank03[]",
          "name": "operationTank",
          "type": "tuple[]"
        },
        {
          "internalType": "uint256",
          "name": "count",
          "type": "uint256"
        }
      ],
      "name": "addOperationTankUsine",
      "outputs": [
        {
          "components": [
            {
              "internalType": "uint256",
              "name": "idOpTank",
              "type": "uint256"
            },
            {
              "internalType": "uint256",
              "name": "qteInsereTank",
              "type": "uint256"
            },
            {
              "internalType": "string",
              "name": "date",
              "type": "string"
            },
            {
              "components": [
                {
                  "internalType": "uint256",
                  "name": "idOperation",
                  "type": "uint256"
                },
                {
                  "internalType": "uint256",
                  "name": "poidsLait",
                  "type": "uint256"
                },
                {
                  "internalType": "string",
                  "name": "dateOperation",
                  "type": "string"
                },
                {
                  "internalType": "string",
                  "name": "typeOp",
                  "type": "string"
                },
                {
                  "internalType": "uint256",
                  "name": "code",
                  "type": "uint256"
                },
                {
                  "components": [
                    {
                      "internalType": "uint256",
                      "name": "idCentre",
                      "type": "uint256"
                    },
                    {
                      "internalType": "string",
                      "name": "nomCentre",
                      "type": "string"
                    },
                    {
                      "internalType": "string",
                      "name": "adresse",
                      "type": "string"
                    },
                    {
                      "internalType": "string",
                      "name": "ville",
                      "type": "string"
                    }
                  ],
                  "internalType": "struct Remplissage.Centre",
                  "name": "centreCollecte",
                  "type": "tuple"
                }
              ],
              "internalType": "struct Remplissage.Operation03",
              "name": "operation",
              "type": "tuple"
            },
            {
              "components": [
                {
                  "internalType": "uint256",
                  "name": "idTank",
                  "type": "uint256"
                },
                {
                  "internalType": "string",
                  "name": "matricule",
                  "type": "string"
                },
                {
                  "internalType": "uint256",
                  "name": "poidVide",
                  "type": "uint256"
                },
                {
                  "internalType": "uint256",
                  "name": "poidActuel",
                  "type": "uint256"
                },
                {
                  "internalType": "string",
                  "name": "etat",
                  "type": "string"
                },
                {
                  "internalType": "uint256[]",
                  "name": "codeTank",
                  "type": "uint256[]"
                }
              ],
              "internalType": "struct Remplissage.Tank",
              "name": "tank",
              "type": "tuple"
            }
          ],
          "internalType": "struct Remplissage.OperationTank03[]",
          "name": "tt0",
          "type": "tuple[]"
        }
      ],
      "stateMutability": "nonpayable",
      "type": "function"
    },
    {
      "inputs": [],
      "name": "getOperationTanksUsine",
      "outputs": [
        {
          "components": [
            {
              "internalType": "uint256",
              "name": "idOpTank",
              "type": "uint256"
            },
            {
              "internalType": "uint256",
              "name": "qteInsereTank",
              "type": "uint256"
            },
            {
              "internalType": "string",
              "name": "date",
              "type": "string"
            },
            {
              "components": [
                {
                  "internalType": "uint256",
                  "name": "idOperation",
                  "type": "uint256"
                },
                {
                  "internalType": "uint256",
                  "name": "poidsLait",
                  "type": "uint256"
                },
                {
                  "internalType": "string",
                  "name": "dateOperation",
                  "type": "string"
                },
                {
                  "internalType": "string",
                  "name": "typeOp",
                  "type": "string"
                },
                {
                  "internalType": "uint256",
                  "name": "code",
                  "type": "uint256"
                },
                {
                  "components": [
                    {
                      "internalType": "uint256",
                      "name": "idCentre",
                      "type": "uint256"
                    },
                    {
                      "internalType": "string",
                      "name": "nomCentre",
                      "type": "string"
                    },
                    {
                      "internalType": "string",
                      "name": "adresse",
                      "type": "string"
                    },
                    {
                      "internalType": "string",
                      "name": "ville",
                      "type": "string"
                    }
                  ],
                  "internalType": "struct Remplissage.Centre",
                  "name": "centreCollecte",
                  "type": "tuple"
                }
              ],
              "internalType": "struct Remplissage.Operation03",
              "name": "operation",
              "type": "tuple"
            },
            {
              "components": [
                {
                  "internalType": "uint256",
                  "name": "idTank",
                  "type": "uint256"
                },
                {
                  "internalType": "string",
                  "name": "matricule",
                  "type": "string"
                },
                {
                  "internalType": "uint256",
                  "name": "poidVide",
                  "type": "uint256"
                },
                {
                  "internalType": "uint256",
                  "name": "poidActuel",
                  "type": "uint256"
                },
                {
                  "internalType": "string",
                  "name": "etat",
                  "type": "string"
                },
                {
                  "internalType": "uint256[]",
                  "name": "codeTank",
                  "type": "uint256[]"
                }
              ],
              "internalType": "struct Remplissage.Tank",
              "name": "tank",
              "type": "tuple"
            }
          ],
          "internalType": "struct Remplissage.OperationTank03[]",
          "name": "result",
          "type": "tuple[]"
        }
      ],
      "stateMutability": "view",
      "type": "function",
      "constant": true
    },
    {
      "inputs": [
        {
          "internalType": "uint256",
          "name": "code",
          "type": "uint256"
        }
      ],
      "name": "getOperationusinebycode",
      "outputs": [
        {
          "components": [
            {
              "internalType": "uint256",
              "name": "idOpTank",
              "type": "uint256"
            },
            {
              "internalType": "uint256",
              "name": "qteInsereTank",
              "type": "uint256"
            },
            {
              "internalType": "string",
              "name": "date",
              "type": "string"
            },
            {
              "components": [
                {
                  "internalType": "uint256",
                  "name": "idOperation",
                  "type": "uint256"
                },
                {
                  "internalType": "uint256",
                  "name": "poidsLait",
                  "type": "uint256"
                },
                {
                  "internalType": "string",
                  "name": "dateOperation",
                  "type": "string"
                },
                {
                  "internalType": "string",
                  "name": "typeOp",
                  "type": "string"
                },
                {
                  "internalType": "uint256",
                  "name": "code",
                  "type": "uint256"
                },
                {
                  "components": [
                    {
                      "internalType": "uint256",
                      "name": "idCentre",
                      "type": "uint256"
                    },
                    {
                      "internalType": "string",
                      "name": "nomCentre",
                      "type": "string"
                    },
                    {
                      "internalType": "string",
                      "name": "adresse",
                      "type": "string"
                    },
                    {
                      "internalType": "string",
                      "name": "ville",
                      "type": "string"
                    }
                  ],
                  "internalType": "struct Remplissage.Centre",
                  "name": "centreCollecte",
                  "type": "tuple"
                }
              ],
              "internalType": "struct Remplissage.Operation03",
              "name": "operation",
              "type": "tuple"
            },
            {
              "components": [
                {
                  "internalType": "uint256",
                  "name": "idTank",
                  "type": "uint256"
                },
                {
                  "internalType": "string",
                  "name": "matricule",
                  "type": "string"
                },
                {
                  "internalType": "uint256",
                  "name": "poidVide",
                  "type": "uint256"
                },
                {
                  "internalType": "uint256",
                  "name": "poidActuel",
                  "type": "uint256"
                },
                {
                  "internalType": "string",
                  "name": "etat",
                  "type": "string"
                },
                {
                  "internalType": "uint256[]",
                  "name": "codeTank",
                  "type": "uint256[]"
                }
              ],
              "internalType": "struct Remplissage.Tank",
              "name": "tank",
              "type": "tuple"
            }
          ],
          "internalType": "struct Remplissage.OperationTank03",
          "name": "operation",
          "type": "tuple"
        }
      ],
      "stateMutability": "view",
      "type": "function",
      "constant": true
    }
  ],
  "bytecode": "0x608060405234801561001057600080fd5b50612b93806100206000396000f3fe608060405234801561001057600080fd5b506004361061004c5760003560e01c80631293485f1461005157806315608173146100815780632fca5529146100b1578063c279123a146100e5575b600080fd5b61006b600480360381019061006691906122ea565b610103565b6040516100789190612771565b60405180910390f35b61009b60048036038101906100969190612793565b6108ca565b6040516100a89190612844565b60405180910390f35b6100cb60048036038101906100c69190612793565b610edf565b6040516100dc9594939291906129ed565b60405180910390f35b6100ed611471565b6040516100fa9190612771565b60405180910390f35b606060005b828110156102eb57600084828151811061012557610124612a55565b5b6020026020010151908060018154018082558091505060019003906000526020600020906012020160009091909190915060008201518160000155602082015181600101556040820151816002019080519060200190610186929190611a4e565b50606082015181600301600082015181600001556020820151816001015560408201518160020190805190602001906101c0929190611a4e565b5060608201518160030190805190602001906101dd929190611a4e565b506080820151816004015560a082015181600501600082015181600001556020820151816001019080519060200190610217929190611a4e565b506040820151816002019080519060200190610234929190611a4e565b506060820151816003019080519060200190610251929190611a4e565b5050505050608082015181600c01600082015181600001556020820151816001019080519060200190610285929190611a4e565b50604082015181600201556060820151816003015560808201518160040190805190602001906102b6929190611a4e565b5060a08201518160050190805190602001906102d3929190611ad4565b505050505080806102e390612ab3565b915050610108565b506000805480602002602001604051908101604052809291908181526020016000905b828210156108be57838290600052602060002090601202016040518060a0016040529081600082015481526020016001820154815260200160028201805461035590612b2b565b80601f016020809104026020016040519081016040528092919081815260200182805461038190612b2b565b80156103ce5780601f106103a3576101008083540402835291602001916103ce565b820191906000526020600020905b8154815290600101906020018083116103b157829003601f168201915b50505050508152602001600382016040518060c0016040529081600082015481526020016001820154815260200160028201805461040b90612b2b565b80601f016020809104026020016040519081016040528092919081815260200182805461043790612b2b565b80156104845780601f1061045957610100808354040283529160200191610484565b820191906000526020600020905b81548152906001019060200180831161046757829003601f168201915b5050505050815260200160038201805461049d90612b2b565b80601f01602080910402602001604051908101604052809291908181526020018280546104c990612b2b565b80156105165780601f106104eb57610100808354040283529160200191610516565b820191906000526020600020905b8154815290600101906020018083116104f957829003601f168201915b5050505050815260200160048201548152602001600582016040518060800160405290816000820154815260200160018201805461055390612b2b565b80601f016020809104026020016040519081016040528092919081815260200182805461057f90612b2b565b80156105cc5780601f106105a1576101008083540402835291602001916105cc565b820191906000526020600020905b8154815290600101906020018083116105af57829003601f168201915b505050505081526020016002820180546105e590612b2b565b80601f016020809104026020016040519081016040528092919081815260200182805461061190612b2b565b801561065e5780601f106106335761010080835404028352916020019161065e565b820191906000526020600020905b81548152906001019060200180831161064157829003601f168201915b5050505050815260200160038201805461067790612b2b565b80601f01602080910402602001604051908101604052809291908181526020018280546106a390612b2b565b80156106f05780601f106106c5576101008083540402835291602001916106f0565b820191906000526020600020905b8154815290600101906020018083116106d357829003601f168201915b505050505081525050815250508152602001600c82016040518060c00160405290816000820154815260200160018201805461072b90612b2b565b80601f016020809104026020016040519081016040528092919081815260200182805461075790612b2b565b80156107a45780601f10610779576101008083540402835291602001916107a4565b820191906000526020600020905b81548152906001019060200180831161078757829003601f168201915b5050505050815260200160028201548152602001600382015481526020016004820180546107d190612b2b565b80601f01602080910402602001604051908101604052809291908181526020018280546107fd90612b2b565b801561084a5780601f1061081f5761010080835404028352916020019161084a565b820191906000526020600020905b81548152906001019060200180831161082d57829003601f168201915b50505050508152602001600582018054806020026020016040519081016040528092919081815260200182805480156108a257602002820191906000526020600020905b81548152602001906001019080831161088e575b505050505081525050815250508152602001906001019061030e565b50505050905092915050565b6108d2611b21565b60005b600080549050811015610ed85782600082815481106108f7576108f6612a55565b5b9060005260206000209060120201600301600401541415610ec5576000818154811061092657610925612a55565b5b90600052602060002090601202016040518060a0016040529081600082015481526020016001820154815260200160028201805461096390612b2b565b80601f016020809104026020016040519081016040528092919081815260200182805461098f90612b2b565b80156109dc5780601f106109b1576101008083540402835291602001916109dc565b820191906000526020600020905b8154815290600101906020018083116109bf57829003601f168201915b50505050508152602001600382016040518060c00160405290816000820154815260200160018201548152602001600282018054610a1990612b2b565b80601f0160208091040260200160405190810160405280929190818152602001828054610a4590612b2b565b8015610a925780601f10610a6757610100808354040283529160200191610a92565b820191906000526020600020905b815481529060010190602001808311610a7557829003601f168201915b50505050508152602001600382018054610aab90612b2b565b80601f0160208091040260200160405190810160405280929190818152602001828054610ad790612b2b565b8015610b245780601f10610af957610100808354040283529160200191610b24565b820191906000526020600020905b815481529060010190602001808311610b0757829003601f168201915b50505050508152602001600482015481526020016005820160405180608001604052908160008201548152602001600182018054610b6190612b2b565b80601f0160208091040260200160405190810160405280929190818152602001828054610b8d90612b2b565b8015610bda5780601f10610baf57610100808354040283529160200191610bda565b820191906000526020600020905b815481529060010190602001808311610bbd57829003601f168201915b50505050508152602001600282018054610bf390612b2b565b80601f0160208091040260200160405190810160405280929190818152602001828054610c1f90612b2b565b8015610c6c5780601f10610c4157610100808354040283529160200191610c6c565b820191906000526020600020905b815481529060010190602001808311610c4f57829003601f168201915b50505050508152602001600382018054610c8590612b2b565b80601f0160208091040260200160405190810160405280929190818152602001828054610cb190612b2b565b8015610cfe5780601f10610cd357610100808354040283529160200191610cfe565b820191906000526020600020905b815481529060010190602001808311610ce157829003601f168201915b505050505081525050815250508152602001600c82016040518060c001604052908160008201548152602001600182018054610d3990612b2b565b80601f0160208091040260200160405190810160405280929190818152602001828054610d6590612b2b565b8015610db25780601f10610d8757610100808354040283529160200191610db2565b820191906000526020600020905b815481529060010190602001808311610d9557829003601f168201915b505050505081526020016002820154815260200160038201548152602001600482018054610ddf90612b2b565b80601f0160208091040260200160405190810160405280929190818152602001828054610e0b90612b2b565b8015610e585780601f10610e2d57610100808354040283529160200191610e58565b820191906000526020600020905b815481529060010190602001808311610e3b57829003601f168201915b5050505050815260200160058201805480602002602001604051908101604052809291908181526020018280548015610eb057602002820191906000526020600020905b815481526020019060010190808311610e9c575b50505050508152505081525050915050610eda565b8080610ed090612ab3565b9150506108d5565b505b919050565b60008181548110610eef57600080fd5b9060005260206000209060120201600091509050806000015490806001015490806002018054610f1e90612b2b565b80601f0160208091040260200160405190810160405280929190818152602001828054610f4a90612b2b565b8015610f975780601f10610f6c57610100808354040283529160200191610f97565b820191906000526020600020905b815481529060010190602001808311610f7a57829003601f168201915b505050505090806003016040518060c00160405290816000820154815260200160018201548152602001600282018054610fd090612b2b565b80601f0160208091040260200160405190810160405280929190818152602001828054610ffc90612b2b565b80156110495780601f1061101e57610100808354040283529160200191611049565b820191906000526020600020905b81548152906001019060200180831161102c57829003601f168201915b5050505050815260200160038201805461106290612b2b565b80601f016020809104026020016040519081016040528092919081815260200182805461108e90612b2b565b80156110db5780601f106110b0576101008083540402835291602001916110db565b820191906000526020600020905b8154815290600101906020018083116110be57829003601f168201915b5050505050815260200160048201548152602001600582016040518060800160405290816000820154815260200160018201805461111890612b2b565b80601f016020809104026020016040519081016040528092919081815260200182805461114490612b2b565b80156111915780601f1061116657610100808354040283529160200191611191565b820191906000526020600020905b81548152906001019060200180831161117457829003601f168201915b505050505081526020016002820180546111aa90612b2b565b80601f01602080910402602001604051908101604052809291908181526020018280546111d690612b2b565b80156112235780601f106111f857610100808354040283529160200191611223565b820191906000526020600020905b81548152906001019060200180831161120657829003601f168201915b5050505050815260200160038201805461123c90612b2b565b80601f016020809104026020016040519081016040528092919081815260200182805461126890612b2b565b80156112b55780601f1061128a576101008083540402835291602001916112b5565b820191906000526020600020905b81548152906001019060200180831161129857829003601f168201915b505050505081525050815250509080600c016040518060c0016040529081600082015481526020016001820180546112ec90612b2b565b80601f016020809104026020016040519081016040528092919081815260200182805461131890612b2b565b80156113655780601f1061133a57610100808354040283529160200191611365565b820191906000526020600020905b81548152906001019060200180831161134857829003601f168201915b50505050508152602001600282015481526020016003820154815260200160048201805461139290612b2b565b80601f01602080910402602001604051908101604052809291908181526020018280546113be90612b2b565b801561140b5780601f106113e05761010080835404028352916020019161140b565b820191906000526020600020905b8154815290600101906020018083116113ee57829003601f168201915b505050505081526020016005820180548060200260200160405190810160405280929190818152602001828054801561146357602002820191906000526020600020905b81548152602001906001019080831161144f575b505050505081525050905085565b60606000805480602002602001604051908101604052809291908181526020016000905b82821015611a4557838290600052602060002090601202016040518060a001604052908160008201548152602001600182015481526020016002820180546114dc90612b2b565b80601f016020809104026020016040519081016040528092919081815260200182805461150890612b2b565b80156115555780601f1061152a57610100808354040283529160200191611555565b820191906000526020600020905b81548152906001019060200180831161153857829003601f168201915b50505050508152602001600382016040518060c0016040529081600082015481526020016001820154815260200160028201805461159290612b2b565b80601f01602080910402602001604051908101604052809291908181526020018280546115be90612b2b565b801561160b5780601f106115e05761010080835404028352916020019161160b565b820191906000526020600020905b8154815290600101906020018083116115ee57829003601f168201915b5050505050815260200160038201805461162490612b2b565b80601f016020809104026020016040519081016040528092919081815260200182805461165090612b2b565b801561169d5780601f106116725761010080835404028352916020019161169d565b820191906000526020600020905b81548152906001019060200180831161168057829003601f168201915b505050505081526020016004820154815260200160058201604051806080016040529081600082015481526020016001820180546116da90612b2b565b80601f016020809104026020016040519081016040528092919081815260200182805461170690612b2b565b80156117535780601f1061172857610100808354040283529160200191611753565b820191906000526020600020905b81548152906001019060200180831161173657829003601f168201915b5050505050815260200160028201805461176c90612b2b565b80601f016020809104026020016040519081016040528092919081815260200182805461179890612b2b565b80156117e55780601f106117ba576101008083540402835291602001916117e5565b820191906000526020600020905b8154815290600101906020018083116117c857829003601f168201915b505050505081526020016003820180546117fe90612b2b565b80601f016020809104026020016040519081016040528092919081815260200182805461182a90612b2b565b80156118775780601f1061184c57610100808354040283529160200191611877565b820191906000526020600020905b81548152906001019060200180831161185a57829003601f168201915b505050505081525050815250508152602001600c82016040518060c0016040529081600082015481526020016001820180546118b290612b2b565b80601f01602080910402602001604051908101604052809291908181526020018280546118de90612b2b565b801561192b5780601f106119005761010080835404028352916020019161192b565b820191906000526020600020905b81548152906001019060200180831161190e57829003601f168201915b50505050508152602001600282015481526020016003820154815260200160048201805461195890612b2b565b80601f016020809104026020016040519081016040528092919081815260200182805461198490612b2b565b80156119d15780601f106119a6576101008083540402835291602001916119d1565b820191906000526020600020905b8154815290600101906020018083116119b457829003601f168201915b5050505050815260200160058201805480602002602001604051908101604052809291908181526020018280548015611a2957602002820191906000526020600020905b815481526020019060010190808311611a15575b5050505050815250508152505081526020019060010190611495565b50505050905090565b828054611a5a90612b2b565b90600052602060002090601f016020900481019282611a7c5760008555611ac3565b82601f10611a9557805160ff1916838001178555611ac3565b82800160010185558215611ac3579182015b82811115611ac2578251825591602001919060010190611aa7565b5b509050611ad09190611b5c565b5090565b828054828255906000526020600020908101928215611b10579160200282015b82811115611b0f578251825591602001919060010190611af4565b5b509050611b1d9190611b5c565b5090565b6040518060a00160405280600081526020016000815260200160608152602001611b49611b79565b8152602001611b56611bb5565b81525090565b5b80821115611b75576000816000905550600101611b5d565b5090565b6040518060c001604052806000815260200160008152602001606081526020016060815260200160008152602001611baf611beb565b81525090565b6040518060c001604052806000815260200160608152602001600081526020016000815260200160608152602001606081525090565b6040518060800160405280600081526020016060815260200160608152602001606081525090565b6000604051905090565b600080fd5b600080fd5b600080fd5b6000601f19601f8301169050919050565b7f4e487b7100000000000000000000000000000000000000000000000000000000600052604160045260246000fd5b611c7582611c2c565b810181811067ffffffffffffffff82111715611c9457611c93611c3d565b5b80604052505050565b6000611ca7611c13565b9050611cb38282611c6c565b919050565b600067ffffffffffffffff821115611cd357611cd2611c3d565b5b602082029050602081019050919050565b600080fd5b600080fd5b600080fd5b6000819050919050565b611d0681611cf3565b8114611d1157600080fd5b50565b600081359050611d2381611cfd565b92915050565b600080fd5b600067ffffffffffffffff821115611d4957611d48611c3d565b5b611d5282611c2c565b9050602081019050919050565b82818337600083830152505050565b6000611d81611d7c84611d2e565b611c9d565b905082815260208101848484011115611d9d57611d9c611d29565b5b611da8848285611d5f565b509392505050565b600082601f830112611dc557611dc4611c27565b5b8135611dd5848260208601611d6e565b91505092915050565b600060808284031215611df457611df3611ce9565b5b611dfe6080611c9d565b90506000611e0e84828501611d14565b600083015250602082013567ffffffffffffffff811115611e3257611e31611cee565b5b611e3e84828501611db0565b602083015250604082013567ffffffffffffffff811115611e6257611e61611cee565b5b611e6e84828501611db0565b604083015250606082013567ffffffffffffffff811115611e9257611e91611cee565b5b611e9e84828501611db0565b60608301525092915050565b600060c08284031215611ec057611ebf611ce9565b5b611eca60c0611c9d565b90506000611eda84828501611d14565b6000830152506020611eee84828501611d14565b602083015250604082013567ffffffffffffffff811115611f1257611f11611cee565b5b611f1e84828501611db0565b604083015250606082013567ffffffffffffffff811115611f4257611f41611cee565b5b611f4e84828501611db0565b6060830152506080611f6284828501611d14565b60808301525060a082013567ffffffffffffffff811115611f8657611f85611cee565b5b611f9284828501611dde565b60a08301525092915050565b600067ffffffffffffffff821115611fb957611fb8611c3d565b5b602082029050602081019050919050565b6000611fdd611fd884611f9e565b611c9d565b9050808382526020820190506020840283018581111561200057611fff611ce4565b5b835b8181101561202957806120158882611d14565b845260208401935050602081019050612002565b5050509392505050565b600082601f83011261204857612047611c27565b5b8135612058848260208601611fca565b91505092915050565b600060c0828403121561207757612076611ce9565b5b61208160c0611c9d565b9050600061209184828501611d14565b600083015250602082013567ffffffffffffffff8111156120b5576120b4611cee565b5b6120c184828501611db0565b60208301525060406120d584828501611d14565b60408301525060606120e984828501611d14565b606083015250608082013567ffffffffffffffff81111561210d5761210c611cee565b5b61211984828501611db0565b60808301525060a082013567ffffffffffffffff81111561213d5761213c611cee565b5b61214984828501612033565b60a08301525092915050565b600060a0828403121561216b5761216a611ce9565b5b61217560a0611c9d565b9050600061218584828501611d14565b600083015250602061219984828501611d14565b602083015250604082013567ffffffffffffffff8111156121bd576121bc611cee565b5b6121c984828501611db0565b604083015250606082013567ffffffffffffffff8111156121ed576121ec611cee565b5b6121f984828501611eaa565b606083015250608082013567ffffffffffffffff81111561221d5761221c611cee565b5b61222984828501612061565b60808301525092915050565b600061224861224384611cb8565b611c9d565b9050808382526020820190506020840283018581111561226b5761226a611ce4565b5b835b818110156122b257803567ffffffffffffffff8111156122905761228f611c27565b5b80860161229d8982612155565b8552602085019450505060208101905061226d565b5050509392505050565b600082601f8301126122d1576122d0611c27565b5b81356122e1848260208601612235565b91505092915050565b6000806040838503121561230157612300611c1d565b5b600083013567ffffffffffffffff81111561231f5761231e611c22565b5b61232b858286016122bc565b925050602061233c85828601611d14565b9150509250929050565b600081519050919050565b600082825260208201905092915050565b6000819050602082019050919050565b61237b81611cf3565b82525050565b600081519050919050565b600082825260208201905092915050565b60005b838110156123bb5780820151818401526020810190506123a0565b838111156123ca576000848401525b50505050565b60006123db82612381565b6123e5818561238c565b93506123f581856020860161239d565b6123fe81611c2c565b840191505092915050565b60006080830160008301516124216000860182612372565b506020830151848203602086015261243982826123d0565b9150506040830151848203604086015261245382826123d0565b9150506060830151848203606086015261246d82826123d0565b9150508091505092915050565b600060c0830160008301516124926000860182612372565b5060208301516124a56020860182612372565b50604083015184820360408601526124bd82826123d0565b915050606083015184820360608601526124d782826123d0565b91505060808301516124ec6080860182612372565b5060a083015184820360a08601526125048282612409565b9150508091505092915050565b600081519050919050565b600082825260208201905092915050565b6000819050602082019050919050565b60006125498383612372565b60208301905092915050565b6000602082019050919050565b600061256d82612511565b612577818561251c565b93506125828361252d565b8060005b838110156125b357815161259a888261253d565b97506125a583612555565b925050600181019050612586565b5085935050505092915050565b600060c0830160008301516125d86000860182612372565b50602083015184820360208601526125f082826123d0565b91505060408301516126056040860182612372565b5060608301516126186060860182612372565b506080830151848203608086015261263082826123d0565b91505060a083015184820360a086015261264a8282612562565b9150508091505092915050565b600060a08301600083015161266f6000860182612372565b5060208301516126826020860182612372565b506040830151848203604086015261269a82826123d0565b915050606083015184820360608601526126b4828261247a565b915050608083015184820360808601526126ce82826125c0565b9150508091505092915050565b60006126e78383612657565b905092915050565b6000602082019050919050565b600061270782612346565b6127118185612351565b93508360208202850161272385612362565b8060005b8581101561275f578484038952815161274085826126db565b945061274b836126ef565b925060208a01995050600181019050612727565b50829750879550505050505092915050565b6000602082019050818103600083015261278b81846126fc565b905092915050565b6000602082840312156127a9576127a8611c1d565b5b60006127b784828501611d14565b91505092915050565b600060a0830160008301516127d86000860182612372565b5060208301516127eb6020860182612372565b506040830151848203604086015261280382826123d0565b9150506060830151848203606086015261281d828261247a565b9150506080830151848203608086015261283782826125c0565b9150508091505092915050565b6000602082019050818103600083015261285e81846127c0565b905092915050565b61286f81611cf3565b82525050565b600082825260208201905092915050565b600061289182612381565b61289b8185612875565b93506128ab81856020860161239d565b6128b481611c2c565b840191505092915050565b600060c0830160008301516128d76000860182612372565b5060208301516128ea6020860182612372565b506040830151848203604086015261290282826123d0565b9150506060830151848203606086015261291c82826123d0565b91505060808301516129316080860182612372565b5060a083015184820360a08601526129498282612409565b9150508091505092915050565b600060c08301600083015161296e6000860182612372565b506020830151848203602086015261298682826123d0565b915050604083015161299b6040860182612372565b5060608301516129ae6060860182612372565b50608083015184820360808601526129c682826123d0565b91505060a083015184820360a08601526129e08282612562565b9150508091505092915050565b600060a082019050612a026000830188612866565b612a0f6020830187612866565b8181036040830152612a218186612886565b90508181036060830152612a3581856128bf565b90508181036080830152612a498184612956565b90509695505050505050565b7f4e487b7100000000000000000000000000000000000000000000000000000000600052603260045260246000fd5b7f4e487b7100000000000000000000000000000000000000000000000000000000600052601160045260246000fd5b6000612abe82611cf3565b91507fffffffffffffffffffffffffffffffffffffffffffffffffffffffffffffffff821415612af157612af0612a84565b5b600182019050919050565b7f4e487b7100000000000000000000000000000000000000000000000000000000600052602260045260246000fd5b60006002820490506001821680612b4357607f821691505b60208210811415612b5757612b56612afc565b5b5091905056fea264697066735822122070d043789618fe3e5e3737446004a7eb73fd720d6f7251957c6df25ea771789e64736f6c634300080b0033",
  "immutableReferences": {},
  "source": "// SPDX-License-Identifier: MIT\r\npragma solidity >=0.4.22 <0.9.0;\r\nimport \"./Remplissage.sol\";\r\n\r\ncontract RemplissageUsine is Remplissage {\r\n    //*********************************************************************************/\r\n    //second app\r\n    //******************************************************************************/\r\n\r\n    OperationTank03[] public operationTank2;\r\n\r\n    function addOperationTankUsine(\r\n        OperationTank03[] memory operationTank,\r\n        uint256 count\r\n    ) public returns (OperationTank03[] memory tt0) {\r\n        for (uint256 i = 0; i < count; i++) {\r\n            operationTank2.push(operationTank[i]);\r\n        }\r\n        return (operationTank2);\r\n    }\r\n\r\n    //get all operations\r\n\r\n    function getOperationTanksUsine()\r\n        public\r\n        view\r\n        returns (OperationTank03[] memory result)\r\n    {\r\n        return operationTank2;\r\n    }\r\n\r\n\r\n    function getOperationusinebycode(uint256 code)\r\n        public\r\n        view\r\n        returns (OperationTank03 memory operation)\r\n    {\r\n        for (uint256 i = 0; i < operationTank2.length; i++) {\r\n            if (operationTank2[i].operation.code == code) {\r\n                return operationTank2[i];\r\n            }\r\n        }\r\n    }\r\n\r\n\r\n\r\n\r\n\r\n}\r\n",
  "sourcePath": "C:\\Users\\ASUS\\Desktop\\pfe\\PFE_Project(app4)\\PFE-FrontEnd\\contracts\\RemplissageUsine.sol",
  "compiler": {
    "name": "solc",
    "version": "0.8.11+commit.d7f03943.Emscripten.clang"
  },
  "schemaVersion": "3.4.5",
  "updatedAt": "2022-05-28T00:43:53.840Z",
  "networkType": "ethereum",
  "devdoc": {
    "kind": "dev",
    "methods": {},
    "version": 1
  },
  "userdoc": {
    "kind": "user",
    "methods": {},
    "version": 1
  }
}