{
  "contractName": "RemplissageCol",
  "abi": [
    {
      "inputs": [
        {
          "internalType": "uint256",
          "name": "",
          "type": "uint256"
        }
      ],
      "name": "operationTank2",
      "outputs": [
        {
          "internalType": "uint256",
          "name": "idOpTank",
          "type": "uint256"
        },
        {
          "internalType": "uint256",
          "name": "qteInsereTank",
          "type": "uint256"
        },
        {
          "internalType": "string",
          "name": "date",
          "type": "string"
        },
        {
          "components": [
            {
              "internalType": "uint256",
              "name": "idOperation",
              "type": "uint256"
            },
            {
              "internalType": "uint256",
              "name": "poidsLait",
              "type": "uint256"
            },
            {
              "internalType": "string",
              "name": "dateOperation",
              "type": "string"
            },
            {
              "internalType": "string",
              "name": "typeOp",
              "type": "string"
            },
            {
              "internalType": "uint256",
              "name": "code",
              "type": "uint256"
            },
            {
              "components": [
                {
                  "internalType": "uint256",
                  "name": "idAgriculteur",
                  "type": "uint256"
                },
                {
                  "internalType": "string",
                  "name": "nom",
                  "type": "string"
                },
                {
                  "internalType": "string",
                  "name": "prenom",
                  "type": "string"
                },
                {
                  "internalType": "string",
                  "name": "email",
                  "type": "string"
                },
                {
                  "internalType": "string",
                  "name": "adress",
                  "type": "string"
                },
                {
                  "internalType": "uint256",
                  "name": "tel",
                  "type": "uint256"
                }
              ],
              "internalType": "struct Remplissage.Agriculteur0",
              "name": "agriculteur",
              "type": "tuple"
            },
            {
              "components": [
                {
                  "internalType": "uint256",
                  "name": "idChef",
                  "type": "uint256"
                },
                {
                  "internalType": "string",
                  "name": "nom",
                  "type": "string"
                },
                {
                  "internalType": "string",
                  "name": "prenom",
                  "type": "string"
                },
                {
                  "internalType": "string",
                  "name": "email",
                  "type": "string"
                },
                {
                  "internalType": "string",
                  "name": "adress",
                  "type": "string"
                },
                {
                  "internalType": "uint256",
                  "name": "tel",
                  "type": "uint256"
                },
                {
                  "internalType": "uint256",
                  "name": "cin",
                  "type": "uint256"
                },
                {
                  "internalType": "string",
                  "name": "username",
                  "type": "string"
                },
                {
                  "internalType": "string",
                  "name": "password",
                  "type": "string"
                },
                {
                  "internalType": "string",
                  "name": "centreNom",
                  "type": "string"
                }
              ],
              "internalType": "struct Remplissage.Chef",
              "name": "chef",
              "type": "tuple"
            }
          ],
          "internalType": "struct Remplissage.Operation0",
          "name": "operation",
          "type": "tuple"
        },
        {
          "components": [
            {
              "internalType": "uint256",
              "name": "idTank",
              "type": "uint256"
            },
            {
              "internalType": "string",
              "name": "matricule",
              "type": "string"
            },
            {
              "internalType": "uint256",
              "name": "poidVide",
              "type": "uint256"
            },
            {
              "internalType": "uint256",
              "name": "poidActuel",
              "type": "uint256"
            },
            {
              "internalType": "string",
              "name": "etat",
              "type": "string"
            },
            {
              "internalType": "uint256[]",
              "name": "codeTank",
              "type": "uint256[]"
            }
          ],
          "internalType": "struct Remplissage.Tank",
          "name": "tank",
          "type": "tuple"
        }
      ],
      "stateMutability": "view",
      "type": "function",
      "constant": true
    },
    {
      "inputs": [
        {
          "components": [
            {
              "internalType": "uint256",
              "name": "idOpTank",
              "type": "uint256"
            },
            {
              "internalType": "uint256",
              "name": "qteInsereTank",
              "type": "uint256"
            },
            {
              "internalType": "string",
              "name": "date",
              "type": "string"
            },
            {
              "components": [
                {
                  "internalType": "uint256",
                  "name": "idOperation",
                  "type": "uint256"
                },
                {
                  "internalType": "uint256",
                  "name": "poidsLait",
                  "type": "uint256"
                },
                {
                  "internalType": "string",
                  "name": "dateOperation",
                  "type": "string"
                },
                {
                  "internalType": "string",
                  "name": "typeOp",
                  "type": "string"
                },
                {
                  "internalType": "uint256",
                  "name": "code",
                  "type": "uint256"
                },
                {
                  "components": [
                    {
                      "internalType": "uint256",
                      "name": "idAgriculteur",
                      "type": "uint256"
                    },
                    {
                      "internalType": "string",
                      "name": "nom",
                      "type": "string"
                    },
                    {
                      "internalType": "string",
                      "name": "prenom",
                      "type": "string"
                    },
                    {
                      "internalType": "string",
                      "name": "email",
                      "type": "string"
                    },
                    {
                      "internalType": "string",
                      "name": "adress",
                      "type": "string"
                    },
                    {
                      "internalType": "uint256",
                      "name": "tel",
                      "type": "uint256"
                    }
                  ],
                  "internalType": "struct Remplissage.Agriculteur0",
                  "name": "agriculteur",
                  "type": "tuple"
                },
                {
                  "components": [
                    {
                      "internalType": "uint256",
                      "name": "idChef",
                      "type": "uint256"
                    },
                    {
                      "internalType": "string",
                      "name": "nom",
                      "type": "string"
                    },
                    {
                      "internalType": "string",
                      "name": "prenom",
                      "type": "string"
                    },
                    {
                      "internalType": "string",
                      "name": "email",
                      "type": "string"
                    },
                    {
                      "internalType": "string",
                      "name": "adress",
                      "type": "string"
                    },
                    {
                      "internalType": "uint256",
                      "name": "tel",
                      "type": "uint256"
                    },
                    {
                      "internalType": "uint256",
                      "name": "cin",
                      "type": "uint256"
                    },
                    {
                      "internalType": "string",
                      "name": "username",
                      "type": "string"
                    },
                    {
                      "internalType": "string",
                      "name": "password",
                      "type": "string"
                    },
                    {
                      "internalType": "string",
                      "name": "centreNom",
                      "type": "string"
                    }
                  ],
                  "internalType": "struct Remplissage.Chef",
                  "name": "chef",
                  "type": "tuple"
                }
              ],
              "internalType": "struct Remplissage.Operation0",
              "name": "operation",
              "type": "tuple"
            },
            {
              "components": [
                {
                  "internalType": "uint256",
                  "name": "idTank",
                  "type": "uint256"
                },
                {
                  "internalType": "string",
                  "name": "matricule",
                  "type": "string"
                },
                {
                  "internalType": "uint256",
                  "name": "poidVide",
                  "type": "uint256"
                },
                {
                  "internalType": "uint256",
                  "name": "poidActuel",
                  "type": "uint256"
                },
                {
                  "internalType": "string",
                  "name": "etat",
                  "type": "string"
                },
                {
                  "internalType": "uint256[]",
                  "name": "codeTank",
                  "type": "uint256[]"
                }
              ],
              "internalType": "struct Remplissage.Tank",
              "name": "tank",
              "type": "tuple"
            }
          ],
          "internalType": "struct Remplissage.OperationTank[]",
          "name": "operationTank",
          "type": "tuple[]"
        },
        {
          "internalType": "uint256",
          "name": "count",
          "type": "uint256"
        }
      ],
      "name": "addOperationTank",
      "outputs": [
        {
          "components": [
            {
              "internalType": "uint256",
              "name": "idOpTank",
              "type": "uint256"
            },
            {
              "internalType": "uint256",
              "name": "qteInsereTank",
              "type": "uint256"
            },
            {
              "internalType": "string",
              "name": "date",
              "type": "string"
            },
            {
              "components": [
                {
                  "internalType": "uint256",
                  "name": "idOperation",
                  "type": "uint256"
                },
                {
                  "internalType": "uint256",
                  "name": "poidsLait",
                  "type": "uint256"
                },
                {
                  "internalType": "string",
                  "name": "dateOperation",
                  "type": "string"
                },
                {
                  "internalType": "string",
                  "name": "typeOp",
                  "type": "string"
                },
                {
                  "internalType": "uint256",
                  "name": "code",
                  "type": "uint256"
                },
                {
                  "components": [
                    {
                      "internalType": "uint256",
                      "name": "idAgriculteur",
                      "type": "uint256"
                    },
                    {
                      "internalType": "string",
                      "name": "nom",
                      "type": "string"
                    },
                    {
                      "internalType": "string",
                      "name": "prenom",
                      "type": "string"
                    },
                    {
                      "internalType": "string",
                      "name": "email",
                      "type": "string"
                    },
                    {
                      "internalType": "string",
                      "name": "adress",
                      "type": "string"
                    },
                    {
                      "internalType": "uint256",
                      "name": "tel",
                      "type": "uint256"
                    }
                  ],
                  "internalType": "struct Remplissage.Agriculteur0",
                  "name": "agriculteur",
                  "type": "tuple"
                },
                {
                  "components": [
                    {
                      "internalType": "uint256",
                      "name": "idChef",
                      "type": "uint256"
                    },
                    {
                      "internalType": "string",
                      "name": "nom",
                      "type": "string"
                    },
                    {
                      "internalType": "string",
                      "name": "prenom",
                      "type": "string"
                    },
                    {
                      "internalType": "string",
                      "name": "email",
                      "type": "string"
                    },
                    {
                      "internalType": "string",
                      "name": "adress",
                      "type": "string"
                    },
                    {
                      "internalType": "uint256",
                      "name": "tel",
                      "type": "uint256"
                    },
                    {
                      "internalType": "uint256",
                      "name": "cin",
                      "type": "uint256"
                    },
                    {
                      "internalType": "string",
                      "name": "username",
                      "type": "string"
                    },
                    {
                      "internalType": "string",
                      "name": "password",
                      "type": "string"
                    },
                    {
                      "internalType": "string",
                      "name": "centreNom",
                      "type": "string"
                    }
                  ],
                  "internalType": "struct Remplissage.Chef",
                  "name": "chef",
                  "type": "tuple"
                }
              ],
              "internalType": "struct Remplissage.Operation0",
              "name": "operation",
              "type": "tuple"
            },
            {
              "components": [
                {
                  "internalType": "uint256",
                  "name": "idTank",
                  "type": "uint256"
                },
                {
                  "internalType": "string",
                  "name": "matricule",
                  "type": "string"
                },
                {
                  "internalType": "uint256",
                  "name": "poidVide",
                  "type": "uint256"
                },
                {
                  "internalType": "uint256",
                  "name": "poidActuel",
                  "type": "uint256"
                },
                {
                  "internalType": "string",
                  "name": "etat",
                  "type": "string"
                },
                {
                  "internalType": "uint256[]",
                  "name": "codeTank",
                  "type": "uint256[]"
                }
              ],
              "internalType": "struct Remplissage.Tank",
              "name": "tank",
              "type": "tuple"
            }
          ],
          "internalType": "struct Remplissage.OperationTank[]",
          "name": "tt0",
          "type": "tuple[]"
        }
      ],
      "stateMutability": "nonpayable",
      "type": "function"
    },
    {
      "inputs": [],
      "name": "getOperationTanks",
      "outputs": [
        {
          "components": [
            {
              "internalType": "uint256",
              "name": "idOpTank",
              "type": "uint256"
            },
            {
              "internalType": "uint256",
              "name": "qteInsereTank",
              "type": "uint256"
            },
            {
              "internalType": "string",
              "name": "date",
              "type": "string"
            },
            {
              "components": [
                {
                  "internalType": "uint256",
                  "name": "idOperation",
                  "type": "uint256"
                },
                {
                  "internalType": "uint256",
                  "name": "poidsLait",
                  "type": "uint256"
                },
                {
                  "internalType": "string",
                  "name": "dateOperation",
                  "type": "string"
                },
                {
                  "internalType": "string",
                  "name": "typeOp",
                  "type": "string"
                },
                {
                  "internalType": "uint256",
                  "name": "code",
                  "type": "uint256"
                },
                {
                  "components": [
                    {
                      "internalType": "uint256",
                      "name": "idAgriculteur",
                      "type": "uint256"
                    },
                    {
                      "internalType": "string",
                      "name": "nom",
                      "type": "string"
                    },
                    {
                      "internalType": "string",
                      "name": "prenom",
                      "type": "string"
                    },
                    {
                      "internalType": "string",
                      "name": "email",
                      "type": "string"
                    },
                    {
                      "internalType": "string",
                      "name": "adress",
                      "type": "string"
                    },
                    {
                      "internalType": "uint256",
                      "name": "tel",
                      "type": "uint256"
                    }
                  ],
                  "internalType": "struct Remplissage.Agriculteur0",
                  "name": "agriculteur",
                  "type": "tuple"
                },
                {
                  "components": [
                    {
                      "internalType": "uint256",
                      "name": "idChef",
                      "type": "uint256"
                    },
                    {
                      "internalType": "string",
                      "name": "nom",
                      "type": "string"
                    },
                    {
                      "internalType": "string",
                      "name": "prenom",
                      "type": "string"
                    },
                    {
                      "internalType": "string",
                      "name": "email",
                      "type": "string"
                    },
                    {
                      "internalType": "string",
                      "name": "adress",
                      "type": "string"
                    },
                    {
                      "internalType": "uint256",
                      "name": "tel",
                      "type": "uint256"
                    },
                    {
                      "internalType": "uint256",
                      "name": "cin",
                      "type": "uint256"
                    },
                    {
                      "internalType": "string",
                      "name": "username",
                      "type": "string"
                    },
                    {
                      "internalType": "string",
                      "name": "password",
                      "type": "string"
                    },
                    {
                      "internalType": "string",
                      "name": "centreNom",
                      "type": "string"
                    }
                  ],
                  "internalType": "struct Remplissage.Chef",
                  "name": "chef",
                  "type": "tuple"
                }
              ],
              "internalType": "struct Remplissage.Operation0",
              "name": "operation",
              "type": "tuple"
            },
            {
              "components": [
                {
                  "internalType": "uint256",
                  "name": "idTank",
                  "type": "uint256"
                },
                {
                  "internalType": "string",
                  "name": "matricule",
                  "type": "string"
                },
                {
                  "internalType": "uint256",
                  "name": "poidVide",
                  "type": "uint256"
                },
                {
                  "internalType": "uint256",
                  "name": "poidActuel",
                  "type": "uint256"
                },
                {
                  "internalType": "string",
                  "name": "etat",
                  "type": "string"
                },
                {
                  "internalType": "uint256[]",
                  "name": "codeTank",
                  "type": "uint256[]"
                }
              ],
              "internalType": "struct Remplissage.Tank",
              "name": "tank",
              "type": "tuple"
            }
          ],
          "internalType": "struct Remplissage.OperationTank[]",
          "name": "result",
          "type": "tuple[]"
        }
      ],
      "stateMutability": "view",
      "type": "function",
      "constant": true
    },
    {
      "inputs": [
        {
          "internalType": "uint256",
          "name": "code",
          "type": "uint256"
        }
      ],
      "name": "getOperationbycode",
      "outputs": [
        {
          "components": [
            {
              "internalType": "uint256",
              "name": "idOpTank",
              "type": "uint256"
            },
            {
              "internalType": "uint256",
              "name": "qteInsereTank",
              "type": "uint256"
            },
            {
              "internalType": "string",
              "name": "date",
              "type": "string"
            },
            {
              "components": [
                {
                  "internalType": "uint256",
                  "name": "idOperation",
                  "type": "uint256"
                },
                {
                  "internalType": "uint256",
                  "name": "poidsLait",
                  "type": "uint256"
                },
                {
                  "internalType": "string",
                  "name": "dateOperation",
                  "type": "string"
                },
                {
                  "internalType": "string",
                  "name": "typeOp",
                  "type": "string"
                },
                {
                  "internalType": "uint256",
                  "name": "code",
                  "type": "uint256"
                },
                {
                  "components": [
                    {
                      "internalType": "uint256",
                      "name": "idAgriculteur",
                      "type": "uint256"
                    },
                    {
                      "internalType": "string",
                      "name": "nom",
                      "type": "string"
                    },
                    {
                      "internalType": "string",
                      "name": "prenom",
                      "type": "string"
                    },
                    {
                      "internalType": "string",
                      "name": "email",
                      "type": "string"
                    },
                    {
                      "internalType": "string",
                      "name": "adress",
                      "type": "string"
                    },
                    {
                      "internalType": "uint256",
                      "name": "tel",
                      "type": "uint256"
                    }
                  ],
                  "internalType": "struct Remplissage.Agriculteur0",
                  "name": "agriculteur",
                  "type": "tuple"
                },
                {
                  "components": [
                    {
                      "internalType": "uint256",
                      "name": "idChef",
                      "type": "uint256"
                    },
                    {
                      "internalType": "string",
                      "name": "nom",
                      "type": "string"
                    },
                    {
                      "internalType": "string",
                      "name": "prenom",
                      "type": "string"
                    },
                    {
                      "internalType": "string",
                      "name": "email",
                      "type": "string"
                    },
                    {
                      "internalType": "string",
                      "name": "adress",
                      "type": "string"
                    },
                    {
                      "internalType": "uint256",
                      "name": "tel",
                      "type": "uint256"
                    },
                    {
                      "internalType": "uint256",
                      "name": "cin",
                      "type": "uint256"
                    },
                    {
                      "internalType": "string",
                      "name": "username",
                      "type": "string"
                    },
                    {
                      "internalType": "string",
                      "name": "password",
                      "type": "string"
                    },
                    {
                      "internalType": "string",
                      "name": "centreNom",
                      "type": "string"
                    }
                  ],
                  "internalType": "struct Remplissage.Chef",
                  "name": "chef",
                  "type": "tuple"
                }
              ],
              "internalType": "struct Remplissage.Operation0",
              "name": "operation",
              "type": "tuple"
            },
            {
              "components": [
                {
                  "internalType": "uint256",
                  "name": "idTank",
                  "type": "uint256"
                },
                {
                  "internalType": "string",
                  "name": "matricule",
                  "type": "string"
                },
                {
                  "internalType": "uint256",
                  "name": "poidVide",
                  "type": "uint256"
                },
                {
                  "internalType": "uint256",
                  "name": "poidActuel",
                  "type": "uint256"
                },
                {
                  "internalType": "string",
                  "name": "etat",
                  "type": "string"
                },
                {
                  "internalType": "uint256[]",
                  "name": "codeTank",
                  "type": "uint256[]"
                }
              ],
              "internalType": "struct Remplissage.Tank",
              "name": "tank",
              "type": "tuple"
            }
          ],
          "internalType": "struct Remplissage.OperationTank",
          "name": "operation",
          "type": "tuple"
        }
      ],
      "stateMutability": "view",
      "type": "function",
      "constant": true
    }
  ],
  "bytecode": "0x608060405234801561001057600080fd5b5061478b806100206000396000f3fe608060405234801561001057600080fd5b506004361061004b5760003560e01c80620a9468146100505780630ea834c1146100805780632fca5529146100b0578063c9c28e0f146100e4575b600080fd5b61006a60048036038101906100659190613d7d565b610102565b604051610077919061434f565b60405180910390f35b61009a60048036038101906100959190614371565b61117b565b6040516100a79190614422565b60405180910390f35b6100ca60048036038101906100c59190614371565b611c5d565b6040516100db9594939291906145e5565b60405180910390f35b6100ec6126bc565b6040516100f9919061434f565b60405180910390f35b606060005b828110156106cf578381815181106101225761012161464d565b5b602002602001015160016000820151816000015560208201518160010155604082015181600201908051906020019061015c929190613166565b5060608201518160030160008201518160000155602082015181600101556040820151816002019080519060200190610196929190613166565b5060608201518160030190805190602001906101b3929190613166565b506080820151816004015560a0820151816005016000820151816000015560208201518160010190805190602001906101ed929190613166565b50604082015181600201908051906020019061020a929190613166565b506060820151816003019080519060200190610227929190613166565b506080820151816004019080519060200190610244929190613166565b5060a08201518160050155505060c082015181600b01600082015181600001556020820151816001019080519060200190610280929190613166565b50604082015181600201908051906020019061029d929190613166565b5060608201518160030190805190602001906102ba929190613166565b5060808201518160040190805190602001906102d7929190613166565b5060a0820151816005015560c0820151816006015560e0820151816007019080519060200190610308929190613166565b50610100820151816008019080519060200190610326929190613166565b50610120820151816009019080519060200190610344929190613166565b5050505050608082015181601801600082015181600001556020820151816001019080519060200190610378929190613166565b50604082015181600201556060820151816003015560808201518160040190805190602001906103a9929190613166565b5060a08201518160050190805190602001906103c69291906131ec565b5050509050506000600190806001815401808255809150506001900390600052602060002090601e020160009091909190915060008201548160000155600182015481600101556002820181600201908054610421906146ab565b61042c929190613239565b5060038201816003016000820154816000015560018201548160010155600282018160020190805461045d906146ab565b610468929190613239565b50600382018160030190805461047d906146ab565b610488929190613239565b506004820154816004015560058201816005016000820154816000015560018201816001019080546104b9906146ab565b6104c4929190613239565b5060028201816002019080546104d9906146ab565b6104e4929190613239565b5060038201816003019080546104f9906146ab565b610504929190613239565b506004820181600401908054610519906146ab565b610524929190613239565b50600582015481600501555050600b820181600b01600082015481600001556001820181600101908054610557906146ab565b610562929190613239565b506002820181600201908054610577906146ab565b610582929190613239565b506003820181600301908054610597906146ab565b6105a2929190613239565b5060048201816004019080546105b7906146ab565b6105c2929190613239565b50600582015481600501556006820154816006015560078201816007019080546105eb906146ab565b6105f6929190613239565b50600882018160080190805461060b906146ab565b610616929190613239565b50600982018160090190805461062b906146ab565b610636929190613239565b50505050506018820181601801600082015481600001556001820181600101908054610661906146ab565b61066c929190613239565b5060028201548160020155600382015481600301556004820181600401908054610695906146ab565b6106a0929190613239565b5060058201816005019080546106b79291906132c6565b505050505080806106c79061470c565b915050610107565b506000805480602002602001604051908101604052809291908181526020016000905b8282101561116f57838290600052602060002090601e02016040518060a00160405290816000820154815260200160018201548152602001600282018054610739906146ab565b80601f0160208091040260200160405190810160405280929190818152602001828054610765906146ab565b80156107b25780601f10610787576101008083540402835291602001916107b2565b820191906000526020600020905b81548152906001019060200180831161079557829003601f168201915b50505050508152602001600382016040518060e001604052908160008201548152602001600182015481526020016002820180546107ef906146ab565b80601f016020809104026020016040519081016040528092919081815260200182805461081b906146ab565b80156108685780601f1061083d57610100808354040283529160200191610868565b820191906000526020600020905b81548152906001019060200180831161084b57829003601f168201915b50505050508152602001600382018054610881906146ab565b80601f01602080910402602001604051908101604052809291908181526020018280546108ad906146ab565b80156108fa5780601f106108cf576101008083540402835291602001916108fa565b820191906000526020600020905b8154815290600101906020018083116108dd57829003601f168201915b5050505050815260200160048201548152602001600582016040518060c001604052908160008201548152602001600182018054610937906146ab565b80601f0160208091040260200160405190810160405280929190818152602001828054610963906146ab565b80156109b05780601f10610985576101008083540402835291602001916109b0565b820191906000526020600020905b81548152906001019060200180831161099357829003601f168201915b505050505081526020016002820180546109c9906146ab565b80601f01602080910402602001604051908101604052809291908181526020018280546109f5906146ab565b8015610a425780601f10610a1757610100808354040283529160200191610a42565b820191906000526020600020905b815481529060010190602001808311610a2557829003601f168201915b50505050508152602001600382018054610a5b906146ab565b80601f0160208091040260200160405190810160405280929190818152602001828054610a87906146ab565b8015610ad45780601f10610aa957610100808354040283529160200191610ad4565b820191906000526020600020905b815481529060010190602001808311610ab757829003601f168201915b50505050508152602001600482018054610aed906146ab565b80601f0160208091040260200160405190810160405280929190818152602001828054610b19906146ab565b8015610b665780601f10610b3b57610100808354040283529160200191610b66565b820191906000526020600020905b815481529060010190602001808311610b4957829003601f168201915b505050505081526020016005820154815250508152602001600b82016040518061014001604052908160008201548152602001600182018054610ba8906146ab565b80601f0160208091040260200160405190810160405280929190818152602001828054610bd4906146ab565b8015610c215780601f10610bf657610100808354040283529160200191610c21565b820191906000526020600020905b815481529060010190602001808311610c0457829003601f168201915b50505050508152602001600282018054610c3a906146ab565b80601f0160208091040260200160405190810160405280929190818152602001828054610c66906146ab565b8015610cb35780601f10610c8857610100808354040283529160200191610cb3565b820191906000526020600020905b815481529060010190602001808311610c9657829003601f168201915b50505050508152602001600382018054610ccc906146ab565b80601f0160208091040260200160405190810160405280929190818152602001828054610cf8906146ab565b8015610d455780601f10610d1a57610100808354040283529160200191610d45565b820191906000526020600020905b815481529060010190602001808311610d2857829003601f168201915b50505050508152602001600482018054610d5e906146ab565b80601f0160208091040260200160405190810160405280929190818152602001828054610d8a906146ab565b8015610dd75780601f10610dac57610100808354040283529160200191610dd7565b820191906000526020600020905b815481529060010190602001808311610dba57829003601f168201915b505050505081526020016005820154815260200160068201548152602001600782018054610e04906146ab565b80601f0160208091040260200160405190810160405280929190818152602001828054610e30906146ab565b8015610e7d5780601f10610e5257610100808354040283529160200191610e7d565b820191906000526020600020905b815481529060010190602001808311610e6057829003601f168201915b50505050508152602001600882018054610e96906146ab565b80601f0160208091040260200160405190810160405280929190818152602001828054610ec2906146ab565b8015610f0f5780601f10610ee457610100808354040283529160200191610f0f565b820191906000526020600020905b815481529060010190602001808311610ef257829003601f168201915b50505050508152602001600982018054610f28906146ab565b80601f0160208091040260200160405190810160405280929190818152602001828054610f54906146ab565b8015610fa15780601f10610f7657610100808354040283529160200191610fa1565b820191906000526020600020905b815481529060010190602001808311610f8457829003601f168201915b505050505081525050815250508152602001601882016040518060c001604052908160008201548152602001600182018054610fdc906146ab565b80601f0160208091040260200160405190810160405280929190818152602001828054611008906146ab565b80156110555780601f1061102a57610100808354040283529160200191611055565b820191906000526020600020905b81548152906001019060200180831161103857829003601f168201915b505050505081526020016002820154815260200160038201548152602001600482018054611082906146ab565b80601f01602080910402602001604051908101604052809291908181526020018280546110ae906146ab565b80156110fb5780601f106110d0576101008083540402835291602001916110fb565b820191906000526020600020905b8154815290600101906020018083116110de57829003601f168201915b505050505081526020016005820180548060200260200160405190810160405280929190818152602001828054801561115357602002820191906000526020600020905b81548152602001906001019080831161113f575b50505050508152505081525050815260200190600101906106f2565b50505050905092915050565b611183613318565b60005b600080549050811015611c565782600082815481106111a8576111a761464d565b5b90600052602060002090601e0201600301600401541415611c4357600081815481106111d7576111d661464d565b5b90600052602060002090601e02016040518060a00160405290816000820154815260200160018201548152602001600282018054611214906146ab565b80601f0160208091040260200160405190810160405280929190818152602001828054611240906146ab565b801561128d5780601f106112625761010080835404028352916020019161128d565b820191906000526020600020905b81548152906001019060200180831161127057829003601f168201915b50505050508152602001600382016040518060e001604052908160008201548152602001600182015481526020016002820180546112ca906146ab565b80601f01602080910402602001604051908101604052809291908181526020018280546112f6906146ab565b80156113435780601f1061131857610100808354040283529160200191611343565b820191906000526020600020905b81548152906001019060200180831161132657829003601f168201915b5050505050815260200160038201805461135c906146ab565b80601f0160208091040260200160405190810160405280929190818152602001828054611388906146ab565b80156113d55780601f106113aa576101008083540402835291602001916113d5565b820191906000526020600020905b8154815290600101906020018083116113b857829003601f168201915b5050505050815260200160048201548152602001600582016040518060c001604052908160008201548152602001600182018054611412906146ab565b80601f016020809104026020016040519081016040528092919081815260200182805461143e906146ab565b801561148b5780601f106114605761010080835404028352916020019161148b565b820191906000526020600020905b81548152906001019060200180831161146e57829003601f168201915b505050505081526020016002820180546114a4906146ab565b80601f01602080910402602001604051908101604052809291908181526020018280546114d0906146ab565b801561151d5780601f106114f25761010080835404028352916020019161151d565b820191906000526020600020905b81548152906001019060200180831161150057829003601f168201915b50505050508152602001600382018054611536906146ab565b80601f0160208091040260200160405190810160405280929190818152602001828054611562906146ab565b80156115af5780601f10611584576101008083540402835291602001916115af565b820191906000526020600020905b81548152906001019060200180831161159257829003601f168201915b505050505081526020016004820180546115c8906146ab565b80601f01602080910402602001604051908101604052809291908181526020018280546115f4906146ab565b80156116415780601f1061161657610100808354040283529160200191611641565b820191906000526020600020905b81548152906001019060200180831161162457829003601f168201915b505050505081526020016005820154815250508152602001600b82016040518061014001604052908160008201548152602001600182018054611683906146ab565b80601f01602080910402602001604051908101604052809291908181526020018280546116af906146ab565b80156116fc5780601f106116d1576101008083540402835291602001916116fc565b820191906000526020600020905b8154815290600101906020018083116116df57829003601f168201915b50505050508152602001600282018054611715906146ab565b80601f0160208091040260200160405190810160405280929190818152602001828054611741906146ab565b801561178e5780601f106117635761010080835404028352916020019161178e565b820191906000526020600020905b81548152906001019060200180831161177157829003601f168201915b505050505081526020016003820180546117a7906146ab565b80601f01602080910402602001604051908101604052809291908181526020018280546117d3906146ab565b80156118205780601f106117f557610100808354040283529160200191611820565b820191906000526020600020905b81548152906001019060200180831161180357829003601f168201915b50505050508152602001600482018054611839906146ab565b80601f0160208091040260200160405190810160405280929190818152602001828054611865906146ab565b80156118b25780601f10611887576101008083540402835291602001916118b2565b820191906000526020600020905b81548152906001019060200180831161189557829003601f168201915b5050505050815260200160058201548152602001600682015481526020016007820180546118df906146ab565b80601f016020809104026020016040519081016040528092919081815260200182805461190b906146ab565b80156119585780601f1061192d57610100808354040283529160200191611958565b820191906000526020600020905b81548152906001019060200180831161193b57829003601f168201915b50505050508152602001600882018054611971906146ab565b80601f016020809104026020016040519081016040528092919081815260200182805461199d906146ab565b80156119ea5780601f106119bf576101008083540402835291602001916119ea565b820191906000526020600020905b8154815290600101906020018083116119cd57829003601f168201915b50505050508152602001600982018054611a03906146ab565b80601f0160208091040260200160405190810160405280929190818152602001828054611a2f906146ab565b8015611a7c5780601f10611a5157610100808354040283529160200191611a7c565b820191906000526020600020905b815481529060010190602001808311611a5f57829003601f168201915b505050505081525050815250508152602001601882016040518060c001604052908160008201548152602001600182018054611ab7906146ab565b80601f0160208091040260200160405190810160405280929190818152602001828054611ae3906146ab565b8015611b305780601f10611b0557610100808354040283529160200191611b30565b820191906000526020600020905b815481529060010190602001808311611b1357829003601f168201915b505050505081526020016002820154815260200160038201548152602001600482018054611b5d906146ab565b80601f0160208091040260200160405190810160405280929190818152602001828054611b89906146ab565b8015611bd65780601f10611bab57610100808354040283529160200191611bd6565b820191906000526020600020905b815481529060010190602001808311611bb957829003601f168201915b5050505050815260200160058201805480602002602001604051908101604052809291908181526020018280548015611c2e57602002820191906000526020600020905b815481526020019060010190808311611c1a575b50505050508152505081525050915050611c58565b8080611c4e9061470c565b915050611186565b505b919050565b60008181548110611c6d57600080fd5b90600052602060002090601e0201600091509050806000015490806001015490806002018054611c9c906146ab565b80601f0160208091040260200160405190810160405280929190818152602001828054611cc8906146ab565b8015611d155780601f10611cea57610100808354040283529160200191611d15565b820191906000526020600020905b815481529060010190602001808311611cf857829003601f168201915b505050505090806003016040518060e00160405290816000820154815260200160018201548152602001600282018054611d4e906146ab565b80601f0160208091040260200160405190810160405280929190818152602001828054611d7a906146ab565b8015611dc75780601f10611d9c57610100808354040283529160200191611dc7565b820191906000526020600020905b815481529060010190602001808311611daa57829003601f168201915b50505050508152602001600382018054611de0906146ab565b80601f0160208091040260200160405190810160405280929190818152602001828054611e0c906146ab565b8015611e595780601f10611e2e57610100808354040283529160200191611e59565b820191906000526020600020905b815481529060010190602001808311611e3c57829003601f168201915b5050505050815260200160048201548152602001600582016040518060c001604052908160008201548152602001600182018054611e96906146ab565b80601f0160208091040260200160405190810160405280929190818152602001828054611ec2906146ab565b8015611f0f5780601f10611ee457610100808354040283529160200191611f0f565b820191906000526020600020905b815481529060010190602001808311611ef257829003601f168201915b50505050508152602001600282018054611f28906146ab565b80601f0160208091040260200160405190810160405280929190818152602001828054611f54906146ab565b8015611fa15780601f10611f7657610100808354040283529160200191611fa1565b820191906000526020600020905b815481529060010190602001808311611f8457829003601f168201915b50505050508152602001600382018054611fba906146ab565b80601f0160208091040260200160405190810160405280929190818152602001828054611fe6906146ab565b80156120335780601f1061200857610100808354040283529160200191612033565b820191906000526020600020905b81548152906001019060200180831161201657829003601f168201915b5050505050815260200160048201805461204c906146ab565b80601f0160208091040260200160405190810160405280929190818152602001828054612078906146ab565b80156120c55780601f1061209a576101008083540402835291602001916120c5565b820191906000526020600020905b8154815290600101906020018083116120a857829003601f168201915b505050505081526020016005820154815250508152602001600b82016040518061014001604052908160008201548152602001600182018054612107906146ab565b80601f0160208091040260200160405190810160405280929190818152602001828054612133906146ab565b80156121805780601f1061215557610100808354040283529160200191612180565b820191906000526020600020905b81548152906001019060200180831161216357829003601f168201915b50505050508152602001600282018054612199906146ab565b80601f01602080910402602001604051908101604052809291908181526020018280546121c5906146ab565b80156122125780601f106121e757610100808354040283529160200191612212565b820191906000526020600020905b8154815290600101906020018083116121f557829003601f168201915b5050505050815260200160038201805461222b906146ab565b80601f0160208091040260200160405190810160405280929190818152602001828054612257906146ab565b80156122a45780601f10612279576101008083540402835291602001916122a4565b820191906000526020600020905b81548152906001019060200180831161228757829003601f168201915b505050505081526020016004820180546122bd906146ab565b80601f01602080910402602001604051908101604052809291908181526020018280546122e9906146ab565b80156123365780601f1061230b57610100808354040283529160200191612336565b820191906000526020600020905b81548152906001019060200180831161231957829003601f168201915b505050505081526020016005820154815260200160068201548152602001600782018054612363906146ab565b80601f016020809104026020016040519081016040528092919081815260200182805461238f906146ab565b80156123dc5780601f106123b1576101008083540402835291602001916123dc565b820191906000526020600020905b8154815290600101906020018083116123bf57829003601f168201915b505050505081526020016008820180546123f5906146ab565b80601f0160208091040260200160405190810160405280929190818152602001828054612421906146ab565b801561246e5780601f106124435761010080835404028352916020019161246e565b820191906000526020600020905b81548152906001019060200180831161245157829003601f168201915b50505050508152602001600982018054612487906146ab565b80601f01602080910402602001604051908101604052809291908181526020018280546124b3906146ab565b80156125005780601f106124d557610100808354040283529160200191612500565b820191906000526020600020905b8154815290600101906020018083116124e357829003601f168201915b5050505050815250508152505090806018016040518060c001604052908160008201548152602001600182018054612537906146ab565b80601f0160208091040260200160405190810160405280929190818152602001828054612563906146ab565b80156125b05780601f10612585576101008083540402835291602001916125b0565b820191906000526020600020905b81548152906001019060200180831161259357829003601f168201915b5050505050815260200160028201548152602001600382015481526020016004820180546125dd906146ab565b80601f0160208091040260200160405190810160405280929190818152602001828054612609906146ab565b80156126565780601f1061262b57610100808354040283529160200191612656565b820191906000526020600020905b81548152906001019060200180831161263957829003601f168201915b50505050508152602001600582018054806020026020016040519081016040528092919081815260200182805480156126ae57602002820191906000526020600020905b81548152602001906001019080831161269a575b505050505081525050905085565b60606000805480602002602001604051908101604052809291908181526020016000905b8282101561315d57838290600052602060002090601e02016040518060a00160405290816000820154815260200160018201548152602001600282018054612727906146ab565b80601f0160208091040260200160405190810160405280929190818152602001828054612753906146ab565b80156127a05780601f10612775576101008083540402835291602001916127a0565b820191906000526020600020905b81548152906001019060200180831161278357829003601f168201915b50505050508152602001600382016040518060e001604052908160008201548152602001600182015481526020016002820180546127dd906146ab565b80601f0160208091040260200160405190810160405280929190818152602001828054612809906146ab565b80156128565780601f1061282b57610100808354040283529160200191612856565b820191906000526020600020905b81548152906001019060200180831161283957829003601f168201915b5050505050815260200160038201805461286f906146ab565b80601f016020809104026020016040519081016040528092919081815260200182805461289b906146ab565b80156128e85780601f106128bd576101008083540402835291602001916128e8565b820191906000526020600020905b8154815290600101906020018083116128cb57829003601f168201915b5050505050815260200160048201548152602001600582016040518060c001604052908160008201548152602001600182018054612925906146ab565b80601f0160208091040260200160405190810160405280929190818152602001828054612951906146ab565b801561299e5780601f106129735761010080835404028352916020019161299e565b820191906000526020600020905b81548152906001019060200180831161298157829003601f168201915b505050505081526020016002820180546129b7906146ab565b80601f01602080910402602001604051908101604052809291908181526020018280546129e3906146ab565b8015612a305780601f10612a0557610100808354040283529160200191612a30565b820191906000526020600020905b815481529060010190602001808311612a1357829003601f168201915b50505050508152602001600382018054612a49906146ab565b80601f0160208091040260200160405190810160405280929190818152602001828054612a75906146ab565b8015612ac25780601f10612a9757610100808354040283529160200191612ac2565b820191906000526020600020905b815481529060010190602001808311612aa557829003601f168201915b50505050508152602001600482018054612adb906146ab565b80601f0160208091040260200160405190810160405280929190818152602001828054612b07906146ab565b8015612b545780601f10612b2957610100808354040283529160200191612b54565b820191906000526020600020905b815481529060010190602001808311612b3757829003601f168201915b505050505081526020016005820154815250508152602001600b82016040518061014001604052908160008201548152602001600182018054612b96906146ab565b80601f0160208091040260200160405190810160405280929190818152602001828054612bc2906146ab565b8015612c0f5780601f10612be457610100808354040283529160200191612c0f565b820191906000526020600020905b815481529060010190602001808311612bf257829003601f168201915b50505050508152602001600282018054612c28906146ab565b80601f0160208091040260200160405190810160405280929190818152602001828054612c54906146ab565b8015612ca15780601f10612c7657610100808354040283529160200191612ca1565b820191906000526020600020905b815481529060010190602001808311612c8457829003601f168201915b50505050508152602001600382018054612cba906146ab565b80601f0160208091040260200160405190810160405280929190818152602001828054612ce6906146ab565b8015612d335780601f10612d0857610100808354040283529160200191612d33565b820191906000526020600020905b815481529060010190602001808311612d1657829003601f168201915b50505050508152602001600482018054612d4c906146ab565b80601f0160208091040260200160405190810160405280929190818152602001828054612d78906146ab565b8015612dc55780601f10612d9a57610100808354040283529160200191612dc5565b820191906000526020600020905b815481529060010190602001808311612da857829003601f168201915b505050505081526020016005820154815260200160068201548152602001600782018054612df2906146ab565b80601f0160208091040260200160405190810160405280929190818152602001828054612e1e906146ab565b8015612e6b5780601f10612e4057610100808354040283529160200191612e6b565b820191906000526020600020905b815481529060010190602001808311612e4e57829003601f168201915b50505050508152602001600882018054612e84906146ab565b80601f0160208091040260200160405190810160405280929190818152602001828054612eb0906146ab565b8015612efd5780601f10612ed257610100808354040283529160200191612efd565b820191906000526020600020905b815481529060010190602001808311612ee057829003601f168201915b50505050508152602001600982018054612f16906146ab565b80601f0160208091040260200160405190810160405280929190818152602001828054612f42906146ab565b8015612f8f5780601f10612f6457610100808354040283529160200191612f8f565b820191906000526020600020905b815481529060010190602001808311612f7257829003601f168201915b505050505081525050815250508152602001601882016040518060c001604052908160008201548152602001600182018054612fca906146ab565b80601f0160208091040260200160405190810160405280929190818152602001828054612ff6906146ab565b80156130435780601f1061301857610100808354040283529160200191613043565b820191906000526020600020905b81548152906001019060200180831161302657829003601f168201915b505050505081526020016002820154815260200160038201548152602001600482018054613070906146ab565b80601f016020809104026020016040519081016040528092919081815260200182805461309c906146ab565b80156130e95780601f106130be576101008083540402835291602001916130e9565b820191906000526020600020905b8154815290600101906020018083116130cc57829003601f168201915b505050505081526020016005820180548060200260200160405190810160405280929190818152602001828054801561314157602002820191906000526020600020905b81548152602001906001019080831161312d575b50505050508152505081525050815260200190600101906126e0565b50505050905090565b828054613172906146ab565b90600052602060002090601f01602090048101928261319457600085556131db565b82601f106131ad57805160ff19168380011785556131db565b828001600101855582156131db579182015b828111156131da5782518255916020019190600101906131bf565b5b5090506131e89190613353565b5090565b828054828255906000526020600020908101928215613228579160200282015b8281111561322757825182559160200191906001019061320c565b5b5090506132359190613353565b5090565b828054613245906146ab565b90600052602060002090601f01602090048101928261326757600085556132b5565b82601f1061327857805485556132b5565b828001600101855582156132b557600052602060002091601f016020900482015b828111156132b4578254825591600101919060010190613299565b5b5090506132c29190613353565b5090565b8280548282559060005260206000209081019282156133075760005260206000209182015b828111156133065782548255916001019190600101906132eb565b5b5090506133149190613353565b5090565b6040518060a00160405280600081526020016000815260200160608152602001613340613370565b815260200161334d6133b9565b81525090565b5b8082111561336c576000816000905550600101613354565b5090565b6040518060e0016040528060008152602001600081526020016060815260200160608152602001600081526020016133a66133ef565b81526020016133b3613425565b81525090565b6040518060c001604052806000815260200160608152602001600081526020016000815260200160608152602001606081525090565b6040518060c001604052806000815260200160608152602001606081526020016060815260200160608152602001600081525090565b604051806101400160405280600081526020016060815260200160608152602001606081526020016060815260200160008152602001600081526020016060815260200160608152602001606081525090565b6000604051905090565b600080fd5b600080fd5b600080fd5b6000601f19601f8301169050919050565b7f4e487b7100000000000000000000000000000000000000000000000000000000600052604160045260246000fd5b6134da82613491565b810181811067ffffffffffffffff821117156134f9576134f86134a2565b5b80604052505050565b600061350c613478565b905061351882826134d1565b919050565b600067ffffffffffffffff821115613538576135376134a2565b5b602082029050602081019050919050565b600080fd5b600080fd5b600080fd5b6000819050919050565b61356b81613558565b811461357657600080fd5b50565b60008135905061358881613562565b92915050565b600080fd5b600067ffffffffffffffff8211156135ae576135ad6134a2565b5b6135b782613491565b9050602081019050919050565b82818337600083830152505050565b60006135e66135e184613593565b613502565b9050828152602081018484840111156136025761360161358e565b5b61360d8482856135c4565b509392505050565b600082601f83011261362a5761362961348c565b5b813561363a8482602086016135d3565b91505092915050565b600060c082840312156136595761365861354e565b5b61366360c0613502565b9050600061367384828501613579565b600083015250602082013567ffffffffffffffff81111561369757613696613553565b5b6136a384828501613615565b602083015250604082013567ffffffffffffffff8111156136c7576136c6613553565b5b6136d384828501613615565b604083015250606082013567ffffffffffffffff8111156136f7576136f6613553565b5b61370384828501613615565b606083015250608082013567ffffffffffffffff81111561372757613726613553565b5b61373384828501613615565b60808301525060a061374784828501613579565b60a08301525092915050565b6000610140828403121561376a5761376961354e565b5b613775610140613502565b9050600061378584828501613579565b600083015250602082013567ffffffffffffffff8111156137a9576137a8613553565b5b6137b584828501613615565b602083015250604082013567ffffffffffffffff8111156137d9576137d8613553565b5b6137e584828501613615565b604083015250606082013567ffffffffffffffff81111561380957613808613553565b5b61381584828501613615565b606083015250608082013567ffffffffffffffff81111561383957613838613553565b5b61384584828501613615565b60808301525060a061385984828501613579565b60a08301525060c061386d84828501613579565b60c08301525060e082013567ffffffffffffffff81111561389157613890613553565b5b61389d84828501613615565b60e08301525061010082013567ffffffffffffffff8111156138c2576138c1613553565b5b6138ce84828501613615565b6101008301525061012082013567ffffffffffffffff8111156138f4576138f3613553565b5b61390084828501613615565b6101208301525092915050565b600060e082840312156139235761392261354e565b5b61392d60e0613502565b9050600061393d84828501613579565b600083015250602061395184828501613579565b602083015250604082013567ffffffffffffffff81111561397557613974613553565b5b61398184828501613615565b604083015250606082013567ffffffffffffffff8111156139a5576139a4613553565b5b6139b184828501613615565b60608301525060806139c584828501613579565b60808301525060a082013567ffffffffffffffff8111156139e9576139e8613553565b5b6139f584828501613643565b60a08301525060c082013567ffffffffffffffff811115613a1957613a18613553565b5b613a2584828501613753565b60c08301525092915050565b600067ffffffffffffffff821115613a4c57613a4b6134a2565b5b602082029050602081019050919050565b6000613a70613a6b84613a31565b613502565b90508083825260208201905060208402830185811115613a9357613a92613549565b5b835b81811015613abc5780613aa88882613579565b845260208401935050602081019050613a95565b5050509392505050565b600082601f830112613adb57613ada61348c565b5b8135613aeb848260208601613a5d565b91505092915050565b600060c08284031215613b0a57613b0961354e565b5b613b1460c0613502565b90506000613b2484828501613579565b600083015250602082013567ffffffffffffffff811115613b4857613b47613553565b5b613b5484828501613615565b6020830152506040613b6884828501613579565b6040830152506060613b7c84828501613579565b606083015250608082013567ffffffffffffffff811115613ba057613b9f613553565b5b613bac84828501613615565b60808301525060a082013567ffffffffffffffff811115613bd057613bcf613553565b5b613bdc84828501613ac6565b60a08301525092915050565b600060a08284031215613bfe57613bfd61354e565b5b613c0860a0613502565b90506000613c1884828501613579565b6000830152506020613c2c84828501613579565b602083015250604082013567ffffffffffffffff811115613c5057613c4f613553565b5b613c5c84828501613615565b604083015250606082013567ffffffffffffffff811115613c8057613c7f613553565b5b613c8c8482850161390d565b606083015250608082013567ffffffffffffffff811115613cb057613caf613553565b5b613cbc84828501613af4565b60808301525092915050565b6000613cdb613cd68461351d565b613502565b90508083825260208201905060208402830185811115613cfe57613cfd613549565b5b835b81811015613d4557803567ffffffffffffffff811115613d2357613d2261348c565b5b808601613d308982613be8565b85526020850194505050602081019050613d00565b5050509392505050565b600082601f830112613d6457613d6361348c565b5b8135613d74848260208601613cc8565b91505092915050565b60008060408385031215613d9457613d93613482565b5b600083013567ffffffffffffffff811115613db257613db1613487565b5b613dbe85828601613d4f565b9250506020613dcf85828601613579565b9150509250929050565b600081519050919050565b600082825260208201905092915050565b6000819050602082019050919050565b613e0e81613558565b82525050565b600081519050919050565b600082825260208201905092915050565b60005b83811015613e4e578082015181840152602081019050613e33565b83811115613e5d576000848401525b50505050565b6000613e6e82613e14565b613e788185613e1f565b9350613e88818560208601613e30565b613e9181613491565b840191505092915050565b600060c083016000830151613eb46000860182613e05565b5060208301518482036020860152613ecc8282613e63565b91505060408301518482036040860152613ee68282613e63565b91505060608301518482036060860152613f008282613e63565b91505060808301518482036080860152613f1a8282613e63565b91505060a0830151613f2f60a0860182613e05565b508091505092915050565b600061014083016000830151613f536000860182613e05565b5060208301518482036020860152613f6b8282613e63565b91505060408301518482036040860152613f858282613e63565b91505060608301518482036060860152613f9f8282613e63565b91505060808301518482036080860152613fb98282613e63565b91505060a0830151613fce60a0860182613e05565b5060c0830151613fe160c0860182613e05565b5060e083015184820360e0860152613ff98282613e63565b9150506101008301518482036101008601526140158282613e63565b9150506101208301518482036101208601526140318282613e63565b9150508091505092915050565b600060e0830160008301516140566000860182613e05565b5060208301516140696020860182613e05565b50604083015184820360408601526140818282613e63565b9150506060830151848203606086015261409b8282613e63565b91505060808301516140b06080860182613e05565b5060a083015184820360a08601526140c88282613e9c565b91505060c083015184820360c08601526140e28282613f3a565b9150508091505092915050565b600081519050919050565b600082825260208201905092915050565b6000819050602082019050919050565b60006141278383613e05565b60208301905092915050565b6000602082019050919050565b600061414b826140ef565b61415581856140fa565b93506141608361410b565b8060005b83811015614191578151614178888261411b565b975061418383614133565b925050600181019050614164565b5085935050505092915050565b600060c0830160008301516141b66000860182613e05565b50602083015184820360208601526141ce8282613e63565b91505060408301516141e36040860182613e05565b5060608301516141f66060860182613e05565b506080830151848203608086015261420e8282613e63565b91505060a083015184820360a08601526142288282614140565b9150508091505092915050565b600060a08301600083015161424d6000860182613e05565b5060208301516142606020860182613e05565b50604083015184820360408601526142788282613e63565b91505060608301518482036060860152614292828261403e565b915050608083015184820360808601526142ac828261419e565b9150508091505092915050565b60006142c58383614235565b905092915050565b6000602082019050919050565b60006142e582613dd9565b6142ef8185613de4565b93508360208202850161430185613df5565b8060005b8581101561433d578484038952815161431e85826142b9565b9450614329836142cd565b925060208a01995050600181019050614305565b50829750879550505050505092915050565b6000602082019050818103600083015261436981846142da565b905092915050565b60006020828403121561438757614386613482565b5b600061439584828501613579565b91505092915050565b600060a0830160008301516143b66000860182613e05565b5060208301516143c96020860182613e05565b50604083015184820360408601526143e18282613e63565b915050606083015184820360608601526143fb828261403e565b91505060808301518482036080860152614415828261419e565b9150508091505092915050565b6000602082019050818103600083015261443c818461439e565b905092915050565b61444d81613558565b82525050565b600082825260208201905092915050565b600061446f82613e14565b6144798185614453565b9350614489818560208601613e30565b61449281613491565b840191505092915050565b600060e0830160008301516144b56000860182613e05565b5060208301516144c86020860182613e05565b50604083015184820360408601526144e08282613e63565b915050606083015184820360608601526144fa8282613e63565b915050608083015161450f6080860182613e05565b5060a083015184820360a08601526145278282613e9c565b91505060c083015184820360c08601526145418282613f3a565b9150508091505092915050565b600060c0830160008301516145666000860182613e05565b506020830151848203602086015261457e8282613e63565b91505060408301516145936040860182613e05565b5060608301516145a66060860182613e05565b50608083015184820360808601526145be8282613e63565b91505060a083015184820360a08601526145d88282614140565b9150508091505092915050565b600060a0820190506145fa6000830188614444565b6146076020830187614444565b81810360408301526146198186614464565b9050818103606083015261462d818561449d565b90508181036080830152614641818461454e565b90509695505050505050565b7f4e487b7100000000000000000000000000000000000000000000000000000000600052603260045260246000fd5b7f4e487b7100000000000000000000000000000000000000000000000000000000600052602260045260246000fd5b600060028204905060018216806146c357607f821691505b602082108114156146d7576146d661467c565b5b50919050565b7f4e487b7100000000000000000000000000000000000000000000000000000000600052601160045260246000fd5b600061471782613558565b91507fffffffffffffffffffffffffffffffffffffffffffffffffffffffffffffffff82141561474a576147496146dd565b5b60018201905091905056fea26469706673582212203a800ff6c259ee5cb1c639dedaf5a74202b3378c5fa5003692a47eee7e2059e964736f6c634300080b0033",
  "immutableReferences": {},
  "source": "// SPDX-License-Identifier: MIT\r\npragma solidity >=0.4.22 <0.9.0;\r\nimport \"./Remplissage.sol\";\r\n\r\ncontract RemplissageCol is Remplissage {\r\n    //*********************************************************************************/\r\n    //second app\r\n    //******************************************************************************/\r\n\r\n    OperationTank[] public operationTank2;\r\n    OperationTank ss;\r\n\r\n    function addOperationTank(\r\n        OperationTank[] memory operationTank,\r\n        uint256 count\r\n    ) public returns (OperationTank[] memory tt0) {\r\n        for (uint256 i = 0; i < count; i++) {\r\n            ss = operationTank[i];\r\n            operationTank2.push(ss);\r\n        }\r\n        return (operationTank2);\r\n    }\r\n\r\n    //get all operations\r\n\r\n    function getOperationTanks()\r\n        public\r\n        view\r\n        returns (OperationTank[] memory result)\r\n    {\r\n        return operationTank2;\r\n    }\r\n\r\n    function getOperationbycode(uint256 code)\r\n        public\r\n        view\r\n        returns (OperationTank memory operation)\r\n    {\r\n        for (uint256 i = 0; i < operationTank2.length; i++) {\r\n            if (operationTank2[i].operation.code == code) {\r\n                return operationTank2[i];\r\n            }\r\n        }\r\n    }\r\n}\r\n",
  "sourcePath": "C:\\Users\\ASUS\\Desktop\\pfe\\PFE_Project(app4)\\PFE-FrontEnd\\contracts\\RemplissageCol.sol",
  "compiler": {
    "name": "solc",
    "version": "0.8.11+commit.d7f03943.Emscripten.clang"
  },
  "schemaVersion": "3.4.5",
  "updatedAt": "2022-06-09T19:37:08.328Z",
  "networkType": "ethereum",
  "devdoc": {
    "kind": "dev",
    "methods": {},
    "version": 1
  },
  "userdoc": {
    "kind": "user",
    "methods": {},
    "version": 1
  }
}