{
  "contractName": "RetraitCol",
  "abi": [
    {
      "inputs": [
        {
          "internalType": "uint256",
          "name": "",
          "type": "uint256"
        }
      ],
      "name": "operationTankR",
      "outputs": [
        {
          "internalType": "uint256",
          "name": "idOpTank",
          "type": "uint256"
        },
        {
          "internalType": "int256",
          "name": "qteInsereTank",
          "type": "int256"
        },
        {
          "internalType": "string",
          "name": "date",
          "type": "string"
        },
        {
          "components": [
            {
              "internalType": "uint256",
              "name": "idOperation",
              "type": "uint256"
            },
            {
              "internalType": "uint256",
              "name": "poidsLait",
              "type": "uint256"
            },
            {
              "internalType": "string",
              "name": "dateOperation",
              "type": "string"
            },
            {
              "internalType": "string",
              "name": "typeOp",
              "type": "string"
            },
            {
              "internalType": "uint256",
              "name": "code",
              "type": "uint256"
            },
            {
              "components": [
                {
                  "internalType": "uint256",
                  "name": "idChef",
                  "type": "uint256"
                },
                {
                  "internalType": "string",
                  "name": "nom",
                  "type": "string"
                },
                {
                  "internalType": "string",
                  "name": "prenom",
                  "type": "string"
                },
                {
                  "internalType": "string",
                  "name": "email",
                  "type": "string"
                },
                {
                  "internalType": "string",
                  "name": "adress",
                  "type": "string"
                },
                {
                  "internalType": "uint256",
                  "name": "tel",
                  "type": "uint256"
                },
                {
                  "internalType": "uint256",
                  "name": "cin",
                  "type": "uint256"
                },
                {
                  "internalType": "string",
                  "name": "username",
                  "type": "string"
                },
                {
                  "internalType": "string",
                  "name": "password",
                  "type": "string"
                }
              ],
              "internalType": "struct Remplissage.Chef",
              "name": "chef",
              "type": "tuple"
            },
            {
              "components": [
                {
                  "internalType": "uint256",
                  "name": "idUsine",
                  "type": "uint256"
                },
                {
                  "internalType": "string",
                  "name": "nomUsine",
                  "type": "string"
                },
                {
                  "internalType": "string",
                  "name": "adresse",
                  "type": "string"
                }
              ],
              "internalType": "struct Remplissage.Usine",
              "name": "usine",
              "type": "tuple"
            }
          ],
          "internalType": "struct Remplissage.Operation01",
          "name": "operation",
          "type": "tuple"
        },
        {
          "components": [
            {
              "internalType": "uint256",
              "name": "idTank",
              "type": "uint256"
            },
            {
              "internalType": "string",
              "name": "matricule",
              "type": "string"
            },
            {
              "internalType": "uint256",
              "name": "poidVide",
              "type": "uint256"
            },
            {
              "internalType": "uint256",
              "name": "poidActuel",
              "type": "uint256"
            },
            {
              "internalType": "string",
              "name": "etat",
              "type": "string"
            },
            {
              "internalType": "uint256[]",
              "name": "codeTank",
              "type": "uint256[]"
            }
          ],
          "internalType": "struct Remplissage.Tank",
          "name": "tank",
          "type": "tuple"
        }
      ],
      "stateMutability": "view",
      "type": "function",
      "constant": true
    },
    {
      "inputs": [
        {
          "internalType": "uint256",
          "name": "",
          "type": "uint256"
        }
      ],
      "name": "operationagrs",
      "outputs": [
        {
          "internalType": "uint256",
          "name": "idOperation",
          "type": "uint256"
        },
        {
          "internalType": "uint256",
          "name": "poidsLait",
          "type": "uint256"
        },
        {
          "internalType": "string",
          "name": "dateOperation",
          "type": "string"
        },
        {
          "internalType": "string",
          "name": "typeOp",
          "type": "string"
        },
        {
          "internalType": "uint256",
          "name": "code",
          "type": "uint256"
        },
        {
          "components": [
            {
              "internalType": "uint256",
              "name": "idCollecteur",
              "type": "uint256"
            },
            {
              "internalType": "string",
              "name": "nomCollecteur",
              "type": "string"
            },
            {
              "internalType": "string",
              "name": "adresse",
              "type": "string"
            },
            {
              "internalType": "uint256",
              "name": "tel",
              "type": "uint256"
            }
          ],
          "internalType": "struct Remplissage.Collecteur",
          "name": "collecteur",
          "type": "tuple"
        },
        {
          "components": [
            {
              "internalType": "uint256",
              "name": "idAgriculteur",
              "type": "uint256"
            },
            {
              "internalType": "string",
              "name": "nom",
              "type": "string"
            },
            {
              "internalType": "string",
              "name": "prenom",
              "type": "string"
            },
            {
              "internalType": "string",
              "name": "username",
              "type": "string"
            },
            {
              "internalType": "string",
              "name": "password",
              "type": "string"
            }
          ],
          "internalType": "struct Remplissage.Agriculteur",
          "name": "agriculteur",
          "type": "tuple"
        }
      ],
      "stateMutability": "view",
      "type": "function",
      "constant": true
    },
    {
      "inputs": [
        {
          "components": [
            {
              "internalType": "uint256",
              "name": "idOpTank",
              "type": "uint256"
            },
            {
              "internalType": "int256",
              "name": "qteInsereTank",
              "type": "int256"
            },
            {
              "internalType": "string",
              "name": "date",
              "type": "string"
            },
            {
              "components": [
                {
                  "internalType": "uint256",
                  "name": "idOperation",
                  "type": "uint256"
                },
                {
                  "internalType": "uint256",
                  "name": "poidsLait",
                  "type": "uint256"
                },
                {
                  "internalType": "string",
                  "name": "dateOperation",
                  "type": "string"
                },
                {
                  "internalType": "string",
                  "name": "typeOp",
                  "type": "string"
                },
                {
                  "internalType": "uint256",
                  "name": "code",
                  "type": "uint256"
                },
                {
                  "components": [
                    {
                      "internalType": "uint256",
                      "name": "idChef",
                      "type": "uint256"
                    },
                    {
                      "internalType": "string",
                      "name": "nom",
                      "type": "string"
                    },
                    {
                      "internalType": "string",
                      "name": "prenom",
                      "type": "string"
                    },
                    {
                      "internalType": "string",
                      "name": "email",
                      "type": "string"
                    },
                    {
                      "internalType": "string",
                      "name": "adress",
                      "type": "string"
                    },
                    {
                      "internalType": "uint256",
                      "name": "tel",
                      "type": "uint256"
                    },
                    {
                      "internalType": "uint256",
                      "name": "cin",
                      "type": "uint256"
                    },
                    {
                      "internalType": "string",
                      "name": "username",
                      "type": "string"
                    },
                    {
                      "internalType": "string",
                      "name": "password",
                      "type": "string"
                    }
                  ],
                  "internalType": "struct Remplissage.Chef",
                  "name": "chef",
                  "type": "tuple"
                },
                {
                  "components": [
                    {
                      "internalType": "uint256",
                      "name": "idUsine",
                      "type": "uint256"
                    },
                    {
                      "internalType": "string",
                      "name": "nomUsine",
                      "type": "string"
                    },
                    {
                      "internalType": "string",
                      "name": "adresse",
                      "type": "string"
                    }
                  ],
                  "internalType": "struct Remplissage.Usine",
                  "name": "usine",
                  "type": "tuple"
                }
              ],
              "internalType": "struct Remplissage.Operation01",
              "name": "operation",
              "type": "tuple"
            },
            {
              "components": [
                {
                  "internalType": "uint256",
                  "name": "idTank",
                  "type": "uint256"
                },
                {
                  "internalType": "string",
                  "name": "matricule",
                  "type": "string"
                },
                {
                  "internalType": "uint256",
                  "name": "poidVide",
                  "type": "uint256"
                },
                {
                  "internalType": "uint256",
                  "name": "poidActuel",
                  "type": "uint256"
                },
                {
                  "internalType": "string",
                  "name": "etat",
                  "type": "string"
                },
                {
                  "internalType": "uint256[]",
                  "name": "codeTank",
                  "type": "uint256[]"
                }
              ],
              "internalType": "struct Remplissage.Tank",
              "name": "tank",
              "type": "tuple"
            }
          ],
          "internalType": "struct Remplissage.OperationTank0[]",
          "name": "operationTank",
          "type": "tuple[]"
        },
        {
          "internalType": "uint256",
          "name": "count",
          "type": "uint256"
        }
      ],
      "name": "RetraitOperationTank",
      "outputs": [
        {
          "components": [
            {
              "internalType": "uint256",
              "name": "idOpTank",
              "type": "uint256"
            },
            {
              "internalType": "int256",
              "name": "qteInsereTank",
              "type": "int256"
            },
            {
              "internalType": "string",
              "name": "date",
              "type": "string"
            },
            {
              "components": [
                {
                  "internalType": "uint256",
                  "name": "idOperation",
                  "type": "uint256"
                },
                {
                  "internalType": "uint256",
                  "name": "poidsLait",
                  "type": "uint256"
                },
                {
                  "internalType": "string",
                  "name": "dateOperation",
                  "type": "string"
                },
                {
                  "internalType": "string",
                  "name": "typeOp",
                  "type": "string"
                },
                {
                  "internalType": "uint256",
                  "name": "code",
                  "type": "uint256"
                },
                {
                  "components": [
                    {
                      "internalType": "uint256",
                      "name": "idChef",
                      "type": "uint256"
                    },
                    {
                      "internalType": "string",
                      "name": "nom",
                      "type": "string"
                    },
                    {
                      "internalType": "string",
                      "name": "prenom",
                      "type": "string"
                    },
                    {
                      "internalType": "string",
                      "name": "email",
                      "type": "string"
                    },
                    {
                      "internalType": "string",
                      "name": "adress",
                      "type": "string"
                    },
                    {
                      "internalType": "uint256",
                      "name": "tel",
                      "type": "uint256"
                    },
                    {
                      "internalType": "uint256",
                      "name": "cin",
                      "type": "uint256"
                    },
                    {
                      "internalType": "string",
                      "name": "username",
                      "type": "string"
                    },
                    {
                      "internalType": "string",
                      "name": "password",
                      "type": "string"
                    }
                  ],
                  "internalType": "struct Remplissage.Chef",
                  "name": "chef",
                  "type": "tuple"
                },
                {
                  "components": [
                    {
                      "internalType": "uint256",
                      "name": "idUsine",
                      "type": "uint256"
                    },
                    {
                      "internalType": "string",
                      "name": "nomUsine",
                      "type": "string"
                    },
                    {
                      "internalType": "string",
                      "name": "adresse",
                      "type": "string"
                    }
                  ],
                  "internalType": "struct Remplissage.Usine",
                  "name": "usine",
                  "type": "tuple"
                }
              ],
              "internalType": "struct Remplissage.Operation01",
              "name": "operation",
              "type": "tuple"
            },
            {
              "components": [
                {
                  "internalType": "uint256",
                  "name": "idTank",
                  "type": "uint256"
                },
                {
                  "internalType": "string",
                  "name": "matricule",
                  "type": "string"
                },
                {
                  "internalType": "uint256",
                  "name": "poidVide",
                  "type": "uint256"
                },
                {
                  "internalType": "uint256",
                  "name": "poidActuel",
                  "type": "uint256"
                },
                {
                  "internalType": "string",
                  "name": "etat",
                  "type": "string"
                },
                {
                  "internalType": "uint256[]",
                  "name": "codeTank",
                  "type": "uint256[]"
                }
              ],
              "internalType": "struct Remplissage.Tank",
              "name": "tank",
              "type": "tuple"
            }
          ],
          "internalType": "struct Remplissage.OperationTank0[]",
          "name": "tt0",
          "type": "tuple[]"
        }
      ],
      "stateMutability": "nonpayable",
      "type": "function"
    },
    {
      "inputs": [],
      "name": "getOperationTanks",
      "outputs": [
        {
          "components": [
            {
              "internalType": "uint256",
              "name": "idOpTank",
              "type": "uint256"
            },
            {
              "internalType": "int256",
              "name": "qteInsereTank",
              "type": "int256"
            },
            {
              "internalType": "string",
              "name": "date",
              "type": "string"
            },
            {
              "components": [
                {
                  "internalType": "uint256",
                  "name": "idOperation",
                  "type": "uint256"
                },
                {
                  "internalType": "uint256",
                  "name": "poidsLait",
                  "type": "uint256"
                },
                {
                  "internalType": "string",
                  "name": "dateOperation",
                  "type": "string"
                },
                {
                  "internalType": "string",
                  "name": "typeOp",
                  "type": "string"
                },
                {
                  "internalType": "uint256",
                  "name": "code",
                  "type": "uint256"
                },
                {
                  "components": [
                    {
                      "internalType": "uint256",
                      "name": "idChef",
                      "type": "uint256"
                    },
                    {
                      "internalType": "string",
                      "name": "nom",
                      "type": "string"
                    },
                    {
                      "internalType": "string",
                      "name": "prenom",
                      "type": "string"
                    },
                    {
                      "internalType": "string",
                      "name": "email",
                      "type": "string"
                    },
                    {
                      "internalType": "string",
                      "name": "adress",
                      "type": "string"
                    },
                    {
                      "internalType": "uint256",
                      "name": "tel",
                      "type": "uint256"
                    },
                    {
                      "internalType": "uint256",
                      "name": "cin",
                      "type": "uint256"
                    },
                    {
                      "internalType": "string",
                      "name": "username",
                      "type": "string"
                    },
                    {
                      "internalType": "string",
                      "name": "password",
                      "type": "string"
                    }
                  ],
                  "internalType": "struct Remplissage.Chef",
                  "name": "chef",
                  "type": "tuple"
                },
                {
                  "components": [
                    {
                      "internalType": "uint256",
                      "name": "idUsine",
                      "type": "uint256"
                    },
                    {
                      "internalType": "string",
                      "name": "nomUsine",
                      "type": "string"
                    },
                    {
                      "internalType": "string",
                      "name": "adresse",
                      "type": "string"
                    }
                  ],
                  "internalType": "struct Remplissage.Usine",
                  "name": "usine",
                  "type": "tuple"
                }
              ],
              "internalType": "struct Remplissage.Operation01",
              "name": "operation",
              "type": "tuple"
            },
            {
              "components": [
                {
                  "internalType": "uint256",
                  "name": "idTank",
                  "type": "uint256"
                },
                {
                  "internalType": "string",
                  "name": "matricule",
                  "type": "string"
                },
                {
                  "internalType": "uint256",
                  "name": "poidVide",
                  "type": "uint256"
                },
                {
                  "internalType": "uint256",
                  "name": "poidActuel",
                  "type": "uint256"
                },
                {
                  "internalType": "string",
                  "name": "etat",
                  "type": "string"
                },
                {
                  "internalType": "uint256[]",
                  "name": "codeTank",
                  "type": "uint256[]"
                }
              ],
              "internalType": "struct Remplissage.Tank",
              "name": "tank",
              "type": "tuple"
            }
          ],
          "internalType": "struct Remplissage.OperationTank0[]",
          "name": "result",
          "type": "tuple[]"
        }
      ],
      "stateMutability": "view",
      "type": "function",
      "constant": true
    },
    {
      "inputs": [
        {
          "internalType": "uint256",
          "name": "code",
          "type": "uint256"
        },
        {
          "components": [
            {
              "internalType": "uint256",
              "name": "idOperation",
              "type": "uint256"
            },
            {
              "internalType": "uint256",
              "name": "poidsLait",
              "type": "uint256"
            },
            {
              "internalType": "string",
              "name": "dateOperation",
              "type": "string"
            },
            {
              "internalType": "string",
              "name": "typeOp",
              "type": "string"
            },
            {
              "internalType": "uint256",
              "name": "code",
              "type": "uint256"
            },
            {
              "components": [
                {
                  "internalType": "uint256",
                  "name": "idCollecteur",
                  "type": "uint256"
                },
                {
                  "internalType": "string",
                  "name": "nomCollecteur",
                  "type": "string"
                },
                {
                  "internalType": "string",
                  "name": "adresse",
                  "type": "string"
                },
                {
                  "internalType": "uint256",
                  "name": "tel",
                  "type": "uint256"
                }
              ],
              "internalType": "struct Remplissage.Collecteur",
              "name": "collecteur",
              "type": "tuple"
            },
            {
              "components": [
                {
                  "internalType": "uint256",
                  "name": "idAgriculteur",
                  "type": "uint256"
                },
                {
                  "internalType": "string",
                  "name": "nom",
                  "type": "string"
                },
                {
                  "internalType": "string",
                  "name": "prenom",
                  "type": "string"
                },
                {
                  "internalType": "string",
                  "name": "username",
                  "type": "string"
                },
                {
                  "internalType": "string",
                  "name": "password",
                  "type": "string"
                }
              ],
              "internalType": "struct Remplissage.Agriculteur",
              "name": "agriculteur",
              "type": "tuple"
            }
          ],
          "internalType": "struct Remplissage.Operation[]",
          "name": "operation2",
          "type": "tuple[]"
        }
      ],
      "name": "getOperationbycode",
      "outputs": [
        {
          "components": [
            {
              "internalType": "uint256",
              "name": "idOperation",
              "type": "uint256"
            },
            {
              "internalType": "uint256",
              "name": "poidsLait",
              "type": "uint256"
            },
            {
              "internalType": "string",
              "name": "dateOperation",
              "type": "string"
            },
            {
              "internalType": "string",
              "name": "typeOp",
              "type": "string"
            },
            {
              "internalType": "uint256",
              "name": "code",
              "type": "uint256"
            },
            {
              "components": [
                {
                  "internalType": "uint256",
                  "name": "idCollecteur",
                  "type": "uint256"
                },
                {
                  "internalType": "string",
                  "name": "nomCollecteur",
                  "type": "string"
                },
                {
                  "internalType": "string",
                  "name": "adresse",
                  "type": "string"
                },
                {
                  "internalType": "uint256",
                  "name": "tel",
                  "type": "uint256"
                }
              ],
              "internalType": "struct Remplissage.Collecteur",
              "name": "collecteur",
              "type": "tuple"
            },
            {
              "components": [
                {
                  "internalType": "uint256",
                  "name": "idAgriculteur",
                  "type": "uint256"
                },
                {
                  "internalType": "string",
                  "name": "nom",
                  "type": "string"
                },
                {
                  "internalType": "string",
                  "name": "prenom",
                  "type": "string"
                },
                {
                  "internalType": "string",
                  "name": "username",
                  "type": "string"
                },
                {
                  "internalType": "string",
                  "name": "password",
                  "type": "string"
                }
              ],
              "internalType": "struct Remplissage.Agriculteur",
              "name": "agriculteur",
              "type": "tuple"
            }
          ],
          "internalType": "struct Remplissage.Operation[]",
          "name": "operationtwo",
          "type": "tuple[]"
        }
      ],
      "stateMutability": "nonpayable",
      "type": "function"
    },
    {
      "inputs": [
        {
          "internalType": "uint256",
          "name": "code",
          "type": "uint256"
        }
      ],
      "name": "getOperationFromAgrsbycode",
      "outputs": [
        {
          "components": [
            {
              "internalType": "uint256",
              "name": "idOpTank",
              "type": "uint256"
            },
            {
              "internalType": "int256",
              "name": "qteInsereTank",
              "type": "int256"
            },
            {
              "internalType": "string",
              "name": "date",
              "type": "string"
            },
            {
              "components": [
                {
                  "internalType": "uint256",
                  "name": "idOperation",
                  "type": "uint256"
                },
                {
                  "internalType": "uint256",
                  "name": "poidsLait",
                  "type": "uint256"
                },
                {
                  "internalType": "string",
                  "name": "dateOperation",
                  "type": "string"
                },
                {
                  "internalType": "string",
                  "name": "typeOp",
                  "type": "string"
                },
                {
                  "internalType": "uint256",
                  "name": "code",
                  "type": "uint256"
                },
                {
                  "components": [
                    {
                      "internalType": "uint256",
                      "name": "idChef",
                      "type": "uint256"
                    },
                    {
                      "internalType": "string",
                      "name": "nom",
                      "type": "string"
                    },
                    {
                      "internalType": "string",
                      "name": "prenom",
                      "type": "string"
                    },
                    {
                      "internalType": "string",
                      "name": "email",
                      "type": "string"
                    },
                    {
                      "internalType": "string",
                      "name": "adress",
                      "type": "string"
                    },
                    {
                      "internalType": "uint256",
                      "name": "tel",
                      "type": "uint256"
                    },
                    {
                      "internalType": "uint256",
                      "name": "cin",
                      "type": "uint256"
                    },
                    {
                      "internalType": "string",
                      "name": "username",
                      "type": "string"
                    },
                    {
                      "internalType": "string",
                      "name": "password",
                      "type": "string"
                    }
                  ],
                  "internalType": "struct Remplissage.Chef",
                  "name": "chef",
                  "type": "tuple"
                },
                {
                  "components": [
                    {
                      "internalType": "uint256",
                      "name": "idUsine",
                      "type": "uint256"
                    },
                    {
                      "internalType": "string",
                      "name": "nomUsine",
                      "type": "string"
                    },
                    {
                      "internalType": "string",
                      "name": "adresse",
                      "type": "string"
                    }
                  ],
                  "internalType": "struct Remplissage.Usine",
                  "name": "usine",
                  "type": "tuple"
                }
              ],
              "internalType": "struct Remplissage.Operation01",
              "name": "operation",
              "type": "tuple"
            },
            {
              "components": [
                {
                  "internalType": "uint256",
                  "name": "idTank",
                  "type": "uint256"
                },
                {
                  "internalType": "string",
                  "name": "matricule",
                  "type": "string"
                },
                {
                  "internalType": "uint256",
                  "name": "poidVide",
                  "type": "uint256"
                },
                {
                  "internalType": "uint256",
                  "name": "poidActuel",
                  "type": "uint256"
                },
                {
                  "internalType": "string",
                  "name": "etat",
                  "type": "string"
                },
                {
                  "internalType": "uint256[]",
                  "name": "codeTank",
                  "type": "uint256[]"
                }
              ],
              "internalType": "struct Remplissage.Tank",
              "name": "tank",
              "type": "tuple"
            }
          ],
          "internalType": "struct Remplissage.OperationTank0",
          "name": "operation",
          "type": "tuple"
        }
      ],
      "stateMutability": "view",
      "type": "function",
      "constant": true
    }
  ],
  "bytecode": "0x608060405234801561001057600080fd5b50615147806100206000396000f3fe608060405234801561001057600080fd5b50600436106100625760003560e01c806316638829146100675780638724a43014610097578063a96fe5f0146100cd578063c9c28e0f14610101578063da3958171461011f578063da6616f91461014f575b600080fd5b610081600480360381019061007c919061371c565b61017f565b60405161008e9190613bc4565b60405180910390f35b6100b160048036038101906100ac919061371c565b610aa1565b6040516100c49796959493929190613d34565b60405180910390f35b6100e760048036038101906100e2919061371c565b610fa1565b6040516100f8959493929190613f16565b60405180910390f35b610109611840565b60405161011691906140c4565b60405180910390f35b61013960048036038101906101349190614916565b61212a565b60405161014691906140c4565b60405180910390f35b61016960048036038101906101649190614d23565b612cb9565b6040516101769190614fe7565b60405180910390f35b6101876134bb565b60005b600180549050811015610a9a5782600182815481106101ac576101ab615009565b5b90600052602060002090601a0201600301600401541415610a8757600181815481106101db576101da615009565b5b90600052602060002090601a02016040518060a0016040529081600082015481526020016001820154815260200160028201805461021890615067565b80601f016020809104026020016040519081016040528092919081815260200182805461024490615067565b80156102915780601f1061026657610100808354040283529160200191610291565b820191906000526020600020905b81548152906001019060200180831161027457829003601f168201915b50505050508152602001600382016040518060e001604052908160008201548152602001600182015481526020016002820180546102ce90615067565b80601f01602080910402602001604051908101604052809291908181526020018280546102fa90615067565b80156103475780601f1061031c57610100808354040283529160200191610347565b820191906000526020600020905b81548152906001019060200180831161032a57829003601f168201915b5050505050815260200160038201805461036090615067565b80601f016020809104026020016040519081016040528092919081815260200182805461038c90615067565b80156103d95780601f106103ae576101008083540402835291602001916103d9565b820191906000526020600020905b8154815290600101906020018083116103bc57829003601f168201915b505050505081526020016004820154815260200160058201604051806101200160405290816000820154815260200160018201805461041790615067565b80601f016020809104026020016040519081016040528092919081815260200182805461044390615067565b80156104905780601f1061046557610100808354040283529160200191610490565b820191906000526020600020905b81548152906001019060200180831161047357829003601f168201915b505050505081526020016002820180546104a990615067565b80601f01602080910402602001604051908101604052809291908181526020018280546104d590615067565b80156105225780601f106104f757610100808354040283529160200191610522565b820191906000526020600020905b81548152906001019060200180831161050557829003601f168201915b5050505050815260200160038201805461053b90615067565b80601f016020809104026020016040519081016040528092919081815260200182805461056790615067565b80156105b45780601f10610589576101008083540402835291602001916105b4565b820191906000526020600020905b81548152906001019060200180831161059757829003601f168201915b505050505081526020016004820180546105cd90615067565b80601f01602080910402602001604051908101604052809291908181526020018280546105f990615067565b80156106465780601f1061061b57610100808354040283529160200191610646565b820191906000526020600020905b81548152906001019060200180831161062957829003601f168201915b50505050508152602001600582015481526020016006820154815260200160078201805461067390615067565b80601f016020809104026020016040519081016040528092919081815260200182805461069f90615067565b80156106ec5780601f106106c1576101008083540402835291602001916106ec565b820191906000526020600020905b8154815290600101906020018083116106cf57829003601f168201915b5050505050815260200160088201805461070590615067565b80601f016020809104026020016040519081016040528092919081815260200182805461073190615067565b801561077e5780601f106107535761010080835404028352916020019161077e565b820191906000526020600020905b81548152906001019060200180831161076157829003601f168201915b5050505050815250508152602001600e8201604051806060016040529081600082015481526020016001820180546107b590615067565b80601f01602080910402602001604051908101604052809291908181526020018280546107e190615067565b801561082e5780601f106108035761010080835404028352916020019161082e565b820191906000526020600020905b81548152906001019060200180831161081157829003601f168201915b5050505050815260200160028201805461084790615067565b80601f016020809104026020016040519081016040528092919081815260200182805461087390615067565b80156108c05780601f10610895576101008083540402835291602001916108c0565b820191906000526020600020905b8154815290600101906020018083116108a357829003601f168201915b505050505081525050815250508152602001601482016040518060c0016040529081600082015481526020016001820180546108fb90615067565b80601f016020809104026020016040519081016040528092919081815260200182805461092790615067565b80156109745780601f1061094957610100808354040283529160200191610974565b820191906000526020600020905b81548152906001019060200180831161095757829003601f168201915b5050505050815260200160028201548152602001600382015481526020016004820180546109a190615067565b80601f01602080910402602001604051908101604052809291908181526020018280546109cd90615067565b8015610a1a5780601f106109ef57610100808354040283529160200191610a1a565b820191906000526020600020905b8154815290600101906020018083116109fd57829003601f168201915b5050505050815260200160058201805480602002602001604051908101604052809291908181526020018280548015610a7257602002820191906000526020600020905b815481526020019060010190808311610a5e575b50505050508152505081525050915050610a9c565b8080610a92906150c8565b91505061018a565b505b919050565b60008181548110610ab157600080fd5b90600052602060002090600e0201600091509050806000015490806001015490806002018054610ae090615067565b80601f0160208091040260200160405190810160405280929190818152602001828054610b0c90615067565b8015610b595780601f10610b2e57610100808354040283529160200191610b59565b820191906000526020600020905b815481529060010190602001808311610b3c57829003601f168201915b505050505090806003018054610b6e90615067565b80601f0160208091040260200160405190810160405280929190818152602001828054610b9a90615067565b8015610be75780601f10610bbc57610100808354040283529160200191610be7565b820191906000526020600020905b815481529060010190602001808311610bca57829003601f168201915b5050505050908060040154908060050160405180608001604052908160008201548152602001600182018054610c1c90615067565b80601f0160208091040260200160405190810160405280929190818152602001828054610c4890615067565b8015610c955780601f10610c6a57610100808354040283529160200191610c95565b820191906000526020600020905b815481529060010190602001808311610c7857829003601f168201915b50505050508152602001600282018054610cae90615067565b80601f0160208091040260200160405190810160405280929190818152602001828054610cda90615067565b8015610d275780601f10610cfc57610100808354040283529160200191610d27565b820191906000526020600020905b815481529060010190602001808311610d0a57829003601f168201915b5050505050815260200160038201548152505090806009016040518060a001604052908160008201548152602001600182018054610d6490615067565b80601f0160208091040260200160405190810160405280929190818152602001828054610d9090615067565b8015610ddd5780601f10610db257610100808354040283529160200191610ddd565b820191906000526020600020905b815481529060010190602001808311610dc057829003601f168201915b50505050508152602001600282018054610df690615067565b80601f0160208091040260200160405190810160405280929190818152602001828054610e2290615067565b8015610e6f5780601f10610e4457610100808354040283529160200191610e6f565b820191906000526020600020905b815481529060010190602001808311610e5257829003601f168201915b50505050508152602001600382018054610e8890615067565b80601f0160208091040260200160405190810160405280929190818152602001828054610eb490615067565b8015610f015780601f10610ed657610100808354040283529160200191610f01565b820191906000526020600020905b815481529060010190602001808311610ee457829003601f168201915b50505050508152602001600482018054610f1a90615067565b80601f0160208091040260200160405190810160405280929190818152602001828054610f4690615067565b8015610f935780601f10610f6857610100808354040283529160200191610f93565b820191906000526020600020905b815481529060010190602001808311610f7657829003601f168201915b505050505081525050905087565b60018181548110610fb157600080fd5b90600052602060002090601a0201600091509050806000015490806001015490806002018054610fe090615067565b80601f016020809104026020016040519081016040528092919081815260200182805461100c90615067565b80156110595780601f1061102e57610100808354040283529160200191611059565b820191906000526020600020905b81548152906001019060200180831161103c57829003601f168201915b505050505090806003016040518060e0016040529081600082015481526020016001820154815260200160028201805461109290615067565b80601f01602080910402602001604051908101604052809291908181526020018280546110be90615067565b801561110b5780601f106110e05761010080835404028352916020019161110b565b820191906000526020600020905b8154815290600101906020018083116110ee57829003601f168201915b5050505050815260200160038201805461112490615067565b80601f016020809104026020016040519081016040528092919081815260200182805461115090615067565b801561119d5780601f106111725761010080835404028352916020019161119d565b820191906000526020600020905b81548152906001019060200180831161118057829003601f168201915b50505050508152602001600482015481526020016005820160405180610120016040529081600082015481526020016001820180546111db90615067565b80601f016020809104026020016040519081016040528092919081815260200182805461120790615067565b80156112545780601f1061122957610100808354040283529160200191611254565b820191906000526020600020905b81548152906001019060200180831161123757829003601f168201915b5050505050815260200160028201805461126d90615067565b80601f016020809104026020016040519081016040528092919081815260200182805461129990615067565b80156112e65780601f106112bb576101008083540402835291602001916112e6565b820191906000526020600020905b8154815290600101906020018083116112c957829003601f168201915b505050505081526020016003820180546112ff90615067565b80601f016020809104026020016040519081016040528092919081815260200182805461132b90615067565b80156113785780601f1061134d57610100808354040283529160200191611378565b820191906000526020600020905b81548152906001019060200180831161135b57829003601f168201915b5050505050815260200160048201805461139190615067565b80601f01602080910402602001604051908101604052809291908181526020018280546113bd90615067565b801561140a5780601f106113df5761010080835404028352916020019161140a565b820191906000526020600020905b8154815290600101906020018083116113ed57829003601f168201915b50505050508152602001600582015481526020016006820154815260200160078201805461143790615067565b80601f016020809104026020016040519081016040528092919081815260200182805461146390615067565b80156114b05780601f10611485576101008083540402835291602001916114b0565b820191906000526020600020905b81548152906001019060200180831161149357829003601f168201915b505050505081526020016008820180546114c990615067565b80601f01602080910402602001604051908101604052809291908181526020018280546114f590615067565b80156115425780601f1061151757610100808354040283529160200191611542565b820191906000526020600020905b81548152906001019060200180831161152557829003601f168201915b5050505050815250508152602001600e82016040518060600160405290816000820154815260200160018201805461157990615067565b80601f01602080910402602001604051908101604052809291908181526020018280546115a590615067565b80156115f25780601f106115c7576101008083540402835291602001916115f2565b820191906000526020600020905b8154815290600101906020018083116115d557829003601f168201915b5050505050815260200160028201805461160b90615067565b80601f016020809104026020016040519081016040528092919081815260200182805461163790615067565b80156116845780601f1061165957610100808354040283529160200191611684565b820191906000526020600020905b81548152906001019060200180831161166757829003601f168201915b5050505050815250508152505090806014016040518060c0016040529081600082015481526020016001820180546116bb90615067565b80601f01602080910402602001604051908101604052809291908181526020018280546116e790615067565b80156117345780601f1061170957610100808354040283529160200191611734565b820191906000526020600020905b81548152906001019060200180831161171757829003601f168201915b50505050508152602001600282015481526020016003820154815260200160048201805461176190615067565b80601f016020809104026020016040519081016040528092919081815260200182805461178d90615067565b80156117da5780601f106117af576101008083540402835291602001916117da565b820191906000526020600020905b8154815290600101906020018083116117bd57829003601f168201915b505050505081526020016005820180548060200260200160405190810160405280929190818152602001828054801561183257602002820191906000526020600020905b81548152602001906001019080831161181e575b505050505081525050905085565b60606001805480602002602001604051908101604052809291908181526020016000905b8282101561212157838290600052602060002090601a02016040518060a001604052908160008201548152602001600182015481526020016002820180546118ab90615067565b80601f01602080910402602001604051908101604052809291908181526020018280546118d790615067565b80156119245780601f106118f957610100808354040283529160200191611924565b820191906000526020600020905b81548152906001019060200180831161190757829003601f168201915b50505050508152602001600382016040518060e0016040529081600082015481526020016001820154815260200160028201805461196190615067565b80601f016020809104026020016040519081016040528092919081815260200182805461198d90615067565b80156119da5780601f106119af576101008083540402835291602001916119da565b820191906000526020600020905b8154815290600101906020018083116119bd57829003601f168201915b505050505081526020016003820180546119f390615067565b80601f0160208091040260200160405190810160405280929190818152602001828054611a1f90615067565b8015611a6c5780601f10611a4157610100808354040283529160200191611a6c565b820191906000526020600020905b815481529060010190602001808311611a4f57829003601f168201915b5050505050815260200160048201548152602001600582016040518061012001604052908160008201548152602001600182018054611aaa90615067565b80601f0160208091040260200160405190810160405280929190818152602001828054611ad690615067565b8015611b235780601f10611af857610100808354040283529160200191611b23565b820191906000526020600020905b815481529060010190602001808311611b0657829003601f168201915b50505050508152602001600282018054611b3c90615067565b80601f0160208091040260200160405190810160405280929190818152602001828054611b6890615067565b8015611bb55780601f10611b8a57610100808354040283529160200191611bb5565b820191906000526020600020905b815481529060010190602001808311611b9857829003601f168201915b50505050508152602001600382018054611bce90615067565b80601f0160208091040260200160405190810160405280929190818152602001828054611bfa90615067565b8015611c475780601f10611c1c57610100808354040283529160200191611c47565b820191906000526020600020905b815481529060010190602001808311611c2a57829003601f168201915b50505050508152602001600482018054611c6090615067565b80601f0160208091040260200160405190810160405280929190818152602001828054611c8c90615067565b8015611cd95780601f10611cae57610100808354040283529160200191611cd9565b820191906000526020600020905b815481529060010190602001808311611cbc57829003601f168201915b505050505081526020016005820154815260200160068201548152602001600782018054611d0690615067565b80601f0160208091040260200160405190810160405280929190818152602001828054611d3290615067565b8015611d7f5780601f10611d5457610100808354040283529160200191611d7f565b820191906000526020600020905b815481529060010190602001808311611d6257829003601f168201915b50505050508152602001600882018054611d9890615067565b80601f0160208091040260200160405190810160405280929190818152602001828054611dc490615067565b8015611e115780601f10611de657610100808354040283529160200191611e11565b820191906000526020600020905b815481529060010190602001808311611df457829003601f168201915b5050505050815250508152602001600e820160405180606001604052908160008201548152602001600182018054611e4890615067565b80601f0160208091040260200160405190810160405280929190818152602001828054611e7490615067565b8015611ec15780601f10611e9657610100808354040283529160200191611ec1565b820191906000526020600020905b815481529060010190602001808311611ea457829003601f168201915b50505050508152602001600282018054611eda90615067565b80601f0160208091040260200160405190810160405280929190818152602001828054611f0690615067565b8015611f535780601f10611f2857610100808354040283529160200191611f53565b820191906000526020600020905b815481529060010190602001808311611f3657829003601f168201915b505050505081525050815250508152602001601482016040518060c001604052908160008201548152602001600182018054611f8e90615067565b80601f0160208091040260200160405190810160405280929190818152602001828054611fba90615067565b80156120075780601f10611fdc57610100808354040283529160200191612007565b820191906000526020600020905b815481529060010190602001808311611fea57829003601f168201915b50505050508152602001600282015481526020016003820154815260200160048201805461203490615067565b80601f016020809104026020016040519081016040528092919081815260200182805461206090615067565b80156120ad5780601f10612082576101008083540402835291602001916120ad565b820191906000526020600020905b81548152906001019060200180831161209057829003601f168201915b505050505081526020016005820180548060200260200160405190810160405280929190818152602001828054801561210557602002820191906000526020600020905b8154815260200190600101908083116120f1575b5050505050815250508152505081526020019060010190611864565b50505050905090565b606060005b828110156123cd57600184828151811061214c5761214b615009565b5b602002602001015190806001815401808255809150506001900390600052602060002090601a0201600090919091909150600082015181600001556020820151816001015560408201518160020190805190602001906121ad9291906134f6565b50606082015181600301600082015181600001556020820151816001015560408201518160020190805190602001906121e79291906134f6565b5060608201518160030190805190602001906122049291906134f6565b506080820151816004015560a08201518160050160008201518160000155602082015181600101908051906020019061223e9291906134f6565b50604082015181600201908051906020019061225b9291906134f6565b5060608201518160030190805190602001906122789291906134f6565b5060808201518160040190805190602001906122959291906134f6565b5060a0820151816005015560c0820151816006015560e08201518160070190805190602001906122c69291906134f6565b506101008201518160080190805190602001906122e49291906134f6565b50505060c082015181600e016000820151816000015560208201518160010190805190602001906123169291906134f6565b5060408201518160020190805190602001906123339291906134f6565b50505050506080820151816014016000820151816000015560208201518160010190805190602001906123679291906134f6565b50604082015181600201556060820151816003015560808201518160040190805190602001906123989291906134f6565b5060a08201518160050190805190602001906123b592919061357c565b505050505080806123c5906150c8565b91505061212f565b506001805480602002602001604051908101604052809291908181526020016000905b82821015612cad57838290600052602060002090601a02016040518060a0016040529081600082015481526020016001820154815260200160028201805461243790615067565b80601f016020809104026020016040519081016040528092919081815260200182805461246390615067565b80156124b05780601f10612485576101008083540402835291602001916124b0565b820191906000526020600020905b81548152906001019060200180831161249357829003601f168201915b50505050508152602001600382016040518060e001604052908160008201548152602001600182015481526020016002820180546124ed90615067565b80601f016020809104026020016040519081016040528092919081815260200182805461251990615067565b80156125665780601f1061253b57610100808354040283529160200191612566565b820191906000526020600020905b81548152906001019060200180831161254957829003601f168201915b5050505050815260200160038201805461257f90615067565b80601f01602080910402602001604051908101604052809291908181526020018280546125ab90615067565b80156125f85780601f106125cd576101008083540402835291602001916125f8565b820191906000526020600020905b8154815290600101906020018083116125db57829003601f168201915b505050505081526020016004820154815260200160058201604051806101200160405290816000820154815260200160018201805461263690615067565b80601f016020809104026020016040519081016040528092919081815260200182805461266290615067565b80156126af5780601f10612684576101008083540402835291602001916126af565b820191906000526020600020905b81548152906001019060200180831161269257829003601f168201915b505050505081526020016002820180546126c890615067565b80601f01602080910402602001604051908101604052809291908181526020018280546126f490615067565b80156127415780601f1061271657610100808354040283529160200191612741565b820191906000526020600020905b81548152906001019060200180831161272457829003601f168201915b5050505050815260200160038201805461275a90615067565b80601f016020809104026020016040519081016040528092919081815260200182805461278690615067565b80156127d35780601f106127a8576101008083540402835291602001916127d3565b820191906000526020600020905b8154815290600101906020018083116127b657829003601f168201915b505050505081526020016004820180546127ec90615067565b80601f016020809104026020016040519081016040528092919081815260200182805461281890615067565b80156128655780601f1061283a57610100808354040283529160200191612865565b820191906000526020600020905b81548152906001019060200180831161284857829003601f168201915b50505050508152602001600582015481526020016006820154815260200160078201805461289290615067565b80601f01602080910402602001604051908101604052809291908181526020018280546128be90615067565b801561290b5780601f106128e05761010080835404028352916020019161290b565b820191906000526020600020905b8154815290600101906020018083116128ee57829003601f168201915b5050505050815260200160088201805461292490615067565b80601f016020809104026020016040519081016040528092919081815260200182805461295090615067565b801561299d5780601f106129725761010080835404028352916020019161299d565b820191906000526020600020905b81548152906001019060200180831161298057829003601f168201915b5050505050815250508152602001600e8201604051806060016040529081600082015481526020016001820180546129d490615067565b80601f0160208091040260200160405190810160405280929190818152602001828054612a0090615067565b8015612a4d5780601f10612a2257610100808354040283529160200191612a4d565b820191906000526020600020905b815481529060010190602001808311612a3057829003601f168201915b50505050508152602001600282018054612a6690615067565b80601f0160208091040260200160405190810160405280929190818152602001828054612a9290615067565b8015612adf5780601f10612ab457610100808354040283529160200191612adf565b820191906000526020600020905b815481529060010190602001808311612ac257829003601f168201915b505050505081525050815250508152602001601482016040518060c001604052908160008201548152602001600182018054612b1a90615067565b80601f0160208091040260200160405190810160405280929190818152602001828054612b4690615067565b8015612b935780601f10612b6857610100808354040283529160200191612b93565b820191906000526020600020905b815481529060010190602001808311612b7657829003601f168201915b505050505081526020016002820154815260200160038201548152602001600482018054612bc090615067565b80601f0160208091040260200160405190810160405280929190818152602001828054612bec90615067565b8015612c395780601f10612c0e57610100808354040283529160200191612c39565b820191906000526020600020905b815481529060010190602001808311612c1c57829003601f168201915b5050505050815260200160058201805480602002602001604051908101604052809291908181526020018280548015612c9157602002820191906000526020600020905b815481526020019060010190808311612c7d575b50505050508152505081525050815260200190600101906123f0565b50505050905092915050565b606060005b600180549050811015612f66578360018281548110612ce057612cdf615009565b5b90600052602060002090601a0201600301600401541415612f535760005b60018281548110612d1257612d11615009565b5b90600052602060002090601a020160140160050180549050811015612f515760005b8451811015612f3d5760018381548110612d5157612d50615009565b5b90600052602060002090601a02016014016005018281548110612d7757612d76615009565b5b9060005260206000200154858281518110612d9557612d94615009565b5b6020026020010151608001511415612f2a576000858281518110612dbc57612dbb615009565b5b602002602001015190806001815401808255809150506001900390600052602060002090600e020160009091909190915060008201518160000155602082015181600101556040820151816002019080519060200190612e1d9291906134f6565b506060820151816003019080519060200190612e3a9291906134f6565b506080820151816004015560a082015181600501600082015181600001556020820151816001019080519060200190612e749291906134f6565b506040820151816002019080519060200190612e919291906134f6565b5060608201518160030155505060c082015181600901600082015181600001556020820151816001019080519060200190612ecd9291906134f6565b506040820151816002019080519060200190612eea9291906134f6565b506060820151816003019080519060200190612f079291906134f6565b506080820151816004019080519060200190612f249291906134f6565b50505050505b8080612f35906150c8565b915050612d34565b508080612f49906150c8565b915050612cfe565b505b8080612f5e906150c8565b915050612cbe565b506000805480602002602001604051908101604052809291908181526020016000905b828210156134af57838290600052602060002090600e02016040518060e00160405290816000820154815260200160018201548152602001600282018054612fd090615067565b80601f0160208091040260200160405190810160405280929190818152602001828054612ffc90615067565b80156130495780601f1061301e57610100808354040283529160200191613049565b820191906000526020600020905b81548152906001019060200180831161302c57829003601f168201915b5050505050815260200160038201805461306290615067565b80601f016020809104026020016040519081016040528092919081815260200182805461308e90615067565b80156130db5780601f106130b0576101008083540402835291602001916130db565b820191906000526020600020905b8154815290600101906020018083116130be57829003601f168201915b5050505050815260200160048201548152602001600582016040518060800160405290816000820154815260200160018201805461311890615067565b80601f016020809104026020016040519081016040528092919081815260200182805461314490615067565b80156131915780601f1061316657610100808354040283529160200191613191565b820191906000526020600020905b81548152906001019060200180831161317457829003601f168201915b505050505081526020016002820180546131aa90615067565b80601f01602080910402602001604051908101604052809291908181526020018280546131d690615067565b80156132235780601f106131f857610100808354040283529160200191613223565b820191906000526020600020905b81548152906001019060200180831161320657829003601f168201915b505050505081526020016003820154815250508152602001600982016040518060a00160405290816000820154815260200160018201805461326490615067565b80601f016020809104026020016040519081016040528092919081815260200182805461329090615067565b80156132dd5780601f106132b2576101008083540402835291602001916132dd565b820191906000526020600020905b8154815290600101906020018083116132c057829003601f168201915b505050505081526020016002820180546132f690615067565b80601f016020809104026020016040519081016040528092919081815260200182805461332290615067565b801561336f5780601f106133445761010080835404028352916020019161336f565b820191906000526020600020905b81548152906001019060200180831161335257829003601f168201915b5050505050815260200160038201805461338890615067565b80601f01602080910402602001604051908101604052809291908181526020018280546133b490615067565b80156134015780601f106133d657610100808354040283529160200191613401565b820191906000526020600020905b8154815290600101906020018083116133e457829003601f168201915b5050505050815260200160048201805461341a90615067565b80601f016020809104026020016040519081016040528092919081815260200182805461344690615067565b80156134935780601f1061346857610100808354040283529160200191613493565b820191906000526020600020905b81548152906001019060200180831161347657829003601f168201915b5050505050815250508152505081526020019060010190612f89565b50505050905092915050565b6040518060a001604052806000815260200160008152602001606081526020016134e36135c9565b81526020016134f0613612565b81525090565b82805461350290615067565b90600052602060002090601f016020900481019282613524576000855561356b565b82601f1061353d57805160ff191683800117855561356b565b8280016001018555821561356b579182015b8281111561356a57825182559160200191906001019061354f565b5b5090506135789190613648565b5090565b8280548282559060005260206000209081019282156135b8579160200282015b828111156135b757825182559160200191906001019061359c565b5b5090506135c59190613648565b5090565b6040518060e0016040528060008152602001600081526020016060815260200160608152602001600081526020016135ff613665565b815260200161360c6136b1565b81525090565b6040518060c001604052806000815260200160608152602001600081526020016000815260200160608152602001606081525090565b5b80821115613661576000816000905550600101613649565b5090565b6040518061012001604052806000815260200160608152602001606081526020016060815260200160608152602001600081526020016000815260200160608152602001606081525090565b60405180606001604052806000815260200160608152602001606081525090565b6000604051905090565b600080fd5b600080fd5b6000819050919050565b6136f9816136e6565b811461370457600080fd5b50565b600081359050613716816136f0565b92915050565b600060208284031215613732576137316136dc565b5b600061374084828501613707565b91505092915050565b613752816136e6565b82525050565b6000819050919050565b61376b81613758565b82525050565b600081519050919050565b600082825260208201905092915050565b60005b838110156137ab578082015181840152602081019050613790565b838111156137ba576000848401525b50505050565b6000601f19601f8301169050919050565b60006137dc82613771565b6137e6818561377c565b93506137f681856020860161378d565b6137ff816137c0565b840191505092915050565b6000610120830160008301516138236000860182613749565b506020830151848203602086015261383b82826137d1565b9150506040830151848203604086015261385582826137d1565b9150506060830151848203606086015261386f82826137d1565b9150506080830151848203608086015261388982826137d1565b91505060a083015161389e60a0860182613749565b5060c08301516138b160c0860182613749565b5060e083015184820360e08601526138c982826137d1565b9150506101008301518482036101008601526138e582826137d1565b9150508091505092915050565b600060608301600083015161390a6000860182613749565b506020830151848203602086015261392282826137d1565b9150506040830151848203604086015261393c82826137d1565b9150508091505092915050565b600060e0830160008301516139616000860182613749565b5060208301516139746020860182613749565b506040830151848203604086015261398c82826137d1565b915050606083015184820360608601526139a682826137d1565b91505060808301516139bb6080860182613749565b5060a083015184820360a08601526139d3828261380a565b91505060c083015184820360c08601526139ed82826138f2565b9150508091505092915050565b600081519050919050565b600082825260208201905092915050565b6000819050602082019050919050565b6000613a328383613749565b60208301905092915050565b6000602082019050919050565b6000613a56826139fa565b613a608185613a05565b9350613a6b83613a16565b8060005b83811015613a9c578151613a838882613a26565b9750613a8e83613a3e565b925050600181019050613a6f565b5085935050505092915050565b600060c083016000830151613ac16000860182613749565b5060208301518482036020860152613ad982826137d1565b9150506040830151613aee6040860182613749565b506060830151613b016060860182613749565b5060808301518482036080860152613b1982826137d1565b91505060a083015184820360a0860152613b338282613a4b565b9150508091505092915050565b600060a083016000830151613b586000860182613749565b506020830151613b6b6020860182613762565b5060408301518482036040860152613b8382826137d1565b91505060608301518482036060860152613b9d8282613949565b91505060808301518482036080860152613bb78282613aa9565b9150508091505092915050565b60006020820190508181036000830152613bde8184613b40565b905092915050565b613bef816136e6565b82525050565b600082825260208201905092915050565b6000613c1182613771565b613c1b8185613bf5565b9350613c2b81856020860161378d565b613c34816137c0565b840191505092915050565b6000608083016000830151613c576000860182613749565b5060208301518482036020860152613c6f82826137d1565b91505060408301518482036040860152613c8982826137d1565b9150506060830151613c9e6060860182613749565b508091505092915050565b600060a083016000830151613cc16000860182613749565b5060208301518482036020860152613cd982826137d1565b91505060408301518482036040860152613cf382826137d1565b91505060608301518482036060860152613d0d82826137d1565b91505060808301518482036080860152613d2782826137d1565b9150508091505092915050565b600060e082019050613d49600083018a613be6565b613d566020830189613be6565b8181036040830152613d688188613c06565b90508181036060830152613d7c8187613c06565b9050613d8b6080830186613be6565b81810360a0830152613d9d8185613c3f565b905081810360c0830152613db18184613ca9565b905098975050505050505050565b613dc881613758565b82525050565b600060e083016000830151613de66000860182613749565b506020830151613df96020860182613749565b5060408301518482036040860152613e1182826137d1565b91505060608301518482036060860152613e2b82826137d1565b9150506080830151613e406080860182613749565b5060a083015184820360a0860152613e58828261380a565b91505060c083015184820360c0860152613e7282826138f2565b9150508091505092915050565b600060c083016000830151613e976000860182613749565b5060208301518482036020860152613eaf82826137d1565b9150506040830151613ec46040860182613749565b506060830151613ed76060860182613749565b5060808301518482036080860152613eef82826137d1565b91505060a083015184820360a0860152613f098282613a4b565b9150508091505092915050565b600060a082019050613f2b6000830188613be6565b613f386020830187613dbf565b8181036040830152613f4a8186613c06565b90508181036060830152613f5e8185613dce565b90508181036080830152613f728184613e7f565b90509695505050505050565b600081519050919050565b600082825260208201905092915050565b6000819050602082019050919050565b600060a083016000830151613fc26000860182613749565b506020830151613fd56020860182613762565b5060408301518482036040860152613fed82826137d1565b915050606083015184820360608601526140078282613949565b915050608083015184820360808601526140218282613aa9565b9150508091505092915050565b600061403a8383613faa565b905092915050565b6000602082019050919050565b600061405a82613f7e565b6140648185613f89565b93508360208202850161407685613f9a565b8060005b858110156140b25784840389528151614093858261402e565b945061409e83614042565b925060208a0199505060018101905061407a565b50829750879550505050505092915050565b600060208201905081810360008301526140de818461404f565b905092915050565b600080fd5b7f4e487b7100000000000000000000000000000000000000000000000000000000600052604160045260246000fd5b614123826137c0565b810181811067ffffffffffffffff82111715614142576141416140eb565b5b80604052505050565b60006141556136d2565b9050614161828261411a565b919050565b600067ffffffffffffffff821115614181576141806140eb565b5b602082029050602081019050919050565b600080fd5b600080fd5b600080fd5b6141aa81613758565b81146141b557600080fd5b50565b6000813590506141c7816141a1565b92915050565b600080fd5b600067ffffffffffffffff8211156141ed576141ec6140eb565b5b6141f6826137c0565b9050602081019050919050565b82818337600083830152505050565b6000614225614220846141d2565b61414b565b905082815260208101848484011115614241576142406141cd565b5b61424c848285614203565b509392505050565b600082601f830112614269576142686140e6565b5b8135614279848260208601614212565b91505092915050565b6000610120828403121561429957614298614197565b5b6142a461012061414b565b905060006142b484828501613707565b600083015250602082013567ffffffffffffffff8111156142d8576142d761419c565b5b6142e484828501614254565b602083015250604082013567ffffffffffffffff8111156143085761430761419c565b5b61431484828501614254565b604083015250606082013567ffffffffffffffff8111156143385761433761419c565b5b61434484828501614254565b606083015250608082013567ffffffffffffffff8111156143685761436761419c565b5b61437484828501614254565b60808301525060a061438884828501613707565b60a08301525060c061439c84828501613707565b60c08301525060e082013567ffffffffffffffff8111156143c0576143bf61419c565b5b6143cc84828501614254565b60e08301525061010082013567ffffffffffffffff8111156143f1576143f061419c565b5b6143fd84828501614254565b6101008301525092915050565b6000606082840312156144205761441f614197565b5b61442a606061414b565b9050600061443a84828501613707565b600083015250602082013567ffffffffffffffff81111561445e5761445d61419c565b5b61446a84828501614254565b602083015250604082013567ffffffffffffffff81111561448e5761448d61419c565b5b61449a84828501614254565b60408301525092915050565b600060e082840312156144bc576144bb614197565b5b6144c660e061414b565b905060006144d684828501613707565b60008301525060206144ea84828501613707565b602083015250604082013567ffffffffffffffff81111561450e5761450d61419c565b5b61451a84828501614254565b604083015250606082013567ffffffffffffffff81111561453e5761453d61419c565b5b61454a84828501614254565b606083015250608061455e84828501613707565b60808301525060a082013567ffffffffffffffff8111156145825761458161419c565b5b61458e84828501614282565b60a08301525060c082013567ffffffffffffffff8111156145b2576145b161419c565b5b6145be8482850161440a565b60c08301525092915050565b600067ffffffffffffffff8211156145e5576145e46140eb565b5b602082029050602081019050919050565b6000614609614604846145ca565b61414b565b9050808382526020820190506020840283018581111561462c5761462b614192565b5b835b8181101561465557806146418882613707565b84526020840193505060208101905061462e565b5050509392505050565b600082601f830112614674576146736140e6565b5b81356146848482602086016145f6565b91505092915050565b600060c082840312156146a3576146a2614197565b5b6146ad60c061414b565b905060006146bd84828501613707565b600083015250602082013567ffffffffffffffff8111156146e1576146e061419c565b5b6146ed84828501614254565b602083015250604061470184828501613707565b604083015250606061471584828501613707565b606083015250608082013567ffffffffffffffff8111156147395761473861419c565b5b61474584828501614254565b60808301525060a082013567ffffffffffffffff8111156147695761476861419c565b5b6147758482850161465f565b60a08301525092915050565b600060a0828403121561479757614796614197565b5b6147a160a061414b565b905060006147b184828501613707565b60008301525060206147c5848285016141b8565b602083015250604082013567ffffffffffffffff8111156147e9576147e861419c565b5b6147f584828501614254565b604083015250606082013567ffffffffffffffff8111156148195761481861419c565b5b614825848285016144a6565b606083015250608082013567ffffffffffffffff8111156148495761484861419c565b5b6148558482850161468d565b60808301525092915050565b600061487461486f84614166565b61414b565b9050808382526020820190506020840283018581111561489757614896614192565b5b835b818110156148de57803567ffffffffffffffff8111156148bc576148bb6140e6565b5b8086016148c98982614781565b85526020850194505050602081019050614899565b5050509392505050565b600082601f8301126148fd576148fc6140e6565b5b813561490d848260208601614861565b91505092915050565b6000806040838503121561492d5761492c6136dc565b5b600083013567ffffffffffffffff81111561494b5761494a6136e1565b5b614957858286016148e8565b925050602061496885828601613707565b9150509250929050565b600067ffffffffffffffff82111561498d5761498c6140eb565b5b602082029050602081019050919050565b6000608082840312156149b4576149b3614197565b5b6149be608061414b565b905060006149ce84828501613707565b600083015250602082013567ffffffffffffffff8111156149f2576149f161419c565b5b6149fe84828501614254565b602083015250604082013567ffffffffffffffff811115614a2257614a2161419c565b5b614a2e84828501614254565b6040830152506060614a4284828501613707565b60608301525092915050565b600060a08284031215614a6457614a63614197565b5b614a6e60a061414b565b90506000614a7e84828501613707565b600083015250602082013567ffffffffffffffff811115614aa257614aa161419c565b5b614aae84828501614254565b602083015250604082013567ffffffffffffffff811115614ad257614ad161419c565b5b614ade84828501614254565b604083015250606082013567ffffffffffffffff811115614b0257614b0161419c565b5b614b0e84828501614254565b606083015250608082013567ffffffffffffffff811115614b3257614b3161419c565b5b614b3e84828501614254565b60808301525092915050565b600060e08284031215614b6057614b5f614197565b5b614b6a60e061414b565b90506000614b7a84828501613707565b6000830152506020614b8e84828501613707565b602083015250604082013567ffffffffffffffff811115614bb257614bb161419c565b5b614bbe84828501614254565b604083015250606082013567ffffffffffffffff811115614be257614be161419c565b5b614bee84828501614254565b6060830152506080614c0284828501613707565b60808301525060a082013567ffffffffffffffff811115614c2657614c2561419c565b5b614c328482850161499e565b60a08301525060c082013567ffffffffffffffff811115614c5657614c5561419c565b5b614c6284828501614a4e565b60c08301525092915050565b6000614c81614c7c84614972565b61414b565b90508083825260208201905060208402830185811115614ca457614ca3614192565b5b835b81811015614ceb57803567ffffffffffffffff811115614cc957614cc86140e6565b5b808601614cd68982614b4a565b85526020850194505050602081019050614ca6565b5050509392505050565b600082601f830112614d0a57614d096140e6565b5b8135614d1a848260208601614c6e565b91505092915050565b60008060408385031215614d3a57614d396136dc565b5b6000614d4885828601613707565b925050602083013567ffffffffffffffff811115614d6957614d686136e1565b5b614d7585828601614cf5565b9150509250929050565b600081519050919050565b600082825260208201905092915050565b6000819050602082019050919050565b6000608083016000830151614dc36000860182613749565b5060208301518482036020860152614ddb82826137d1565b91505060408301518482036040860152614df582826137d1565b9150506060830151614e0a6060860182613749565b508091505092915050565b600060a083016000830151614e2d6000860182613749565b5060208301518482036020860152614e4582826137d1565b91505060408301518482036040860152614e5f82826137d1565b91505060608301518482036060860152614e7982826137d1565b91505060808301518482036080860152614e9382826137d1565b9150508091505092915050565b600060e083016000830151614eb86000860182613749565b506020830151614ecb6020860182613749565b5060408301518482036040860152614ee382826137d1565b91505060608301518482036060860152614efd82826137d1565b9150506080830151614f126080860182613749565b5060a083015184820360a0860152614f2a8282614dab565b91505060c083015184820360c0860152614f448282614e15565b9150508091505092915050565b6000614f5d8383614ea0565b905092915050565b6000602082019050919050565b6000614f7d82614d7f565b614f878185614d8a565b935083602082028501614f9985614d9b565b8060005b85811015614fd55784840389528151614fb68582614f51565b9450614fc183614f65565b925060208a01995050600181019050614f9d565b50829750879550505050505092915050565b600060208201905081810360008301526150018184614f72565b905092915050565b7f4e487b7100000000000000000000000000000000000000000000000000000000600052603260045260246000fd5b7f4e487b7100000000000000000000000000000000000000000000000000000000600052602260045260246000fd5b6000600282049050600182168061507f57607f821691505b6020821081141561509357615092615038565b5b50919050565b7f4e487b7100000000000000000000000000000000000000000000000000000000600052601160045260246000fd5b60006150d3826136e6565b91507fffffffffffffffffffffffffffffffffffffffffffffffffffffffffffffffff82141561510657615105615099565b5b60018201905091905056fea26469706673582212205be6a60b9f0c46ed822007dabbc370b37cda0def65f88a8f1c652c2b4eba27fd64736f6c634300080b0033",
  "immutableReferences": {},
  "source": "// SPDX-License-Identifier: MIT\r\npragma solidity >=0.4.22 <0.9.0;\r\nimport \"./Remplissage.sol\";\r\n\r\ncontract RetraitCol is Remplissage {\r\n    //*********************************************************************************/\r\n    //second app\r\n    //******************************************************************************/\r\n    Operation[] public operationagrs;\r\n    OperationTank0[] public operationTankR;\r\n\r\n    function RetraitOperationTank(\r\n        OperationTank0[] memory operationTank,\r\n        uint256 count\r\n    ) public returns (OperationTank0[] memory tt0) {\r\n        for (uint256 i = 0; i < count; i++) {\r\n            operationTankR.push(operationTank[i]);\r\n        }\r\n        return (operationTankR);\r\n    }\r\n\r\n    //get all operations\r\n\r\n    function getOperationTanks()\r\n        public\r\n        view\r\n        returns (OperationTank0[] memory result)\r\n    {\r\n        return operationTankR;\r\n    }\r\n\r\n    function getOperationbycode(uint256 code, Operation[] memory operation2)\r\n        public\r\n        returns (Operation[] memory operationtwo)\r\n    {\r\n        for (uint256 i = 0; i < operationTankR.length; i++) {\r\n            if (operationTankR[i].operation.code == code) {\r\n                for (uint256 j = 0;j < operationTankR[i].tank.codeTank.length;j++)\r\n                   {\r\n                    for (uint256 f = 0; f < operation2.length; f++) {\r\n                        if (\r\n                            operation2[f].code ==\r\n                            operationTankR[i].tank.codeTank[j]\r\n                        ) {\r\n                            operationagrs.push(operation2[f]);\r\n                        }\r\n                    }\r\n                }\r\n            }\r\n        }\r\n        return operationagrs;\r\n    }\r\n\r\n    function getOperationFromAgrsbycode(uint256 code)\r\n        public\r\n        view\r\n        returns (OperationTank0 memory operation)\r\n    {\r\n        for (uint256 i = 0; i < operationTankR.length; i++) {\r\n            if (operationTankR[i].operation.code == code) {\r\n                return operationTankR[i];\r\n            }\r\n        }\r\n    }\r\n}\r\n",
  "sourcePath": "C:\\Users\\ASUS\\Desktop\\pfe\\PFE_Project2022-Collecteur-\\PFE-FrontEnd\\contracts\\RetraitCol.sol",
  "compiler": {
    "name": "solc",
    "version": "0.8.11+commit.d7f03943.Emscripten.clang"
  },
  "schemaVersion": "3.4.5",
  "updatedAt": "2022-04-28T09:46:08.089Z",
  "networkType": "ethereum",
  "devdoc": {
    "kind": "dev",
    "methods": {},
    "version": 1
  },
  "userdoc": {
    "kind": "user",
    "methods": {},
    "version": 1
  }
}