{
  "contractName": "RetraitUsine",
  "abi": [
    {
      "inputs": [
        {
          "internalType": "uint256",
          "name": "",
          "type": "uint256"
        }
      ],
      "name": "operationTankR",
      "outputs": [
        {
          "internalType": "uint256",
          "name": "idOperation",
          "type": "uint256"
        },
        {
          "internalType": "uint256",
          "name": "poidsLait",
          "type": "uint256"
        },
        {
          "internalType": "string",
          "name": "dateOperation",
          "type": "string"
        },
        {
          "internalType": "string",
          "name": "typeOp",
          "type": "string"
        },
        {
          "internalType": "uint256",
          "name": "code",
          "type": "uint256"
        },
        {
          "internalType": "uint256",
          "name": "qtePrise",
          "type": "uint256"
        },
        {
          "components": [
            {
              "internalType": "uint256",
              "name": "idMag",
              "type": "uint256"
            },
            {
              "internalType": "string",
              "name": "nomMag",
              "type": "string"
            },
            {
              "internalType": "string",
              "name": "adresse",
              "type": "string"
            },
            {
              "internalType": "string",
              "name": "ville",
              "type": "string"
            }
          ],
          "internalType": "struct Remplissage.Magasin",
          "name": "magasin",
          "type": "tuple"
        },
        {
          "components": [
            {
              "internalType": "uint256",
              "name": "idProduit",
              "type": "uint256"
            },
            {
              "internalType": "string",
              "name": "intitule",
              "type": "string"
            },
            {
              "internalType": "string",
              "name": "libelle",
              "type": "string"
            },
            {
              "internalType": "uint256",
              "name": "qte",
              "type": "uint256"
            }
          ],
          "internalType": "struct Remplissage.Produit",
          "name": "produit",
          "type": "tuple"
        }
      ],
      "stateMutability": "view",
      "type": "function",
      "constant": true
    },
    {
      "inputs": [
        {
          "components": [
            {
              "internalType": "uint256",
              "name": "idOperation",
              "type": "uint256"
            },
            {
              "internalType": "uint256",
              "name": "poidsLait",
              "type": "uint256"
            },
            {
              "internalType": "string",
              "name": "dateOperation",
              "type": "string"
            },
            {
              "internalType": "string",
              "name": "typeOp",
              "type": "string"
            },
            {
              "internalType": "uint256",
              "name": "code",
              "type": "uint256"
            },
            {
              "internalType": "uint256",
              "name": "qtePrise",
              "type": "uint256"
            },
            {
              "components": [
                {
                  "internalType": "uint256",
                  "name": "idMag",
                  "type": "uint256"
                },
                {
                  "internalType": "string",
                  "name": "nomMag",
                  "type": "string"
                },
                {
                  "internalType": "string",
                  "name": "adresse",
                  "type": "string"
                },
                {
                  "internalType": "string",
                  "name": "ville",
                  "type": "string"
                }
              ],
              "internalType": "struct Remplissage.Magasin",
              "name": "magasin",
              "type": "tuple"
            },
            {
              "components": [
                {
                  "internalType": "uint256",
                  "name": "idProduit",
                  "type": "uint256"
                },
                {
                  "internalType": "string",
                  "name": "intitule",
                  "type": "string"
                },
                {
                  "internalType": "string",
                  "name": "libelle",
                  "type": "string"
                },
                {
                  "internalType": "uint256",
                  "name": "qte",
                  "type": "uint256"
                }
              ],
              "internalType": "struct Remplissage.Produit",
              "name": "produit",
              "type": "tuple"
            }
          ],
          "internalType": "struct Remplissage.Operation02",
          "name": "operationTank",
          "type": "tuple"
        }
      ],
      "name": "RetraitOperationTank",
      "outputs": [
        {
          "components": [
            {
              "internalType": "uint256",
              "name": "idOperation",
              "type": "uint256"
            },
            {
              "internalType": "uint256",
              "name": "poidsLait",
              "type": "uint256"
            },
            {
              "internalType": "string",
              "name": "dateOperation",
              "type": "string"
            },
            {
              "internalType": "string",
              "name": "typeOp",
              "type": "string"
            },
            {
              "internalType": "uint256",
              "name": "code",
              "type": "uint256"
            },
            {
              "internalType": "uint256",
              "name": "qtePrise",
              "type": "uint256"
            },
            {
              "components": [
                {
                  "internalType": "uint256",
                  "name": "idMag",
                  "type": "uint256"
                },
                {
                  "internalType": "string",
                  "name": "nomMag",
                  "type": "string"
                },
                {
                  "internalType": "string",
                  "name": "adresse",
                  "type": "string"
                },
                {
                  "internalType": "string",
                  "name": "ville",
                  "type": "string"
                }
              ],
              "internalType": "struct Remplissage.Magasin",
              "name": "magasin",
              "type": "tuple"
            },
            {
              "components": [
                {
                  "internalType": "uint256",
                  "name": "idProduit",
                  "type": "uint256"
                },
                {
                  "internalType": "string",
                  "name": "intitule",
                  "type": "string"
                },
                {
                  "internalType": "string",
                  "name": "libelle",
                  "type": "string"
                },
                {
                  "internalType": "uint256",
                  "name": "qte",
                  "type": "uint256"
                }
              ],
              "internalType": "struct Remplissage.Produit",
              "name": "produit",
              "type": "tuple"
            }
          ],
          "internalType": "struct Remplissage.Operation02[]",
          "name": "tt0",
          "type": "tuple[]"
        }
      ],
      "stateMutability": "nonpayable",
      "type": "function"
    },
    {
      "inputs": [],
      "name": "getOperationTanks",
      "outputs": [
        {
          "components": [
            {
              "internalType": "uint256",
              "name": "idOperation",
              "type": "uint256"
            },
            {
              "internalType": "uint256",
              "name": "poidsLait",
              "type": "uint256"
            },
            {
              "internalType": "string",
              "name": "dateOperation",
              "type": "string"
            },
            {
              "internalType": "string",
              "name": "typeOp",
              "type": "string"
            },
            {
              "internalType": "uint256",
              "name": "code",
              "type": "uint256"
            },
            {
              "internalType": "uint256",
              "name": "qtePrise",
              "type": "uint256"
            },
            {
              "components": [
                {
                  "internalType": "uint256",
                  "name": "idMag",
                  "type": "uint256"
                },
                {
                  "internalType": "string",
                  "name": "nomMag",
                  "type": "string"
                },
                {
                  "internalType": "string",
                  "name": "adresse",
                  "type": "string"
                },
                {
                  "internalType": "string",
                  "name": "ville",
                  "type": "string"
                }
              ],
              "internalType": "struct Remplissage.Magasin",
              "name": "magasin",
              "type": "tuple"
            },
            {
              "components": [
                {
                  "internalType": "uint256",
                  "name": "idProduit",
                  "type": "uint256"
                },
                {
                  "internalType": "string",
                  "name": "intitule",
                  "type": "string"
                },
                {
                  "internalType": "string",
                  "name": "libelle",
                  "type": "string"
                },
                {
                  "internalType": "uint256",
                  "name": "qte",
                  "type": "uint256"
                }
              ],
              "internalType": "struct Remplissage.Produit",
              "name": "produit",
              "type": "tuple"
            }
          ],
          "internalType": "struct Remplissage.Operation02[]",
          "name": "result",
          "type": "tuple[]"
        }
      ],
      "stateMutability": "view",
      "type": "function",
      "constant": true
    }
  ],
  "bytecode": "0x608060405234801561001057600080fd5b50611b17806100206000396000f3fe608060405234801561001057600080fd5b50600436106100415760003560e01c8063a96fe5f014610046578063bbf9f3131461007d578063c9c28e0f146100ad575b600080fd5b610060600480360381019061005b919061111b565b6100cb565b604051610074989796959493929190611324565b60405180910390f35b610097600480360381019061009291906117b3565b61053f565b6040516100a49190611a5e565b60405180910390f35b6100b5610b62565b6040516100c29190611a5e565b60405180910390f35b600081815481106100db57600080fd5b90600052602060002090600e020160009150905080600001549080600101549080600201805461010a90611aaf565b80601f016020809104026020016040519081016040528092919081815260200182805461013690611aaf565b80156101835780601f1061015857610100808354040283529160200191610183565b820191906000526020600020905b81548152906001019060200180831161016657829003601f168201915b50505050509080600301805461019890611aaf565b80601f01602080910402602001604051908101604052809291908181526020018280546101c490611aaf565b80156102115780601f106101e657610100808354040283529160200191610211565b820191906000526020600020905b8154815290600101906020018083116101f457829003601f168201915b505050505090806004015490806005015490806006016040518060800160405290816000820154815260200160018201805461024c90611aaf565b80601f016020809104026020016040519081016040528092919081815260200182805461027890611aaf565b80156102c55780601f1061029a576101008083540402835291602001916102c5565b820191906000526020600020905b8154815290600101906020018083116102a857829003601f168201915b505050505081526020016002820180546102de90611aaf565b80601f016020809104026020016040519081016040528092919081815260200182805461030a90611aaf565b80156103575780601f1061032c57610100808354040283529160200191610357565b820191906000526020600020905b81548152906001019060200180831161033a57829003601f168201915b5050505050815260200160038201805461037090611aaf565b80601f016020809104026020016040519081016040528092919081815260200182805461039c90611aaf565b80156103e95780601f106103be576101008083540402835291602001916103e9565b820191906000526020600020905b8154815290600101906020018083116103cc57829003601f168201915b5050505050815250509080600a016040518060800160405290816000820154815260200160018201805461041c90611aaf565b80601f016020809104026020016040519081016040528092919081815260200182805461044890611aaf565b80156104955780601f1061046a57610100808354040283529160200191610495565b820191906000526020600020905b81548152906001019060200180831161047857829003601f168201915b505050505081526020016002820180546104ae90611aaf565b80601f01602080910402602001604051908101604052809291908181526020018280546104da90611aaf565b80156105275780601f106104fc57610100808354040283529160200191610527565b820191906000526020600020905b81548152906001019060200180831161050a57829003601f168201915b50505050508152602001600382015481525050905088565b606060008290806001815401808255809150506001900390600052602060002090600e02016000909190919091506000820151816000015560208201518160010155604082015181600201908051906020019061059d92919061102e565b5060608201518160030190805190602001906105ba92919061102e565b506080820151816004015560a0820151816005015560c0820151816006016000820151816000015560208201518160010190805190602001906105fe92919061102e565b50604082015181600201908051906020019061061b92919061102e565b50606082015181600301908051906020019061063892919061102e565b50505060e082015181600a0160008201518160000155602082015181600101908051906020019061066a92919061102e565b50604082015181600201908051906020019061068792919061102e565b5060608201518160030155505050506000805480602002602001604051908101604052809291908181526020016000905b82821015610b5757838290600052602060002090600e020160405180610100016040529081600082015481526020016001820154815260200160028201805461070090611aaf565b80601f016020809104026020016040519081016040528092919081815260200182805461072c90611aaf565b80156107795780601f1061074e57610100808354040283529160200191610779565b820191906000526020600020905b81548152906001019060200180831161075c57829003601f168201915b5050505050815260200160038201805461079290611aaf565b80601f01602080910402602001604051908101604052809291908181526020018280546107be90611aaf565b801561080b5780601f106107e05761010080835404028352916020019161080b565b820191906000526020600020905b8154815290600101906020018083116107ee57829003601f168201915b505050505081526020016004820154815260200160058201548152602001600682016040518060800160405290816000820154815260200160018201805461085290611aaf565b80601f016020809104026020016040519081016040528092919081815260200182805461087e90611aaf565b80156108cb5780601f106108a0576101008083540402835291602001916108cb565b820191906000526020600020905b8154815290600101906020018083116108ae57829003601f168201915b505050505081526020016002820180546108e490611aaf565b80601f016020809104026020016040519081016040528092919081815260200182805461091090611aaf565b801561095d5780601f106109325761010080835404028352916020019161095d565b820191906000526020600020905b81548152906001019060200180831161094057829003601f168201915b5050505050815260200160038201805461097690611aaf565b80601f01602080910402602001604051908101604052809291908181526020018280546109a290611aaf565b80156109ef5780601f106109c4576101008083540402835291602001916109ef565b820191906000526020600020905b8154815290600101906020018083116109d257829003601f168201915b5050505050815250508152602001600a820160405180608001604052908160008201548152602001600182018054610a2690611aaf565b80601f0160208091040260200160405190810160405280929190818152602001828054610a5290611aaf565b8015610a9f5780601f10610a7457610100808354040283529160200191610a9f565b820191906000526020600020905b815481529060010190602001808311610a8257829003601f168201915b50505050508152602001600282018054610ab890611aaf565b80601f0160208091040260200160405190810160405280929190818152602001828054610ae490611aaf565b8015610b315780601f10610b0657610100808354040283529160200191610b31565b820191906000526020600020905b815481529060010190602001808311610b1457829003601f168201915b5050505050815260200160038201548152505081525050815260200190600101906106b8565b505050509050919050565b60606000805480602002602001604051908101604052809291908181526020016000905b8282101561102557838290600052602060002090600e0201604051806101000160405290816000820154815260200160018201548152602001600282018054610bce90611aaf565b80601f0160208091040260200160405190810160405280929190818152602001828054610bfa90611aaf565b8015610c475780601f10610c1c57610100808354040283529160200191610c47565b820191906000526020600020905b815481529060010190602001808311610c2a57829003601f168201915b50505050508152602001600382018054610c6090611aaf565b80601f0160208091040260200160405190810160405280929190818152602001828054610c8c90611aaf565b8015610cd95780601f10610cae57610100808354040283529160200191610cd9565b820191906000526020600020905b815481529060010190602001808311610cbc57829003601f168201915b5050505050815260200160048201548152602001600582015481526020016006820160405180608001604052908160008201548152602001600182018054610d2090611aaf565b80601f0160208091040260200160405190810160405280929190818152602001828054610d4c90611aaf565b8015610d995780601f10610d6e57610100808354040283529160200191610d99565b820191906000526020600020905b815481529060010190602001808311610d7c57829003601f168201915b50505050508152602001600282018054610db290611aaf565b80601f0160208091040260200160405190810160405280929190818152602001828054610dde90611aaf565b8015610e2b5780601f10610e0057610100808354040283529160200191610e2b565b820191906000526020600020905b815481529060010190602001808311610e0e57829003601f168201915b50505050508152602001600382018054610e4490611aaf565b80601f0160208091040260200160405190810160405280929190818152602001828054610e7090611aaf565b8015610ebd5780601f10610e9257610100808354040283529160200191610ebd565b820191906000526020600020905b815481529060010190602001808311610ea057829003601f168201915b5050505050815250508152602001600a820160405180608001604052908160008201548152602001600182018054610ef490611aaf565b80601f0160208091040260200160405190810160405280929190818152602001828054610f2090611aaf565b8015610f6d5780601f10610f4257610100808354040283529160200191610f6d565b820191906000526020600020905b815481529060010190602001808311610f5057829003601f168201915b50505050508152602001600282018054610f8690611aaf565b80601f0160208091040260200160405190810160405280929190818152602001828054610fb290611aaf565b8015610fff5780601f10610fd457610100808354040283529160200191610fff565b820191906000526020600020905b815481529060010190602001808311610fe257829003601f168201915b505050505081526020016003820154815250508152505081526020019060010190610b86565b50505050905090565b82805461103a90611aaf565b90600052602060002090601f01602090048101928261105c57600085556110a3565b82601f1061107557805160ff19168380011785556110a3565b828001600101855582156110a3579182015b828111156110a2578251825591602001919060010190611087565b5b5090506110b091906110b4565b5090565b5b808211156110cd5760008160009055506001016110b5565b5090565b6000604051905090565b600080fd5b600080fd5b6000819050919050565b6110f8816110e5565b811461110357600080fd5b50565b600081359050611115816110ef565b92915050565b600060208284031215611131576111306110db565b5b600061113f84828501611106565b91505092915050565b611151816110e5565b82525050565b600081519050919050565b600082825260208201905092915050565b60005b83811015611191578082015181840152602081019050611176565b838111156111a0576000848401525b50505050565b6000601f19601f8301169050919050565b60006111c282611157565b6111cc8185611162565b93506111dc818560208601611173565b6111e5816111a6565b840191505092915050565b6111f9816110e5565b82525050565b600082825260208201905092915050565b600061121b82611157565b61122581856111ff565b9350611235818560208601611173565b61123e816111a6565b840191505092915050565b600060808301600083015161126160008601826111f0565b50602083015184820360208601526112798282611210565b915050604083015184820360408601526112938282611210565b915050606083015184820360608601526112ad8282611210565b9150508091505092915050565b60006080830160008301516112d260008601826111f0565b50602083015184820360208601526112ea8282611210565b915050604083015184820360408601526113048282611210565b915050606083015161131960608601826111f0565b508091505092915050565b60006101008201905061133a600083018b611148565b611347602083018a611148565b818103604083015261135981896111b7565b9050818103606083015261136d81886111b7565b905061137c6080830187611148565b61138960a0830186611148565b81810360c083015261139b8185611249565b905081810360e08301526113af81846112ba565b90509998505050505050505050565b600080fd5b7f4e487b7100000000000000000000000000000000000000000000000000000000600052604160045260246000fd5b6113fb826111a6565b810181811067ffffffffffffffff8211171561141a576114196113c3565b5b80604052505050565b600061142d6110d1565b905061143982826113f2565b919050565b600080fd5b600080fd5b600080fd5b600067ffffffffffffffff821115611468576114676113c3565b5b611471826111a6565b9050602081019050919050565b82818337600083830152505050565b60006114a061149b8461144d565b611423565b9050828152602081018484840111156114bc576114bb611448565b5b6114c784828561147e565b509392505050565b600082601f8301126114e4576114e3611443565b5b81356114f484826020860161148d565b91505092915050565b600060808284031215611513576115126113be565b5b61151d6080611423565b9050600061152d84828501611106565b600083015250602082013567ffffffffffffffff8111156115515761155061143e565b5b61155d848285016114cf565b602083015250604082013567ffffffffffffffff8111156115815761158061143e565b5b61158d848285016114cf565b604083015250606082013567ffffffffffffffff8111156115b1576115b061143e565b5b6115bd848285016114cf565b60608301525092915050565b6000608082840312156115df576115de6113be565b5b6115e96080611423565b905060006115f984828501611106565b600083015250602082013567ffffffffffffffff81111561161d5761161c61143e565b5b611629848285016114cf565b602083015250604082013567ffffffffffffffff81111561164d5761164c61143e565b5b611659848285016114cf565b604083015250606061166d84828501611106565b60608301525092915050565b600061010082840312156116905761168f6113be565b5b61169b610100611423565b905060006116ab84828501611106565b60008301525060206116bf84828501611106565b602083015250604082013567ffffffffffffffff8111156116e3576116e261143e565b5b6116ef848285016114cf565b604083015250606082013567ffffffffffffffff8111156117135761171261143e565b5b61171f848285016114cf565b606083015250608061173384828501611106565b60808301525060a061174784828501611106565b60a08301525060c082013567ffffffffffffffff81111561176b5761176a61143e565b5b611777848285016114fd565b60c08301525060e082013567ffffffffffffffff81111561179b5761179a61143e565b5b6117a7848285016115c9565b60e08301525092915050565b6000602082840312156117c9576117c86110db565b5b600082013567ffffffffffffffff8111156117e7576117e66110e0565b5b6117f384828501611679565b91505092915050565b600081519050919050565b600082825260208201905092915050565b6000819050602082019050919050565b600060808301600083015161184060008601826111f0565b50602083015184820360208601526118588282611210565b915050604083015184820360408601526118728282611210565b9150506060830151848203606086015261188c8282611210565b9150508091505092915050565b60006080830160008301516118b160008601826111f0565b50602083015184820360208601526118c98282611210565b915050604083015184820360408601526118e38282611210565b91505060608301516118f860608601826111f0565b508091505092915050565b60006101008301600083015161191c60008601826111f0565b50602083015161192f60208601826111f0565b50604083015184820360408601526119478282611210565b915050606083015184820360608601526119618282611210565b915050608083015161197660808601826111f0565b5060a083015161198960a08601826111f0565b5060c083015184820360c08601526119a18282611828565b91505060e083015184820360e08601526119bb8282611899565b9150508091505092915050565b60006119d48383611903565b905092915050565b6000602082019050919050565b60006119f4826117fc565b6119fe8185611807565b935083602082028501611a1085611818565b8060005b85811015611a4c5784840389528151611a2d85826119c8565b9450611a38836119dc565b925060208a01995050600181019050611a14565b50829750879550505050505092915050565b60006020820190508181036000830152611a7881846119e9565b905092915050565b7f4e487b7100000000000000000000000000000000000000000000000000000000600052602260045260246000fd5b60006002820490506001821680611ac757607f821691505b60208210811415611adb57611ada611a80565b5b5091905056fea2646970667358221220d0e8b07c61eae1a29808d36e45ae228af1653fba8087eba8efd76eaac5057af464736f6c634300080b0033",
  "immutableReferences": {},
  "source": "// SPDX-License-Identifier: MIT\r\npragma solidity >=0.4.22 <0.9.0;\r\nimport \"./Remplissage.sol\";\r\n\r\ncontract RetraitUsine is Remplissage {\r\n    //*********************************************************************************/\r\n    //second app\r\n    //******************************************************************************/\r\n\r\n    Operation02[] public operationTankR;\r\n\r\n    function RetraitOperationTank(Operation02 memory operationTank)\r\n        public\r\n        returns (Operation02[] memory tt0)\r\n    {\r\n        operationTankR.push(operationTank);\r\n\r\n        return (operationTankR);\r\n    }\r\n\r\n    //get all operations\r\n\r\n    function getOperationTanks()\r\n        public\r\n        view\r\n        returns (Operation02[] memory result)\r\n    {\r\n        return operationTankR;\r\n    }\r\n}\r\n",
  "sourcePath": "C:\\Users\\ASUS\\Desktop\\pfe\\PFE_Project2022-Collecteur-\\PFE-FrontEnd\\contracts\\RetraitUsine.sol",
  "compiler": {
    "name": "solc",
    "version": "0.8.11+commit.d7f03943.Emscripten.clang"
  },
  "schemaVersion": "3.4.5",
  "updatedAt": "2022-04-28T09:46:09.558Z",
  "networkType": "ethereum",
  "devdoc": {
    "kind": "dev",
    "methods": {},
    "version": 1
  },
  "userdoc": {
    "kind": "user",
    "methods": {},
    "version": 1
  }
}