{
  "contractName": "RetraitCol",
  "abi": [
    {
      "inputs": [
        {
          "internalType": "uint256",
          "name": "",
          "type": "uint256"
        }
      ],
      "name": "nbreOP",
      "outputs": [
        {
          "internalType": "uint256",
          "name": "",
          "type": "uint256"
        }
      ],
      "stateMutability": "view",
      "type": "function",
      "constant": true
    },
    {
      "inputs": [
        {
          "internalType": "uint256",
          "name": "",
          "type": "uint256"
        }
      ],
      "name": "operationTankR",
      "outputs": [
        {
          "internalType": "uint256",
          "name": "idOpTank",
          "type": "uint256"
        },
        {
          "internalType": "int256",
          "name": "qteInsereTank",
          "type": "int256"
        },
        {
          "internalType": "string",
          "name": "date",
          "type": "string"
        },
        {
          "components": [
            {
              "internalType": "uint256",
              "name": "idOperation",
              "type": "uint256"
            },
            {
              "internalType": "uint256",
              "name": "poidsLait",
              "type": "uint256"
            },
            {
              "internalType": "string",
              "name": "dateOperation",
              "type": "string"
            },
            {
              "internalType": "string",
              "name": "typeOp",
              "type": "string"
            },
            {
              "internalType": "uint256",
              "name": "code",
              "type": "uint256"
            },
            {
              "internalType": "uint256[]",
              "name": "codeRemplissage",
              "type": "uint256[]"
            },
            {
              "components": [
                {
                  "internalType": "uint256",
                  "name": "idChef",
                  "type": "uint256"
                },
                {
                  "internalType": "string",
                  "name": "nom",
                  "type": "string"
                },
                {
                  "internalType": "string",
                  "name": "prenom",
                  "type": "string"
                },
                {
                  "internalType": "string",
                  "name": "email",
                  "type": "string"
                },
                {
                  "internalType": "string",
                  "name": "adress",
                  "type": "string"
                },
                {
                  "internalType": "uint256",
                  "name": "tel",
                  "type": "uint256"
                },
                {
                  "internalType": "uint256",
                  "name": "cin",
                  "type": "uint256"
                },
                {
                  "internalType": "string",
                  "name": "username",
                  "type": "string"
                },
                {
                  "internalType": "string",
                  "name": "password",
                  "type": "string"
                },
                {
                  "internalType": "string",
                  "name": "centreNom",
                  "type": "string"
                }
              ],
              "internalType": "struct Remplissage.Chef",
              "name": "chef",
              "type": "tuple"
            },
            {
              "components": [
                {
                  "internalType": "uint256",
                  "name": "idUsine",
                  "type": "uint256"
                },
                {
                  "internalType": "string",
                  "name": "nomUsine",
                  "type": "string"
                },
                {
                  "internalType": "string",
                  "name": "adresse",
                  "type": "string"
                }
              ],
              "internalType": "struct Remplissage.Usine",
              "name": "usine",
              "type": "tuple"
            }
          ],
          "internalType": "struct Remplissage.Operation01",
          "name": "operation",
          "type": "tuple"
        },
        {
          "components": [
            {
              "internalType": "uint256",
              "name": "idTank",
              "type": "uint256"
            },
            {
              "internalType": "string",
              "name": "matricule",
              "type": "string"
            },
            {
              "internalType": "uint256",
              "name": "poidVide",
              "type": "uint256"
            },
            {
              "internalType": "uint256",
              "name": "poidActuel",
              "type": "uint256"
            },
            {
              "internalType": "string",
              "name": "etat",
              "type": "string"
            },
            {
              "internalType": "uint256[]",
              "name": "codeTank",
              "type": "uint256[]"
            }
          ],
          "internalType": "struct Remplissage.Tank",
          "name": "tank",
          "type": "tuple"
        }
      ],
      "stateMutability": "view",
      "type": "function",
      "constant": true
    },
    {
      "inputs": [
        {
          "internalType": "uint256",
          "name": "",
          "type": "uint256"
        }
      ],
      "name": "operationagrs",
      "outputs": [
        {
          "internalType": "uint256",
          "name": "idOperation",
          "type": "uint256"
        },
        {
          "internalType": "uint256",
          "name": "code",
          "type": "uint256"
        },
        {
          "internalType": "string",
          "name": "dateOperation",
          "type": "string"
        },
        {
          "internalType": "string",
          "name": "typeOp",
          "type": "string"
        },
        {
          "internalType": "uint256",
          "name": "poidsLait",
          "type": "uint256"
        },
        {
          "components": [
            {
              "internalType": "uint256",
              "name": "idAgriculteur",
              "type": "uint256"
            },
            {
              "internalType": "string",
              "name": "nom",
              "type": "string"
            },
            {
              "internalType": "string",
              "name": "prenom",
              "type": "string"
            },
            {
              "internalType": "string",
              "name": "username",
              "type": "string"
            },
            {
              "internalType": "string",
              "name": "password",
              "type": "string"
            },
            {
              "internalType": "string",
              "name": "adress",
              "type": "string"
            }
          ],
          "internalType": "struct Remplissage.Agriculteur",
          "name": "agriculteur",
          "type": "tuple"
        },
        {
          "components": [
            {
              "internalType": "uint256",
              "name": "idCollecteur",
              "type": "uint256"
            },
            {
              "internalType": "string",
              "name": "nomCollecteur",
              "type": "string"
            },
            {
              "internalType": "string",
              "name": "matricule",
              "type": "string"
            },
            {
              "internalType": "string",
              "name": "adresse",
              "type": "string"
            },
            {
              "internalType": "uint256",
              "name": "tel",
              "type": "uint256"
            }
          ],
          "internalType": "struct Remplissage.Collecteur",
          "name": "collecteur",
          "type": "tuple"
        }
      ],
      "stateMutability": "view",
      "type": "function",
      "constant": true
    },
    {
      "inputs": [
        {
          "components": [
            {
              "internalType": "uint256",
              "name": "idOpTank",
              "type": "uint256"
            },
            {
              "internalType": "int256",
              "name": "qteInsereTank",
              "type": "int256"
            },
            {
              "internalType": "string",
              "name": "date",
              "type": "string"
            },
            {
              "components": [
                {
                  "internalType": "uint256",
                  "name": "idOperation",
                  "type": "uint256"
                },
                {
                  "internalType": "uint256",
                  "name": "poidsLait",
                  "type": "uint256"
                },
                {
                  "internalType": "string",
                  "name": "dateOperation",
                  "type": "string"
                },
                {
                  "internalType": "string",
                  "name": "typeOp",
                  "type": "string"
                },
                {
                  "internalType": "uint256",
                  "name": "code",
                  "type": "uint256"
                },
                {
                  "internalType": "uint256[]",
                  "name": "codeRemplissage",
                  "type": "uint256[]"
                },
                {
                  "components": [
                    {
                      "internalType": "uint256",
                      "name": "idChef",
                      "type": "uint256"
                    },
                    {
                      "internalType": "string",
                      "name": "nom",
                      "type": "string"
                    },
                    {
                      "internalType": "string",
                      "name": "prenom",
                      "type": "string"
                    },
                    {
                      "internalType": "string",
                      "name": "email",
                      "type": "string"
                    },
                    {
                      "internalType": "string",
                      "name": "adress",
                      "type": "string"
                    },
                    {
                      "internalType": "uint256",
                      "name": "tel",
                      "type": "uint256"
                    },
                    {
                      "internalType": "uint256",
                      "name": "cin",
                      "type": "uint256"
                    },
                    {
                      "internalType": "string",
                      "name": "username",
                      "type": "string"
                    },
                    {
                      "internalType": "string",
                      "name": "password",
                      "type": "string"
                    },
                    {
                      "internalType": "string",
                      "name": "centreNom",
                      "type": "string"
                    }
                  ],
                  "internalType": "struct Remplissage.Chef",
                  "name": "chef",
                  "type": "tuple"
                },
                {
                  "components": [
                    {
                      "internalType": "uint256",
                      "name": "idUsine",
                      "type": "uint256"
                    },
                    {
                      "internalType": "string",
                      "name": "nomUsine",
                      "type": "string"
                    },
                    {
                      "internalType": "string",
                      "name": "adresse",
                      "type": "string"
                    }
                  ],
                  "internalType": "struct Remplissage.Usine",
                  "name": "usine",
                  "type": "tuple"
                }
              ],
              "internalType": "struct Remplissage.Operation01",
              "name": "operation",
              "type": "tuple"
            },
            {
              "components": [
                {
                  "internalType": "uint256",
                  "name": "idTank",
                  "type": "uint256"
                },
                {
                  "internalType": "string",
                  "name": "matricule",
                  "type": "string"
                },
                {
                  "internalType": "uint256",
                  "name": "poidVide",
                  "type": "uint256"
                },
                {
                  "internalType": "uint256",
                  "name": "poidActuel",
                  "type": "uint256"
                },
                {
                  "internalType": "string",
                  "name": "etat",
                  "type": "string"
                },
                {
                  "internalType": "uint256[]",
                  "name": "codeTank",
                  "type": "uint256[]"
                }
              ],
              "internalType": "struct Remplissage.Tank",
              "name": "tank",
              "type": "tuple"
            }
          ],
          "internalType": "struct Remplissage.OperationTank0[]",
          "name": "operationTank",
          "type": "tuple[]"
        },
        {
          "internalType": "uint256",
          "name": "count",
          "type": "uint256"
        }
      ],
      "name": "RetraitOperationTank",
      "outputs": [
        {
          "components": [
            {
              "internalType": "uint256",
              "name": "idOpTank",
              "type": "uint256"
            },
            {
              "internalType": "int256",
              "name": "qteInsereTank",
              "type": "int256"
            },
            {
              "internalType": "string",
              "name": "date",
              "type": "string"
            },
            {
              "components": [
                {
                  "internalType": "uint256",
                  "name": "idOperation",
                  "type": "uint256"
                },
                {
                  "internalType": "uint256",
                  "name": "poidsLait",
                  "type": "uint256"
                },
                {
                  "internalType": "string",
                  "name": "dateOperation",
                  "type": "string"
                },
                {
                  "internalType": "string",
                  "name": "typeOp",
                  "type": "string"
                },
                {
                  "internalType": "uint256",
                  "name": "code",
                  "type": "uint256"
                },
                {
                  "internalType": "uint256[]",
                  "name": "codeRemplissage",
                  "type": "uint256[]"
                },
                {
                  "components": [
                    {
                      "internalType": "uint256",
                      "name": "idChef",
                      "type": "uint256"
                    },
                    {
                      "internalType": "string",
                      "name": "nom",
                      "type": "string"
                    },
                    {
                      "internalType": "string",
                      "name": "prenom",
                      "type": "string"
                    },
                    {
                      "internalType": "string",
                      "name": "email",
                      "type": "string"
                    },
                    {
                      "internalType": "string",
                      "name": "adress",
                      "type": "string"
                    },
                    {
                      "internalType": "uint256",
                      "name": "tel",
                      "type": "uint256"
                    },
                    {
                      "internalType": "uint256",
                      "name": "cin",
                      "type": "uint256"
                    },
                    {
                      "internalType": "string",
                      "name": "username",
                      "type": "string"
                    },
                    {
                      "internalType": "string",
                      "name": "password",
                      "type": "string"
                    },
                    {
                      "internalType": "string",
                      "name": "centreNom",
                      "type": "string"
                    }
                  ],
                  "internalType": "struct Remplissage.Chef",
                  "name": "chef",
                  "type": "tuple"
                },
                {
                  "components": [
                    {
                      "internalType": "uint256",
                      "name": "idUsine",
                      "type": "uint256"
                    },
                    {
                      "internalType": "string",
                      "name": "nomUsine",
                      "type": "string"
                    },
                    {
                      "internalType": "string",
                      "name": "adresse",
                      "type": "string"
                    }
                  ],
                  "internalType": "struct Remplissage.Usine",
                  "name": "usine",
                  "type": "tuple"
                }
              ],
              "internalType": "struct Remplissage.Operation01",
              "name": "operation",
              "type": "tuple"
            },
            {
              "components": [
                {
                  "internalType": "uint256",
                  "name": "idTank",
                  "type": "uint256"
                },
                {
                  "internalType": "string",
                  "name": "matricule",
                  "type": "string"
                },
                {
                  "internalType": "uint256",
                  "name": "poidVide",
                  "type": "uint256"
                },
                {
                  "internalType": "uint256",
                  "name": "poidActuel",
                  "type": "uint256"
                },
                {
                  "internalType": "string",
                  "name": "etat",
                  "type": "string"
                },
                {
                  "internalType": "uint256[]",
                  "name": "codeTank",
                  "type": "uint256[]"
                }
              ],
              "internalType": "struct Remplissage.Tank",
              "name": "tank",
              "type": "tuple"
            }
          ],
          "internalType": "struct Remplissage.OperationTank0[]",
          "name": "tt0",
          "type": "tuple[]"
        }
      ],
      "stateMutability": "nonpayable",
      "type": "function"
    },
    {
      "inputs": [],
      "name": "getOperationNumbers",
      "outputs": [
        {
          "internalType": "uint256[]",
          "name": "result",
          "type": "uint256[]"
        }
      ],
      "stateMutability": "view",
      "type": "function",
      "constant": true
    },
    {
      "inputs": [],
      "name": "getOperationTanks",
      "outputs": [
        {
          "components": [
            {
              "internalType": "uint256",
              "name": "idOpTank",
              "type": "uint256"
            },
            {
              "internalType": "int256",
              "name": "qteInsereTank",
              "type": "int256"
            },
            {
              "internalType": "string",
              "name": "date",
              "type": "string"
            },
            {
              "components": [
                {
                  "internalType": "uint256",
                  "name": "idOperation",
                  "type": "uint256"
                },
                {
                  "internalType": "uint256",
                  "name": "poidsLait",
                  "type": "uint256"
                },
                {
                  "internalType": "string",
                  "name": "dateOperation",
                  "type": "string"
                },
                {
                  "internalType": "string",
                  "name": "typeOp",
                  "type": "string"
                },
                {
                  "internalType": "uint256",
                  "name": "code",
                  "type": "uint256"
                },
                {
                  "internalType": "uint256[]",
                  "name": "codeRemplissage",
                  "type": "uint256[]"
                },
                {
                  "components": [
                    {
                      "internalType": "uint256",
                      "name": "idChef",
                      "type": "uint256"
                    },
                    {
                      "internalType": "string",
                      "name": "nom",
                      "type": "string"
                    },
                    {
                      "internalType": "string",
                      "name": "prenom",
                      "type": "string"
                    },
                    {
                      "internalType": "string",
                      "name": "email",
                      "type": "string"
                    },
                    {
                      "internalType": "string",
                      "name": "adress",
                      "type": "string"
                    },
                    {
                      "internalType": "uint256",
                      "name": "tel",
                      "type": "uint256"
                    },
                    {
                      "internalType": "uint256",
                      "name": "cin",
                      "type": "uint256"
                    },
                    {
                      "internalType": "string",
                      "name": "username",
                      "type": "string"
                    },
                    {
                      "internalType": "string",
                      "name": "password",
                      "type": "string"
                    },
                    {
                      "internalType": "string",
                      "name": "centreNom",
                      "type": "string"
                    }
                  ],
                  "internalType": "struct Remplissage.Chef",
                  "name": "chef",
                  "type": "tuple"
                },
                {
                  "components": [
                    {
                      "internalType": "uint256",
                      "name": "idUsine",
                      "type": "uint256"
                    },
                    {
                      "internalType": "string",
                      "name": "nomUsine",
                      "type": "string"
                    },
                    {
                      "internalType": "string",
                      "name": "adresse",
                      "type": "string"
                    }
                  ],
                  "internalType": "struct Remplissage.Usine",
                  "name": "usine",
                  "type": "tuple"
                }
              ],
              "internalType": "struct Remplissage.Operation01",
              "name": "operation",
              "type": "tuple"
            },
            {
              "components": [
                {
                  "internalType": "uint256",
                  "name": "idTank",
                  "type": "uint256"
                },
                {
                  "internalType": "string",
                  "name": "matricule",
                  "type": "string"
                },
                {
                  "internalType": "uint256",
                  "name": "poidVide",
                  "type": "uint256"
                },
                {
                  "internalType": "uint256",
                  "name": "poidActuel",
                  "type": "uint256"
                },
                {
                  "internalType": "string",
                  "name": "etat",
                  "type": "string"
                },
                {
                  "internalType": "uint256[]",
                  "name": "codeTank",
                  "type": "uint256[]"
                }
              ],
              "internalType": "struct Remplissage.Tank",
              "name": "tank",
              "type": "tuple"
            }
          ],
          "internalType": "struct Remplissage.OperationTank0[]",
          "name": "result",
          "type": "tuple[]"
        }
      ],
      "stateMutability": "view",
      "type": "function",
      "constant": true
    },
    {
      "inputs": [
        {
          "internalType": "uint256",
          "name": "code",
          "type": "uint256"
        },
        {
          "components": [
            {
              "internalType": "uint256",
              "name": "idOperation",
              "type": "uint256"
            },
            {
              "internalType": "uint256",
              "name": "code",
              "type": "uint256"
            },
            {
              "internalType": "string",
              "name": "dateOperation",
              "type": "string"
            },
            {
              "internalType": "string",
              "name": "typeOp",
              "type": "string"
            },
            {
              "internalType": "uint256",
              "name": "poidsLait",
              "type": "uint256"
            },
            {
              "components": [
                {
                  "internalType": "uint256",
                  "name": "idAgriculteur",
                  "type": "uint256"
                },
                {
                  "internalType": "string",
                  "name": "nom",
                  "type": "string"
                },
                {
                  "internalType": "string",
                  "name": "prenom",
                  "type": "string"
                },
                {
                  "internalType": "string",
                  "name": "username",
                  "type": "string"
                },
                {
                  "internalType": "string",
                  "name": "password",
                  "type": "string"
                },
                {
                  "internalType": "string",
                  "name": "adress",
                  "type": "string"
                }
              ],
              "internalType": "struct Remplissage.Agriculteur",
              "name": "agriculteur",
              "type": "tuple"
            },
            {
              "components": [
                {
                  "internalType": "uint256",
                  "name": "idCollecteur",
                  "type": "uint256"
                },
                {
                  "internalType": "string",
                  "name": "nomCollecteur",
                  "type": "string"
                },
                {
                  "internalType": "string",
                  "name": "matricule",
                  "type": "string"
                },
                {
                  "internalType": "string",
                  "name": "adresse",
                  "type": "string"
                },
                {
                  "internalType": "uint256",
                  "name": "tel",
                  "type": "uint256"
                }
              ],
              "internalType": "struct Remplissage.Collecteur",
              "name": "collecteur",
              "type": "tuple"
            }
          ],
          "internalType": "struct Remplissage.Operation[]",
          "name": "operation2",
          "type": "tuple[]"
        }
      ],
      "name": "getOperationbycode",
      "outputs": [
        {
          "components": [
            {
              "internalType": "uint256",
              "name": "idOperation",
              "type": "uint256"
            },
            {
              "internalType": "uint256",
              "name": "code",
              "type": "uint256"
            },
            {
              "internalType": "string",
              "name": "dateOperation",
              "type": "string"
            },
            {
              "internalType": "string",
              "name": "typeOp",
              "type": "string"
            },
            {
              "internalType": "uint256",
              "name": "poidsLait",
              "type": "uint256"
            },
            {
              "components": [
                {
                  "internalType": "uint256",
                  "name": "idAgriculteur",
                  "type": "uint256"
                },
                {
                  "internalType": "string",
                  "name": "nom",
                  "type": "string"
                },
                {
                  "internalType": "string",
                  "name": "prenom",
                  "type": "string"
                },
                {
                  "internalType": "string",
                  "name": "username",
                  "type": "string"
                },
                {
                  "internalType": "string",
                  "name": "password",
                  "type": "string"
                },
                {
                  "internalType": "string",
                  "name": "adress",
                  "type": "string"
                }
              ],
              "internalType": "struct Remplissage.Agriculteur",
              "name": "agriculteur",
              "type": "tuple"
            },
            {
              "components": [
                {
                  "internalType": "uint256",
                  "name": "idCollecteur",
                  "type": "uint256"
                },
                {
                  "internalType": "string",
                  "name": "nomCollecteur",
                  "type": "string"
                },
                {
                  "internalType": "string",
                  "name": "matricule",
                  "type": "string"
                },
                {
                  "internalType": "string",
                  "name": "adresse",
                  "type": "string"
                },
                {
                  "internalType": "uint256",
                  "name": "tel",
                  "type": "uint256"
                }
              ],
              "internalType": "struct Remplissage.Collecteur",
              "name": "collecteur",
              "type": "tuple"
            }
          ],
          "internalType": "struct Remplissage.Operation[]",
          "name": "operationtwo",
          "type": "tuple[]"
        }
      ],
      "stateMutability": "nonpayable",
      "type": "function"
    },
    {
      "inputs": [
        {
          "internalType": "uint256",
          "name": "code",
          "type": "uint256"
        }
      ],
      "name": "getOperationFromAgrsbycode",
      "outputs": [
        {
          "components": [
            {
              "internalType": "uint256",
              "name": "idOpTank",
              "type": "uint256"
            },
            {
              "internalType": "int256",
              "name": "qteInsereTank",
              "type": "int256"
            },
            {
              "internalType": "string",
              "name": "date",
              "type": "string"
            },
            {
              "components": [
                {
                  "internalType": "uint256",
                  "name": "idOperation",
                  "type": "uint256"
                },
                {
                  "internalType": "uint256",
                  "name": "poidsLait",
                  "type": "uint256"
                },
                {
                  "internalType": "string",
                  "name": "dateOperation",
                  "type": "string"
                },
                {
                  "internalType": "string",
                  "name": "typeOp",
                  "type": "string"
                },
                {
                  "internalType": "uint256",
                  "name": "code",
                  "type": "uint256"
                },
                {
                  "internalType": "uint256[]",
                  "name": "codeRemplissage",
                  "type": "uint256[]"
                },
                {
                  "components": [
                    {
                      "internalType": "uint256",
                      "name": "idChef",
                      "type": "uint256"
                    },
                    {
                      "internalType": "string",
                      "name": "nom",
                      "type": "string"
                    },
                    {
                      "internalType": "string",
                      "name": "prenom",
                      "type": "string"
                    },
                    {
                      "internalType": "string",
                      "name": "email",
                      "type": "string"
                    },
                    {
                      "internalType": "string",
                      "name": "adress",
                      "type": "string"
                    },
                    {
                      "internalType": "uint256",
                      "name": "tel",
                      "type": "uint256"
                    },
                    {
                      "internalType": "uint256",
                      "name": "cin",
                      "type": "uint256"
                    },
                    {
                      "internalType": "string",
                      "name": "username",
                      "type": "string"
                    },
                    {
                      "internalType": "string",
                      "name": "password",
                      "type": "string"
                    },
                    {
                      "internalType": "string",
                      "name": "centreNom",
                      "type": "string"
                    }
                  ],
                  "internalType": "struct Remplissage.Chef",
                  "name": "chef",
                  "type": "tuple"
                },
                {
                  "components": [
                    {
                      "internalType": "uint256",
                      "name": "idUsine",
                      "type": "uint256"
                    },
                    {
                      "internalType": "string",
                      "name": "nomUsine",
                      "type": "string"
                    },
                    {
                      "internalType": "string",
                      "name": "adresse",
                      "type": "string"
                    }
                  ],
                  "internalType": "struct Remplissage.Usine",
                  "name": "usine",
                  "type": "tuple"
                }
              ],
              "internalType": "struct Remplissage.Operation01",
              "name": "operation",
              "type": "tuple"
            },
            {
              "components": [
                {
                  "internalType": "uint256",
                  "name": "idTank",
                  "type": "uint256"
                },
                {
                  "internalType": "string",
                  "name": "matricule",
                  "type": "string"
                },
                {
                  "internalType": "uint256",
                  "name": "poidVide",
                  "type": "uint256"
                },
                {
                  "internalType": "uint256",
                  "name": "poidActuel",
                  "type": "uint256"
                },
                {
                  "internalType": "string",
                  "name": "etat",
                  "type": "string"
                },
                {
                  "internalType": "uint256[]",
                  "name": "codeTank",
                  "type": "uint256[]"
                }
              ],
              "internalType": "struct Remplissage.Tank",
              "name": "tank",
              "type": "tuple"
            }
          ],
          "internalType": "struct Remplissage.OperationTank0",
          "name": "operation",
          "type": "tuple"
        }
      ],
      "stateMutability": "view",
      "type": "function",
      "constant": true
    }
  ],
  "bytecode": "0x608060405234801561001057600080fd5b50615b0380620000216000396000f3fe608060405234801561001057600080fd5b50600436106100885760003560e01c80638724a4301161005b5780638724a4301461013b578063a96fe5f014610171578063c9c28e0f146101a5578063ee4f3dc8146101c357610088565b8063041453791461008d57806316638829146100bd5780633092a44d146100ed5780633b5a24be1461011d575b600080fd5b6100a760048036038101906100a2919061475d565b6101f3565b6040516100b49190614d12565b60405180910390f35b6100d760048036038101906100d29190614d34565b610ed2565b6040516100e49190614de5565b60405180910390f35b61010760048036038101906101029190614d34565b6118df565b6040516101149190614e16565b60405180910390f35b610125611903565b6040516101329190614ea0565b60405180910390f35b61015560048036038101906101509190614d34565b61195b565b6040516101689796959493929190615035565b60405180910390f35b61018b60048036038101906101869190614d34565b611f7f565b60405161019c959493929190615232565b60405180910390f35b6101ad612909565b6040516101ba9190614d12565b60405180910390f35b6101dd60048036038101906101d891906156ab565b6132de565b6040516101ea91906159a3565b60405180910390f35b606060026000908060018154018082558091505060019003906000526020600020016000909190919091505560005b828110156104fb57600184828151811061023f5761023e6159c5565b5b602002602001015190806001815401808255809150506001900390600052602060002090601c0201600090919091909150600082015181600001556020820151816001015560408201518160020190805190602001906102a0929190613c3e565b50606082015181600301600082015181600001556020820151816001015560408201518160020190805190602001906102da929190613c3e565b5060608201518160030190805190602001906102f7929190613c3e565b506080820151816004015560a082015181600501908051906020019061031e929190613cc4565b5060c08201518160060160008201518160000155602082015181600101908051906020019061034e929190613c3e565b50604082015181600201908051906020019061036b929190613c3e565b506060820151816003019080519060200190610388929190613c3e565b5060808201518160040190805190602001906103a5929190613c3e565b5060a0820151816005015560c0820151816006015560e08201518160070190805190602001906103d6929190613c3e565b506101008201518160080190805190602001906103f4929190613c3e565b50610120820151816009019080519060200190610412929190613c3e565b50505060e082015181601001600082015181600001556020820151816001019080519060200190610444929190613c3e565b506040820151816002019080519060200190610461929190613c3e565b5050505050608082015181601601600082015181600001556020820151816001019080519060200190610495929190613c3e565b50604082015181600201556060820151816003015560808201518160040190805190602001906104c6929190613c3e565b5060a08201518160050190805190602001906104e3929190613cc4565b505050505080806104f390615a23565b915050610222565b506001805480602002602001604051908101604052809291908181526020016000905b82821015610ec657838290600052602060002090601c02016040518060a0016040529081600082015481526020016001820154815260200160028201805461056590615a9b565b80601f016020809104026020016040519081016040528092919081815260200182805461059190615a9b565b80156105de5780601f106105b3576101008083540402835291602001916105de565b820191906000526020600020905b8154815290600101906020018083116105c157829003601f168201915b505050505081526020016003820160405180610100016040529081600082015481526020016001820154815260200160028201805461061c90615a9b565b80601f016020809104026020016040519081016040528092919081815260200182805461064890615a9b565b80156106955780601f1061066a57610100808354040283529160200191610695565b820191906000526020600020905b81548152906001019060200180831161067857829003601f168201915b505050505081526020016003820180546106ae90615a9b565b80601f01602080910402602001604051908101604052809291908181526020018280546106da90615a9b565b80156107275780601f106106fc57610100808354040283529160200191610727565b820191906000526020600020905b81548152906001019060200180831161070a57829003601f168201915b50505050508152602001600482015481526020016005820180548060200260200160405190810160405280929190818152602001828054801561078957602002820191906000526020600020905b815481526020019060010190808311610775575b505050505081526020016006820160405180610140016040529081600082015481526020016001820180546107bd90615a9b565b80601f01602080910402602001604051908101604052809291908181526020018280546107e990615a9b565b80156108365780601f1061080b57610100808354040283529160200191610836565b820191906000526020600020905b81548152906001019060200180831161081957829003601f168201915b5050505050815260200160028201805461084f90615a9b565b80601f016020809104026020016040519081016040528092919081815260200182805461087b90615a9b565b80156108c85780601f1061089d576101008083540402835291602001916108c8565b820191906000526020600020905b8154815290600101906020018083116108ab57829003601f168201915b505050505081526020016003820180546108e190615a9b565b80601f016020809104026020016040519081016040528092919081815260200182805461090d90615a9b565b801561095a5780601f1061092f5761010080835404028352916020019161095a565b820191906000526020600020905b81548152906001019060200180831161093d57829003601f168201915b5050505050815260200160048201805461097390615a9b565b80601f016020809104026020016040519081016040528092919081815260200182805461099f90615a9b565b80156109ec5780601f106109c1576101008083540402835291602001916109ec565b820191906000526020600020905b8154815290600101906020018083116109cf57829003601f168201915b505050505081526020016005820154815260200160068201548152602001600782018054610a1990615a9b565b80601f0160208091040260200160405190810160405280929190818152602001828054610a4590615a9b565b8015610a925780601f10610a6757610100808354040283529160200191610a92565b820191906000526020600020905b815481529060010190602001808311610a7557829003601f168201915b50505050508152602001600882018054610aab90615a9b565b80601f0160208091040260200160405190810160405280929190818152602001828054610ad790615a9b565b8015610b245780601f10610af957610100808354040283529160200191610b24565b820191906000526020600020905b815481529060010190602001808311610b0757829003601f168201915b50505050508152602001600982018054610b3d90615a9b565b80601f0160208091040260200160405190810160405280929190818152602001828054610b6990615a9b565b8015610bb65780601f10610b8b57610100808354040283529160200191610bb6565b820191906000526020600020905b815481529060010190602001808311610b9957829003601f168201915b50505050508152505081526020016010820160405180606001604052908160008201548152602001600182018054610bed90615a9b565b80601f0160208091040260200160405190810160405280929190818152602001828054610c1990615a9b565b8015610c665780601f10610c3b57610100808354040283529160200191610c66565b820191906000526020600020905b815481529060010190602001808311610c4957829003601f168201915b50505050508152602001600282018054610c7f90615a9b565b80601f0160208091040260200160405190810160405280929190818152602001828054610cab90615a9b565b8015610cf85780601f10610ccd57610100808354040283529160200191610cf8565b820191906000526020600020905b815481529060010190602001808311610cdb57829003601f168201915b505050505081525050815250508152602001601682016040518060c001604052908160008201548152602001600182018054610d3390615a9b565b80601f0160208091040260200160405190810160405280929190818152602001828054610d5f90615a9b565b8015610dac5780601f10610d8157610100808354040283529160200191610dac565b820191906000526020600020905b815481529060010190602001808311610d8f57829003601f168201915b505050505081526020016002820154815260200160038201548152602001600482018054610dd990615a9b565b80601f0160208091040260200160405190810160405280929190818152602001828054610e0590615a9b565b8015610e525780601f10610e2757610100808354040283529160200191610e52565b820191906000526020600020905b815481529060010190602001808311610e3557829003601f168201915b5050505050815260200160058201805480602002602001604051908101604052809291908181526020018280548015610eaa57602002820191906000526020600020905b815481526020019060010190808311610e96575b505050505081525050815250508152602001906001019061051e565b50505050905092915050565b610eda613d11565b60005b6001805490508110156118d8578260018281548110610eff57610efe6159c5565b5b90600052602060002090601c02016003016004015414156118c55760018181548110610f2e57610f2d6159c5565b5b90600052602060002090601c02016040518060a00160405290816000820154815260200160018201548152602001600282018054610f6b90615a9b565b80601f0160208091040260200160405190810160405280929190818152602001828054610f9790615a9b565b8015610fe45780601f10610fb957610100808354040283529160200191610fe4565b820191906000526020600020905b815481529060010190602001808311610fc757829003601f168201915b505050505081526020016003820160405180610100016040529081600082015481526020016001820154815260200160028201805461102290615a9b565b80601f016020809104026020016040519081016040528092919081815260200182805461104e90615a9b565b801561109b5780601f106110705761010080835404028352916020019161109b565b820191906000526020600020905b81548152906001019060200180831161107e57829003601f168201915b505050505081526020016003820180546110b490615a9b565b80601f01602080910402602001604051908101604052809291908181526020018280546110e090615a9b565b801561112d5780601f106111025761010080835404028352916020019161112d565b820191906000526020600020905b81548152906001019060200180831161111057829003601f168201915b50505050508152602001600482015481526020016005820180548060200260200160405190810160405280929190818152602001828054801561118f57602002820191906000526020600020905b81548152602001906001019080831161117b575b505050505081526020016006820160405180610140016040529081600082015481526020016001820180546111c390615a9b565b80601f01602080910402602001604051908101604052809291908181526020018280546111ef90615a9b565b801561123c5780601f106112115761010080835404028352916020019161123c565b820191906000526020600020905b81548152906001019060200180831161121f57829003601f168201915b5050505050815260200160028201805461125590615a9b565b80601f016020809104026020016040519081016040528092919081815260200182805461128190615a9b565b80156112ce5780601f106112a3576101008083540402835291602001916112ce565b820191906000526020600020905b8154815290600101906020018083116112b157829003601f168201915b505050505081526020016003820180546112e790615a9b565b80601f016020809104026020016040519081016040528092919081815260200182805461131390615a9b565b80156113605780601f1061133557610100808354040283529160200191611360565b820191906000526020600020905b81548152906001019060200180831161134357829003601f168201915b5050505050815260200160048201805461137990615a9b565b80601f01602080910402602001604051908101604052809291908181526020018280546113a590615a9b565b80156113f25780601f106113c7576101008083540402835291602001916113f2565b820191906000526020600020905b8154815290600101906020018083116113d557829003601f168201915b50505050508152602001600582015481526020016006820154815260200160078201805461141f90615a9b565b80601f016020809104026020016040519081016040528092919081815260200182805461144b90615a9b565b80156114985780601f1061146d57610100808354040283529160200191611498565b820191906000526020600020905b81548152906001019060200180831161147b57829003601f168201915b505050505081526020016008820180546114b190615a9b565b80601f01602080910402602001604051908101604052809291908181526020018280546114dd90615a9b565b801561152a5780601f106114ff5761010080835404028352916020019161152a565b820191906000526020600020905b81548152906001019060200180831161150d57829003601f168201915b5050505050815260200160098201805461154390615a9b565b80601f016020809104026020016040519081016040528092919081815260200182805461156f90615a9b565b80156115bc5780601f10611591576101008083540402835291602001916115bc565b820191906000526020600020905b81548152906001019060200180831161159f57829003601f168201915b505050505081525050815260200160108201604051806060016040529081600082015481526020016001820180546115f390615a9b565b80601f016020809104026020016040519081016040528092919081815260200182805461161f90615a9b565b801561166c5780601f106116415761010080835404028352916020019161166c565b820191906000526020600020905b81548152906001019060200180831161164f57829003601f168201915b5050505050815260200160028201805461168590615a9b565b80601f01602080910402602001604051908101604052809291908181526020018280546116b190615a9b565b80156116fe5780601f106116d3576101008083540402835291602001916116fe565b820191906000526020600020905b8154815290600101906020018083116116e157829003601f168201915b505050505081525050815250508152602001601682016040518060c00160405290816000820154815260200160018201805461173990615a9b565b80601f016020809104026020016040519081016040528092919081815260200182805461176590615a9b565b80156117b25780601f10611787576101008083540402835291602001916117b2565b820191906000526020600020905b81548152906001019060200180831161179557829003601f168201915b5050505050815260200160028201548152602001600382015481526020016004820180546117df90615a9b565b80601f016020809104026020016040519081016040528092919081815260200182805461180b90615a9b565b80156118585780601f1061182d57610100808354040283529160200191611858565b820191906000526020600020905b81548152906001019060200180831161183b57829003601f168201915b50505050508152602001600582018054806020026020016040519081016040528092919081815260200182805480156118b057602002820191906000526020600020905b81548152602001906001019080831161189c575b505050505081525050815250509150506118da565b80806118d090615a23565b915050610edd565b505b919050565b600281815481106118ef57600080fd5b906000526020600020016000915090505481565b6060600280548060200260200160405190810160405280929190818152602001828054801561195157602002820191906000526020600020905b81548152602001906001019080831161193d575b5050505050905090565b6000818154811061196b57600080fd5b906000526020600020906010020160009150905080600001549080600101549080600201805461199a90615a9b565b80601f01602080910402602001604051908101604052809291908181526020018280546119c690615a9b565b8015611a135780601f106119e857610100808354040283529160200191611a13565b820191906000526020600020905b8154815290600101906020018083116119f657829003601f168201915b505050505090806003018054611a2890615a9b565b80601f0160208091040260200160405190810160405280929190818152602001828054611a5490615a9b565b8015611aa15780601f10611a7657610100808354040283529160200191611aa1565b820191906000526020600020905b815481529060010190602001808311611a8457829003601f168201915b505050505090806004015490806005016040518060c001604052908160008201548152602001600182018054611ad690615a9b565b80601f0160208091040260200160405190810160405280929190818152602001828054611b0290615a9b565b8015611b4f5780601f10611b2457610100808354040283529160200191611b4f565b820191906000526020600020905b815481529060010190602001808311611b3257829003601f168201915b50505050508152602001600282018054611b6890615a9b565b80601f0160208091040260200160405190810160405280929190818152602001828054611b9490615a9b565b8015611be15780601f10611bb657610100808354040283529160200191611be1565b820191906000526020600020905b815481529060010190602001808311611bc457829003601f168201915b50505050508152602001600382018054611bfa90615a9b565b80601f0160208091040260200160405190810160405280929190818152602001828054611c2690615a9b565b8015611c735780601f10611c4857610100808354040283529160200191611c73565b820191906000526020600020905b815481529060010190602001808311611c5657829003601f168201915b50505050508152602001600482018054611c8c90615a9b565b80601f0160208091040260200160405190810160405280929190818152602001828054611cb890615a9b565b8015611d055780601f10611cda57610100808354040283529160200191611d05565b820191906000526020600020905b815481529060010190602001808311611ce857829003601f168201915b50505050508152602001600582018054611d1e90615a9b565b80601f0160208091040260200160405190810160405280929190818152602001828054611d4a90615a9b565b8015611d975780601f10611d6c57610100808354040283529160200191611d97565b820191906000526020600020905b815481529060010190602001808311611d7a57829003601f168201915b5050505050815250509080600b016040518060a001604052908160008201548152602001600182018054611dca90615a9b565b80601f0160208091040260200160405190810160405280929190818152602001828054611df690615a9b565b8015611e435780601f10611e1857610100808354040283529160200191611e43565b820191906000526020600020905b815481529060010190602001808311611e2657829003601f168201915b50505050508152602001600282018054611e5c90615a9b565b80601f0160208091040260200160405190810160405280929190818152602001828054611e8890615a9b565b8015611ed55780601f10611eaa57610100808354040283529160200191611ed5565b820191906000526020600020905b815481529060010190602001808311611eb857829003601f168201915b50505050508152602001600382018054611eee90615a9b565b80601f0160208091040260200160405190810160405280929190818152602001828054611f1a90615a9b565b8015611f675780601f10611f3c57610100808354040283529160200191611f67565b820191906000526020600020905b815481529060010190602001808311611f4a57829003601f168201915b50505050508152602001600482015481525050905087565b60018181548110611f8f57600080fd5b90600052602060002090601c0201600091509050806000015490806001015490806002018054611fbe90615a9b565b80601f0160208091040260200160405190810160405280929190818152602001828054611fea90615a9b565b80156120375780601f1061200c57610100808354040283529160200191612037565b820191906000526020600020905b81548152906001019060200180831161201a57829003601f168201915b5050505050908060030160405180610100016040529081600082015481526020016001820154815260200160028201805461207190615a9b565b80601f016020809104026020016040519081016040528092919081815260200182805461209d90615a9b565b80156120ea5780601f106120bf576101008083540402835291602001916120ea565b820191906000526020600020905b8154815290600101906020018083116120cd57829003601f168201915b5050505050815260200160038201805461210390615a9b565b80601f016020809104026020016040519081016040528092919081815260200182805461212f90615a9b565b801561217c5780601f106121515761010080835404028352916020019161217c565b820191906000526020600020905b81548152906001019060200180831161215f57829003601f168201915b5050505050815260200160048201548152602001600582018054806020026020016040519081016040528092919081815260200182805480156121de57602002820191906000526020600020905b8154815260200190600101908083116121ca575b5050505050815260200160068201604051806101400160405290816000820154815260200160018201805461221290615a9b565b80601f016020809104026020016040519081016040528092919081815260200182805461223e90615a9b565b801561228b5780601f106122605761010080835404028352916020019161228b565b820191906000526020600020905b81548152906001019060200180831161226e57829003601f168201915b505050505081526020016002820180546122a490615a9b565b80601f01602080910402602001604051908101604052809291908181526020018280546122d090615a9b565b801561231d5780601f106122f25761010080835404028352916020019161231d565b820191906000526020600020905b81548152906001019060200180831161230057829003601f168201915b5050505050815260200160038201805461233690615a9b565b80601f016020809104026020016040519081016040528092919081815260200182805461236290615a9b565b80156123af5780601f10612384576101008083540402835291602001916123af565b820191906000526020600020905b81548152906001019060200180831161239257829003601f168201915b505050505081526020016004820180546123c890615a9b565b80601f01602080910402602001604051908101604052809291908181526020018280546123f490615a9b565b80156124415780601f1061241657610100808354040283529160200191612441565b820191906000526020600020905b81548152906001019060200180831161242457829003601f168201915b50505050508152602001600582015481526020016006820154815260200160078201805461246e90615a9b565b80601f016020809104026020016040519081016040528092919081815260200182805461249a90615a9b565b80156124e75780601f106124bc576101008083540402835291602001916124e7565b820191906000526020600020905b8154815290600101906020018083116124ca57829003601f168201915b5050505050815260200160088201805461250090615a9b565b80601f016020809104026020016040519081016040528092919081815260200182805461252c90615a9b565b80156125795780601f1061254e57610100808354040283529160200191612579565b820191906000526020600020905b81548152906001019060200180831161255c57829003601f168201915b5050505050815260200160098201805461259290615a9b565b80601f01602080910402602001604051908101604052809291908181526020018280546125be90615a9b565b801561260b5780601f106125e05761010080835404028352916020019161260b565b820191906000526020600020905b8154815290600101906020018083116125ee57829003601f168201915b5050505050815250508152602001601082016040518060600160405290816000820154815260200160018201805461264290615a9b565b80601f016020809104026020016040519081016040528092919081815260200182805461266e90615a9b565b80156126bb5780601f10612690576101008083540402835291602001916126bb565b820191906000526020600020905b81548152906001019060200180831161269e57829003601f168201915b505050505081526020016002820180546126d490615a9b565b80601f016020809104026020016040519081016040528092919081815260200182805461270090615a9b565b801561274d5780601f106127225761010080835404028352916020019161274d565b820191906000526020600020905b81548152906001019060200180831161273057829003601f168201915b5050505050815250508152505090806016016040518060c00160405290816000820154815260200160018201805461278490615a9b565b80601f01602080910402602001604051908101604052809291908181526020018280546127b090615a9b565b80156127fd5780601f106127d2576101008083540402835291602001916127fd565b820191906000526020600020905b8154815290600101906020018083116127e057829003601f168201915b50505050508152602001600282015481526020016003820154815260200160048201805461282a90615a9b565b80601f016020809104026020016040519081016040528092919081815260200182805461285690615a9b565b80156128a35780601f10612878576101008083540402835291602001916128a3565b820191906000526020600020905b81548152906001019060200180831161288657829003601f168201915b50505050508152602001600582018054806020026020016040519081016040528092919081815260200182805480156128fb57602002820191906000526020600020905b8154815260200190600101908083116128e7575b505050505081525050905085565b60606001805480602002602001604051908101604052809291908181526020016000905b828210156132d557838290600052602060002090601c02016040518060a0016040529081600082015481526020016001820154815260200160028201805461297490615a9b565b80601f01602080910402602001604051908101604052809291908181526020018280546129a090615a9b565b80156129ed5780601f106129c2576101008083540402835291602001916129ed565b820191906000526020600020905b8154815290600101906020018083116129d057829003601f168201915b5050505050815260200160038201604051806101000160405290816000820154815260200160018201548152602001600282018054612a2b90615a9b565b80601f0160208091040260200160405190810160405280929190818152602001828054612a5790615a9b565b8015612aa45780601f10612a7957610100808354040283529160200191612aa4565b820191906000526020600020905b815481529060010190602001808311612a8757829003601f168201915b50505050508152602001600382018054612abd90615a9b565b80601f0160208091040260200160405190810160405280929190818152602001828054612ae990615a9b565b8015612b365780601f10612b0b57610100808354040283529160200191612b36565b820191906000526020600020905b815481529060010190602001808311612b1957829003601f168201915b505050505081526020016004820154815260200160058201805480602002602001604051908101604052809291908181526020018280548015612b9857602002820191906000526020600020905b815481526020019060010190808311612b84575b50505050508152602001600682016040518061014001604052908160008201548152602001600182018054612bcc90615a9b565b80601f0160208091040260200160405190810160405280929190818152602001828054612bf890615a9b565b8015612c455780601f10612c1a57610100808354040283529160200191612c45565b820191906000526020600020905b815481529060010190602001808311612c2857829003601f168201915b50505050508152602001600282018054612c5e90615a9b565b80601f0160208091040260200160405190810160405280929190818152602001828054612c8a90615a9b565b8015612cd75780601f10612cac57610100808354040283529160200191612cd7565b820191906000526020600020905b815481529060010190602001808311612cba57829003601f168201915b50505050508152602001600382018054612cf090615a9b565b80601f0160208091040260200160405190810160405280929190818152602001828054612d1c90615a9b565b8015612d695780601f10612d3e57610100808354040283529160200191612d69565b820191906000526020600020905b815481529060010190602001808311612d4c57829003601f168201915b50505050508152602001600482018054612d8290615a9b565b80601f0160208091040260200160405190810160405280929190818152602001828054612dae90615a9b565b8015612dfb5780601f10612dd057610100808354040283529160200191612dfb565b820191906000526020600020905b815481529060010190602001808311612dde57829003601f168201915b505050505081526020016005820154815260200160068201548152602001600782018054612e2890615a9b565b80601f0160208091040260200160405190810160405280929190818152602001828054612e5490615a9b565b8015612ea15780601f10612e7657610100808354040283529160200191612ea1565b820191906000526020600020905b815481529060010190602001808311612e8457829003601f168201915b50505050508152602001600882018054612eba90615a9b565b80601f0160208091040260200160405190810160405280929190818152602001828054612ee690615a9b565b8015612f335780601f10612f0857610100808354040283529160200191612f33565b820191906000526020600020905b815481529060010190602001808311612f1657829003601f168201915b50505050508152602001600982018054612f4c90615a9b565b80601f0160208091040260200160405190810160405280929190818152602001828054612f7890615a9b565b8015612fc55780601f10612f9a57610100808354040283529160200191612fc5565b820191906000526020600020905b815481529060010190602001808311612fa857829003601f168201915b50505050508152505081526020016010820160405180606001604052908160008201548152602001600182018054612ffc90615a9b565b80601f016020809104026020016040519081016040528092919081815260200182805461302890615a9b565b80156130755780601f1061304a57610100808354040283529160200191613075565b820191906000526020600020905b81548152906001019060200180831161305857829003601f168201915b5050505050815260200160028201805461308e90615a9b565b80601f01602080910402602001604051908101604052809291908181526020018280546130ba90615a9b565b80156131075780601f106130dc57610100808354040283529160200191613107565b820191906000526020600020905b8154815290600101906020018083116130ea57829003601f168201915b505050505081525050815250508152602001601682016040518060c00160405290816000820154815260200160018201805461314290615a9b565b80601f016020809104026020016040519081016040528092919081815260200182805461316e90615a9b565b80156131bb5780601f10613190576101008083540402835291602001916131bb565b820191906000526020600020905b81548152906001019060200180831161319e57829003601f168201915b5050505050815260200160028201548152602001600382015481526020016004820180546131e890615a9b565b80601f016020809104026020016040519081016040528092919081815260200182805461321490615a9b565b80156132615780601f1061323657610100808354040283529160200191613261565b820191906000526020600020905b81548152906001019060200180831161324457829003601f168201915b50505050508152602001600582018054806020026020016040519081016040528092919081815260200182805480156132b957602002820191906000526020600020905b8154815260200190600101908083116132a5575b505050505081525050815250508152602001906001019061292d565b50505050905090565b606060005b6001805490508110156135c5578360018281548110613305576133046159c5565b5b90600052602060002090601c02016003016004015414156135b25760005b60018281548110613337576133366159c5565b5b90600052602060002090601c0201601601600501805490508110156135b05760005b845181101561359c5760018381548110613376576133756159c5565b5b90600052602060002090601c0201601601600501828154811061339c5761339b6159c5565b5b90600052602060002001548582815181106133ba576133b96159c5565b5b60200260200101516020015114156135895760008582815181106133e1576133e06159c5565b5b6020026020010151908060018154018082558091505060019003906000526020600020906010020160009091909190915060008201518160000155602082015181600101556040820151816002019080519060200190613442929190613c3e565b50606082015181600301908051906020019061345f929190613c3e565b506080820151816004015560a082015181600501600082015181600001556020820151816001019080519060200190613499929190613c3e565b5060408201518160020190805190602001906134b6929190613c3e565b5060608201518160030190805190602001906134d3929190613c3e565b5060808201518160040190805190602001906134f0929190613c3e565b5060a082015181600501908051906020019061350d929190613c3e565b50505060c082015181600b0160008201518160000155602082015181600101908051906020019061353f929190613c3e565b50604082015181600201908051906020019061355c929190613c3e565b506060820151816003019080519060200190613579929190613c3e565b5060808201518160040155505050505b808061359490615a23565b915050613359565b5080806135a890615a23565b915050613323565b505b80806135bd90615a23565b9150506132e3565b506000805480602002602001604051908101604052809291908181526020016000905b82821015613c3257838290600052602060002090601002016040518060e0016040529081600082015481526020016001820154815260200160028201805461362f90615a9b565b80601f016020809104026020016040519081016040528092919081815260200182805461365b90615a9b565b80156136a85780601f1061367d576101008083540402835291602001916136a8565b820191906000526020600020905b81548152906001019060200180831161368b57829003601f168201915b505050505081526020016003820180546136c190615a9b565b80601f01602080910402602001604051908101604052809291908181526020018280546136ed90615a9b565b801561373a5780601f1061370f5761010080835404028352916020019161373a565b820191906000526020600020905b81548152906001019060200180831161371d57829003601f168201915b5050505050815260200160048201548152602001600582016040518060c00160405290816000820154815260200160018201805461377790615a9b565b80601f01602080910402602001604051908101604052809291908181526020018280546137a390615a9b565b80156137f05780601f106137c5576101008083540402835291602001916137f0565b820191906000526020600020905b8154815290600101906020018083116137d357829003601f168201915b5050505050815260200160028201805461380990615a9b565b80601f016020809104026020016040519081016040528092919081815260200182805461383590615a9b565b80156138825780601f1061385757610100808354040283529160200191613882565b820191906000526020600020905b81548152906001019060200180831161386557829003601f168201915b5050505050815260200160038201805461389b90615a9b565b80601f01602080910402602001604051908101604052809291908181526020018280546138c790615a9b565b80156139145780601f106138e957610100808354040283529160200191613914565b820191906000526020600020905b8154815290600101906020018083116138f757829003601f168201915b5050505050815260200160048201805461392d90615a9b565b80601f016020809104026020016040519081016040528092919081815260200182805461395990615a9b565b80156139a65780601f1061397b576101008083540402835291602001916139a6565b820191906000526020600020905b81548152906001019060200180831161398957829003601f168201915b505050505081526020016005820180546139bf90615a9b565b80601f01602080910402602001604051908101604052809291908181526020018280546139eb90615a9b565b8015613a385780601f10613a0d57610100808354040283529160200191613a38565b820191906000526020600020905b815481529060010190602001808311613a1b57829003601f168201915b5050505050815250508152602001600b82016040518060a001604052908160008201548152602001600182018054613a6f90615a9b565b80601f0160208091040260200160405190810160405280929190818152602001828054613a9b90615a9b565b8015613ae85780601f10613abd57610100808354040283529160200191613ae8565b820191906000526020600020905b815481529060010190602001808311613acb57829003601f168201915b50505050508152602001600282018054613b0190615a9b565b80601f0160208091040260200160405190810160405280929190818152602001828054613b2d90615a9b565b8015613b7a5780601f10613b4f57610100808354040283529160200191613b7a565b820191906000526020600020905b815481529060010190602001808311613b5d57829003601f168201915b50505050508152602001600382018054613b9390615a9b565b80601f0160208091040260200160405190810160405280929190818152602001828054613bbf90615a9b565b8015613c0c5780601f10613be157610100808354040283529160200191613c0c565b820191906000526020600020905b815481529060010190602001808311613bef57829003601f168201915b5050505050815260200160048201548152505081525050815260200190600101906135e8565b50505050905092915050565b828054613c4a90615a9b565b90600052602060002090601f016020900481019282613c6c5760008555613cb3565b82601f10613c8557805160ff1916838001178555613cb3565b82800160010185558215613cb3579182015b82811115613cb2578251825591602001919060010190613c97565b5b509050613cc09190613d4c565b5090565b828054828255906000526020600020908101928215613d00579160200282015b82811115613cff578251825591602001919060010190613ce4565b5b509050613d0d9190613d4c565b5090565b6040518060a00160405280600081526020016000815260200160608152602001613d39613d69565b8152602001613d46613dba565b81525090565b5b80821115613d65576000816000905550600101613d4d565b5090565b604051806101000160405280600081526020016000815260200160608152602001606081526020016000815260200160608152602001613da7613df0565b8152602001613db4613e43565b81525090565b6040518060c001604052806000815260200160608152602001600081526020016000815260200160608152602001606081525090565b604051806101400160405280600081526020016060815260200160608152602001606081526020016060815260200160008152602001600081526020016060815260200160608152602001606081525090565b60405180606001604052806000815260200160608152602001606081525090565b6000604051905090565b600080fd5b600080fd5b600080fd5b6000601f19601f8301169050919050565b7f4e487b7100000000000000000000000000000000000000000000000000000000600052604160045260246000fd5b613ec682613e7d565b810181811067ffffffffffffffff82111715613ee557613ee4613e8e565b5b80604052505050565b6000613ef8613e64565b9050613f048282613ebd565b919050565b600067ffffffffffffffff821115613f2457613f23613e8e565b5b602082029050602081019050919050565b600080fd5b600080fd5b600080fd5b6000819050919050565b613f5781613f44565b8114613f6257600080fd5b50565b600081359050613f7481613f4e565b92915050565b6000819050919050565b613f8d81613f7a565b8114613f9857600080fd5b50565b600081359050613faa81613f84565b92915050565b600080fd5b600067ffffffffffffffff821115613fd057613fcf613e8e565b5b613fd982613e7d565b9050602081019050919050565b82818337600083830152505050565b600061400861400384613fb5565b613eee565b90508281526020810184848401111561402457614023613fb0565b5b61402f848285613fe6565b509392505050565b600082601f83011261404c5761404b613e78565b5b813561405c848260208601613ff5565b91505092915050565b600067ffffffffffffffff8211156140805761407f613e8e565b5b602082029050602081019050919050565b60006140a461409f84614065565b613eee565b905080838252602082019050602084028301858111156140c7576140c6613f35565b5b835b818110156140f057806140dc8882613f65565b8452602084019350506020810190506140c9565b5050509392505050565b600082601f83011261410f5761410e613e78565b5b813561411f848260208601614091565b91505092915050565b6000610140828403121561413f5761413e613f3a565b5b61414a610140613eee565b9050600061415a84828501613f65565b600083015250602082013567ffffffffffffffff81111561417e5761417d613f3f565b5b61418a84828501614037565b602083015250604082013567ffffffffffffffff8111156141ae576141ad613f3f565b5b6141ba84828501614037565b604083015250606082013567ffffffffffffffff8111156141de576141dd613f3f565b5b6141ea84828501614037565b606083015250608082013567ffffffffffffffff81111561420e5761420d613f3f565b5b61421a84828501614037565b60808301525060a061422e84828501613f65565b60a08301525060c061424284828501613f65565b60c08301525060e082013567ffffffffffffffff81111561426657614265613f3f565b5b61427284828501614037565b60e08301525061010082013567ffffffffffffffff81111561429757614296613f3f565b5b6142a384828501614037565b6101008301525061012082013567ffffffffffffffff8111156142c9576142c8613f3f565b5b6142d584828501614037565b6101208301525092915050565b6000606082840312156142f8576142f7613f3a565b5b6143026060613eee565b9050600061431284828501613f65565b600083015250602082013567ffffffffffffffff81111561433657614335613f3f565b5b61434284828501614037565b602083015250604082013567ffffffffffffffff81111561436657614365613f3f565b5b61437284828501614037565b60408301525092915050565b6000610100828403121561439557614394613f3a565b5b6143a0610100613eee565b905060006143b084828501613f65565b60008301525060206143c484828501613f65565b602083015250604082013567ffffffffffffffff8111156143e8576143e7613f3f565b5b6143f484828501614037565b604083015250606082013567ffffffffffffffff81111561441857614417613f3f565b5b61442484828501614037565b606083015250608061443884828501613f65565b60808301525060a082013567ffffffffffffffff81111561445c5761445b613f3f565b5b614468848285016140fa565b60a08301525060c082013567ffffffffffffffff81111561448c5761448b613f3f565b5b61449884828501614128565b60c08301525060e082013567ffffffffffffffff8111156144bc576144bb613f3f565b5b6144c8848285016142e2565b60e08301525092915050565b600060c082840312156144ea576144e9613f3a565b5b6144f460c0613eee565b9050600061450484828501613f65565b600083015250602082013567ffffffffffffffff81111561452857614527613f3f565b5b61453484828501614037565b602083015250604061454884828501613f65565b604083015250606061455c84828501613f65565b606083015250608082013567ffffffffffffffff8111156145805761457f613f3f565b5b61458c84828501614037565b60808301525060a082013567ffffffffffffffff8111156145b0576145af613f3f565b5b6145bc848285016140fa565b60a08301525092915050565b600060a082840312156145de576145dd613f3a565b5b6145e860a0613eee565b905060006145f884828501613f65565b600083015250602061460c84828501613f9b565b602083015250604082013567ffffffffffffffff8111156146305761462f613f3f565b5b61463c84828501614037565b604083015250606082013567ffffffffffffffff8111156146605761465f613f3f565b5b61466c8482850161437e565b606083015250608082013567ffffffffffffffff8111156146905761468f613f3f565b5b61469c848285016144d4565b60808301525092915050565b60006146bb6146b684613f09565b613eee565b905080838252602082019050602084028301858111156146de576146dd613f35565b5b835b8181101561472557803567ffffffffffffffff81111561470357614702613e78565b5b80860161471089826145c8565b855260208501945050506020810190506146e0565b5050509392505050565b600082601f83011261474457614743613e78565b5b81356147548482602086016146a8565b91505092915050565b6000806040838503121561477457614773613e6e565b5b600083013567ffffffffffffffff81111561479257614791613e73565b5b61479e8582860161472f565b92505060206147af85828601613f65565b9150509250929050565b600081519050919050565b600082825260208201905092915050565b6000819050602082019050919050565b6147ee81613f44565b82525050565b6147fd81613f7a565b82525050565b600081519050919050565b600082825260208201905092915050565b60005b8381101561483d578082015181840152602081019050614822565b8381111561484c576000848401525b50505050565b600061485d82614803565b614867818561480e565b935061487781856020860161481f565b61488081613e7d565b840191505092915050565b600081519050919050565b600082825260208201905092915050565b6000819050602082019050919050565b60006148c383836147e5565b60208301905092915050565b6000602082019050919050565b60006148e78261488b565b6148f18185614896565b93506148fc836148a7565b8060005b8381101561492d57815161491488826148b7565b975061491f836148cf565b925050600181019050614900565b5085935050505092915050565b60006101408301600083015161495360008601826147e5565b506020830151848203602086015261496b8282614852565b915050604083015184820360408601526149858282614852565b9150506060830151848203606086015261499f8282614852565b915050608083015184820360808601526149b98282614852565b91505060a08301516149ce60a08601826147e5565b5060c08301516149e160c08601826147e5565b5060e083015184820360e08601526149f98282614852565b915050610100830151848203610100860152614a158282614852565b915050610120830151848203610120860152614a318282614852565b9150508091505092915050565b6000606083016000830151614a5660008601826147e5565b5060208301518482036020860152614a6e8282614852565b91505060408301518482036040860152614a888282614852565b9150508091505092915050565b600061010083016000830151614aae60008601826147e5565b506020830151614ac160208601826147e5565b5060408301518482036040860152614ad98282614852565b91505060608301518482036060860152614af38282614852565b9150506080830151614b0860808601826147e5565b5060a083015184820360a0860152614b2082826148dc565b91505060c083015184820360c0860152614b3a828261493a565b91505060e083015184820360e0860152614b548282614a3e565b9150508091505092915050565b600060c083016000830151614b7960008601826147e5565b5060208301518482036020860152614b918282614852565b9150506040830151614ba660408601826147e5565b506060830151614bb960608601826147e5565b5060808301518482036080860152614bd18282614852565b91505060a083015184820360a0860152614beb82826148dc565b9150508091505092915050565b600060a083016000830151614c1060008601826147e5565b506020830151614c2360208601826147f4565b5060408301518482036040860152614c3b8282614852565b91505060608301518482036060860152614c558282614a95565b91505060808301518482036080860152614c6f8282614b61565b9150508091505092915050565b6000614c888383614bf8565b905092915050565b6000602082019050919050565b6000614ca8826147b9565b614cb281856147c4565b935083602082028501614cc4856147d5565b8060005b85811015614d005784840389528151614ce18582614c7c565b9450614cec83614c90565b925060208a01995050600181019050614cc8565b50829750879550505050505092915050565b60006020820190508181036000830152614d2c8184614c9d565b905092915050565b600060208284031215614d4a57614d49613e6e565b5b6000614d5884828501613f65565b91505092915050565b600060a083016000830151614d7960008601826147e5565b506020830151614d8c60208601826147f4565b5060408301518482036040860152614da48282614852565b91505060608301518482036060860152614dbe8282614a95565b91505060808301518482036080860152614dd88282614b61565b9150508091505092915050565b60006020820190508181036000830152614dff8184614d61565b905092915050565b614e1081613f44565b82525050565b6000602082019050614e2b6000830184614e07565b92915050565b600082825260208201905092915050565b6000614e4d8261488b565b614e578185614e31565b9350614e62836148a7565b8060005b83811015614e93578151614e7a88826148b7565b9750614e85836148cf565b925050600181019050614e66565b5085935050505092915050565b60006020820190508181036000830152614eba8184614e42565b905092915050565b600082825260208201905092915050565b6000614ede82614803565b614ee88185614ec2565b9350614ef881856020860161481f565b614f0181613e7d565b840191505092915050565b600060c083016000830151614f2460008601826147e5565b5060208301518482036020860152614f3c8282614852565b91505060408301518482036040860152614f568282614852565b91505060608301518482036060860152614f708282614852565b91505060808301518482036080860152614f8a8282614852565b91505060a083015184820360a0860152614fa48282614852565b9150508091505092915050565b600060a083016000830151614fc960008601826147e5565b5060208301518482036020860152614fe18282614852565b91505060408301518482036040860152614ffb8282614852565b915050606083015184820360608601526150158282614852565b915050608083015161502a60808601826147e5565b508091505092915050565b600060e08201905061504a600083018a614e07565b6150576020830189614e07565b81810360408301526150698188614ed3565b9050818103606083015261507d8187614ed3565b905061508c6080830186614e07565b81810360a083015261509e8185614f0c565b905081810360c08301526150b28184614fb1565b905098975050505050505050565b6150c981613f7a565b82525050565b6000610100830160008301516150e860008601826147e5565b5060208301516150fb60208601826147e5565b50604083015184820360408601526151138282614852565b9150506060830151848203606086015261512d8282614852565b915050608083015161514260808601826147e5565b5060a083015184820360a086015261515a82826148dc565b91505060c083015184820360c0860152615174828261493a565b91505060e083015184820360e086015261518e8282614a3e565b9150508091505092915050565b600060c0830160008301516151b360008601826147e5565b50602083015184820360208601526151cb8282614852565b91505060408301516151e060408601826147e5565b5060608301516151f360608601826147e5565b506080830151848203608086015261520b8282614852565b91505060a083015184820360a086015261522582826148dc565b9150508091505092915050565b600060a0820190506152476000830188614e07565b61525460208301876150c0565b81810360408301526152668186614ed3565b9050818103606083015261527a81856150cf565b9050818103608083015261528e818461519b565b90509695505050505050565b600067ffffffffffffffff8211156152b5576152b4613e8e565b5b602082029050602081019050919050565b600060c082840312156152dc576152db613f3a565b5b6152e660c0613eee565b905060006152f684828501613f65565b600083015250602082013567ffffffffffffffff81111561531a57615319613f3f565b5b61532684828501614037565b602083015250604082013567ffffffffffffffff81111561534a57615349613f3f565b5b61535684828501614037565b604083015250606082013567ffffffffffffffff81111561537a57615379613f3f565b5b61538684828501614037565b606083015250608082013567ffffffffffffffff8111156153aa576153a9613f3f565b5b6153b684828501614037565b60808301525060a082013567ffffffffffffffff8111156153da576153d9613f3f565b5b6153e684828501614037565b60a08301525092915050565b600060a0828403121561540857615407613f3a565b5b61541260a0613eee565b9050600061542284828501613f65565b600083015250602082013567ffffffffffffffff81111561544657615445613f3f565b5b61545284828501614037565b602083015250604082013567ffffffffffffffff81111561547657615475613f3f565b5b61548284828501614037565b604083015250606082013567ffffffffffffffff8111156154a6576154a5613f3f565b5b6154b284828501614037565b60608301525060806154c684828501613f65565b60808301525092915050565b600060e082840312156154e8576154e7613f3a565b5b6154f260e0613eee565b9050600061550284828501613f65565b600083015250602061551684828501613f65565b602083015250604082013567ffffffffffffffff81111561553a57615539613f3f565b5b61554684828501614037565b604083015250606082013567ffffffffffffffff81111561556a57615569613f3f565b5b61557684828501614037565b606083015250608061558a84828501613f65565b60808301525060a082013567ffffffffffffffff8111156155ae576155ad613f3f565b5b6155ba848285016152c6565b60a08301525060c082013567ffffffffffffffff8111156155de576155dd613f3f565b5b6155ea848285016153f2565b60c08301525092915050565b60006156096156048461529a565b613eee565b9050808382526020820190506020840283018581111561562c5761562b613f35565b5b835b8181101561567357803567ffffffffffffffff81111561565157615650613e78565b5b80860161565e89826154d2565b8552602085019450505060208101905061562e565b5050509392505050565b600082601f83011261569257615691613e78565b5b81356156a28482602086016155f6565b91505092915050565b600080604083850312156156c2576156c1613e6e565b5b60006156d085828601613f65565b925050602083013567ffffffffffffffff8111156156f1576156f0613e73565b5b6156fd8582860161567d565b9150509250929050565b600081519050919050565b600082825260208201905092915050565b6000819050602082019050919050565b600060c08301600083015161574b60008601826147e5565b50602083015184820360208601526157638282614852565b9150506040830151848203604086015261577d8282614852565b915050606083015184820360608601526157978282614852565b915050608083015184820360808601526157b18282614852565b91505060a083015184820360a08601526157cb8282614852565b9150508091505092915050565b600060a0830160008301516157f060008601826147e5565b50602083015184820360208601526158088282614852565b915050604083015184820360408601526158228282614852565b9150506060830151848203606086015261583c8282614852565b915050608083015161585160808601826147e5565b508091505092915050565b600060e08301600083015161587460008601826147e5565b50602083015161588760208601826147e5565b506040830151848203604086015261589f8282614852565b915050606083015184820360608601526158b98282614852565b91505060808301516158ce60808601826147e5565b5060a083015184820360a08601526158e68282615733565b91505060c083015184820360c086015261590082826157d8565b9150508091505092915050565b6000615919838361585c565b905092915050565b6000602082019050919050565b600061593982615707565b6159438185615712565b93508360208202850161595585615723565b8060005b858110156159915784840389528151615972858261590d565b945061597d83615921565b925060208a01995050600181019050615959565b50829750879550505050505092915050565b600060208201905081810360008301526159bd818461592e565b905092915050565b7f4e487b7100000000000000000000000000000000000000000000000000000000600052603260045260246000fd5b7f4e487b7100000000000000000000000000000000000000000000000000000000600052601160045260246000fd5b6000615a2e82613f44565b91507fffffffffffffffffffffffffffffffffffffffffffffffffffffffffffffffff821415615a6157615a606159f4565b5b600182019050919050565b7f4e487b7100000000000000000000000000000000000000000000000000000000600052602260045260246000fd5b60006002820490506001821680615ab357607f821691505b60208210811415615ac757615ac6615a6c565b5b5091905056fea264697066735822122061e0b6f4e43b88e2df3cb4802c1911f889c2d59c40b79752c482027cc490ba6b64736f6c634300080b0033",
  "immutableReferences": {},
  "source": "// SPDX-License-Identifier: MIT\r\npragma solidity >=0.4.22 <0.9.0;\r\nimport \"./Remplissage.sol\";\r\n\r\ncontract RetraitCol is Remplissage {\r\n    //*********************************************************************************/\r\n    //second app\r\n    //******************************************************************************/\r\n    Operation[] public operationagrs;\r\n    OperationTank0[] public operationTankR;\r\n    uint[] public nbreOP ;\r\n    \r\n    function RetraitOperationTank(\r\n        OperationTank0[] memory operationTank,\r\n        uint256 count\r\n    ) public returns (OperationTank0[] memory tt0) {\r\n        nbreOP.push(0);\r\n        for (uint256 i = 0; i < count; i++) {\r\n            operationTankR.push(operationTank[i]);\r\n        }\r\n        return (operationTankR);\r\n    }\r\n    //get nombre operatuin\r\n    function getOperationNumbers()\r\n        public\r\n        view\r\n        returns (uint[] memory result)\r\n    {\r\n        return nbreOP;\r\n    }\r\n    //get all operations\r\n\r\n    function getOperationTanks()\r\n        public\r\n        view\r\n        returns (OperationTank0[] memory result)\r\n    {\r\n        return operationTankR;\r\n    }\r\n\r\n    function getOperationbycode(uint256 code, Operation[] memory operation2)\r\n        public\r\n        returns (Operation[] memory operationtwo)\r\n    {\r\n        for (uint256 i = 0; i < operationTankR.length; i++) {\r\n            if (operationTankR[i].operation.code == code) {\r\n                for (uint256 j = 0;j < operationTankR[i].tank.codeTank.length;j++)\r\n                   {\r\n                    for (uint256 f = 0; f < operation2.length; f++) {\r\n                        if (\r\n                            operation2[f].code ==\r\n                            operationTankR[i].tank.codeTank[j]\r\n                        ) {\r\n                            operationagrs.push(operation2[f]);\r\n                        }\r\n                    }\r\n                }\r\n            }\r\n        }\r\n        return operationagrs;\r\n    }\r\n\r\n    function getOperationFromAgrsbycode(uint256 code)\r\n        public\r\n        view\r\n        returns (OperationTank0 memory operation)\r\n    {\r\n        for (uint256 i = 0; i < operationTankR.length; i++) {\r\n            if (operationTankR[i].operation.code == code) {\r\n                return operationTankR[i];\r\n            }\r\n        }\r\n    }\r\n}\r\n",
  "sourcePath": "C:\\Users\\ASUS\\Desktop\\pfe\\PFE_Project(app4)\\PFE-FrontEnd\\contracts\\RetraitCol.sol",
  "compiler": {
    "name": "solc",
    "version": "0.8.11+commit.d7f03943.Emscripten.clang"
  },
  "schemaVersion": "3.4.5",
  "updatedAt": "2022-06-09T19:37:15.674Z",
  "networkType": "ethereum",
  "devdoc": {
    "kind": "dev",
    "methods": {},
    "version": 1
  },
  "userdoc": {
    "kind": "user",
    "methods": {},
    "version": 1
  }
}