{
  "contractName": "RetraitCol",
  "abi": [
    {
      "inputs": [
        {
          "internalType": "uint256",
          "name": "",
          "type": "uint256"
        }
      ],
      "name": "operationTankR",
      "outputs": [
        {
          "internalType": "uint256",
          "name": "idOpTank",
          "type": "uint256"
        },
        {
          "internalType": "int256",
          "name": "qteInsereTank",
          "type": "int256"
        },
        {
          "internalType": "string",
          "name": "date",
          "type": "string"
        },
        {
          "components": [
            {
              "internalType": "uint256",
              "name": "idOperation",
              "type": "uint256"
            },
            {
              "internalType": "uint256",
              "name": "poidsLait",
              "type": "uint256"
            },
            {
              "internalType": "string",
              "name": "dateOperation",
              "type": "string"
            },
            {
              "internalType": "string",
              "name": "typeOp",
              "type": "string"
            },
            {
              "internalType": "uint256",
              "name": "code",
              "type": "uint256"
            },
            {
              "internalType": "uint256[]",
              "name": "codeRemplissage",
              "type": "uint256[]"
            },
            {
              "components": [
                {
                  "internalType": "uint256",
                  "name": "idChef",
                  "type": "uint256"
                },
                {
                  "internalType": "string",
                  "name": "nom",
                  "type": "string"
                },
                {
                  "internalType": "string",
                  "name": "prenom",
                  "type": "string"
                },
                {
                  "internalType": "string",
                  "name": "email",
                  "type": "string"
                },
                {
                  "internalType": "string",
                  "name": "adress",
                  "type": "string"
                },
                {
                  "internalType": "uint256",
                  "name": "tel",
                  "type": "uint256"
                },
                {
                  "internalType": "uint256",
                  "name": "cin",
                  "type": "uint256"
                },
                {
                  "internalType": "string",
                  "name": "username",
                  "type": "string"
                },
                {
                  "internalType": "string",
                  "name": "password",
                  "type": "string"
                }
              ],
              "internalType": "struct Remplissage.Chef",
              "name": "chef",
              "type": "tuple"
            },
            {
              "components": [
                {
                  "internalType": "uint256",
                  "name": "idUsine",
                  "type": "uint256"
                },
                {
                  "internalType": "string",
                  "name": "nomUsine",
                  "type": "string"
                },
                {
                  "internalType": "string",
                  "name": "adresse",
                  "type": "string"
                }
              ],
              "internalType": "struct Remplissage.Usine",
              "name": "usine",
              "type": "tuple"
            }
          ],
          "internalType": "struct Remplissage.Operation01",
          "name": "operation",
          "type": "tuple"
        },
        {
          "components": [
            {
              "internalType": "uint256",
              "name": "idTank",
              "type": "uint256"
            },
            {
              "internalType": "string",
              "name": "matricule",
              "type": "string"
            },
            {
              "internalType": "uint256",
              "name": "poidVide",
              "type": "uint256"
            },
            {
              "internalType": "uint256",
              "name": "poidActuel",
              "type": "uint256"
            },
            {
              "internalType": "string",
              "name": "etat",
              "type": "string"
            },
            {
              "internalType": "uint256[]",
              "name": "codeTank",
              "type": "uint256[]"
            }
          ],
          "internalType": "struct Remplissage.Tank",
          "name": "tank",
          "type": "tuple"
        }
      ],
      "stateMutability": "view",
      "type": "function",
      "constant": true
    },
    {
      "inputs": [
        {
          "internalType": "uint256",
          "name": "",
          "type": "uint256"
        }
      ],
      "name": "operationagrs",
      "outputs": [
        {
          "internalType": "uint256",
          "name": "idOperation",
          "type": "uint256"
        },
        {
          "internalType": "uint256",
          "name": "code",
          "type": "uint256"
        },
        {
          "internalType": "string",
          "name": "dateOperation",
          "type": "string"
        },
        {
          "internalType": "string",
          "name": "typeOp",
          "type": "string"
        },
        {
          "internalType": "uint256",
          "name": "poidsLait",
          "type": "uint256"
        },
        {
          "components": [
            {
              "internalType": "uint256",
              "name": "idAgriculteur",
              "type": "uint256"
            },
            {
              "internalType": "string",
              "name": "nom",
              "type": "string"
            },
            {
              "internalType": "string",
              "name": "prenom",
              "type": "string"
            },
            {
              "internalType": "string",
              "name": "username",
              "type": "string"
            },
            {
              "internalType": "string",
              "name": "password",
              "type": "string"
            }
          ],
          "internalType": "struct Remplissage.Agriculteur",
          "name": "agriculteur",
          "type": "tuple"
        },
        {
          "components": [
            {
              "internalType": "uint256",
              "name": "idCollecteur",
              "type": "uint256"
            },
            {
              "internalType": "string",
              "name": "nomCollecteur",
              "type": "string"
            },
            {
              "internalType": "string",
              "name": "prenomCollecteur",
              "type": "string"
            },
            {
              "internalType": "string",
              "name": "matricule",
              "type": "string"
            },
            {
              "internalType": "string",
              "name": "adresse",
              "type": "string"
            },
            {
              "internalType": "uint256",
              "name": "tel",
              "type": "uint256"
            }
          ],
          "internalType": "struct Remplissage.Collecteur",
          "name": "collecteur",
          "type": "tuple"
        }
      ],
      "stateMutability": "view",
      "type": "function",
      "constant": true
    },
    {
      "inputs": [
        {
          "components": [
            {
              "internalType": "uint256",
              "name": "idOpTank",
              "type": "uint256"
            },
            {
              "internalType": "int256",
              "name": "qteInsereTank",
              "type": "int256"
            },
            {
              "internalType": "string",
              "name": "date",
              "type": "string"
            },
            {
              "components": [
                {
                  "internalType": "uint256",
                  "name": "idOperation",
                  "type": "uint256"
                },
                {
                  "internalType": "uint256",
                  "name": "poidsLait",
                  "type": "uint256"
                },
                {
                  "internalType": "string",
                  "name": "dateOperation",
                  "type": "string"
                },
                {
                  "internalType": "string",
                  "name": "typeOp",
                  "type": "string"
                },
                {
                  "internalType": "uint256",
                  "name": "code",
                  "type": "uint256"
                },
                {
                  "internalType": "uint256[]",
                  "name": "codeRemplissage",
                  "type": "uint256[]"
                },
                {
                  "components": [
                    {
                      "internalType": "uint256",
                      "name": "idChef",
                      "type": "uint256"
                    },
                    {
                      "internalType": "string",
                      "name": "nom",
                      "type": "string"
                    },
                    {
                      "internalType": "string",
                      "name": "prenom",
                      "type": "string"
                    },
                    {
                      "internalType": "string",
                      "name": "email",
                      "type": "string"
                    },
                    {
                      "internalType": "string",
                      "name": "adress",
                      "type": "string"
                    },
                    {
                      "internalType": "uint256",
                      "name": "tel",
                      "type": "uint256"
                    },
                    {
                      "internalType": "uint256",
                      "name": "cin",
                      "type": "uint256"
                    },
                    {
                      "internalType": "string",
                      "name": "username",
                      "type": "string"
                    },
                    {
                      "internalType": "string",
                      "name": "password",
                      "type": "string"
                    }
                  ],
                  "internalType": "struct Remplissage.Chef",
                  "name": "chef",
                  "type": "tuple"
                },
                {
                  "components": [
                    {
                      "internalType": "uint256",
                      "name": "idUsine",
                      "type": "uint256"
                    },
                    {
                      "internalType": "string",
                      "name": "nomUsine",
                      "type": "string"
                    },
                    {
                      "internalType": "string",
                      "name": "adresse",
                      "type": "string"
                    }
                  ],
                  "internalType": "struct Remplissage.Usine",
                  "name": "usine",
                  "type": "tuple"
                }
              ],
              "internalType": "struct Remplissage.Operation01",
              "name": "operation",
              "type": "tuple"
            },
            {
              "components": [
                {
                  "internalType": "uint256",
                  "name": "idTank",
                  "type": "uint256"
                },
                {
                  "internalType": "string",
                  "name": "matricule",
                  "type": "string"
                },
                {
                  "internalType": "uint256",
                  "name": "poidVide",
                  "type": "uint256"
                },
                {
                  "internalType": "uint256",
                  "name": "poidActuel",
                  "type": "uint256"
                },
                {
                  "internalType": "string",
                  "name": "etat",
                  "type": "string"
                },
                {
                  "internalType": "uint256[]",
                  "name": "codeTank",
                  "type": "uint256[]"
                }
              ],
              "internalType": "struct Remplissage.Tank",
              "name": "tank",
              "type": "tuple"
            }
          ],
          "internalType": "struct Remplissage.OperationTank0[]",
          "name": "operationTank",
          "type": "tuple[]"
        },
        {
          "internalType": "uint256",
          "name": "count",
          "type": "uint256"
        }
      ],
      "name": "RetraitOperationTank",
      "outputs": [
        {
          "components": [
            {
              "internalType": "uint256",
              "name": "idOpTank",
              "type": "uint256"
            },
            {
              "internalType": "int256",
              "name": "qteInsereTank",
              "type": "int256"
            },
            {
              "internalType": "string",
              "name": "date",
              "type": "string"
            },
            {
              "components": [
                {
                  "internalType": "uint256",
                  "name": "idOperation",
                  "type": "uint256"
                },
                {
                  "internalType": "uint256",
                  "name": "poidsLait",
                  "type": "uint256"
                },
                {
                  "internalType": "string",
                  "name": "dateOperation",
                  "type": "string"
                },
                {
                  "internalType": "string",
                  "name": "typeOp",
                  "type": "string"
                },
                {
                  "internalType": "uint256",
                  "name": "code",
                  "type": "uint256"
                },
                {
                  "internalType": "uint256[]",
                  "name": "codeRemplissage",
                  "type": "uint256[]"
                },
                {
                  "components": [
                    {
                      "internalType": "uint256",
                      "name": "idChef",
                      "type": "uint256"
                    },
                    {
                      "internalType": "string",
                      "name": "nom",
                      "type": "string"
                    },
                    {
                      "internalType": "string",
                      "name": "prenom",
                      "type": "string"
                    },
                    {
                      "internalType": "string",
                      "name": "email",
                      "type": "string"
                    },
                    {
                      "internalType": "string",
                      "name": "adress",
                      "type": "string"
                    },
                    {
                      "internalType": "uint256",
                      "name": "tel",
                      "type": "uint256"
                    },
                    {
                      "internalType": "uint256",
                      "name": "cin",
                      "type": "uint256"
                    },
                    {
                      "internalType": "string",
                      "name": "username",
                      "type": "string"
                    },
                    {
                      "internalType": "string",
                      "name": "password",
                      "type": "string"
                    }
                  ],
                  "internalType": "struct Remplissage.Chef",
                  "name": "chef",
                  "type": "tuple"
                },
                {
                  "components": [
                    {
                      "internalType": "uint256",
                      "name": "idUsine",
                      "type": "uint256"
                    },
                    {
                      "internalType": "string",
                      "name": "nomUsine",
                      "type": "string"
                    },
                    {
                      "internalType": "string",
                      "name": "adresse",
                      "type": "string"
                    }
                  ],
                  "internalType": "struct Remplissage.Usine",
                  "name": "usine",
                  "type": "tuple"
                }
              ],
              "internalType": "struct Remplissage.Operation01",
              "name": "operation",
              "type": "tuple"
            },
            {
              "components": [
                {
                  "internalType": "uint256",
                  "name": "idTank",
                  "type": "uint256"
                },
                {
                  "internalType": "string",
                  "name": "matricule",
                  "type": "string"
                },
                {
                  "internalType": "uint256",
                  "name": "poidVide",
                  "type": "uint256"
                },
                {
                  "internalType": "uint256",
                  "name": "poidActuel",
                  "type": "uint256"
                },
                {
                  "internalType": "string",
                  "name": "etat",
                  "type": "string"
                },
                {
                  "internalType": "uint256[]",
                  "name": "codeTank",
                  "type": "uint256[]"
                }
              ],
              "internalType": "struct Remplissage.Tank",
              "name": "tank",
              "type": "tuple"
            }
          ],
          "internalType": "struct Remplissage.OperationTank0[]",
          "name": "tt0",
          "type": "tuple[]"
        }
      ],
      "stateMutability": "nonpayable",
      "type": "function"
    },
    {
      "inputs": [],
      "name": "getOperationTanks",
      "outputs": [
        {
          "components": [
            {
              "internalType": "uint256",
              "name": "idOpTank",
              "type": "uint256"
            },
            {
              "internalType": "int256",
              "name": "qteInsereTank",
              "type": "int256"
            },
            {
              "internalType": "string",
              "name": "date",
              "type": "string"
            },
            {
              "components": [
                {
                  "internalType": "uint256",
                  "name": "idOperation",
                  "type": "uint256"
                },
                {
                  "internalType": "uint256",
                  "name": "poidsLait",
                  "type": "uint256"
                },
                {
                  "internalType": "string",
                  "name": "dateOperation",
                  "type": "string"
                },
                {
                  "internalType": "string",
                  "name": "typeOp",
                  "type": "string"
                },
                {
                  "internalType": "uint256",
                  "name": "code",
                  "type": "uint256"
                },
                {
                  "internalType": "uint256[]",
                  "name": "codeRemplissage",
                  "type": "uint256[]"
                },
                {
                  "components": [
                    {
                      "internalType": "uint256",
                      "name": "idChef",
                      "type": "uint256"
                    },
                    {
                      "internalType": "string",
                      "name": "nom",
                      "type": "string"
                    },
                    {
                      "internalType": "string",
                      "name": "prenom",
                      "type": "string"
                    },
                    {
                      "internalType": "string",
                      "name": "email",
                      "type": "string"
                    },
                    {
                      "internalType": "string",
                      "name": "adress",
                      "type": "string"
                    },
                    {
                      "internalType": "uint256",
                      "name": "tel",
                      "type": "uint256"
                    },
                    {
                      "internalType": "uint256",
                      "name": "cin",
                      "type": "uint256"
                    },
                    {
                      "internalType": "string",
                      "name": "username",
                      "type": "string"
                    },
                    {
                      "internalType": "string",
                      "name": "password",
                      "type": "string"
                    }
                  ],
                  "internalType": "struct Remplissage.Chef",
                  "name": "chef",
                  "type": "tuple"
                },
                {
                  "components": [
                    {
                      "internalType": "uint256",
                      "name": "idUsine",
                      "type": "uint256"
                    },
                    {
                      "internalType": "string",
                      "name": "nomUsine",
                      "type": "string"
                    },
                    {
                      "internalType": "string",
                      "name": "adresse",
                      "type": "string"
                    }
                  ],
                  "internalType": "struct Remplissage.Usine",
                  "name": "usine",
                  "type": "tuple"
                }
              ],
              "internalType": "struct Remplissage.Operation01",
              "name": "operation",
              "type": "tuple"
            },
            {
              "components": [
                {
                  "internalType": "uint256",
                  "name": "idTank",
                  "type": "uint256"
                },
                {
                  "internalType": "string",
                  "name": "matricule",
                  "type": "string"
                },
                {
                  "internalType": "uint256",
                  "name": "poidVide",
                  "type": "uint256"
                },
                {
                  "internalType": "uint256",
                  "name": "poidActuel",
                  "type": "uint256"
                },
                {
                  "internalType": "string",
                  "name": "etat",
                  "type": "string"
                },
                {
                  "internalType": "uint256[]",
                  "name": "codeTank",
                  "type": "uint256[]"
                }
              ],
              "internalType": "struct Remplissage.Tank",
              "name": "tank",
              "type": "tuple"
            }
          ],
          "internalType": "struct Remplissage.OperationTank0[]",
          "name": "result",
          "type": "tuple[]"
        }
      ],
      "stateMutability": "view",
      "type": "function",
      "constant": true
    },
    {
      "inputs": [
        {
          "internalType": "uint256",
          "name": "code",
          "type": "uint256"
        },
        {
          "components": [
            {
              "internalType": "uint256",
              "name": "idOperation",
              "type": "uint256"
            },
            {
              "internalType": "uint256",
              "name": "code",
              "type": "uint256"
            },
            {
              "internalType": "string",
              "name": "dateOperation",
              "type": "string"
            },
            {
              "internalType": "string",
              "name": "typeOp",
              "type": "string"
            },
            {
              "internalType": "uint256",
              "name": "poidsLait",
              "type": "uint256"
            },
            {
              "components": [
                {
                  "internalType": "uint256",
                  "name": "idAgriculteur",
                  "type": "uint256"
                },
                {
                  "internalType": "string",
                  "name": "nom",
                  "type": "string"
                },
                {
                  "internalType": "string",
                  "name": "prenom",
                  "type": "string"
                },
                {
                  "internalType": "string",
                  "name": "username",
                  "type": "string"
                },
                {
                  "internalType": "string",
                  "name": "password",
                  "type": "string"
                }
              ],
              "internalType": "struct Remplissage.Agriculteur",
              "name": "agriculteur",
              "type": "tuple"
            },
            {
              "components": [
                {
                  "internalType": "uint256",
                  "name": "idCollecteur",
                  "type": "uint256"
                },
                {
                  "internalType": "string",
                  "name": "nomCollecteur",
                  "type": "string"
                },
                {
                  "internalType": "string",
                  "name": "prenomCollecteur",
                  "type": "string"
                },
                {
                  "internalType": "string",
                  "name": "matricule",
                  "type": "string"
                },
                {
                  "internalType": "string",
                  "name": "adresse",
                  "type": "string"
                },
                {
                  "internalType": "uint256",
                  "name": "tel",
                  "type": "uint256"
                }
              ],
              "internalType": "struct Remplissage.Collecteur",
              "name": "collecteur",
              "type": "tuple"
            }
          ],
          "internalType": "struct Remplissage.Operation[]",
          "name": "operation2",
          "type": "tuple[]"
        }
      ],
      "name": "getOperationbycode",
      "outputs": [
        {
          "components": [
            {
              "internalType": "uint256",
              "name": "idOperation",
              "type": "uint256"
            },
            {
              "internalType": "uint256",
              "name": "code",
              "type": "uint256"
            },
            {
              "internalType": "string",
              "name": "dateOperation",
              "type": "string"
            },
            {
              "internalType": "string",
              "name": "typeOp",
              "type": "string"
            },
            {
              "internalType": "uint256",
              "name": "poidsLait",
              "type": "uint256"
            },
            {
              "components": [
                {
                  "internalType": "uint256",
                  "name": "idAgriculteur",
                  "type": "uint256"
                },
                {
                  "internalType": "string",
                  "name": "nom",
                  "type": "string"
                },
                {
                  "internalType": "string",
                  "name": "prenom",
                  "type": "string"
                },
                {
                  "internalType": "string",
                  "name": "username",
                  "type": "string"
                },
                {
                  "internalType": "string",
                  "name": "password",
                  "type": "string"
                }
              ],
              "internalType": "struct Remplissage.Agriculteur",
              "name": "agriculteur",
              "type": "tuple"
            },
            {
              "components": [
                {
                  "internalType": "uint256",
                  "name": "idCollecteur",
                  "type": "uint256"
                },
                {
                  "internalType": "string",
                  "name": "nomCollecteur",
                  "type": "string"
                },
                {
                  "internalType": "string",
                  "name": "prenomCollecteur",
                  "type": "string"
                },
                {
                  "internalType": "string",
                  "name": "matricule",
                  "type": "string"
                },
                {
                  "internalType": "string",
                  "name": "adresse",
                  "type": "string"
                },
                {
                  "internalType": "uint256",
                  "name": "tel",
                  "type": "uint256"
                }
              ],
              "internalType": "struct Remplissage.Collecteur",
              "name": "collecteur",
              "type": "tuple"
            }
          ],
          "internalType": "struct Remplissage.Operation[]",
          "name": "operationtwo",
          "type": "tuple[]"
        }
      ],
      "stateMutability": "nonpayable",
      "type": "function"
    },
    {
      "inputs": [
        {
          "internalType": "uint256",
          "name": "code",
          "type": "uint256"
        }
      ],
      "name": "getOperationFromAgrsbycode",
      "outputs": [
        {
          "components": [
            {
              "internalType": "uint256",
              "name": "idOpTank",
              "type": "uint256"
            },
            {
              "internalType": "int256",
              "name": "qteInsereTank",
              "type": "int256"
            },
            {
              "internalType": "string",
              "name": "date",
              "type": "string"
            },
            {
              "components": [
                {
                  "internalType": "uint256",
                  "name": "idOperation",
                  "type": "uint256"
                },
                {
                  "internalType": "uint256",
                  "name": "poidsLait",
                  "type": "uint256"
                },
                {
                  "internalType": "string",
                  "name": "dateOperation",
                  "type": "string"
                },
                {
                  "internalType": "string",
                  "name": "typeOp",
                  "type": "string"
                },
                {
                  "internalType": "uint256",
                  "name": "code",
                  "type": "uint256"
                },
                {
                  "internalType": "uint256[]",
                  "name": "codeRemplissage",
                  "type": "uint256[]"
                },
                {
                  "components": [
                    {
                      "internalType": "uint256",
                      "name": "idChef",
                      "type": "uint256"
                    },
                    {
                      "internalType": "string",
                      "name": "nom",
                      "type": "string"
                    },
                    {
                      "internalType": "string",
                      "name": "prenom",
                      "type": "string"
                    },
                    {
                      "internalType": "string",
                      "name": "email",
                      "type": "string"
                    },
                    {
                      "internalType": "string",
                      "name": "adress",
                      "type": "string"
                    },
                    {
                      "internalType": "uint256",
                      "name": "tel",
                      "type": "uint256"
                    },
                    {
                      "internalType": "uint256",
                      "name": "cin",
                      "type": "uint256"
                    },
                    {
                      "internalType": "string",
                      "name": "username",
                      "type": "string"
                    },
                    {
                      "internalType": "string",
                      "name": "password",
                      "type": "string"
                    }
                  ],
                  "internalType": "struct Remplissage.Chef",
                  "name": "chef",
                  "type": "tuple"
                },
                {
                  "components": [
                    {
                      "internalType": "uint256",
                      "name": "idUsine",
                      "type": "uint256"
                    },
                    {
                      "internalType": "string",
                      "name": "nomUsine",
                      "type": "string"
                    },
                    {
                      "internalType": "string",
                      "name": "adresse",
                      "type": "string"
                    }
                  ],
                  "internalType": "struct Remplissage.Usine",
                  "name": "usine",
                  "type": "tuple"
                }
              ],
              "internalType": "struct Remplissage.Operation01",
              "name": "operation",
              "type": "tuple"
            },
            {
              "components": [
                {
                  "internalType": "uint256",
                  "name": "idTank",
                  "type": "uint256"
                },
                {
                  "internalType": "string",
                  "name": "matricule",
                  "type": "string"
                },
                {
                  "internalType": "uint256",
                  "name": "poidVide",
                  "type": "uint256"
                },
                {
                  "internalType": "uint256",
                  "name": "poidActuel",
                  "type": "uint256"
                },
                {
                  "internalType": "string",
                  "name": "etat",
                  "type": "string"
                },
                {
                  "internalType": "uint256[]",
                  "name": "codeTank",
                  "type": "uint256[]"
                }
              ],
              "internalType": "struct Remplissage.Tank",
              "name": "tank",
              "type": "tuple"
            }
          ],
          "internalType": "struct Remplissage.OperationTank0",
          "name": "operation",
          "type": "tuple"
        }
      ],
      "stateMutability": "view",
      "type": "function",
      "constant": true
    }
  ],
  "bytecode": "0x608060405234801561001057600080fd5b5061568280620000216000396000f3fe608060405234801561001057600080fd5b50600436106100625760003560e01c806316638829146100675780637e182003146100975780638724a430146100c7578063a96fe5f0146100fd578063c9c28e0f14610131578063e30443171461014f575b600080fd5b610081600480360381019061007c9190613b27565b61017f565b60405161008e9190613fea565b60405180910390f35b6100b160048036038101906100ac9190614561565b610afa565b6040516100be9190614859565b60405180910390f35b6100e160048036038101906100dc9190613b27565b61145a565b6040516100f497969594939291906149fd565b60405180910390f35b61011760048036038101906101129190613b27565b611a7e565b604051610128959493929190614bfa565b60405180910390f35b610139612376565b6040516101469190614da8565b60405180910390f35b610169600480360381019061016491906154e8565b612cb9565b6040516101769190614da8565b60405180910390f35b6101876138be565b60005b600180549050811015610af35782600182815481106101ac576101ab615544565b5b90600052602060002090601b0201600301600401541415610ae057600181815481106101db576101da615544565b5b90600052602060002090601b02016040518060a00160405290816000820154815260200160018201548152602001600282018054610218906155a2565b80601f0160208091040260200160405190810160405280929190818152602001828054610244906155a2565b80156102915780601f1061026657610100808354040283529160200191610291565b820191906000526020600020905b81548152906001019060200180831161027457829003601f168201915b50505050508152602001600382016040518061010001604052908160008201548152602001600182015481526020016002820180546102cf906155a2565b80601f01602080910402602001604051908101604052809291908181526020018280546102fb906155a2565b80156103485780601f1061031d57610100808354040283529160200191610348565b820191906000526020600020905b81548152906001019060200180831161032b57829003601f168201915b50505050508152602001600382018054610361906155a2565b80601f016020809104026020016040519081016040528092919081815260200182805461038d906155a2565b80156103da5780601f106103af576101008083540402835291602001916103da565b820191906000526020600020905b8154815290600101906020018083116103bd57829003601f168201915b50505050508152602001600482015481526020016005820180548060200260200160405190810160405280929190818152602001828054801561043c57602002820191906000526020600020905b815481526020019060010190808311610428575b50505050508152602001600682016040518061012001604052908160008201548152602001600182018054610470906155a2565b80601f016020809104026020016040519081016040528092919081815260200182805461049c906155a2565b80156104e95780601f106104be576101008083540402835291602001916104e9565b820191906000526020600020905b8154815290600101906020018083116104cc57829003601f168201915b50505050508152602001600282018054610502906155a2565b80601f016020809104026020016040519081016040528092919081815260200182805461052e906155a2565b801561057b5780601f106105505761010080835404028352916020019161057b565b820191906000526020600020905b81548152906001019060200180831161055e57829003601f168201915b50505050508152602001600382018054610594906155a2565b80601f01602080910402602001604051908101604052809291908181526020018280546105c0906155a2565b801561060d5780601f106105e25761010080835404028352916020019161060d565b820191906000526020600020905b8154815290600101906020018083116105f057829003601f168201915b50505050508152602001600482018054610626906155a2565b80601f0160208091040260200160405190810160405280929190818152602001828054610652906155a2565b801561069f5780601f106106745761010080835404028352916020019161069f565b820191906000526020600020905b81548152906001019060200180831161068257829003601f168201915b5050505050815260200160058201548152602001600682015481526020016007820180546106cc906155a2565b80601f01602080910402602001604051908101604052809291908181526020018280546106f8906155a2565b80156107455780601f1061071a57610100808354040283529160200191610745565b820191906000526020600020905b81548152906001019060200180831161072857829003601f168201915b5050505050815260200160088201805461075e906155a2565b80601f016020809104026020016040519081016040528092919081815260200182805461078a906155a2565b80156107d75780601f106107ac576101008083540402835291602001916107d7565b820191906000526020600020905b8154815290600101906020018083116107ba57829003601f168201915b5050505050815250508152602001600f82016040518060600160405290816000820154815260200160018201805461080e906155a2565b80601f016020809104026020016040519081016040528092919081815260200182805461083a906155a2565b80156108875780601f1061085c57610100808354040283529160200191610887565b820191906000526020600020905b81548152906001019060200180831161086a57829003601f168201915b505050505081526020016002820180546108a0906155a2565b80601f01602080910402602001604051908101604052809291908181526020018280546108cc906155a2565b80156109195780601f106108ee57610100808354040283529160200191610919565b820191906000526020600020905b8154815290600101906020018083116108fc57829003601f168201915b505050505081525050815250508152602001601582016040518060c001604052908160008201548152602001600182018054610954906155a2565b80601f0160208091040260200160405190810160405280929190818152602001828054610980906155a2565b80156109cd5780601f106109a2576101008083540402835291602001916109cd565b820191906000526020600020905b8154815290600101906020018083116109b057829003601f168201915b5050505050815260200160028201548152602001600382015481526020016004820180546109fa906155a2565b80601f0160208091040260200160405190810160405280929190818152602001828054610a26906155a2565b8015610a735780601f10610a4857610100808354040283529160200191610a73565b820191906000526020600020905b815481529060010190602001808311610a5657829003601f168201915b5050505050815260200160058201805480602002602001604051908101604052809291908181526020018280548015610acb57602002820191906000526020600020905b815481526020019060010190808311610ab7575b50505050508152505081525050915050610af5565b8080610aeb90615603565b91505061018a565b505b919050565b606060005b600180549050811015610de1578360018281548110610b2157610b20615544565b5b90600052602060002090601b0201600301600401541415610dce5760005b60018281548110610b5357610b52615544565b5b90600052602060002090601b020160150160050180549050811015610dcc5760005b8451811015610db85760018381548110610b9257610b91615544565b5b90600052602060002090601b02016015016005018281548110610bb857610bb7615544565b5b9060005260206000200154858281518110610bd657610bd5615544565b5b6020026020010151602001511415610da5576000858281518110610bfd57610bfc615544565b5b6020026020010151908060018154018082558091505060019003906000526020600020906010020160009091909190915060008201518160000155602082015181600101556040820151816002019080519060200190610c5e9291906138f9565b506060820151816003019080519060200190610c7b9291906138f9565b506080820151816004015560a082015181600501600082015181600001556020820151816001019080519060200190610cb59291906138f9565b506040820151816002019080519060200190610cd29291906138f9565b506060820151816003019080519060200190610cef9291906138f9565b506080820151816004019080519060200190610d0c9291906138f9565b50505060c082015181600a01600082015181600001556020820151816001019080519060200190610d3e9291906138f9565b506040820151816002019080519060200190610d5b9291906138f9565b506060820151816003019080519060200190610d789291906138f9565b506080820151816004019080519060200190610d959291906138f9565b5060a08201518160050155505050505b8080610db090615603565b915050610b75565b508080610dc490615603565b915050610b3f565b505b8080610dd990615603565b915050610aff565b506000805480602002602001604051908101604052809291908181526020016000905b8282101561144e57838290600052602060002090601002016040518060e00160405290816000820154815260200160018201548152602001600282018054610e4b906155a2565b80601f0160208091040260200160405190810160405280929190818152602001828054610e77906155a2565b8015610ec45780601f10610e9957610100808354040283529160200191610ec4565b820191906000526020600020905b815481529060010190602001808311610ea757829003601f168201915b50505050508152602001600382018054610edd906155a2565b80601f0160208091040260200160405190810160405280929190818152602001828054610f09906155a2565b8015610f565780601f10610f2b57610100808354040283529160200191610f56565b820191906000526020600020905b815481529060010190602001808311610f3957829003601f168201915b5050505050815260200160048201548152602001600582016040518060a001604052908160008201548152602001600182018054610f93906155a2565b80601f0160208091040260200160405190810160405280929190818152602001828054610fbf906155a2565b801561100c5780601f10610fe15761010080835404028352916020019161100c565b820191906000526020600020905b815481529060010190602001808311610fef57829003601f168201915b50505050508152602001600282018054611025906155a2565b80601f0160208091040260200160405190810160405280929190818152602001828054611051906155a2565b801561109e5780601f106110735761010080835404028352916020019161109e565b820191906000526020600020905b81548152906001019060200180831161108157829003601f168201915b505050505081526020016003820180546110b7906155a2565b80601f01602080910402602001604051908101604052809291908181526020018280546110e3906155a2565b80156111305780601f1061110557610100808354040283529160200191611130565b820191906000526020600020905b81548152906001019060200180831161111357829003601f168201915b50505050508152602001600482018054611149906155a2565b80601f0160208091040260200160405190810160405280929190818152602001828054611175906155a2565b80156111c25780601f10611197576101008083540402835291602001916111c2565b820191906000526020600020905b8154815290600101906020018083116111a557829003601f168201915b5050505050815250508152602001600a82016040518060c0016040529081600082015481526020016001820180546111f9906155a2565b80601f0160208091040260200160405190810160405280929190818152602001828054611225906155a2565b80156112725780601f1061124757610100808354040283529160200191611272565b820191906000526020600020905b81548152906001019060200180831161125557829003601f168201915b5050505050815260200160028201805461128b906155a2565b80601f01602080910402602001604051908101604052809291908181526020018280546112b7906155a2565b80156113045780601f106112d957610100808354040283529160200191611304565b820191906000526020600020905b8154815290600101906020018083116112e757829003601f168201915b5050505050815260200160038201805461131d906155a2565b80601f0160208091040260200160405190810160405280929190818152602001828054611349906155a2565b80156113965780601f1061136b57610100808354040283529160200191611396565b820191906000526020600020905b81548152906001019060200180831161137957829003601f168201915b505050505081526020016004820180546113af906155a2565b80601f01602080910402602001604051908101604052809291908181526020018280546113db906155a2565b80156114285780601f106113fd57610100808354040283529160200191611428565b820191906000526020600020905b81548152906001019060200180831161140b57829003601f168201915b505050505081526020016005820154815250508152505081526020019060010190610e04565b50505050905092915050565b6000818154811061146a57600080fd5b9060005260206000209060100201600091509050806000015490806001015490806002018054611499906155a2565b80601f01602080910402602001604051908101604052809291908181526020018280546114c5906155a2565b80156115125780601f106114e757610100808354040283529160200191611512565b820191906000526020600020905b8154815290600101906020018083116114f557829003601f168201915b505050505090806003018054611527906155a2565b80601f0160208091040260200160405190810160405280929190818152602001828054611553906155a2565b80156115a05780601f10611575576101008083540402835291602001916115a0565b820191906000526020600020905b81548152906001019060200180831161158357829003601f168201915b505050505090806004015490806005016040518060a0016040529081600082015481526020016001820180546115d5906155a2565b80601f0160208091040260200160405190810160405280929190818152602001828054611601906155a2565b801561164e5780601f106116235761010080835404028352916020019161164e565b820191906000526020600020905b81548152906001019060200180831161163157829003601f168201915b50505050508152602001600282018054611667906155a2565b80601f0160208091040260200160405190810160405280929190818152602001828054611693906155a2565b80156116e05780601f106116b5576101008083540402835291602001916116e0565b820191906000526020600020905b8154815290600101906020018083116116c357829003601f168201915b505050505081526020016003820180546116f9906155a2565b80601f0160208091040260200160405190810160405280929190818152602001828054611725906155a2565b80156117725780601f1061174757610100808354040283529160200191611772565b820191906000526020600020905b81548152906001019060200180831161175557829003601f168201915b5050505050815260200160048201805461178b906155a2565b80601f01602080910402602001604051908101604052809291908181526020018280546117b7906155a2565b80156118045780601f106117d957610100808354040283529160200191611804565b820191906000526020600020905b8154815290600101906020018083116117e757829003601f168201915b5050505050815250509080600a016040518060c001604052908160008201548152602001600182018054611837906155a2565b80601f0160208091040260200160405190810160405280929190818152602001828054611863906155a2565b80156118b05780601f10611885576101008083540402835291602001916118b0565b820191906000526020600020905b81548152906001019060200180831161189357829003601f168201915b505050505081526020016002820180546118c9906155a2565b80601f01602080910402602001604051908101604052809291908181526020018280546118f5906155a2565b80156119425780601f1061191757610100808354040283529160200191611942565b820191906000526020600020905b81548152906001019060200180831161192557829003601f168201915b5050505050815260200160038201805461195b906155a2565b80601f0160208091040260200160405190810160405280929190818152602001828054611987906155a2565b80156119d45780601f106119a9576101008083540402835291602001916119d4565b820191906000526020600020905b8154815290600101906020018083116119b757829003601f168201915b505050505081526020016004820180546119ed906155a2565b80601f0160208091040260200160405190810160405280929190818152602001828054611a19906155a2565b8015611a665780601f10611a3b57610100808354040283529160200191611a66565b820191906000526020600020905b815481529060010190602001808311611a4957829003601f168201915b50505050508152602001600582015481525050905087565b60018181548110611a8e57600080fd5b90600052602060002090601b0201600091509050806000015490806001015490806002018054611abd906155a2565b80601f0160208091040260200160405190810160405280929190818152602001828054611ae9906155a2565b8015611b365780601f10611b0b57610100808354040283529160200191611b36565b820191906000526020600020905b815481529060010190602001808311611b1957829003601f168201915b50505050509080600301604051806101000160405290816000820154815260200160018201548152602001600282018054611b70906155a2565b80601f0160208091040260200160405190810160405280929190818152602001828054611b9c906155a2565b8015611be95780601f10611bbe57610100808354040283529160200191611be9565b820191906000526020600020905b815481529060010190602001808311611bcc57829003601f168201915b50505050508152602001600382018054611c02906155a2565b80601f0160208091040260200160405190810160405280929190818152602001828054611c2e906155a2565b8015611c7b5780601f10611c5057610100808354040283529160200191611c7b565b820191906000526020600020905b815481529060010190602001808311611c5e57829003601f168201915b505050505081526020016004820154815260200160058201805480602002602001604051908101604052809291908181526020018280548015611cdd57602002820191906000526020600020905b815481526020019060010190808311611cc9575b50505050508152602001600682016040518061012001604052908160008201548152602001600182018054611d11906155a2565b80601f0160208091040260200160405190810160405280929190818152602001828054611d3d906155a2565b8015611d8a5780601f10611d5f57610100808354040283529160200191611d8a565b820191906000526020600020905b815481529060010190602001808311611d6d57829003601f168201915b50505050508152602001600282018054611da3906155a2565b80601f0160208091040260200160405190810160405280929190818152602001828054611dcf906155a2565b8015611e1c5780601f10611df157610100808354040283529160200191611e1c565b820191906000526020600020905b815481529060010190602001808311611dff57829003601f168201915b50505050508152602001600382018054611e35906155a2565b80601f0160208091040260200160405190810160405280929190818152602001828054611e61906155a2565b8015611eae5780601f10611e8357610100808354040283529160200191611eae565b820191906000526020600020905b815481529060010190602001808311611e9157829003601f168201915b50505050508152602001600482018054611ec7906155a2565b80601f0160208091040260200160405190810160405280929190818152602001828054611ef3906155a2565b8015611f405780601f10611f1557610100808354040283529160200191611f40565b820191906000526020600020905b815481529060010190602001808311611f2357829003601f168201915b505050505081526020016005820154815260200160068201548152602001600782018054611f6d906155a2565b80601f0160208091040260200160405190810160405280929190818152602001828054611f99906155a2565b8015611fe65780601f10611fbb57610100808354040283529160200191611fe6565b820191906000526020600020905b815481529060010190602001808311611fc957829003601f168201915b50505050508152602001600882018054611fff906155a2565b80601f016020809104026020016040519081016040528092919081815260200182805461202b906155a2565b80156120785780601f1061204d57610100808354040283529160200191612078565b820191906000526020600020905b81548152906001019060200180831161205b57829003601f168201915b5050505050815250508152602001600f8201604051806060016040529081600082015481526020016001820180546120af906155a2565b80601f01602080910402602001604051908101604052809291908181526020018280546120db906155a2565b80156121285780601f106120fd57610100808354040283529160200191612128565b820191906000526020600020905b81548152906001019060200180831161210b57829003601f168201915b50505050508152602001600282018054612141906155a2565b80601f016020809104026020016040519081016040528092919081815260200182805461216d906155a2565b80156121ba5780601f1061218f576101008083540402835291602001916121ba565b820191906000526020600020905b81548152906001019060200180831161219d57829003601f168201915b5050505050815250508152505090806015016040518060c0016040529081600082015481526020016001820180546121f1906155a2565b80601f016020809104026020016040519081016040528092919081815260200182805461221d906155a2565b801561226a5780601f1061223f5761010080835404028352916020019161226a565b820191906000526020600020905b81548152906001019060200180831161224d57829003601f168201915b505050505081526020016002820154815260200160038201548152602001600482018054612297906155a2565b80601f01602080910402602001604051908101604052809291908181526020018280546122c3906155a2565b80156123105780601f106122e557610100808354040283529160200191612310565b820191906000526020600020905b8154815290600101906020018083116122f357829003601f168201915b505050505081526020016005820180548060200260200160405190810160405280929190818152602001828054801561236857602002820191906000526020600020905b815481526020019060010190808311612354575b505050505081525050905085565b60606001805480602002602001604051908101604052809291908181526020016000905b82821015612cb057838290600052602060002090601b02016040518060a001604052908160008201548152602001600182015481526020016002820180546123e1906155a2565b80601f016020809104026020016040519081016040528092919081815260200182805461240d906155a2565b801561245a5780601f1061242f5761010080835404028352916020019161245a565b820191906000526020600020905b81548152906001019060200180831161243d57829003601f168201915b5050505050815260200160038201604051806101000160405290816000820154815260200160018201548152602001600282018054612498906155a2565b80601f01602080910402602001604051908101604052809291908181526020018280546124c4906155a2565b80156125115780601f106124e657610100808354040283529160200191612511565b820191906000526020600020905b8154815290600101906020018083116124f457829003601f168201915b5050505050815260200160038201805461252a906155a2565b80601f0160208091040260200160405190810160405280929190818152602001828054612556906155a2565b80156125a35780601f10612578576101008083540402835291602001916125a3565b820191906000526020600020905b81548152906001019060200180831161258657829003601f168201915b50505050508152602001600482015481526020016005820180548060200260200160405190810160405280929190818152602001828054801561260557602002820191906000526020600020905b8154815260200190600101908083116125f1575b50505050508152602001600682016040518061012001604052908160008201548152602001600182018054612639906155a2565b80601f0160208091040260200160405190810160405280929190818152602001828054612665906155a2565b80156126b25780601f10612687576101008083540402835291602001916126b2565b820191906000526020600020905b81548152906001019060200180831161269557829003601f168201915b505050505081526020016002820180546126cb906155a2565b80601f01602080910402602001604051908101604052809291908181526020018280546126f7906155a2565b80156127445780601f1061271957610100808354040283529160200191612744565b820191906000526020600020905b81548152906001019060200180831161272757829003601f168201915b5050505050815260200160038201805461275d906155a2565b80601f0160208091040260200160405190810160405280929190818152602001828054612789906155a2565b80156127d65780601f106127ab576101008083540402835291602001916127d6565b820191906000526020600020905b8154815290600101906020018083116127b957829003601f168201915b505050505081526020016004820180546127ef906155a2565b80601f016020809104026020016040519081016040528092919081815260200182805461281b906155a2565b80156128685780601f1061283d57610100808354040283529160200191612868565b820191906000526020600020905b81548152906001019060200180831161284b57829003601f168201915b505050505081526020016005820154815260200160068201548152602001600782018054612895906155a2565b80601f01602080910402602001604051908101604052809291908181526020018280546128c1906155a2565b801561290e5780601f106128e35761010080835404028352916020019161290e565b820191906000526020600020905b8154815290600101906020018083116128f157829003601f168201915b50505050508152602001600882018054612927906155a2565b80601f0160208091040260200160405190810160405280929190818152602001828054612953906155a2565b80156129a05780601f10612975576101008083540402835291602001916129a0565b820191906000526020600020905b81548152906001019060200180831161298357829003601f168201915b5050505050815250508152602001600f8201604051806060016040529081600082015481526020016001820180546129d7906155a2565b80601f0160208091040260200160405190810160405280929190818152602001828054612a03906155a2565b8015612a505780601f10612a2557610100808354040283529160200191612a50565b820191906000526020600020905b815481529060010190602001808311612a3357829003601f168201915b50505050508152602001600282018054612a69906155a2565b80601f0160208091040260200160405190810160405280929190818152602001828054612a95906155a2565b8015612ae25780601f10612ab757610100808354040283529160200191612ae2565b820191906000526020600020905b815481529060010190602001808311612ac557829003601f168201915b505050505081525050815250508152602001601582016040518060c001604052908160008201548152602001600182018054612b1d906155a2565b80601f0160208091040260200160405190810160405280929190818152602001828054612b49906155a2565b8015612b965780601f10612b6b57610100808354040283529160200191612b96565b820191906000526020600020905b815481529060010190602001808311612b7957829003601f168201915b505050505081526020016002820154815260200160038201548152602001600482018054612bc3906155a2565b80601f0160208091040260200160405190810160405280929190818152602001828054612bef906155a2565b8015612c3c5780601f10612c1157610100808354040283529160200191612c3c565b820191906000526020600020905b815481529060010190602001808311612c1f57829003601f168201915b5050505050815260200160058201805480602002602001604051908101604052809291908181526020018280548015612c9457602002820191906000526020600020905b815481526020019060010190808311612c80575b505050505081525050815250508152602001906001019061239a565b50505050905090565b606060005b82811015612f79576001848281518110612cdb57612cda615544565b5b602002602001015190806001815401808255809150506001900390600052602060002090601b020160009091909190915060008201518160000155602082015181600101556040820151816002019080519060200190612d3c9291906138f9565b5060608201518160030160008201518160000155602082015181600101556040820151816002019080519060200190612d769291906138f9565b506060820151816003019080519060200190612d939291906138f9565b506080820151816004015560a0820151816005019080519060200190612dba92919061397f565b5060c082015181600601600082015181600001556020820151816001019080519060200190612dea9291906138f9565b506040820151816002019080519060200190612e079291906138f9565b506060820151816003019080519060200190612e249291906138f9565b506080820151816004019080519060200190612e419291906138f9565b5060a0820151816005015560c0820151816006015560e0820151816007019080519060200190612e729291906138f9565b50610100820151816008019080519060200190612e909291906138f9565b50505060e082015181600f01600082015181600001556020820151816001019080519060200190612ec29291906138f9565b506040820151816002019080519060200190612edf9291906138f9565b5050505050608082015181601501600082015181600001556020820151816001019080519060200190612f139291906138f9565b5060408201518160020155606082015181600301556080820151816004019080519060200190612f449291906138f9565b5060a0820151816005019080519060200190612f6192919061397f565b50505050508080612f7190615603565b915050612cbe565b506001805480602002602001604051908101604052809291908181526020016000905b828210156138b257838290600052602060002090601b02016040518060a00160405290816000820154815260200160018201548152602001600282018054612fe3906155a2565b80601f016020809104026020016040519081016040528092919081815260200182805461300f906155a2565b801561305c5780601f106130315761010080835404028352916020019161305c565b820191906000526020600020905b81548152906001019060200180831161303f57829003601f168201915b505050505081526020016003820160405180610100016040529081600082015481526020016001820154815260200160028201805461309a906155a2565b80601f01602080910402602001604051908101604052809291908181526020018280546130c6906155a2565b80156131135780601f106130e857610100808354040283529160200191613113565b820191906000526020600020905b8154815290600101906020018083116130f657829003601f168201915b5050505050815260200160038201805461312c906155a2565b80601f0160208091040260200160405190810160405280929190818152602001828054613158906155a2565b80156131a55780601f1061317a576101008083540402835291602001916131a5565b820191906000526020600020905b81548152906001019060200180831161318857829003601f168201915b50505050508152602001600482015481526020016005820180548060200260200160405190810160405280929190818152602001828054801561320757602002820191906000526020600020905b8154815260200190600101908083116131f3575b5050505050815260200160068201604051806101200160405290816000820154815260200160018201805461323b906155a2565b80601f0160208091040260200160405190810160405280929190818152602001828054613267906155a2565b80156132b45780601f10613289576101008083540402835291602001916132b4565b820191906000526020600020905b81548152906001019060200180831161329757829003601f168201915b505050505081526020016002820180546132cd906155a2565b80601f01602080910402602001604051908101604052809291908181526020018280546132f9906155a2565b80156133465780601f1061331b57610100808354040283529160200191613346565b820191906000526020600020905b81548152906001019060200180831161332957829003601f168201915b5050505050815260200160038201805461335f906155a2565b80601f016020809104026020016040519081016040528092919081815260200182805461338b906155a2565b80156133d85780601f106133ad576101008083540402835291602001916133d8565b820191906000526020600020905b8154815290600101906020018083116133bb57829003601f168201915b505050505081526020016004820180546133f1906155a2565b80601f016020809104026020016040519081016040528092919081815260200182805461341d906155a2565b801561346a5780601f1061343f5761010080835404028352916020019161346a565b820191906000526020600020905b81548152906001019060200180831161344d57829003601f168201915b505050505081526020016005820154815260200160068201548152602001600782018054613497906155a2565b80601f01602080910402602001604051908101604052809291908181526020018280546134c3906155a2565b80156135105780601f106134e557610100808354040283529160200191613510565b820191906000526020600020905b8154815290600101906020018083116134f357829003601f168201915b50505050508152602001600882018054613529906155a2565b80601f0160208091040260200160405190810160405280929190818152602001828054613555906155a2565b80156135a25780601f10613577576101008083540402835291602001916135a2565b820191906000526020600020905b81548152906001019060200180831161358557829003601f168201915b5050505050815250508152602001600f8201604051806060016040529081600082015481526020016001820180546135d9906155a2565b80601f0160208091040260200160405190810160405280929190818152602001828054613605906155a2565b80156136525780601f1061362757610100808354040283529160200191613652565b820191906000526020600020905b81548152906001019060200180831161363557829003601f168201915b5050505050815260200160028201805461366b906155a2565b80601f0160208091040260200160405190810160405280929190818152602001828054613697906155a2565b80156136e45780601f106136b9576101008083540402835291602001916136e4565b820191906000526020600020905b8154815290600101906020018083116136c757829003601f168201915b505050505081525050815250508152602001601582016040518060c00160405290816000820154815260200160018201805461371f906155a2565b80601f016020809104026020016040519081016040528092919081815260200182805461374b906155a2565b80156137985780601f1061376d57610100808354040283529160200191613798565b820191906000526020600020905b81548152906001019060200180831161377b57829003601f168201915b5050505050815260200160028201548152602001600382015481526020016004820180546137c5906155a2565b80601f01602080910402602001604051908101604052809291908181526020018280546137f1906155a2565b801561383e5780601f106138135761010080835404028352916020019161383e565b820191906000526020600020905b81548152906001019060200180831161382157829003601f168201915b505050505081526020016005820180548060200260200160405190810160405280929190818152602001828054801561389657602002820191906000526020600020905b815481526020019060010190808311613882575b5050505050815250508152505081526020019060010190612f9c565b50505050905092915050565b6040518060a001604052806000815260200160008152602001606081526020016138e66139cc565b81526020016138f3613a1d565b81525090565b828054613905906155a2565b90600052602060002090601f016020900481019282613927576000855561396e565b82601f1061394057805160ff191683800117855561396e565b8280016001018555821561396e579182015b8281111561396d578251825591602001919060010190613952565b5b50905061397b9190613a53565b5090565b8280548282559060005260206000209081019282156139bb579160200282015b828111156139ba57825182559160200191906001019061399f565b5b5090506139c89190613a53565b5090565b604051806101000160405280600081526020016000815260200160608152602001606081526020016000815260200160608152602001613a0a613a70565b8152602001613a17613abc565b81525090565b6040518060c001604052806000815260200160608152602001600081526020016000815260200160608152602001606081525090565b5b80821115613a6c576000816000905550600101613a54565b5090565b6040518061012001604052806000815260200160608152602001606081526020016060815260200160608152602001600081526020016000815260200160608152602001606081525090565b60405180606001604052806000815260200160608152602001606081525090565b6000604051905090565b600080fd5b600080fd5b6000819050919050565b613b0481613af1565b8114613b0f57600080fd5b50565b600081359050613b2181613afb565b92915050565b600060208284031215613b3d57613b3c613ae7565b5b6000613b4b84828501613b12565b91505092915050565b613b5d81613af1565b82525050565b6000819050919050565b613b7681613b63565b82525050565b600081519050919050565b600082825260208201905092915050565b60005b83811015613bb6578082015181840152602081019050613b9b565b83811115613bc5576000848401525b50505050565b6000601f19601f8301169050919050565b6000613be782613b7c565b613bf18185613b87565b9350613c01818560208601613b98565b613c0a81613bcb565b840191505092915050565b600081519050919050565b600082825260208201905092915050565b6000819050602082019050919050565b6000613c4d8383613b54565b60208301905092915050565b6000602082019050919050565b6000613c7182613c15565b613c7b8185613c20565b9350613c8683613c31565b8060005b83811015613cb7578151613c9e8882613c41565b9750613ca983613c59565b925050600181019050613c8a565b5085935050505092915050565b600061012083016000830151613cdd6000860182613b54565b5060208301518482036020860152613cf58282613bdc565b91505060408301518482036040860152613d0f8282613bdc565b91505060608301518482036060860152613d298282613bdc565b91505060808301518482036080860152613d438282613bdc565b91505060a0830151613d5860a0860182613b54565b5060c0830151613d6b60c0860182613b54565b5060e083015184820360e0860152613d838282613bdc565b915050610100830151848203610100860152613d9f8282613bdc565b9150508091505092915050565b6000606083016000830151613dc46000860182613b54565b5060208301518482036020860152613ddc8282613bdc565b91505060408301518482036040860152613df68282613bdc565b9150508091505092915050565b600061010083016000830151613e1c6000860182613b54565b506020830151613e2f6020860182613b54565b5060408301518482036040860152613e478282613bdc565b91505060608301518482036060860152613e618282613bdc565b9150506080830151613e766080860182613b54565b5060a083015184820360a0860152613e8e8282613c66565b91505060c083015184820360c0860152613ea88282613cc4565b91505060e083015184820360e0860152613ec28282613dac565b9150508091505092915050565b600060c083016000830151613ee76000860182613b54565b5060208301518482036020860152613eff8282613bdc565b9150506040830151613f146040860182613b54565b506060830151613f276060860182613b54565b5060808301518482036080860152613f3f8282613bdc565b91505060a083015184820360a0860152613f598282613c66565b9150508091505092915050565b600060a083016000830151613f7e6000860182613b54565b506020830151613f916020860182613b6d565b5060408301518482036040860152613fa98282613bdc565b91505060608301518482036060860152613fc38282613e03565b91505060808301518482036080860152613fdd8282613ecf565b9150508091505092915050565b600060208201905081810360008301526140048184613f66565b905092915050565b600080fd5b7f4e487b7100000000000000000000000000000000000000000000000000000000600052604160045260246000fd5b61404982613bcb565b810181811067ffffffffffffffff8211171561406857614067614011565b5b80604052505050565b600061407b613add565b90506140878282614040565b919050565b600067ffffffffffffffff8211156140a7576140a6614011565b5b602082029050602081019050919050565b600080fd5b600080fd5b600080fd5b600080fd5b600067ffffffffffffffff8211156140e7576140e6614011565b5b6140f082613bcb565b9050602081019050919050565b82818337600083830152505050565b600061411f61411a846140cc565b614071565b90508281526020810184848401111561413b5761413a6140c7565b5b6141468482856140fd565b509392505050565b600082601f8301126141635761416261400c565b5b813561417384826020860161410c565b91505092915050565b600060a08284031215614192576141916140bd565b5b61419c60a0614071565b905060006141ac84828501613b12565b600083015250602082013567ffffffffffffffff8111156141d0576141cf6140c2565b5b6141dc8482850161414e565b602083015250604082013567ffffffffffffffff811115614200576141ff6140c2565b5b61420c8482850161414e565b604083015250606082013567ffffffffffffffff8111156142305761422f6140c2565b5b61423c8482850161414e565b606083015250608082013567ffffffffffffffff8111156142605761425f6140c2565b5b61426c8482850161414e565b60808301525092915050565b600060c0828403121561428e5761428d6140bd565b5b61429860c0614071565b905060006142a884828501613b12565b600083015250602082013567ffffffffffffffff8111156142cc576142cb6140c2565b5b6142d88482850161414e565b602083015250604082013567ffffffffffffffff8111156142fc576142fb6140c2565b5b6143088482850161414e565b604083015250606082013567ffffffffffffffff81111561432c5761432b6140c2565b5b6143388482850161414e565b606083015250608082013567ffffffffffffffff81111561435c5761435b6140c2565b5b6143688482850161414e565b60808301525060a061437c84828501613b12565b60a08301525092915050565b600060e0828403121561439e5761439d6140bd565b5b6143a860e0614071565b905060006143b884828501613b12565b60008301525060206143cc84828501613b12565b602083015250604082013567ffffffffffffffff8111156143f0576143ef6140c2565b5b6143fc8482850161414e565b604083015250606082013567ffffffffffffffff8111156144205761441f6140c2565b5b61442c8482850161414e565b606083015250608061444084828501613b12565b60808301525060a082013567ffffffffffffffff811115614464576144636140c2565b5b6144708482850161417c565b60a08301525060c082013567ffffffffffffffff811115614494576144936140c2565b5b6144a084828501614278565b60c08301525092915050565b60006144bf6144ba8461408c565b614071565b905080838252602082019050602084028301858111156144e2576144e16140b8565b5b835b8181101561452957803567ffffffffffffffff8111156145075761450661400c565b5b8086016145148982614388565b855260208501945050506020810190506144e4565b5050509392505050565b600082601f8301126145485761454761400c565b5b81356145588482602086016144ac565b91505092915050565b6000806040838503121561457857614577613ae7565b5b600061458685828601613b12565b925050602083013567ffffffffffffffff8111156145a7576145a6613aec565b5b6145b385828601614533565b9150509250929050565b600081519050919050565b600082825260208201905092915050565b6000819050602082019050919050565b600060a0830160008301516146016000860182613b54565b50602083015184820360208601526146198282613bdc565b915050604083015184820360408601526146338282613bdc565b9150506060830151848203606086015261464d8282613bdc565b915050608083015184820360808601526146678282613bdc565b9150508091505092915050565b600060c08301600083015161468c6000860182613b54565b50602083015184820360208601526146a48282613bdc565b915050604083015184820360408601526146be8282613bdc565b915050606083015184820360608601526146d88282613bdc565b915050608083015184820360808601526146f28282613bdc565b91505060a083015161470760a0860182613b54565b508091505092915050565b600060e08301600083015161472a6000860182613b54565b50602083015161473d6020860182613b54565b50604083015184820360408601526147558282613bdc565b9150506060830151848203606086015261476f8282613bdc565b91505060808301516147846080860182613b54565b5060a083015184820360a086015261479c82826145e9565b91505060c083015184820360c08601526147b68282614674565b9150508091505092915050565b60006147cf8383614712565b905092915050565b6000602082019050919050565b60006147ef826145bd565b6147f981856145c8565b93508360208202850161480b856145d9565b8060005b85811015614847578484038952815161482885826147c3565b9450614833836147d7565b925060208a0199505060018101905061480f565b50829750879550505050505092915050565b6000602082019050818103600083015261487381846147e4565b905092915050565b61488481613af1565b82525050565b600082825260208201905092915050565b60006148a682613b7c565b6148b0818561488a565b93506148c0818560208601613b98565b6148c981613bcb565b840191505092915050565b600060a0830160008301516148ec6000860182613b54565b50602083015184820360208601526149048282613bdc565b9150506040830151848203604086015261491e8282613bdc565b915050606083015184820360608601526149388282613bdc565b915050608083015184820360808601526149528282613bdc565b9150508091505092915050565b600060c0830160008301516149776000860182613b54565b506020830151848203602086015261498f8282613bdc565b915050604083015184820360408601526149a98282613bdc565b915050606083015184820360608601526149c38282613bdc565b915050608083015184820360808601526149dd8282613bdc565b91505060a08301516149f260a0860182613b54565b508091505092915050565b600060e082019050614a12600083018a61487b565b614a1f602083018961487b565b8181036040830152614a31818861489b565b90508181036060830152614a45818761489b565b9050614a54608083018661487b565b81810360a0830152614a6681856148d4565b905081810360c0830152614a7a818461495f565b905098975050505050505050565b614a9181613b63565b82525050565b600061010083016000830151614ab06000860182613b54565b506020830151614ac36020860182613b54565b5060408301518482036040860152614adb8282613bdc565b91505060608301518482036060860152614af58282613bdc565b9150506080830151614b0a6080860182613b54565b5060a083015184820360a0860152614b228282613c66565b91505060c083015184820360c0860152614b3c8282613cc4565b91505060e083015184820360e0860152614b568282613dac565b9150508091505092915050565b600060c083016000830151614b7b6000860182613b54565b5060208301518482036020860152614b938282613bdc565b9150506040830151614ba86040860182613b54565b506060830151614bbb6060860182613b54565b5060808301518482036080860152614bd38282613bdc565b91505060a083015184820360a0860152614bed8282613c66565b9150508091505092915050565b600060a082019050614c0f600083018861487b565b614c1c6020830187614a88565b8181036040830152614c2e818661489b565b90508181036060830152614c428185614a97565b90508181036080830152614c568184614b63565b90509695505050505050565b600081519050919050565b600082825260208201905092915050565b6000819050602082019050919050565b600060a083016000830151614ca66000860182613b54565b506020830151614cb96020860182613b6d565b5060408301518482036040860152614cd18282613bdc565b91505060608301518482036060860152614ceb8282613e03565b91505060808301518482036080860152614d058282613ecf565b9150508091505092915050565b6000614d1e8383614c8e565b905092915050565b6000602082019050919050565b6000614d3e82614c62565b614d488185614c6d565b935083602082028501614d5a85614c7e565b8060005b85811015614d965784840389528151614d778582614d12565b9450614d8283614d26565b925060208a01995050600181019050614d5e565b50829750879550505050505092915050565b60006020820190508181036000830152614dc28184614d33565b905092915050565b600067ffffffffffffffff821115614de557614de4614011565b5b602082029050602081019050919050565b614dff81613b63565b8114614e0a57600080fd5b50565b600081359050614e1c81614df6565b92915050565b600067ffffffffffffffff821115614e3d57614e3c614011565b5b602082029050602081019050919050565b6000614e61614e5c84614e22565b614071565b90508083825260208201905060208402830185811115614e8457614e836140b8565b5b835b81811015614ead5780614e998882613b12565b845260208401935050602081019050614e86565b5050509392505050565b600082601f830112614ecc57614ecb61400c565b5b8135614edc848260208601614e4e565b91505092915050565b60006101208284031215614efc57614efb6140bd565b5b614f07610120614071565b90506000614f1784828501613b12565b600083015250602082013567ffffffffffffffff811115614f3b57614f3a6140c2565b5b614f478482850161414e565b602083015250604082013567ffffffffffffffff811115614f6b57614f6a6140c2565b5b614f778482850161414e565b604083015250606082013567ffffffffffffffff811115614f9b57614f9a6140c2565b5b614fa78482850161414e565b606083015250608082013567ffffffffffffffff811115614fcb57614fca6140c2565b5b614fd78482850161414e565b60808301525060a0614feb84828501613b12565b60a08301525060c0614fff84828501613b12565b60c08301525060e082013567ffffffffffffffff811115615023576150226140c2565b5b61502f8482850161414e565b60e08301525061010082013567ffffffffffffffff811115615054576150536140c2565b5b6150608482850161414e565b6101008301525092915050565b600060608284031215615083576150826140bd565b5b61508d6060614071565b9050600061509d84828501613b12565b600083015250602082013567ffffffffffffffff8111156150c1576150c06140c2565b5b6150cd8482850161414e565b602083015250604082013567ffffffffffffffff8111156150f1576150f06140c2565b5b6150fd8482850161414e565b60408301525092915050565b600061010082840312156151205761511f6140bd565b5b61512b610100614071565b9050600061513b84828501613b12565b600083015250602061514f84828501613b12565b602083015250604082013567ffffffffffffffff811115615173576151726140c2565b5b61517f8482850161414e565b604083015250606082013567ffffffffffffffff8111156151a3576151a26140c2565b5b6151af8482850161414e565b60608301525060806151c384828501613b12565b60808301525060a082013567ffffffffffffffff8111156151e7576151e66140c2565b5b6151f384828501614eb7565b60a08301525060c082013567ffffffffffffffff811115615217576152166140c2565b5b61522384828501614ee5565b60c08301525060e082013567ffffffffffffffff811115615247576152466140c2565b5b6152538482850161506d565b60e08301525092915050565b600060c08284031215615275576152746140bd565b5b61527f60c0614071565b9050600061528f84828501613b12565b600083015250602082013567ffffffffffffffff8111156152b3576152b26140c2565b5b6152bf8482850161414e565b60208301525060406152d384828501613b12565b60408301525060606152e784828501613b12565b606083015250608082013567ffffffffffffffff81111561530b5761530a6140c2565b5b6153178482850161414e565b60808301525060a082013567ffffffffffffffff81111561533b5761533a6140c2565b5b61534784828501614eb7565b60a08301525092915050565b600060a08284031215615369576153686140bd565b5b61537360a0614071565b9050600061538384828501613b12565b600083015250602061539784828501614e0d565b602083015250604082013567ffffffffffffffff8111156153bb576153ba6140c2565b5b6153c78482850161414e565b604083015250606082013567ffffffffffffffff8111156153eb576153ea6140c2565b5b6153f784828501615109565b606083015250608082013567ffffffffffffffff81111561541b5761541a6140c2565b5b6154278482850161525f565b60808301525092915050565b600061544661544184614dca565b614071565b90508083825260208201905060208402830185811115615469576154686140b8565b5b835b818110156154b057803567ffffffffffffffff81111561548e5761548d61400c565b5b80860161549b8982615353565b8552602085019450505060208101905061546b565b5050509392505050565b600082601f8301126154cf576154ce61400c565b5b81356154df848260208601615433565b91505092915050565b600080604083850312156154ff576154fe613ae7565b5b600083013567ffffffffffffffff81111561551d5761551c613aec565b5b615529858286016154ba565b925050602061553a85828601613b12565b9150509250929050565b7f4e487b7100000000000000000000000000000000000000000000000000000000600052603260045260246000fd5b7f4e487b7100000000000000000000000000000000000000000000000000000000600052602260045260246000fd5b600060028204905060018216806155ba57607f821691505b602082108114156155ce576155cd615573565b5b50919050565b7f4e487b7100000000000000000000000000000000000000000000000000000000600052601160045260246000fd5b600061560e82613af1565b91507fffffffffffffffffffffffffffffffffffffffffffffffffffffffffffffffff821415615641576156406155d4565b5b60018201905091905056fea2646970667358221220c82402e673c28ce4bb573f48ee20d8fa1b3a0308db6a373baa616d292b76f50f64736f6c634300080b0033",
  "immutableReferences": {},
  "source": "// SPDX-License-Identifier: MIT\r\npragma solidity >=0.4.22 <0.9.0;\r\nimport \"./Remplissage.sol\";\r\n\r\ncontract RetraitCol is Remplissage {\r\n    //*********************************************************************************/\r\n    //second app\r\n    //******************************************************************************/\r\n    Operation[] public operationagrs;\r\n    OperationTank0[] public operationTankR;\r\n\r\n    function RetraitOperationTank(\r\n        OperationTank0[] memory operationTank,\r\n        uint256 count\r\n    ) public returns (OperationTank0[] memory tt0) {\r\n        for (uint256 i = 0; i < count; i++) {\r\n            operationTankR.push(operationTank[i]);\r\n        }\r\n        return (operationTankR);\r\n    }\r\n\r\n    //get all operations\r\n\r\n    function getOperationTanks()\r\n        public\r\n        view\r\n        returns (OperationTank0[] memory result)\r\n    {\r\n        return operationTankR;\r\n    }\r\n\r\n    function getOperationbycode(uint256 code, Operation[] memory operation2)\r\n        public\r\n        returns (Operation[] memory operationtwo)\r\n    {\r\n        for (uint256 i = 0; i < operationTankR.length; i++) {\r\n            if (operationTankR[i].operation.code == code) {\r\n                for (uint256 j = 0;j < operationTankR[i].tank.codeTank.length;j++)\r\n                   {\r\n                    for (uint256 f = 0; f < operation2.length; f++) {\r\n                        if (\r\n                            operation2[f].code ==\r\n                            operationTankR[i].tank.codeTank[j]\r\n                        ) {\r\n                            operationagrs.push(operation2[f]);\r\n                        }\r\n                    }\r\n                }\r\n            }\r\n        }\r\n        return operationagrs;\r\n    }\r\n\r\n    function getOperationFromAgrsbycode(uint256 code)\r\n        public\r\n        view\r\n        returns (OperationTank0 memory operation)\r\n    {\r\n        for (uint256 i = 0; i < operationTankR.length; i++) {\r\n            if (operationTankR[i].operation.code == code) {\r\n                return operationTankR[i];\r\n            }\r\n        }\r\n    }\r\n}\r\n",
  "sourcePath": "C:\\Users\\ASUS\\Desktop\\pfe\\PFE_Project(app4)\\PFE-FrontEnd\\contracts\\RetraitCol.sol",
  "compiler": {
    "name": "solc",
    "version": "0.8.11+commit.d7f03943.Emscripten.clang"
  },
  "schemaVersion": "3.4.5",
  "updatedAt": "2022-05-28T00:44:01.750Z",
  "networkType": "ethereum",
  "devdoc": {
    "kind": "dev",
    "methods": {},
    "version": 1
  },
  "userdoc": {
    "kind": "user",
    "methods": {},
    "version": 1
  }
}