{
  "contractName": "Transformation",
  "abi": [
    {
      "inputs": [
        {
          "internalType": "uint256",
          "name": "",
          "type": "uint256"
        }
      ],
      "name": "operationTankR",
      "outputs": [
        {
          "internalType": "uint256",
          "name": "idOperation",
          "type": "uint256"
        },
        {
          "internalType": "uint256",
          "name": "poidsLait",
          "type": "uint256"
        },
        {
          "internalType": "string",
          "name": "dateOperation",
          "type": "string"
        },
        {
          "internalType": "string",
          "name": "typeOp",
          "type": "string"
        },
        {
          "internalType": "uint256",
          "name": "code",
          "type": "uint256"
        },
        {
          "internalType": "uint256",
          "name": "qtePrise",
          "type": "uint256"
        },
        {
          "components": [
            {
              "internalType": "uint256",
              "name": "idTank",
              "type": "uint256"
            },
            {
              "internalType": "string",
              "name": "matricule",
              "type": "string"
            },
            {
              "internalType": "uint256",
              "name": "poidVide",
              "type": "uint256"
            },
            {
              "internalType": "uint256",
              "name": "poidActuel",
              "type": "uint256"
            },
            {
              "internalType": "string",
              "name": "etat",
              "type": "string"
            },
            {
              "internalType": "uint256[]",
              "name": "codeTank",
              "type": "uint256[]"
            }
          ],
          "internalType": "struct Remplissage.Tank",
          "name": "tank",
          "type": "tuple"
        },
        {
          "components": [
            {
              "internalType": "uint256",
              "name": "idProduit",
              "type": "uint256"
            },
            {
              "internalType": "string",
              "name": "intitule",
              "type": "string"
            },
            {
              "internalType": "string",
              "name": "libelle",
              "type": "string"
            },
            {
              "internalType": "uint256",
              "name": "qte",
              "type": "uint256"
            }
          ],
          "internalType": "struct Remplissage.Produit",
          "name": "produit",
          "type": "tuple"
        }
      ],
      "stateMutability": "view",
      "type": "function",
      "constant": true
    },
    {
      "inputs": [
        {
          "components": [
            {
              "internalType": "uint256",
              "name": "idOperation",
              "type": "uint256"
            },
            {
              "internalType": "uint256",
              "name": "poidsLait",
              "type": "uint256"
            },
            {
              "internalType": "string",
              "name": "dateOperation",
              "type": "string"
            },
            {
              "internalType": "string",
              "name": "typeOp",
              "type": "string"
            },
            {
              "internalType": "uint256",
              "name": "code",
              "type": "uint256"
            },
            {
              "internalType": "uint256",
              "name": "qtePrise",
              "type": "uint256"
            },
            {
              "components": [
                {
                  "internalType": "uint256",
                  "name": "idTank",
                  "type": "uint256"
                },
                {
                  "internalType": "string",
                  "name": "matricule",
                  "type": "string"
                },
                {
                  "internalType": "uint256",
                  "name": "poidVide",
                  "type": "uint256"
                },
                {
                  "internalType": "uint256",
                  "name": "poidActuel",
                  "type": "uint256"
                },
                {
                  "internalType": "string",
                  "name": "etat",
                  "type": "string"
                },
                {
                  "internalType": "uint256[]",
                  "name": "codeTank",
                  "type": "uint256[]"
                }
              ],
              "internalType": "struct Remplissage.Tank",
              "name": "tank",
              "type": "tuple"
            },
            {
              "components": [
                {
                  "internalType": "uint256",
                  "name": "idProduit",
                  "type": "uint256"
                },
                {
                  "internalType": "string",
                  "name": "intitule",
                  "type": "string"
                },
                {
                  "internalType": "string",
                  "name": "libelle",
                  "type": "string"
                },
                {
                  "internalType": "uint256",
                  "name": "qte",
                  "type": "uint256"
                }
              ],
              "internalType": "struct Remplissage.Produit",
              "name": "produit",
              "type": "tuple"
            },
            {
              "internalType": "uint256[]",
              "name": "codeRemplissage",
              "type": "uint256[]"
            }
          ],
          "internalType": "struct Remplissage.Operation04",
          "name": "operationTank",
          "type": "tuple"
        }
      ],
      "name": "RetraitOperationTank",
      "outputs": [
        {
          "components": [
            {
              "internalType": "uint256",
              "name": "idOperation",
              "type": "uint256"
            },
            {
              "internalType": "uint256",
              "name": "poidsLait",
              "type": "uint256"
            },
            {
              "internalType": "string",
              "name": "dateOperation",
              "type": "string"
            },
            {
              "internalType": "string",
              "name": "typeOp",
              "type": "string"
            },
            {
              "internalType": "uint256",
              "name": "code",
              "type": "uint256"
            },
            {
              "internalType": "uint256",
              "name": "qtePrise",
              "type": "uint256"
            },
            {
              "components": [
                {
                  "internalType": "uint256",
                  "name": "idTank",
                  "type": "uint256"
                },
                {
                  "internalType": "string",
                  "name": "matricule",
                  "type": "string"
                },
                {
                  "internalType": "uint256",
                  "name": "poidVide",
                  "type": "uint256"
                },
                {
                  "internalType": "uint256",
                  "name": "poidActuel",
                  "type": "uint256"
                },
                {
                  "internalType": "string",
                  "name": "etat",
                  "type": "string"
                },
                {
                  "internalType": "uint256[]",
                  "name": "codeTank",
                  "type": "uint256[]"
                }
              ],
              "internalType": "struct Remplissage.Tank",
              "name": "tank",
              "type": "tuple"
            },
            {
              "components": [
                {
                  "internalType": "uint256",
                  "name": "idProduit",
                  "type": "uint256"
                },
                {
                  "internalType": "string",
                  "name": "intitule",
                  "type": "string"
                },
                {
                  "internalType": "string",
                  "name": "libelle",
                  "type": "string"
                },
                {
                  "internalType": "uint256",
                  "name": "qte",
                  "type": "uint256"
                }
              ],
              "internalType": "struct Remplissage.Produit",
              "name": "produit",
              "type": "tuple"
            },
            {
              "internalType": "uint256[]",
              "name": "codeRemplissage",
              "type": "uint256[]"
            }
          ],
          "internalType": "struct Remplissage.Operation04[]",
          "name": "tt0",
          "type": "tuple[]"
        }
      ],
      "stateMutability": "nonpayable",
      "type": "function"
    },
    {
      "inputs": [],
      "name": "getOperationTanks",
      "outputs": [
        {
          "components": [
            {
              "internalType": "uint256",
              "name": "idOperation",
              "type": "uint256"
            },
            {
              "internalType": "uint256",
              "name": "poidsLait",
              "type": "uint256"
            },
            {
              "internalType": "string",
              "name": "dateOperation",
              "type": "string"
            },
            {
              "internalType": "string",
              "name": "typeOp",
              "type": "string"
            },
            {
              "internalType": "uint256",
              "name": "code",
              "type": "uint256"
            },
            {
              "internalType": "uint256",
              "name": "qtePrise",
              "type": "uint256"
            },
            {
              "components": [
                {
                  "internalType": "uint256",
                  "name": "idTank",
                  "type": "uint256"
                },
                {
                  "internalType": "string",
                  "name": "matricule",
                  "type": "string"
                },
                {
                  "internalType": "uint256",
                  "name": "poidVide",
                  "type": "uint256"
                },
                {
                  "internalType": "uint256",
                  "name": "poidActuel",
                  "type": "uint256"
                },
                {
                  "internalType": "string",
                  "name": "etat",
                  "type": "string"
                },
                {
                  "internalType": "uint256[]",
                  "name": "codeTank",
                  "type": "uint256[]"
                }
              ],
              "internalType": "struct Remplissage.Tank",
              "name": "tank",
              "type": "tuple"
            },
            {
              "components": [
                {
                  "internalType": "uint256",
                  "name": "idProduit",
                  "type": "uint256"
                },
                {
                  "internalType": "string",
                  "name": "intitule",
                  "type": "string"
                },
                {
                  "internalType": "string",
                  "name": "libelle",
                  "type": "string"
                },
                {
                  "internalType": "uint256",
                  "name": "qte",
                  "type": "uint256"
                }
              ],
              "internalType": "struct Remplissage.Produit",
              "name": "produit",
              "type": "tuple"
            },
            {
              "internalType": "uint256[]",
              "name": "codeRemplissage",
              "type": "uint256[]"
            }
          ],
          "internalType": "struct Remplissage.Operation04[]",
          "name": "result",
          "type": "tuple[]"
        }
      ],
      "stateMutability": "view",
      "type": "function",
      "constant": true
    },
    {
      "inputs": [
        {
          "internalType": "uint256",
          "name": "code",
          "type": "uint256"
        }
      ],
      "name": "getOperationusinebycode",
      "outputs": [
        {
          "components": [
            {
              "internalType": "uint256",
              "name": "idOperation",
              "type": "uint256"
            },
            {
              "internalType": "uint256",
              "name": "poidsLait",
              "type": "uint256"
            },
            {
              "internalType": "string",
              "name": "dateOperation",
              "type": "string"
            },
            {
              "internalType": "string",
              "name": "typeOp",
              "type": "string"
            },
            {
              "internalType": "uint256",
              "name": "code",
              "type": "uint256"
            },
            {
              "internalType": "uint256",
              "name": "qtePrise",
              "type": "uint256"
            },
            {
              "components": [
                {
                  "internalType": "uint256",
                  "name": "idTank",
                  "type": "uint256"
                },
                {
                  "internalType": "string",
                  "name": "matricule",
                  "type": "string"
                },
                {
                  "internalType": "uint256",
                  "name": "poidVide",
                  "type": "uint256"
                },
                {
                  "internalType": "uint256",
                  "name": "poidActuel",
                  "type": "uint256"
                },
                {
                  "internalType": "string",
                  "name": "etat",
                  "type": "string"
                },
                {
                  "internalType": "uint256[]",
                  "name": "codeTank",
                  "type": "uint256[]"
                }
              ],
              "internalType": "struct Remplissage.Tank",
              "name": "tank",
              "type": "tuple"
            },
            {
              "components": [
                {
                  "internalType": "uint256",
                  "name": "idProduit",
                  "type": "uint256"
                },
                {
                  "internalType": "string",
                  "name": "intitule",
                  "type": "string"
                },
                {
                  "internalType": "string",
                  "name": "libelle",
                  "type": "string"
                },
                {
                  "internalType": "uint256",
                  "name": "qte",
                  "type": "uint256"
                }
              ],
              "internalType": "struct Remplissage.Produit",
              "name": "produit",
              "type": "tuple"
            },
            {
              "internalType": "uint256[]",
              "name": "codeRemplissage",
              "type": "uint256[]"
            }
          ],
          "internalType": "struct Remplissage.Operation04",
          "name": "operation",
          "type": "tuple"
        }
      ],
      "stateMutability": "view",
      "type": "function",
      "constant": true
    }
  ],
  "bytecode": "0x608060405234801561001057600080fd5b506125db806100206000396000f3fe608060405234801561001057600080fd5b506004361061004c5760003560e01c806315608173146100515780635e053c5a14610081578063a96fe5f0146100b1578063c9c28e0f146100e8575b600080fd5b61006b600480360381019061006691906117fc565b610106565b6040516100789190611b62565b60405180910390f35b61009b6004803603810190610096919061209b565b610639565b6040516100a89190612287565b60405180910390f35b6100cb60048036038101906100c691906117fc565b610cc0565b6040516100df989796959493929190612403565b60405180910390f35b6100f061110e565b6040516100fd9190612287565b60405180910390f35b61010e61160c565b60005b6000805490508110156106325782600082815481106101335761013261249d565b5b906000526020600020906011020160040154141561061f576000818154811061015f5761015e61249d565b5b906000526020600020906011020160405180610120016040529081600082015481526020016001820154815260200160028201805461019d906124fb565b80601f01602080910402602001604051908101604052809291908181526020018280546101c9906124fb565b80156102165780601f106101eb57610100808354040283529160200191610216565b820191906000526020600020905b8154815290600101906020018083116101f957829003601f168201915b5050505050815260200160038201805461022f906124fb565b80601f016020809104026020016040519081016040528092919081815260200182805461025b906124fb565b80156102a85780601f1061027d576101008083540402835291602001916102a8565b820191906000526020600020905b81548152906001019060200180831161028b57829003601f168201915b505050505081526020016004820154815260200160058201548152602001600682016040518060c0016040529081600082015481526020016001820180546102ef906124fb565b80601f016020809104026020016040519081016040528092919081815260200182805461031b906124fb565b80156103685780601f1061033d57610100808354040283529160200191610368565b820191906000526020600020905b81548152906001019060200180831161034b57829003601f168201915b505050505081526020016002820154815260200160038201548152602001600482018054610395906124fb565b80601f01602080910402602001604051908101604052809291908181526020018280546103c1906124fb565b801561040e5780601f106103e35761010080835404028352916020019161040e565b820191906000526020600020905b8154815290600101906020018083116103f157829003601f168201915b505050505081526020016005820180548060200260200160405190810160405280929190818152602001828054801561046657602002820191906000526020600020905b815481526020019060010190808311610452575b5050505050815250508152602001600c82016040518060800160405290816000820154815260200160018201805461049d906124fb565b80601f01602080910402602001604051908101604052809291908181526020018280546104c9906124fb565b80156105165780601f106104eb57610100808354040283529160200191610516565b820191906000526020600020905b8154815290600101906020018083116104f957829003601f168201915b5050505050815260200160028201805461052f906124fb565b80601f016020809104026020016040519081016040528092919081815260200182805461055b906124fb565b80156105a85780601f1061057d576101008083540402835291602001916105a8565b820191906000526020600020905b81548152906001019060200180831161058b57829003601f168201915b5050505050815260200160038201548152505081526020016010820180548060200260200160405190810160405280929190818152602001828054801561060e57602002820191906000526020600020905b8154815260200190600101908083116105fa575b505050505081525050915050610634565b808061062a9061255c565b915050610111565b505b919050565b6060600082908060018154018082558091505060019003906000526020600020906011020160009091909190915060008201518160000155602082015181600101556040820151816002019080519060200190610697929190611664565b5060608201518160030190805190602001906106b4929190611664565b506080820151816004015560a0820151816005015560c0820151816006016000820151816000015560208201518160010190805190602001906106f8929190611664565b5060408201518160020155606082015181600301556080820151816004019080519060200190610729929190611664565b5060a08201518160050190805190602001906107469291906116ea565b50505060e082015181600c01600082015181600001556020820151816001019080519060200190610778929190611664565b506040820151816002019080519060200190610795929190611664565b506060820151816003015550506101008201518160100190805190602001906107bf9291906116ea565b5050506000805480602002602001604051908101604052809291908181526020016000905b82821015610cb5578382906000526020600020906011020160405180610120016040529081600082015481526020016001820154815260200160028201805461082c906124fb565b80601f0160208091040260200160405190810160405280929190818152602001828054610858906124fb565b80156108a55780601f1061087a576101008083540402835291602001916108a5565b820191906000526020600020905b81548152906001019060200180831161088857829003601f168201915b505050505081526020016003820180546108be906124fb565b80601f01602080910402602001604051908101604052809291908181526020018280546108ea906124fb565b80156109375780601f1061090c57610100808354040283529160200191610937565b820191906000526020600020905b81548152906001019060200180831161091a57829003601f168201915b505050505081526020016004820154815260200160058201548152602001600682016040518060c00160405290816000820154815260200160018201805461097e906124fb565b80601f01602080910402602001604051908101604052809291908181526020018280546109aa906124fb565b80156109f75780601f106109cc576101008083540402835291602001916109f7565b820191906000526020600020905b8154815290600101906020018083116109da57829003601f168201915b505050505081526020016002820154815260200160038201548152602001600482018054610a24906124fb565b80601f0160208091040260200160405190810160405280929190818152602001828054610a50906124fb565b8015610a9d5780601f10610a7257610100808354040283529160200191610a9d565b820191906000526020600020905b815481529060010190602001808311610a8057829003601f168201915b5050505050815260200160058201805480602002602001604051908101604052809291908181526020018280548015610af557602002820191906000526020600020905b815481526020019060010190808311610ae1575b5050505050815250508152602001600c820160405180608001604052908160008201548152602001600182018054610b2c906124fb565b80601f0160208091040260200160405190810160405280929190818152602001828054610b58906124fb565b8015610ba55780601f10610b7a57610100808354040283529160200191610ba5565b820191906000526020600020905b815481529060010190602001808311610b8857829003601f168201915b50505050508152602001600282018054610bbe906124fb565b80601f0160208091040260200160405190810160405280929190818152602001828054610bea906124fb565b8015610c375780601f10610c0c57610100808354040283529160200191610c37565b820191906000526020600020905b815481529060010190602001808311610c1a57829003601f168201915b50505050508152602001600382015481525050815260200160108201805480602002602001604051908101604052809291908181526020018280548015610c9d57602002820191906000526020600020905b815481526020019060010190808311610c89575b505050505081525050815260200190600101906107e4565b505050509050919050565b60008181548110610cd057600080fd5b9060005260206000209060110201600091509050806000015490806001015490806002018054610cff906124fb565b80601f0160208091040260200160405190810160405280929190818152602001828054610d2b906124fb565b8015610d785780601f10610d4d57610100808354040283529160200191610d78565b820191906000526020600020905b815481529060010190602001808311610d5b57829003601f168201915b505050505090806003018054610d8d906124fb565b80601f0160208091040260200160405190810160405280929190818152602001828054610db9906124fb565b8015610e065780601f10610ddb57610100808354040283529160200191610e06565b820191906000526020600020905b815481529060010190602001808311610de957829003601f168201915b505050505090806004015490806005015490806006016040518060c001604052908160008201548152602001600182018054610e41906124fb565b80601f0160208091040260200160405190810160405280929190818152602001828054610e6d906124fb565b8015610eba5780601f10610e8f57610100808354040283529160200191610eba565b820191906000526020600020905b815481529060010190602001808311610e9d57829003601f168201915b505050505081526020016002820154815260200160038201548152602001600482018054610ee7906124fb565b80601f0160208091040260200160405190810160405280929190818152602001828054610f13906124fb565b8015610f605780601f10610f3557610100808354040283529160200191610f60565b820191906000526020600020905b815481529060010190602001808311610f4357829003601f168201915b5050505050815260200160058201805480602002602001604051908101604052809291908181526020018280548015610fb857602002820191906000526020600020905b815481526020019060010190808311610fa4575b5050505050815250509080600c0160405180608001604052908160008201548152602001600182018054610feb906124fb565b80601f0160208091040260200160405190810160405280929190818152602001828054611017906124fb565b80156110645780601f1061103957610100808354040283529160200191611064565b820191906000526020600020905b81548152906001019060200180831161104757829003601f168201915b5050505050815260200160028201805461107d906124fb565b80601f01602080910402602001604051908101604052809291908181526020018280546110a9906124fb565b80156110f65780601f106110cb576101008083540402835291602001916110f6565b820191906000526020600020905b8154815290600101906020018083116110d957829003601f168201915b50505050508152602001600382015481525050905088565b60606000805480602002602001604051908101604052809291908181526020016000905b82821015611603578382906000526020600020906011020160405180610120016040529081600082015481526020016001820154815260200160028201805461117a906124fb565b80601f01602080910402602001604051908101604052809291908181526020018280546111a6906124fb565b80156111f35780601f106111c8576101008083540402835291602001916111f3565b820191906000526020600020905b8154815290600101906020018083116111d657829003601f168201915b5050505050815260200160038201805461120c906124fb565b80601f0160208091040260200160405190810160405280929190818152602001828054611238906124fb565b80156112855780601f1061125a57610100808354040283529160200191611285565b820191906000526020600020905b81548152906001019060200180831161126857829003601f168201915b505050505081526020016004820154815260200160058201548152602001600682016040518060c0016040529081600082015481526020016001820180546112cc906124fb565b80601f01602080910402602001604051908101604052809291908181526020018280546112f8906124fb565b80156113455780601f1061131a57610100808354040283529160200191611345565b820191906000526020600020905b81548152906001019060200180831161132857829003601f168201915b505050505081526020016002820154815260200160038201548152602001600482018054611372906124fb565b80601f016020809104026020016040519081016040528092919081815260200182805461139e906124fb565b80156113eb5780601f106113c0576101008083540402835291602001916113eb565b820191906000526020600020905b8154815290600101906020018083116113ce57829003601f168201915b505050505081526020016005820180548060200260200160405190810160405280929190818152602001828054801561144357602002820191906000526020600020905b81548152602001906001019080831161142f575b5050505050815250508152602001600c82016040518060800160405290816000820154815260200160018201805461147a906124fb565b80601f01602080910402602001604051908101604052809291908181526020018280546114a6906124fb565b80156114f35780601f106114c8576101008083540402835291602001916114f3565b820191906000526020600020905b8154815290600101906020018083116114d657829003601f168201915b5050505050815260200160028201805461150c906124fb565b80601f0160208091040260200160405190810160405280929190818152602001828054611538906124fb565b80156115855780601f1061155a57610100808354040283529160200191611585565b820191906000526020600020905b81548152906001019060200180831161156857829003601f168201915b505050505081526020016003820154815250508152602001601082018054806020026020016040519081016040528092919081815260200182805480156115eb57602002820191906000526020600020905b8154815260200190600101908083116115d7575b50505050508152505081526020019060010190611132565b50505050905090565b60405180610120016040528060008152602001600081526020016060815260200160608152602001600081526020016000815260200161164a611737565b815260200161165761176d565b8152602001606081525090565b828054611670906124fb565b90600052602060002090601f01602090048101928261169257600085556116d9565b82601f106116ab57805160ff19168380011785556116d9565b828001600101855582156116d9579182015b828111156116d85782518255916020019190600101906116bd565b5b5090506116e69190611795565b5090565b828054828255906000526020600020908101928215611726579160200282015b8281111561172557825182559160200191906001019061170a565b5b5090506117339190611795565b5090565b6040518060c001604052806000815260200160608152602001600081526020016000815260200160608152602001606081525090565b6040518060800160405280600081526020016060815260200160608152602001600081525090565b5b808211156117ae576000816000905550600101611796565b5090565b6000604051905090565b600080fd5b600080fd5b6000819050919050565b6117d9816117c6565b81146117e457600080fd5b50565b6000813590506117f6816117d0565b92915050565b600060208284031215611812576118116117bc565b5b6000611820848285016117e7565b91505092915050565b611832816117c6565b82525050565b600081519050919050565b600082825260208201905092915050565b60005b83811015611872578082015181840152602081019050611857565b83811115611881576000848401525b50505050565b6000601f19601f8301169050919050565b60006118a382611838565b6118ad8185611843565b93506118bd818560208601611854565b6118c681611887565b840191505092915050565b600081519050919050565b600082825260208201905092915050565b6000819050602082019050919050565b60006119098383611829565b60208301905092915050565b6000602082019050919050565b600061192d826118d1565b61193781856118dc565b9350611942836118ed565b8060005b8381101561197357815161195a88826118fd565b975061196583611915565b925050600181019050611946565b5085935050505092915050565b600060c0830160008301516119986000860182611829565b50602083015184820360208601526119b08282611898565b91505060408301516119c56040860182611829565b5060608301516119d86060860182611829565b50608083015184820360808601526119f08282611898565b91505060a083015184820360a0860152611a0a8282611922565b9150508091505092915050565b6000608083016000830151611a2f6000860182611829565b5060208301518482036020860152611a478282611898565b91505060408301518482036040860152611a618282611898565b9150506060830151611a766060860182611829565b508091505092915050565b600061012083016000830151611a9a6000860182611829565b506020830151611aad6020860182611829565b5060408301518482036040860152611ac58282611898565b91505060608301518482036060860152611adf8282611898565b9150506080830151611af46080860182611829565b5060a0830151611b0760a0860182611829565b5060c083015184820360c0860152611b1f8282611980565b91505060e083015184820360e0860152611b398282611a17565b915050610100830151848203610100860152611b558282611922565b9150508091505092915050565b60006020820190508181036000830152611b7c8184611a81565b905092915050565b600080fd5b7f4e487b7100000000000000000000000000000000000000000000000000000000600052604160045260246000fd5b611bc182611887565b810181811067ffffffffffffffff82111715611be057611bdf611b89565b5b80604052505050565b6000611bf36117b2565b9050611bff8282611bb8565b919050565b600080fd5b600080fd5b600080fd5b600067ffffffffffffffff821115611c2e57611c2d611b89565b5b611c3782611887565b9050602081019050919050565b82818337600083830152505050565b6000611c66611c6184611c13565b611be9565b905082815260208101848484011115611c8257611c81611c0e565b5b611c8d848285611c44565b509392505050565b600082601f830112611caa57611ca9611c09565b5b8135611cba848260208601611c53565b91505092915050565b600067ffffffffffffffff821115611cde57611cdd611b89565b5b602082029050602081019050919050565b600080fd5b6000611d07611d0284611cc3565b611be9565b90508083825260208201905060208402830185811115611d2a57611d29611cef565b5b835b81811015611d535780611d3f88826117e7565b845260208401935050602081019050611d2c565b5050509392505050565b600082601f830112611d7257611d71611c09565b5b8135611d82848260208601611cf4565b91505092915050565b600060c08284031215611da157611da0611b84565b5b611dab60c0611be9565b90506000611dbb848285016117e7565b600083015250602082013567ffffffffffffffff811115611ddf57611dde611c04565b5b611deb84828501611c95565b6020830152506040611dff848285016117e7565b6040830152506060611e13848285016117e7565b606083015250608082013567ffffffffffffffff811115611e3757611e36611c04565b5b611e4384828501611c95565b60808301525060a082013567ffffffffffffffff811115611e6757611e66611c04565b5b611e7384828501611d5d565b60a08301525092915050565b600060808284031215611e9557611e94611b84565b5b611e9f6080611be9565b90506000611eaf848285016117e7565b600083015250602082013567ffffffffffffffff811115611ed357611ed2611c04565b5b611edf84828501611c95565b602083015250604082013567ffffffffffffffff811115611f0357611f02611c04565b5b611f0f84828501611c95565b6040830152506060611f23848285016117e7565b60608301525092915050565b60006101208284031215611f4657611f45611b84565b5b611f51610120611be9565b90506000611f61848285016117e7565b6000830152506020611f75848285016117e7565b602083015250604082013567ffffffffffffffff811115611f9957611f98611c04565b5b611fa584828501611c95565b604083015250606082013567ffffffffffffffff811115611fc957611fc8611c04565b5b611fd584828501611c95565b6060830152506080611fe9848285016117e7565b60808301525060a0611ffd848285016117e7565b60a08301525060c082013567ffffffffffffffff81111561202157612020611c04565b5b61202d84828501611d8b565b60c08301525060e082013567ffffffffffffffff81111561205157612050611c04565b5b61205d84828501611e7f565b60e08301525061010082013567ffffffffffffffff81111561208257612081611c04565b5b61208e84828501611d5d565b6101008301525092915050565b6000602082840312156120b1576120b06117bc565b5b600082013567ffffffffffffffff8111156120cf576120ce6117c1565b5b6120db84828501611f2f565b91505092915050565b600081519050919050565b600082825260208201905092915050565b6000819050602082019050919050565b6000610120830160008301516121296000860182611829565b50602083015161213c6020860182611829565b50604083015184820360408601526121548282611898565b9150506060830151848203606086015261216e8282611898565b91505060808301516121836080860182611829565b5060a083015161219660a0860182611829565b5060c083015184820360c08601526121ae8282611980565b91505060e083015184820360e08601526121c88282611a17565b9150506101008301518482036101008601526121e48282611922565b9150508091505092915050565b60006121fd8383612110565b905092915050565b6000602082019050919050565b600061221d826120e4565b61222781856120ef565b93508360208202850161223985612100565b8060005b85811015612275578484038952815161225685826121f1565b945061226183612205565b925060208a0199505060018101905061223d565b50829750879550505050505092915050565b600060208201905081810360008301526122a18184612212565b905092915050565b6122b2816117c6565b82525050565b600082825260208201905092915050565b60006122d482611838565b6122de81856122b8565b93506122ee818560208601611854565b6122f781611887565b840191505092915050565b600060c08301600083015161231a6000860182611829565b50602083015184820360208601526123328282611898565b91505060408301516123476040860182611829565b50606083015161235a6060860182611829565b50608083015184820360808601526123728282611898565b91505060a083015184820360a086015261238c8282611922565b9150508091505092915050565b60006080830160008301516123b16000860182611829565b50602083015184820360208601526123c98282611898565b915050604083015184820360408601526123e38282611898565b91505060608301516123f86060860182611829565b508091505092915050565b600061010082019050612419600083018b6122a9565b612426602083018a6122a9565b818103604083015261243881896122c9565b9050818103606083015261244c81886122c9565b905061245b60808301876122a9565b61246860a08301866122a9565b81810360c083015261247a8185612302565b905081810360e083015261248e8184612399565b90509998505050505050505050565b7f4e487b7100000000000000000000000000000000000000000000000000000000600052603260045260246000fd5b7f4e487b7100000000000000000000000000000000000000000000000000000000600052602260045260246000fd5b6000600282049050600182168061251357607f821691505b60208210811415612527576125266124cc565b5b50919050565b7f4e487b7100000000000000000000000000000000000000000000000000000000600052601160045260246000fd5b6000612567826117c6565b91507fffffffffffffffffffffffffffffffffffffffffffffffffffffffffffffffff82141561259a5761259961252d565b5b60018201905091905056fea2646970667358221220f9a28709e7ec5a796a561c4365c90c10876da183af7ea31d401c3032a03401c964736f6c634300080b0033",
  "immutableReferences": {},
  "source": "// SPDX-License-Identifier: MIT\r\npragma solidity >=0.4.22 <0.9.0;\r\nimport \"./Remplissage.sol\";\r\n\r\ncontract Transformation is Remplissage {\r\n    Operation04[] public operationTankR;\r\n\r\n    function RetraitOperationTank(Operation04 memory operationTank)\r\n        public\r\n        returns (Operation04[] memory tt0)\r\n    {\r\n        operationTankR.push(operationTank);\r\n\r\n        return (operationTankR);\r\n    }\r\n\r\n    //get all operations\r\n\r\n    function getOperationTanks()\r\n        public\r\n        view\r\n        returns (Operation04[] memory result)\r\n    {\r\n        return operationTankR;\r\n    }\r\n\r\n    function getOperationusinebycode(uint256 code)\r\n        public\r\n        view\r\n        returns (Operation04 memory operation)\r\n    {\r\n        for (uint256 i = 0; i < operationTankR.length; i++) {\r\n            if (operationTankR[i].code == code) {\r\n                return operationTankR[i];\r\n            }\r\n        }\r\n    }\r\n}\r\n",
  "sourcePath": "C:\\Users\\ASUS\\Desktop\\pfe\\PFE_Project(app4)\\PFE-FrontEnd\\contracts\\Transformation.sol",
  "compiler": {
    "name": "solc",
    "version": "0.8.11+commit.d7f03943.Emscripten.clang"
  },
  "schemaVersion": "3.4.5",
  "updatedAt": "2022-06-09T19:37:20.154Z",
  "networkType": "ethereum",
  "devdoc": {
    "kind": "dev",
    "methods": {},
    "version": 1
  },
  "userdoc": {
    "kind": "user",
    "methods": {},
    "version": 1
  }
}